:100000000C945A000C9481000C9481000C94810093
:100010000C9481000C9481000C9481000C9481005C
:100020000C9481000C943B110C9481000C944C11A5
:100030000C9481000C9481000C9481000C9481003C
:100040000C942F110C9481000C946D010C941C01E4
:100050000C9481000C9481000C9481000C9481001C
:100060000C9481000C948100F506BA040E05DF049F
:100070001B051E05210579057905B305B605B905EA
:10008000BB05BD05BF057806EE066606EE068E06C4
:100090009906A406AF06C406D906EE06EE06830648
:1000A000EE06EE067106EE06EE06EE06EE06DC0540
:1000B0000A063806EDE8F6E085EC98E001C0819389
:1000C000EF3FF907E0F3D9F311241FBECFEFD8E0DB
:1000D000DEBFCDBF11E0A0E0B1E0EEE8F1E302C089
:1000E00005900D92A230B107D9F726E0A2E0B1E069
:1000F00001C01D92AD38B207E1F70E9483000C9455
:10010000C5180C94000078940E94B2000E949802D6
:100110000E94990E0E94D1100E94B10E0E94DD0E25
:100120000E949B0480E090E00895109203011092D9
:1001300002010895909109019F5F903809F490E0C1
:10014000209108019217E1F3E0910901F0E0E35FEB
:10015000F94F8083909309018091C1008062809360
:10016000C10008951092C50080E18093C400E0ECC6
:10017000F0E080818D7F8083E1ECF0E08081806120
:1001800080838081886080838081806880838EE71F
:100190000C949A00CF92DF92EF92FF92CF93C82FE8
:1001A000CB01BA0120E030E04AE754E40E949917FD
:1001B0000E9466176B017C0128EFF21A8C2D806873
:1001C0000E949A00D701C60180789F73AA27BB2797
:1001D00027E0B695A795979587952A95D1F78058EA
:1001E0000E949A00D701C6018827907CAF71BB2777
:1001F0003EE0B695A795979587953A95D1F78058A3
:100200000E949A00CC24DD2480EEE8228FE0F822C0
:10021000D701C60145E1B695A795979587954A956B
:10022000D1F780580E949A008C2FCF91FF90EF90C9
:10023000DF90CF900C949A001F920F920FB60F92FE
:1002400011248F939F93EF93FF93809108019091D6
:100250000501992331F095E09093C60010920501B5
:100260000DC0E82FF0E0E35FF94F90819093C60056
:100270008F5F803809F480E0809308019091090134
:10028000891305C08091C1008F7D8093C100FF91CB
:10029000EF919F918F910F900FBE0F901F90189527
:1002A000E0910A01F0E0E35FFA4F808190910A014A
:1002B0009F5F90930A01909104019F5F90930401C6
:1002C000903151F491E0909305019091C1009062BA
:1002D0009093C1001092040108951F920F920FB6DF
:1002E0000F9211242F933F934F935F936F937F93BC
:1002F0008F939F93AF93BF93CF93EF93FF93C0914F
:10030000C60080910001882329F010920001C0935B
:1003100007013DC081E08093000180910701C8176B
:1003200019F08DE30E943F10C031F8F4C13011F490
:1003300081E224C0C23069F41092030110920201DC
:1003400010920A0110920B01109204010E945110A8
:100350001EC0C33019F40E94E00219C0C43019F461
:100360000E94E40214C083E209C0E0910B0181E025
:100370008E0F90910A01891304C082E20E943F10FF
:1003800006C0F0E0E35FFA4FC08380930B01FF915A
:10039000EF91CF91BF91AF919F918F917F916F918D
:1003A0005F914F913F912F910F900FBE0F901F9033
:1003B0001895CF93C1E080910301882301F18091CA
:1003C00002018823C9F01092060190910A018091E0
:1003D0000B0198130BC080910601811104C00E948B
:1003E000E802C09306010E94F402EFCF0E94500180
:1003F000813111F4109203010E94F402DCCF1092BB
:100400000601C1E090910A0180910B0198130BC085
:1004100080910601811104C00E94E802C093060188
:100420000E94F402EFCF0E945001803131F481E04C
:10043000809303011092020181E4CF91089580918D
:1004400003018823C9F080910201811115C09091A8
:100450000A0180910B01981303C00E94E8020CC0AE
:100460000E94500187FD09C0813119F410920301E7
:1004700003C083E20E943F1080E8089520910A01A2
:1004800090910B0181E0291301C080E0089581E083
:10049000809302010895E1E1F1E0438150E060E0E2
:1004A00070E0405851096109710987E0440F551FF8
:1004B000661F771F8A95D1F7828190E0A0E0B0E0B7
:1004C00080589109A109B109840F951FA61FB71F74
:1004D000AC01BD0197E0440F551F661F771F9A9529
:1004E000D1F7818190E0A0E0B0E080589109A109A6
:1004F000B109840F951FA61FB71F27E0880F991F0A
:10050000AA1FBB1F2A95D1F72081820F911DA11D23
:10051000B11DBC01CD0160587109810998400E944C
:10052000591620E030E04AE754E40E94AF150895E0
:10053000CF93DF93E6E1F1E081E0808340E050E09B
:100540006AEF75E4418352836383748315829CE070
:10055000A5E2B1E0ED0119929A95E9F716821782AA
:10056000108611861286138614861586168640E03C
:1005700050E060EA70E4438F548F658F768F478F29
:1005800050A361A372A313A214A215A216A247A39B
:1005900050A761A772A743A754A765A776A717A678
:1005A00010AA11AA12AA8093100180930F01109231
:1005B0000E0110920D0180930C01DF91CF910895EF
:1005C00081E080931001089581E080930F010895E8
:1005D00080910D0190910E01019690930E018093F0
:1005E0000D0110920C010895CF92DF92EF92FF92CD
:1005F0000F931F93CF93DF9300D000D0CDB7DEB71A
:1006000029B189B1982F991F9927991F22FB882713
:1006100080F9892B11F44B9B03C080E00E94B80E37
:100620000E944E108823D1F00E943E0E0E94791045
:100630006B017C010E9468109B01AC0169833A83C5
:100640004B835C830E9457108701760129813A8190
:100650004B815C810E94430E109215018091100124
:10066000811105C080910F01882309F457C11092B0
:1006700010010E94140E811112C00E943E028111CD
:100680000EC00E944E1081110AC081E40E949A009F
:1006900083B7816083BF889583B78E7F83BF29B17D
:1006A00089B1982F991F9927991F22FB882780F9D4
:1006B000892B19F082E40E949A004B9B03C083E4CB
:1006C0000E949A000E944B10182F803211F00E9455
:1006D0009A00309B05C0143219F084E20E949A00FF
:1006E000319B05C0153219F085E20E949A00329BB9
:1006F00005C0163219F086E20E949A00339B05C0AD
:100700001A3219F08AE20E949A000E945710E09172
:10071000240123E0E29FF0011124EE0FFF1FEE0FF2
:10072000FF1FEA5EFE4F238D348D458D568D0E944E
:100730002615AB01BC0188E70E94CA000E94681020
:10074000E091240123E0E29FF0011124EE0FFF1F4E
:10075000EE0FFF1FE65EFE4F238D348D458D568DC7
:100760000E942615AB01BC0189E70E94CA000E94C5
:100770007910E091240123E0E29FF0011124EE0FB3
:10078000FF1FEE0FFF1FE25EFE4F238D348D458D60
:10079000568D0E942615AB01BC018AE70E94CA0053
:1007A00080910C01811110C060910D0170910E01BA
:1007B00080E090E00E945716AB01BC0187E70E94E1
:1007C000CA0081E080930C01EDE8F6E0BF016D58AE
:1007D00076408081853C09F48AC080E090E00E94E8
:1007E0005716AB01BC0185E70E94CA0080910F013A
:1007F000882309F484C010920F0140E050EC64EDAE
:1008000074E486E70E94CA002091310130913201E0
:10081000409133015091340160913D0170913E014E
:1008200080913F01909140010E942615AB01BC01CF
:1008300081E60E94CA002091350130913601409135
:1008400037015091380160914101709142018091CE
:100850004301909144010E942615AB01BC0182E640
:100860000E94CA002091390130913A0140913B0128
:1008700050913C0160914501709146018091470182
:10088000909148010E942615AB01BC0183E60E94AD
:10089000CA0040911701509118016091190170919F
:1008A0001A0187E60E94CA0060911B0170E080E097
:1008B00090E00E945716AB01BC0188E60E94CA0076
:1008C00040911C0150911D0160911E0170911F010A
:1008D00089E60E94CA004091200150912101609157
:1008E0002201709123018AE60E94CA0008C088E0B4
:1008F000EF3FF80711F008F070CF319667CF86E030
:100900000F900F900F900F90DF91CF911F910F914B
:10091000FF90EF90DF90CF900C949A000F900F9083
:100920000F900F90DF91CF911F910F91FF90EF905B
:10093000DF90CF900895D1E00E94D901C82F0E9486
:100940004E10882319F00E94F402F6CFC7FD50C262
:100950008FEB8C0F8A3108F018C18C2F90E0FC01CE
:10096000E154F109EF30F10508F00DC1EC5CFF4FE7
:100970000C948918A0901701B0901801C09019012B
:10098000D0901A01E0902D01F0902E0100912F01DE
:10099000109130012091290130912A0140912B01C1
:1009A00050912C01609125017091260180912701C1
:1009B000909128011F921F921F921F922CC0A0900D
:1009C0001701B0901801C0901901D0901A01E09061
:1009D0002D01F0902E0100912F01109130012091F6
:1009E000290130912A0140912B0150912C016091F5
:1009F0002501709126018091270190912801E091B5
:100A00002301EF93E0912201EF93E0912101EF9315
:100A1000E0912001EF9380901B0164C060911C0164
:100A200070911D0180911E0190911F0140911B0149
:100A30000E94E00DDAC110921601D7C1D0931601C1
:100A4000D4C10E943C10882319F00E94F402F9CF0F
:100A50000E942015E12CF12C8701A8019701C80103
:100A6000B7010E94430E10922401609131017091F0
:100A7000320180913301909134016093250170938C
:100A80002601809327019093280120913501309110
:100A9000360140913701509138012093290130935C
:100AA0002A0140932B0150932C01E0903901F090E2
:100AB0003A0100913B0110913C01E0922D01F0922E
:100AC0002E0100932F0110933001A0901701B090D8
:100AD0001801C0901901D0901A011F921F921F9205
:100AE0001F92812C0E94AE080F900F900F900F90D4
:100AF0007CC10E943C10882319F00E94F402F9CFB7
:100B000081E090E0C93411F080E090E08C01000FAA
:100B1000111F080F191F0E945710F801EE0FFF1F39
:100B2000EE0FFF1FEA5EFE4F638F748F858F968FE7
:100B30000E946810F801EE0FFF1FEE0FFF1FE65E28
:100B4000FE4F638F748F858F968F0E947910000FF0
:100B5000111F000F111FF801E25EFE4F638F748FAB
:100B6000858F968F42C1109224013FC1D0932401FA
:100B70003CC182E005C083E003C084E001C085E0A1
:100B80000E94E10D32C18CE32EC18FE98C0F8A31B6
:100B900008F028C180911501843009F021C18C2F03
:100BA00090E0FC01E456F109E731F10508F016C1C7
:100BB000ED5BFF4F0C94891880911601813099F4F8
:100BC0000E944B02E091240123E0E29FF0011124F6
:100BD000EE0FFF1FEE0FFF1FEA5EFE4F238D348DD9
:100BE000458D568D0CC00E944B029B01AC0160915B
:100BF00025017091260180912701909128010E9482
:100C00002715609325017093260180932701909307
:100C10002801EBC080911601813099F40E944B02AB
:100C2000E091240123E0E29FF0011124EE0FFF1F69
:100C3000EE0FFF1FE65EFE4F238D348D458D568DE2
:100C40000CC00E944B029B01AC0160912901709184
:100C50002A0180912B0190912C010E94271560930D
:100C6000290170932A0180932B0190932C01BDC020
:100C700080911601813099F40E944B02E091240189
:100C800023E0E29FF0011124EE0FFF1FEE0FFF1F84
:100C9000E25EFE4F238D348D458D568D0CC00E9433
:100CA0004B029B01AC0160912D0170912E0180914E
:100CB0002F01909130010E94271560932D017093B0
:100CC0002E0180932F01909330018FC00E944B0220
:100CD00060931701709318018093190190931A0182
:100CE00084C00E944B020E94281660931B017DC0A5
:100CF0000E944B0260931C0170931D0180931E01A2
:100D000090931F0172C00E944B0260932001709368
:100D10002101809322019093230167C00E944B021E
:100D200060933101709332018093330190933401C9
:100D30005CC00E944B026093350170933601809332
:100D400037019093380151C00E944B0260933901E2
:100D500070933A0180933B0190933C0146C00E94FE
:100D60004B02209131013091320140913301509179
:100D700034010E94271560933D0170933E018093DA
:100D80003F019093400131C00E944B0220913501F8
:100D90003091360140913701509138010E9427155A
:100DA0006093410170934201809343019093440109
:100DB0001CC00E944B022091390130913A014091B0
:100DC0003B0150913C010E942715609345017093AF
:100DD0004601809347019093480107C08EE303C00A
:100DE0008AE301C083E20E943F1010921501ABCD4F
:100DF000E0911501E43048F481E08E0F80931501F5
:100E0000F0E0EF5EFE4FC0839ECD8AE30E943F106C
:100E10009ACD2F923F924F925F926F927F928F92D4
:100E20009F92AF92BF92CF92DF92EF92FF920F9379
:100E30001F93CF93DF93CDB7DEB760970FB6F894CB
:100E4000DEBF0FBECDBF1C012A013B014801590185
:100E5000FC0162897389848995890E9457166B0108
:100E60007C01A30192010E9499170E9493150E9490
:100E700028162B013C01F10161A772A783A794A753
:100E8000A5019401C701B6010E9499170E9493150C
:100E90000E9428164B015C01F10165A776A787A780
:100EA00090AB21A932A943A954A9A0EEBEE20E94A9
:100EB0008F1869837A838B839C830E9459166D8374
:100EC0007E838F839887C301B2010E9457162B013E
:100ED0003C01A7019601C701B6010E9499176B0159
:100EE0007C01A3019201C301B2010E949917698795
:100EF0007A878B879C872D813E814F815885CA01D7
:100F0000B9010E9427156D877E878F87988B298569
:100F10003A854B855C85C701B6010E9426152D8553
:100F20003E854F8558890E94AF150E9493150E94F7
:100F300021162B013C01C501B4010E9457169B01EB
:100F4000AC010E9499174B015C01A70196010E9418
:100F500026156B017C0169817A818B819C8190953A
:100F60008095709561957F4F8F4F9F4F0E945916C6
:100F70009B01AC010E9427159B01AC01C701B60182
:100F80000E94AF150E949416F101C684D784E088B0
:100F9000F188A701960124193509460957092983C3
:100FA0003A834B835C830E94211629813A814B81CD
:100FB0005C81261B370B480B590BDA01C90157FF1F
:100FC0003DC0C701B6010E9459169B01AC016D8559
:100FD0007E858F8598890E94991729853A854B854A
:100FE0005C850E942615A50194010E9427154B01DE
:100FF0005C0120E030E040E850E46D817E818F812B
:1010000098850E9499179B01AC01C501B4010E940B
:10101000AF150E9493150E94211697FF03C060E050
:1010200070E0CB012B013C01C616D706E806F90695
:1010300014F42601370180E090E0DC01F10145AABB
:1010400056AA67AA70AE480E591E6A1E7B1E41AE94
:1010500052AE63AE74AE60960FB6F894DEBF0FBEAC
:10106000CDBFDF91CF911F910F91FF90EF90DF9057
:10107000CF90BF90AF909F908F907F906F905F9038
:101080004F903F902F9008954F925F926F927F9272
:10109000AF92BF92CF92DF92EF92FF920F931F9386
:1010A000CF93DF93FC0120A5211149C0EB018C01F6
:1010B000428C538C648C758CAA8CBB8CCC8CDD8C54
:1010C0009501A601C301B2010E94AA1587FF37C08E
:1010D000A3019201C301B2010E9499172B013C01A7
:1010E00020E03AEB4BE55AECF80162A173A184A130
:1010F00095A10E9499179B01AC01C301B2010E9406
:1011000026150E940C187B018C019B01AC01B501D6
:10111000C6010E94AA1587FF02C0750186019701CA
:10112000A801B501C6010E94AA15882341F0A701B4
:10113000B8014A8F5B8F6C8F7D8F81E08FA3DF9129
:10114000CF911F910F91FF90EF90DF90CF90BF90C4
:10115000AF907F906F905F904F9008952F923F9245
:101160004F925F926F927F928F929F92AF92BF92B7
:10117000CF92DF92EF92FF920F931F93CF93DF9363
:10118000CDB7DEB7A4970FB6F894DEBF0FBECDBFC4
:1011900029013A01E986FA860B871C87A982BE825B
:1011A000CF82D886C9ACDAACEBACFCAC2CE137EC26
:1011B00041EB52E40E9499170E9466176D8B7E8B5B
:1011C0008F8B988F24E731ED45EB52E4C301B201D8
:1011D0000E9499170E946617698F7A8F8B8F9C8F58
:1011E00025E535E545E052E469857A858B859C8562
:1011F0000E9499170E9466176D8F7E8F8F8F98A31C
:10120000809166018F5F89878E3009F41986498441
:10121000042D440C110B8091650190E0801791071B
:1012200019F40E94F402F7CF80916601282E312C28
:1012300020E030E0A901C701B6010E94AA15882369
:10124000E1F08FE3829D8001839D100D1124F80150
:10125000E959FE4F81E080838F01035C1F4F2CE131
:1012600037EC41EB52E4C701B6010E9499170E9486
:101270002816D8016D937C9309C08FE3829DF001FD
:10128000839DF00D1124E959FE4F10828FE3829D5A
:10129000F001839DF00D1124E959FE4F86A21586B9
:1012A0008091590190915A01A0915B01B0915C012C
:1012B0004D885E886F88788C481659066A067B06CA
:1012C00014F428E0258780905D0190905E01A09045
:1012D0005F01B0906001498C5A8C6B8C7C8C4814F7
:1012E00059046A047B045CF42FE3229DF001239DE2
:1012F000F00D1124E959FE4F258520612587C09006
:101300006101D0906201E0906301F09064014D8C26
:101310005E8C6F8C78A04C145D046E047F045CF4CA
:101320002FE3229DF001239DF00D1124E959FE4F7A
:101330002585206225874D885E886F88788C481ABD
:10134000590A6A0A7B0AC301B2014A825B826C8233
:101350007D8277FE0BC022273327A9012419350986
:10136000460957092A833B834C835D834FE3429DA3
:101370009001439D300D1124F901E959FE4F4A8037
:101380005B806C807D804182528263827482498C52
:101390005A8C6B8C7C8C481859086A087B0853015E
:1013A000420177FE07C044245524320148185908E9
:1013B0006A087B084FE3429D9001439D300D112444
:1013C000F901E959FE4F45825682678270862D8D5C
:1013D0003E8D4F8D58A12C193D094E095F096901B9
:1013E0007A01298B3A8B4B8B5C8B57FF0BC02227E2
:1013F0003327A9012C193D094E095F09298B3A8B26
:101400004B8B5C8BEFE3E29DA001E39D500D11241B
:10141000FA01E959FE4F29893A894B895C8921876C
:101420003287438754874D865E866F86788A2A8105
:101430003B814C815D81421653066406750620F49B
:101440002D873E874F87588B4D845E846F847888C4
:1014500029893A894B895C894216530664067506C8
:1014600010F429013A012FE3229D8001239D100DE4
:10147000112409591E4FD8011E964D925D926D920E
:101480007C925197411451046104710409F47FC3A3
:101490000E9459162CE137EC41EB52E40E94AF1543
:1014A0006D877E878F87988BC501B4010E9459167E
:1014B00024E731ED45EB52E40E94AF15698B7A8B3E
:1014C0008B8B9C8BC701B6010E94591625E535E52B
:1014D00045E052E40E94AF154B015C012D853E852D
:1014E0004F855889CA01B9010E9499176B017C0187
:1014F00029893A894B895C89CA01B9010E949917E7
:101500009B01AC01C701B6010E9427156B017C014C
:10151000A5019401C501B4010E9499179B01AC017A
:10152000C701B6010E9427150E940C186A837B83AD
:101530008C839D83F80162A373A384A395A39B016D
:10154000AC0160E070E080E89FE30E94AF156B01A2
:101550007C0189819E81AF81B885F801868B978B4C
:10156000A08FB18FC301B2010E9459162B013C011B
:10157000A701960169817E818F8198850E949917C4
:101580009B01AC01C301B2010E9499170E949315FF
:101590000E942816D80152966D937D938D939C934B
:1015A0005597A7019601C301B2010E94991720E047
:1015B0003AEB4BED59E40E94991720E030E84BE3F9
:1015C00056E40E94AF150E9493150E942116F8015F
:1015D00061AB72AB83AB94ABA70196016D857E8541
:1015E0008F8598890E9499176D877E878F87988B42
:1015F000A701960169897A898B899C890E9499172C
:10160000698B7A8B8B8B9C8BA7019601C501B401EA
:101610000E9499172B013C01909166018091650110
:10162000981709F4ABC0E0904901F0904A0100918D
:101630004B0110914C0120E030E0A901B701C80135
:101640000E94611718160CF099C080914D0190917D
:101650004E01A0914F01B0915001BC01CD019058B5
:101660002D853E854F8558890E9499174B015C0155
:1016700020915101309152014091530150915401F8
:1016800069897A898B899C890E9499179B01AC0191
:10169000C501B4010E9426154B015C012091550142
:1016A000309156014091570150915801C301B20148
:1016B0000E9499179B01AC01C501B4010E94261537
:1016C0004B015C0123E333E343E75FE30E94AA1588
:1016D00087FF54C029813E814F815885B701C801D9
:1016E0000E94AA1587FD04C0E980FE800F8118853D
:1016F00023E333E343E75FEBC501B4010E946117C5
:1017000018160CF03FC0A501940160E070E080E87D
:101710009FE30E94261520E030E040E05FE30E9456
:1017200099170E940C184B015C0120E030EC48E254
:1017300056E40E94991769A37AA38BA39CA3A501E1
:10174000940160E070E080E89FE30E9426159B0111
:10175000AC0169A17AA18BA19CA10E94AF150E9446
:101760000C185B016C019B01AC01B701C8010E9420
:10177000AA1587FD07C07501860104C0E12CF12C74
:1017800000E010E08FE3829DF001839DF00D1124B5
:10179000E959FE4FC701D801868F978FA0A3B1A347
:1017A00020E03AEB4BE55AEC6A817B818C819D818C
:1017B0000E9499179B01AC0160E070E0CB010E9490
:1017C00026150E940C185B016C019B01AC01B7014E
:1017D000C8010E94AA1587FD04C075019C2D8D2D9E
:1017E00002C0902F812F2FE3229D8001239D100D99
:1017F000112409591E4FA701692F782FD8015A9635
:101800004D935D936D937C935D979501A6016981DE
:101810007E818F8198850E94AA15181624F081E098
:10182000F80180A703C0D80198961C928FE3829D8F
:10183000F001839DF00D1124E959FE4F81E087A34B
:101840002D853E854F85588920934D0130934E015B
:1018500040934F015093500189899A89AB89BC8983
:101860008093510190935201A0935301B09354017E
:101870004092550150925601609257017092580162
:1018800089819E81AF81B8858093490190934A01F7
:10189000A0934B01B0934C014984409266014D885E
:1018A0005E886F88788C4092590150925A016092FC
:1018B0005B0170925C01498C5A8C6B8C7C8C4092E1
:1018C0005D0150925E0160925F01709260014D8CEB
:1018D0005E8C6F8C78A040926101509262016092A0
:1018E000630170926401F0906601E0E0F0E000E0D6
:1018F00010E08091650190E02F2D0F2C000C330B30
:101900002817390709F47DC0F11002C03EE0F32E1C
:10191000FA942FE33F2D3203C0011124AC01495941
:101920005E4F4A010115110509F468C0309709F4AA
:1019300065C0D80198968C9198975E962C905E978A
:101940005F963C905F979096AC90909791964C9054
:101950004982811147C0B22CC32CDA2CE42C428C72
:10196000538C648C758CA3019201622D732D8A2D8A
:101970009E2D0E9461171816ACF5A3019201C301B8
:10198000B2010E9499172B013C0120E03AEB4BE594
:101990005AECD80192966D917D918D919C9195977D
:1019A0000E9499179B01AC01C301B2010E94261548
:1019B0000E940C18562E672E782EA92E262F372F10
:1019C000482F592F622D732D8D2D9E2D0E94AA1503
:1019D00087FD03C0B52C6301EA2C8B2D9C2DAD2D0A
:1019E000BE2D03C0C101AA2DB981F801828F938F4A
:1019F000A48FB58FE1E0D8019796EC93F8018401AC
:101A000078CFF090650100E010E080E090E02FE3F7
:101A1000E22E4F2D0F2C000C550B2091660130E06B
:101A200042175307C9F0E49E9001E59E300D112442
:101A3000A90149595E4F6A01009731F0011511055E
:101A400019F0B8010E944408F3945EE0F51201C059
:101A5000F12CC8018601DDCF009731F00115110589
:101A600019F0B8010E944408D0906501E12CF12CD6
:101A70008FE3C82E4D2D0D2C000C550B8091660167
:101A800090E04817590709F446C0C49EC001C59E9E
:101A9000900D1124DC01A959BE4F1D01E114F10480
:101AA00099F1F70187A1811104C097968C91882341
:101AB00059F1D70156964D905D906D907C90599755
:101AC000C49EF001C59EF00D1124E959FE4FA301FB
:101AD0009201628D738D848D958D0E94AF154B019F
:101AE0005C01A3019201F701628D738D848D958D48
:101AF0000E94AF15AB01BC0195018401C7010E9492
:101B00000907D70197961C92D394BEE0DB1201C05F
:101B1000D12C7101AFCFF70186889788A08CB18C4A
:101B2000A501940160E070E0CB010E94AF152B018C
:101B30003C01A5019401D7015A966D917D918D913B
:101B40009C915D970E94AF15AB01BC01930182018E
:101B5000C7010E940907F70117A2A4960FB6F894CF
:101B6000DEBF0FBECDBFDF91CF911F910F91FF90D0
:101B7000EF90DF90CF90BF90AF909F908F907F902D
:101B80006F905F904F903F902F900C941E10A496F2
:101B90000FB6F894DEBF0FBECDBFDF91CF911F917E
:101BA0000F91FF90EF90DF90CF90BF90AF909F90FC
:101BB0008F907F906F905F904F903F902F900895FF
:101BC0000895FF920F931F93CF93DF931F92CDB78A
:101BD000DEB790916601FF24F394F90E9EE0F912AE
:101BE00001C0F12C0F2D0F2C000C110B2091650161
:101BF00030E02017310729F489830E94F40289819B
:101C0000F5CFE09166019FE3E99FF0011124E959C6
:101C1000FE4F8083F09266010F90DF91CF911F916C
:101C20000F91FF900C941E10209166019091650118
:101C300081E0291301C080E00895909166018091B0
:101C40006501981749F0809165012FE3829FC001DB
:101C5000112489599E4F089580E090E00895909155
:101C6000660180916501981741F0809165018F5F51
:101C70008E3009F480E0809365010895109266012A
:101C80001092650108958F929F92AF92BF92CF926A
:101C9000DF92EF92FF920F931F93CF93DF9349014F
:101CA0005A01670178012CE137EC41EB52E40E94C4
:101CB00099170E946617C9E5D1E0688379838A8302
:101CC0009B8324E731ED45EB52E4C501B4010E944A
:101CD00099170E9466176C837D838E839F8325E509
:101CE00035E545E052E4C701B6010E9499170E940C
:101CF0006617688779878A879B87109249011092B7
:101D00004A0110924B0110924C018CE0EDE4F1E09D
:101D1000DF011D928A95E9F7DF91CF911F910F9115
:101D2000FF90EF90DF90CF90BF90AF909F908F90FB
:101D30000895EF92FF920F931F93109266011092F5
:101D40006501E12CF12C870120E030E040EA50E40D
:101D5000CA01B9010E94430E1F910F91FF90EF90AD
:101D600008958AB183778AB987B1807C87B908954D
:101D700039B199B1292F221F2227221F32FB99271F
:101D800090F9922B21F44B9902C0811104C010925A
:101D9000D9045D9808958093D90408958091D90459
:101DA0000895882311F05C9A08955C98089588231B
:101DB00011F05E9A08955E980895559A14BC15BC6A
:101DC000EEE6F0E080818160808316BC549A80E06A
:101DD0000E94D10E569A80E00C94D70E4091E504F3
:101DE0005091E6046091E7047091E8048091E10469
:101DF0009091E204A091E304B091E404840F951F54
:101E0000A61FB71F813828E3920721E0A207B1057A
:101E100050F48093E1049093E204A093E304B09320
:101E2000E40480E0089580589843A140B10980936C
:101E3000E1049093E204A093E304B093E40481E00E
:101E400008959B01AC01203486E038074105510517
:101E500020F420E436E040E050E060E070E788E302
:101E600099E30E9467182115310581E04807510563
:101E700018F4B90190E02FC02115310588E048071A
:101E80005105A8F4DA01C901F3E0B695A795979535
:101E90008795FA95D1F7BC019C01AD01A3E0220F13
:101EA000331F441F551FAA95D1F791E014C0DA01E2
:101EB000C90126E0B695A795979587952A95D1F7FC
:101EC000BC019C01AD01E6E0220F331F441F551FEA
:101ED000EA95D1F792E0809181009F5F887F892BFE
:101EE0008093810070938900609388002093E504BB
:101EF0003093E6044093E7045093E80408958F92EA
:101F00009F92AF92BF92CF92DF92EF92FF92CF93C8
:101F1000DF934B015C01C091FF04D09100058EA1BD
:101F2000682F70E080E090E00E9459166B017C0100
:101F3000C501B4010E9457164B015C016A897B8977
:101F40008C899D890E9457169B01AC01C501B40183
:101F50000E94AF1523E333E343E75FE30E94991741
:101F60002DEC3CEC4CE45DE30E9427159B01AC0199
:101F7000C701B6010E9499170E942816862FDF918B
:101F8000CF91FF90EF90DF90CF90BF90AF909F9058
:101F90008F900C94B80E0F931F93CF93DF938823E9
:101FA00011F023E001C02BE398E0922725B1392FEF
:101FB0003873277C232B25B956E046E021E061E009
:101FC000CFE3D1E012E00AE1ACE4B9E036B181112F
:101FD0003C27662379F130FF05C0411102C09D27DF
:101FE00029C04150222359F032FF08C0511105C0C9
:101FF0006623A1F0912720E002C0515021E075B185
:10200000E92FE7707E2B75B9302F3A95F1F735B18E
:102010003E2735B9FD013197F1F7D8CF8CE0E1E0EB
:10202000F5E0DF011D928A95E9F7DF91CF911F91CD
:102030000F910895222391F360E0D6CF8091DC04C4
:1020400081110BC081E08093DC0488E08093FE0462
:1020500080916F00826080936F0008951092DC047D
:10206000109200051092FF04EFE6F0E080818D7F72
:10207000808380E00C94B80E8091DC0408959091E8
:10208000DB04911107C08093DA0481E08093DB04C4
:102090000C94950008958091DA0408958091DB04F2
:1020A000089580E28093DA041092DB040895609131
:1020B00001057091020580910305909104050E942D
:1020C00059162CE137EC41EB52E40E94AF1508950C
:1020D00060910505709106058091070590910805AE
:1020E0000E94591624E731ED45EB52E40E94AF15EA
:1020F00008956091090570910A0580910B059091F2
:102100000C050E94591625E535E545E052E40E948C
:10211000AF1508958F929F92AF92BF92CF92DF92A8
:10212000EF92FF920F931F93CF93DF9349015A01D0
:10213000670178012CE137EC41EB52E40E949917DA
:102140000E946617C1E0D5E0688379838A839B8308
:1021500024E731ED45EB52E4C501B4010E94991723
:102160000E9466176C837D838E839F8325E535E50A
:1021700045E052E4C701B6010E9499170E94661714
:10218000688779878A879B87DF91CF911F910F910D
:10219000FF90EF90DF90CF90BF90AF909F908F9087
:1021A0000895EF92FF920F931F9384B18F6384B9C8
:1021B00085B1807C886085B9E1E8F0E080818F7E20
:1021C0008083808188608083E0E8F0E080818D7F7B
:1021D000808380818E7F808380818F7380838081E4
:1021E0008F7C80831092B0001092B100E0E7F0E0A5
:1021F00080818160808360E476E080E090E00E94EE
:10220000210F80E00E94B80E8CE0E1E0F5E0DF01F4
:102210001D928A95E9F7E12CF12C870120E030E04E
:1022200040EA50E4CA01B9010E948A101092E10408
:102230001092E2041092E3041092E404109200055C
:102240001092FF041092DB0480E28093DA04109273
:10225000E9041F910F91FF90EF900C942E101F92A4
:102260000F920FB60F9211245D9815BC0F900FBE00
:102270000F901F9018951F920F920FB60F92112476
:102280008F9385B1887F85B91092B1008F910F909F
:102290000FBE0F901F9018951F920F920FB60F92BE
:1022A0001124CF92DF92EF92FF922F933F934F939F
:1022B0005F936F937F938F939F93AF93BF93CF93CE
:1022C000DF93EF93FF938091E9048111A2C381E032
:1022D0008093E9048091DB04882329F00E942E106A
:1022E0000E943E0E94C329B189B1982F991F992756
:1022F000991F22FB882780F9892B11F44B9B03C07F
:1023000080E00E94B80E309B02C084E20BC0319B7B
:1023100002C085E207C0329B02C086E203C0339B45
:1023200004C08AE20E943F1072C30E94CE0E9091B8
:102330000101983020F4809101018F5F66C0811106
:1023400002C05D9861C015BC5D9A823F08F05CC018
:1023500098E0899FD00111244091E5045091E60452
:102360006091E7047091E804252F362F472F5527F9
:102370000E949A186F3F710581059105D9F1D0F13E
:10238000E3E09695879577956795EA95D1F76F3F46
:1023900071058105910581F178F153E09695879556
:1023A000779567955A95D1F76F3F7105810591052E
:1023B00029F120F142E096958795779567954A95A2
:1023C000D1F76F3F710581059105D1F0C8F032E07A
:1023D00096958795779567953A95D1F76F3F7105F3
:1023E0008105910529F020F06FEF70E080E090E02A
:1023F00025E007C021E005C022E003C023E001C0C2
:1024000024E0619566BD25BD81E08093010185B121
:102410009091FE049873877C892B85B985B1887F5C
:102420009091FE04892B85B98AEF8093B20082E0F7
:102430008093B10078948091FF0490910005892BDE
:1024400009F072C00E941D0EEC019093000580936C
:10245000FF04892B19F40E942E10D9C28881823082
:1024600008F062C0C9A4DAA4EBA4FCA4C092DD0405
:10247000D092DE04E092DF04F092E00480E49CE974
:10248000A0E0B0E08093E1049093E204A093E30421
:10249000B093E404C701B6010E94210F8881813006
:1024A00061F480E00E94B80E1092EA041092EB04EE
:1024B0001092EC041092ED0404C0C701B6010E9412
:1024C0007F0FE091FF04F091000586859785A08934
:1024D000B189B595A79597958795B095A095909555
:1024E00081959F4FAF4FBF4F8093FA049093FB04A9
:1024F000A093FC04B093FD048093F6049093F7043A
:10250000A093F804B093F9048093F2049093F30439
:10251000A093F404B093F5041092EE041092EF042B
:102520001092F0041092F104C091FF04D0910005C4
:102530002881223009F45CC250F0243009F45EC2D4
:1025400008F458C2253009F062C280E058C23D85C7
:102550003093FE044091FA045091FB046091FC0416
:102560007091FD0489819A81AB81BC81840F951F94
:10257000A61FB71F8093FA049093FB04A093FC045A
:10258000B093FD044E855F85688979891816190610
:102590001A061B0644F531603093FE04841B950B2C
:1025A000A60BB70B8093FA049093FB04A093FC0452
:1025B000B093FD048091010590910205A09103055F
:1025C000B091040533FF04C00197A109B10903C00C
:1025D0000196A11DB11D8093010590930205A09362
:1025E0000305B0930405C090F604D090F704E09082
:1025F000F804F090F9048D819E81AF81B8858C0D2F
:102600009D1DAE1DBF1D8093F6049093F704A0930B
:10261000F804B093F904181619061A061B0654F5A7
:102620003091FE0432603093FE04841B950BA60BA0
:10263000B70B8093F6049093F704A093F804B0933B
:10264000F9048091050590910605A0910705B091C8
:10265000080534FF04C00197A109B10903C0019620
:10266000A11DB11D8093050590930605A093070554
:10267000B0930805C090F204D090F304E090F40405
:10268000F090F50489859A85AB85BC858C0D9D1DE0
:10269000AE1DBF1D8093F2049093F304A093F40445
:1026A000B093F504181619061A061B0654F5309156
:1026B000FE0434603093FE04841B950BA60BB70B0D
:1026C0008093F2049093F304A093F404B093F50480
:1026D0008091090590910A05A0910B05B0910C0518
:1026E00035FF04C00197A109B10903C00196A11DDE
:1026F000B11D8093090590930A05A0930B05B09333
:102700000C058091EE049091EF04A091F004B0913B
:10271000F1040196A11DB11D8093EE049093EF0486
:10272000A093F004B093F104E091FE0438E03E275A
:102730003093FE0484179507A607B70708F053C126
:102740004DA95EA96FA978AD84179507A607B707AD
:1027500008F040C00E94EE0E882309F458C149A930
:102760005AA96BA97CA98091DD049091DE04A09107
:10277000DF04B091E004840F951FA61FB71F80935C
:10278000DD049093DE04A093DF04B093E0044A8953
:102790005B896C897D89481759076A077B0740F474
:1027A0004093DD045093DE046093DF047093E004F3
:1027B000C090DD04D090DE04E090DF04F090E004EF
:1027C000C701B6010E94210F8881813009F064C0E1
:1027D00080E006C149AD5AAD6BAD7CAD841795075D
:1027E000A607B70769F480E49CE9A0E0B0E0809315
:1027F000E1049093E204A093E304B093E40407C1DE
:1028000084179507A607B70708F44BC00E94EE0E81
:10281000882309F4FCC08091DD049091DE04A0912E
:10282000DF04B091E00449A95AA96BA97CA9481713
:1028300059076A077B0768F4841B950BA60BB70B37
:102840008093DD049093DE04A093DF04B093E00452
:1028500008C01092DD041092DE041092DF04109282
:10286000E0048DA59EA5AFA5B8A94091DD045091C7
:10287000DE046091DF047091E004481759076A078D
:102880007B0708F095CF8093DD049093DE04A0933E
:10289000DF04B093E0048CCFC701B6010E947F0F24
:1028A000B6C0CA88DB88EC88FD888091DD049091F1
:1028B000DE04A091DF04B091E0048C159D05AE0507
:1028C000BF05B9F0C092DD04D092DE04E092DF04CF
:1028D000F092E004C701B6010E94210F8881813087
:1028E00021F480E00E94B80E04C0C701B6010E9426
:1028F0007F0FC091FF04D09100058881813009F0DD
:1029000086C0C090EA04D090EB04E090EC04F09014
:10291000ED0420E030E0A901C701B6010E94AA152C
:10292000811118C06091EE047091EF048091F00461
:102930009091F1040E9457169B01AC01C701B601AA
:102940000E9427156093EA047093EB048093EC04D3
:102950009093ED04C090EA04D090EB04E090EC0476
:10296000F090ED046091EE047091EF048091F0041A
:102970009091F1040E945716A70196010E946117D9
:1029800087FD45C08DAD9EADBC0180E090E00E940A
:1029900057169B01AC01C701B6010E942715609331
:1029A000EA047093EB048093EC049093ED04F894A4
:1029B0000E941F027894282F30E020583109220FFE
:1029C000331FE091FF04F091000546A1429FC00132
:1029D000439F900D11246FEF70E00E945318862FD3
:1029E0000E94B80E14C0213061F40E94470209C051
:1029F00081E001C080E00E94D10E03C081E00E940E
:102A0000D70E109200051092FF040E942F0E109214
:102A1000E904FF91EF91DF91CF91BF91AF919F9129
:102A20008F917F916F915F914F913F912F91FF9087
:102A3000EF90DF90CF900F900FBE0F901F901895E2
:102A400080E00E94CB0F81E00C94CB0F5058BB2745
:102A5000AA270E943E150C940F170E94011738F008
:102A60000E94081720F039F49F3F19F426F40C94C3
:102A7000FE160EF4E095E7FB0C94CF16E92F0E94AA
:102A8000201758F3BA17620773078407950720F0D9
:102A900079F4A6F50C945A170EF4E0950B2EBA2F84
:102AA000A02D0B01B90190010C01CA01A001112454
:102AB000FF27591B99F0593F50F4503E68F11A1600
:102AC000F040A22F232F342F4427585FF3CF469591
:102AD00037952795A795F0405395C9F77EF41F16B3
:102AE000BA0B620B730B840BBAF09150A1F0FF0F7D
:102AF000BB1F661F771F881FC2F70EC0BA0F621F69
:102B0000731F841F48F4879577956795B795F79558
:102B10009E3F08F0B0CF9395880F08F09927EE0FED
:102B20009795879508950E94421790F09F3748F433
:102B3000911116F40C945B1760E070E080E89FE35D
:102B4000089526F01B16611D711D811D0C94D5166C
:102B50000C94F0160E94AB1608F481E008950E94D0
:102B6000C3150C940F170E94081758F00E94011704
:102B700040F029F45F3F29F00C94CF1651110C94CA
:102B80005B170C94FE160E94201768F39923B1F38B
:102B9000552391F3951B550BBB27AA276217730783
:102BA000840738F09F5F5F4F220F331F441FAA1F17
:102BB000A9F335D00E2E3AF0E0E832D091505040D3
:102BC000E695001CCAF72BD0FE2F29D0660F771F81
:102BD000881FBB1F261737074807AB07B0E809F067
:102BE000BB0B802DBF01FF2793585F4F3AF09E3FEC
:102BF000510578F00C94CF160C945B175F3FE4F30B
:102C0000983ED4F3869577956795B795F7959F5F2E
:102C1000C9F7880F911D9695879597F90895E1E07A
:102C2000660F771F881FBB1F621773078407BA07D9
:102C300020F0621B730B840BBA0BEE1F88F7E09534
:102C400008950E9428166894B1110C945B1708959A
:102C50000E94281788F09F5798F0B92F9927B751ED
:102C6000B0F0E1F0660F771F881F991F1AF0BA9530
:102C7000C9F714C0B13091F00E945A17B1E008951D
:102C80000C945A17672F782F8827B85F39F0B93F0F
:102C9000CCF3869577956795B395D9F73EF49095E3
:102CA0008095709561957F4F8F4F9F4F0895E89461
:102CB00009C097FB3EF490958095709561957F4F84
:102CC0008F4F9F4F9923A9F0F92F96E9BB27939532
:102CD000F695879577956795B795F111F8CFFAF442
:102CE000BB0F11F460FF1BC06F5F7F4F8F4F9F4F73
:102CF00016C0882311F096E911C0772321F09EE8D1
:102D0000872F762F05C0662371F096E8862F70E036
:102D100060E02AF09A95660F771F881FDAF7880F10
:102D20009695879597F908950E94421790F09F37DE
:102D300048F4911116F00C945B1760E070E080E8A5
:102D40009FEB089526F41B16611D711D811D0C94C7
:102D5000D5160C94F016990F0008550FAA0BE0E851
:102D6000FEEF16161706E807F907C0F0121613064D
:102D7000E407F50798F0621B730B840B950B39F48D
:102D80000A2661F0232B242B252B21F408950A26F3
:102D900009F4A140A6958FEF811D811D089597F933
:102DA0009F6780E870E060E00895882371F47723DE
:102DB00021F09850872B762F07C0662311F49927AE
:102DC0000DC09051862B70E060E02AF09A95660F56
:102DD000771F881FDAF7880F9695879597F90895DA
:102DE0009F3F31F0915020F4879577956795B7957F
:102DF000880F911D9695879597F908959FEF80EC20
:102E0000089500240A941616170618060906089550
:102E100000240A9412161306140605060895092EB6
:102E20000394000C11F4882352F0BB0F40F4BF2B25
:102E300011F460FF04C06F5F7F4F8F4F9F4F089565
:102E400057FD9058440F551F59F05F3F71F047955B
:102E5000880F97FB991F61F09F3F79F08795089540
:102E6000121613061406551FF2CF4695F1DF08C05F
:102E7000161617061806991FF1CF8695710561057C
:102E8000089408950E942817A0F0BEE7B91788F4A7
:102E9000BB279F3860F41616B11D672F782F88273F
:102EA000985FF7CF869577956795B11D939596397D
:102EB000C8F30895E894BB2766277727CB0197F9D5
:102EC00008950E94AB1608F48FEF08950E9428170A
:102ED00058F19E5760F19851A0F0E9F0983020F534
:102EE000092E9927660F771F881F991F0A94D1F71B
:102EF00012C0062E672F782F8827985F11F4000CD8
:102F000007C0993FB4F38695779567959395D9F760
:102F1000611D711D811D3EF49095809570956195A0
:102F20007F4F8F4F9F4F089568940C945B170C94BC
:102F30005A170E94AC170C940F170E94011738F013
:102F40000E94081720F0952311F00C94CF160C94D2
:102F5000FE1611240C945B170E94201770F3959FA6
:102F6000C1F3950F50E0551F629FF001729FBB2780
:102F7000F00DB11D639FAA27F00DB11DAA1F649F1C
:102F80006627B00DA11D661F829F2227B00DA11DCF
:102F9000621F739FB00DA11D621F839FA00D611D55
:102FA000221F749F3327A00D611D231F849F600D76
:102FB000211D822F762F6A2F11249F5750409AF09F
:102FC000F1F088234AF0EE0FFF1FBB1F661F771F2B
:102FD000881F91505040A9F79E3F510580F00C94F6
:102FE000CF160C945B175F3FE4F3983ED4F38695BD
:102FF00077956795B795F795E7959F5FC1F7FE2B96
:10300000880F911D9695879597F9089519F416F4F0
:103010000C94FE160C94F0160E942817B8F399230E
:10302000C9F3B6F39F57550B87FF0E944C18002435
:10303000A0E640EA900180585695979528F4805C68
:10304000660F771F881F20F026173707480730F4D0
:10305000621B730B840B202931294A2BA6951794E8
:103060000794202531254A2758F7660F771F881FB8
:1030700020F026173707480730F4620B730B840BD8
:10308000200D311D411DA09581F7B901842F915864
:10309000880F96958795089591505040660F771F39
:1030A000881FD2F7089597FB072E16F4009407D0D7
:1030B00077FD09D00E94A21807FC05D03EF4909538
:1030C00081959F4F0895709561957F4F0895A1E276
:1030D0001A2EAA1BBB1BFD010DC0AA1FBB1FEE1F92
:1030E000FF1FA217B307E407F50720F0A21BB30BDD
:1030F000E40BF50B661F771F881F991F1A9469F759
:1031000060957095809590959B01AC01BD01CF01B4
:103110000895EE0FFF1F0590F491E02D09940E9491
:10312000B618A59F900DB49F900DA49F800D911D82
:1031300011240895B7FF0C948F180E948F18821BDA
:10314000930B0895AA1BBB1B51E107C0AA1FBB1F0D
:10315000A617B70710F0A61BB70B881F991F5A9523
:10316000A9F780959095BC01CD010895A29FB0016B
:10317000B39FC001A39F700D811D1124911DB29FAB
:0E318000700D811D1124911D0895F894FFCF4C
:02318E0001013D
:00000001FF
