:100000000C9464000C948B000C948B000C948B006B
:100010000C948B000C948B000C948B000C948B0034
:100020000C948B000C9412110C948B000C942311E3
:100030000C948B000C948B000C948B000C948B0014
:100040000C948B000C948B000C9477010C9426017B
:100050000C948B000C948B000C948B000C948B00F4
:100060000C948B000C948B00EE06AF040305D404B3
:100070001005130516056E056E05A805AB05AE0542
:10008000B005B205B405B605B8057106E7065F060A
:10009000E706870692069D06A806BD06D206E70675
:1000A000E7067C06E706E7066A06E706E706E706D0
:1000B000E706D50503063106F911F91106140814EF
:1000C0000C140E1412141414E8E8F6E085EC98E011
:1000D00001C08193EF3FF907E0F3D9F311241FBE6C
:1000E000CFEFD8E0DEBFCDBF11E0A0E0B1E0EAEA9B
:1000F000FFE202C005900D92A230B107D9F726E0C9
:10010000A2E0B1E001C01D92A838B207E1F70E9459
:100110008D000C94D3170C94000078940E94BC00BE
:100120000E9498020E94880E0E94B4100E94A00EA5
:100130000E94BB0E0E94900480E090E0089510920F
:100140000301109202010895909109019F5F903878
:1001500009F490E0209108019217E1F3E091090180
:10016000F0E0E85FF94F8083909309018091C1002E
:1001700080628093C10008951092C50080E1809351
:10018000C400E0ECF0E080818D7F8083E1ECF0E062
:1001900080818061808380818860808380818068A5
:1001A00080838EE70C94A400CF92DF92EF92FF92AF
:1001B000CF93C82FCB01BA0120E030E04AE754E4E6
:1001C0000E94AF160E947C166B017C0128EFF21A88
:1001D0008C2D80680E94A400D701C60180789F738F
:1001E000AA27BB2727E0B695A795979587952A95C7
:1001F000D1F780580E94A400D701C6018827907CBF
:10020000AF71BB273EE0B695A795979587953A9530
:10021000D1F780580E94A400CC24DD2480EEE8228F
:100220008FE0F822D701C60145E1B695A7959795CD
:1002300087954A95D1F780580E94A4008C2FCF91C2
:10024000FF90EF90DF90CF900C94A4001F920F923C
:100250000FB60F9211248F939F93EF93FF9380918A
:10026000080190910501992331F095E09093C60023
:10027000109205010DC0E82FF0E0E85FF94F908182
:100280009093C6008F5F803809F480E08093080166
:1002900090910901891305C08091C1008F7D8093E1
:1002A000C100FF91EF919F918F910F900FBE0F9022
:1002B0001F901895E0910A01F0E0E85FFA4F808105
:1002C00090910A019F5F90930A01909104019F5FB2
:1002D00090930401903151F491E090930501909135
:1002E000C10090629093C1001092040108951F9282
:1002F0000F920FB60F9211242F933F934F935F935A
:100300006F937F938F939F93AF93BF93CF93EF930D
:10031000FF93C091C60080910001882329F01092BC
:100320000001C09307013DC081E0809300018091EE
:100330000701C81719F08DE30E942210C031F8F4AC
:10034000C13011F481E224C0C23069F4109203017B
:100350001092020110920A0110920B0110920401F6
:100360000E9434101EC0C33019F40E94E00219C06C
:10037000C43019F40E94E40214C083E209C0E09181
:100380000B0181E08E0F90910A01891304C082E273
:100390000E94221006C0F0E0E85FFA4FC08380930D
:1003A0000B01FF91EF91CF91BF91AF919F918F91F1
:1003B0007F916F915F914F913F912F910F900FBE61
:1003C0000F901F901895CF93C1E08091030188236F
:1003D00001F1809102018823C9F0109206019091E9
:1003E0000A0180910B0198130BC0809106018111C5
:1003F00004C00E94E802C09306010E94F402EFCFFD
:100400000E945A01813111F4109203010E94F402FA
:10041000DCCF10920601C1E090910A0180910B019E
:1004200098130BC080910601811104C00E94E8025C
:10043000C09306010E94F402EFCF0E945A0180315E
:1004400031F481E0809303011092020181E4CF91A5
:10045000089580910301882379F080910201811130
:100460000BC090910A0180910B01981303C00E9468
:10047000E80202C00C945A0180E8089520910A0114
:1004800090910B0181E0291301C080E0089581E083
:10049000809302010895E1E1F1E0438150E060E0E2
:1004A00070E0405851096109710987E0440F551FF8
:1004B000661F771F8A95D1F7828190E0A0E0B0E0B7
:1004C00080589109A109B109840F951FA61FB71F74
:1004D000AC01BD0197E0440F551F661F771F9A9529
:1004E000D1F7818190E0A0E0B0E080589109A109A6
:1004F000B109840F951FA61FB71F27E0880F991F0A
:10050000AA1FBB1F2A95D1F72081820F911DA11D23
:10051000B11DBC01CD0160587109810998400E944C
:100520006F1520E030E04AE754E40E94C5140895B6
:10053000CF93DF93E6E1F1E081E0808340E050E09B
:100540006AEF75E4418352836383748315829CE070
:10055000A5E2B1E0ED0119929A95E9F716821782AA
:10056000108611861286138614861586168640E03C
:1005700050E060EA70E4438F548F658F768F478F29
:1005800050A361A372A313A214A215A216A247A39B
:1005900050A761A772A743A754A765A776A717A678
:1005A00010AA11AA12AA8093100180930F01109231
:1005B0000E0110920D0180930C01DF91CF910895EF
:1005C00081E080931001089581E080930F010895E8
:1005D00080910D0190910E01019690930E018093F0
:1005E0000D0110920C010895CF92DF92EF92FF92CD
:1005F0000F931F93CF93DF9300D000D0CDB7DEB71A
:100600000E9431108823D1F00E942D0E0E945C10B0
:100610006B017C010E944B109B01AC0169833A8302
:100620004B835C830E943A108701760129813A81CD
:100630004B815C810E94320E109215018091100155
:10064000811105C080910F01882309F45CC11092CB
:1006500010010E94030E811112C00E943E028111FE
:100660000EC00E94311081110AC081E40E94A400D2
:1006700083B7816083BF889583B78E7F83BF4A9994
:1006800003C082E40E94A4004B9903C083E40E944B
:10069000A4000E942E10182F803211F00E94A40096
:1006A000309905C0143219F084E20E94A4003199F7
:1006B00005C0153219F085E20E94A400329905C0E8
:1006C000163219F086E20E94A400339905C01A324E
:1006D00019F08AE20E94A400349905C01B3219F077
:1006E0008BE20E94A400359905C01D3219F08DE2FD
:1006F0000E94A4000E943A10E091240123E0E29FAE
:10070000F0011124EE0FFF1FEE0FFF1FEA5EFE4FF8
:10071000238D348D458D568D0E943C14AB01BC0158
:1007200088E70E94D4000E944B10E091240123E04E
:10073000E29FF0011124EE0FFF1FEE0FFF1FE65E98
:10074000FE4F238D348D458D568D0E943C14AB0198
:10075000BC0189E70E94D4000E945C10E091240152
:1007600023E0E29FF0011124EE0FFF1FEE0FFF1FA9
:10077000E25EFE4F238D348D458D568D0E943C14D4
:10078000AB01BC018AE70E94D40080910C01811169
:1007900010C060910D0170910E0180E090E00E9408
:1007A0006D15AB01BC0187E70E94D40081E0809306
:1007B0000C01E8E8F6E0BF01685876408081853C8E
:1007C00009F48AC080E090E00E946D15AB01BC0185
:1007D00085E70E94D40080910F01882309F484C02A
:1007E00010920F0140E050EE68EC74E486E70E943E
:1007F000D400209131013091320140913301509168
:10080000340160913D0170913E0180913F019091D2
:1008100040010E943C14AB01BC0181E60E94D4005F
:1008200020913501309136014091370150913801C6
:100830006091410170914201809143019091440186
:100840000E943C14AB01BC0182E60E94D4002091BE
:10085000390130913A0140913B0150913C01609146
:1008600045017091460180914701909148010E9495
:100870003C14AB01BC0183E60E94D40040911701F7
:10088000509118016091190170911A0187E60E9438
:10089000D40060911B0170E080E090E00E946D1533
:1008A000AB01BC0188E60E94D40040911C0150912C
:1008B0001D0160911E0170911F0189E60E94D40004
:1008C00040912001509121016091220170912301FA
:1008D0008AE60E94D40008C088E0EF3FF80711F0D4
:1008E00008F070CF319667CF86E00F900F900F9091
:1008F0000F90DF91CF911F910F91FF90EF90DF90BC
:10090000CF900C94A4000F900F900F900F90DF9158
:10091000CF911F910F91FF90EF90DF90CF900895AE
:10092000D1E00E94E301C82F0E943110882319F002
:100930000E94F402F6CFC7FD54C28FEB8C0F8A31B0
:1009400008F01CC18C2F90E0FC01E154F109E13169
:10095000F10508F011C1EC5CFF4F0C949F17A090BB
:100960001701B0901801C0901901D0901A01E090C1
:100970002D01F0902E0100912F0110913001209156
:10098000290130912A0140912B0150912C01609155
:1009900025017091260180912701909128011F92D5
:1009A0001F921F921F922CC0A0901701B0901801A7
:1009B000C0901901D0901A01E0902D01F0902E0105
:1009C00000912F01109130012091290130912A01CD
:1009D00040912B0150912C016091250170912601CD
:1009E0008091270190912801E0912301EF93E091FC
:1009F0002201EF93E0912101EF93E0912001EF9329
:100A000080901B0164C060911C0170911D01809158
:100A10001E0190911F0140911B010E94CF0DDEC16C
:100A200010921601DBC1D0931601D8C10E941F108D
:100A3000882319F00E94F402F9CF0E943614E12CA9
:100A4000F12C8701A8019701C801B7010E94320E5D
:100A50001092240160913101709132018091330133
:100A600090913401609325017093260180932701B2
:100A70009093280120913501309136014091370142
:100A8000509138012093290130932A0140932B0182
:100A900050932C01E0903901F0903A0100913B0114
:100AA00010913C01E0922D01F0922E0100932F0154
:100AB00010933001A0901701B0901801C090190157
:100AC000D0901A011F921F921F921F92812C0E9498
:100AD000A7080F900F900F900F9080C10E941F10D9
:100AE000882319F00E94F402F9CF81E090E0C93424
:100AF00011F080E090E08C01000F111F080F191F0A
:100B00000E943A10F801EE0FFF1FEE0FFF1FEA5E82
:100B1000FE4F638F748F858F968F0E944B10F80164
:100B2000EE0FFF1FEE0FFF1FE65EFE4F638F748F09
:100B3000858F968F0E945C10000F111F000F111FF0
:100B4000F801E25EFE4F638F748F858F968F46C1EA
:100B50001092240143C1D093240140C182E009C016
:100B600083E007C084E005C085E003C086E001C0E3
:100B700087E00E94D00D32C18CE32EC18FE98C0F2B
:100B80008A3108F028C180911501843009F021C113
:100B90008C2F90E0FC01E456F109E731F10508F0F3
:100BA00016C1EB5BFF4F0C949F17809116018130AB
:100BB00099F40E944B02E091240123E0E29FF001AE
:100BC0001124EE0FFF1FEE0FFF1FEA5EFE4F238D75
:100BD000348D458D568D0CC00E944B029B01AC019B
:100BE0006091250170912601809127019091280143
:100BF0000E943D1460932501709326018093270184
:100C000090932801EBC080911601813099F40E94E5
:100C10004B02E091240123E0E29FF0011124EE0F4A
:100C2000FF1FEE0FFF1FE65EFE4F238D348D458DB7
:100C3000568D0CC00E944B029B01AC0160912901B2
:100C400070912A0180912B0190912C010E943D14FA
:100C50006093290170932A0180932B0190932C01BA
:100C6000BDC080911601813099F40E944B02E09141
:100C7000240123E0E29FF0011124EE0FFF1FEE0F8D
:100C8000FF1FE25EFE4F238D348D458D568D0CC0C7
:100C90000E944B029B01AC0160912D0170912E01CD
:100CA00080912F01909130010E943D1460932D019D
:100CB00070932E0180932F01909330018FC00E947A
:100CC0004B02609317017093180180931901909360
:100CD0001A0184C00E944B020E943E1560931B01C2
:100CE0007DC00E944B0260931C0170931D01809394
:100CF0001E0190931F0172C00E944B02609320015D
:100D000070932101809322019093230167C00E9478
:100D10004B026093310170933201809333019093C1
:100D200034015CC00E944B02609335017093360120
:100D3000809337019093380151C00E944B02609319
:100D4000390170933A0180933B0190933C0146C076
:100D50000E944B02209131013091320140913301C8
:100D6000509134010E943D1460933D0170933E0107
:100D700080933F019093400131C00E944B0220912B
:100D800035013091360140913701509138010E9470
:100D90003D1460934101709342018093430190930D
:100DA00044011CC00E944B022091390130913A014C
:100DB00040913B0150913C010E943D1460934501DC
:100DC00070934601809347019093480107C08EE3DA
:100DD00003C08AE301C083E20E9422101092150131
:100DE000A7CDE0911501E43048F481E08E0F8093A7
:100DF0001501F0E0EF5EFE4FC0839ACD8AE30E94BA
:100E0000221096CD2F923F924F925F926F927F92D7
:100E10008F929F92AF92BF92CF92DF92EF92FF920A
:100E20000F931F93CF93DF93CDB7DEB760970FB6C5
:100E3000F894DEBF0FBECDBF1C012A013B01480163
:100E40005901FC0162897389848995890E946D1515
:100E50006B017C01A30192010E94AF160E94A914AC
:100E60000E943E152B013C01F10161A772A783A7E7
:100E700094A7A5019401C701B6010E94AF160E9474
:100E8000A9140E943E154B015C01F10165A776A7EC
:100E900087A790AB21A932A943A954A9A0EEBEE22D
:100EA0000E94A51769837A838B839C830E946F15A8
:100EB0006D837E838F839887C301B2010E946D1575
:100EC0002B013C01A7019601C701B6010E94AF1694
:100ED0006B017C01A3019201C301B2010E94AF1614
:100EE00069877A878B879C872D813E814F815885C2
:100EF000CA01B9010E943D146D877E878F87988B48
:100F000029853A854B855C85C701B6010E943C1452
:100F10002D853E854F8558890E94C5140E94A914CD
:100F20000E9437152B013C01C501B4010E946D15CB
:100F30009B01AC010E94AF164B015C01A701960119
:100F40000E943C146B017C0169817A818B819C81B8
:100F500090958095709561957F4F8F4F9F4F0E9420
:100F60006F159B01AC010E943D149B01AC01C701B0
:100F7000B6010E94C5140E94AA15F101C684D78447
:100F8000E088F188A7019601241935094609570917
:100F900029833A834B835C830E94371529813A81E8
:100FA0004B815C81261B370B480B590BDA01C901B9
:100FB00057FF3DC0C701B6010E946F159B01AC01F0
:100FC0006D857E858F8598890E94AF1629853A8523
:100FD0004B855C850E943C14A50194010E943D1440
:100FE0004B015C0120E030E040E850E46D817E81FF
:100FF0008F8198850E94AF169B01AC01C501B40199
:101000000E94C5140E94A9140E94371597FF03C0BF
:1010100060E070E0CB012B013C01C616D706E80664
:10102000F90614F42601370180E090E0DC01F101BB
:1010300045AA56AA67AA70AE480E591E6A1E7B1EA4
:1010400041AE52AE63AE74AE60960FB6F894DEBF9A
:101050000FBECDBFDF91CF911F910F91FF90EF9009
:10106000DF90CF90BF90AF909F908F907F906F90C8
:101070005F904F903F902F9008954F925F926F92A4
:101080007F92AF92BF92CF92DF92EF92FF920F9337
:101090001F93CF93DF93FC0120A5211149C0EB01E1
:1010A0008C01428C538C648C758CAA8CBB8CCC8C40
:1010B000DD8C9501A601C301B2010E94C01487FF17
:1010C00037C0A3019201C301B2010E94AF162B01E8
:1010D0003C0120E03AEB4BE55AECF80162A173A128
:1010E00084A195A10E94AF169B01AC01C301B2017E
:1010F0000E943C140E9422177B018C019B01AC01D1
:10110000B501C6010E94C01487FF02C075018601A7
:101110009701A801B501C6010E94C014882341F0BF
:10112000A701B8014A8F5B8F6C8F7D8F81E08FA301
:10113000DF91CF911F910F91FF90EF90DF90CF90B3
:10114000BF90AF907F906F905F904F9008952F92D7
:101150003F924F925F926F927F928F929F92AF9247
:10116000BF92CF92DF92EF92FF920F931F93CF9394
:10117000DF93CDB7DEB7A7970FB6F894DEBF0FBEEB
:10118000CDBF29013A01E982FA820B831C83AD822B
:10119000BE82CF82D886CCACDDACEEACFFAC2CE10D
:1011A00037EC41EB52E40E94AF160E947C166C8F24
:1011B0007D8F8E8F9F8F24E731ED45EB52E4C30185
:1011C000B2010E94AF160E947C1668A379A38AA37D
:1011D0009BA325E535E545E052E469817A818B8161
:1011E0009C810E94AF160E947C166CA37DA38EA3E7
:1011F0009FA3809166018F5F8F8B8E3009F41F8AC9
:101200002F89022F220F110B8091650190E080172A
:10121000910719F40E94F402F7CF80916601282EFD
:10122000312C20E030E0A901C701B6010E94C014B2
:101230008823D1F08FE3829D8001839D100D1124BE
:1012400009591E4F81E0D8018C932CE137EC41EB1A
:1012500052E4C701B6010E94AF160E947C16F80145
:10126000FD967183608309C08FE3829DF001839DA9
:10127000F00D1124E959FE4F10828FE3829DF00199
:10128000839DF00D1124E959FE4F86A215868091A9
:10129000590190915A01A0915B01B0915C010C8DB4
:1012A0001D8D2E8D3F8D081719072A073B0714F453
:1012B00028E0258700915D0110915E0120915F017A
:1012C0003091600148A159A16AA17BA14017510743
:1012D000620773075CF44FE3429DF001439DF00DFC
:1012E0001124E959FE4F458540614587C090610151
:1012F000D0906201E0906301F09064014CA15DA187
:101300006EA17FA14C155D056E057F055CF44FE372
:10131000429DF001439DF00D1124E959FE4F458592
:10132000406245874C8D5D8D6E8D7F8D481B590BBE
:101330006A0B7B0B2A013B0177FF07C0442455242D
:101340003201441A550A660A770AEFE3E29DC001AA
:10135000E39D900D1124FC01E959FE4F4182528218
:101360006382748288A099A0AAA0BBA0801A910A67
:10137000A20AB30A89869A86AB86BC86B7FE0BC0E2
:1013800088279927DC0188199909AA09BB09898747
:101390009A87AB87BC87EFE3E29D9001E39D300D18
:1013A0001124F901E959FE4F09851A852B853C85E1
:1013B00005831683278330878CA19DA1AEA1BFA191
:1013C0008C199D09AE09BF096C017D018C019D013D
:1013D000B7FF07C0002711279801081B190B2A0B1C
:1013E0003B0B9FE3929DD001939DB00D1124FD0115
:1013F000E959FE4F018712872387348789859A85AB
:10140000AB85BC8584159505A605B70510F4D301F9
:10141000C2012C013D0180179107A207B30710F408
:10142000280139018FE3829D8001839D100D1124D5
:1014300009591E4FD8011E964D925D926D927C9275
:101440005197411451046104710409F48FC3CB0115
:10145000BA010E946F152CE137EC41EB52E40E9477
:10146000C51469877A878B879C87C501B4010E9460
:101470006F1524E731ED45EB52E40E94C5146D87EA
:101480007E878F87988BC701B6010E946F1525E56F
:1014900035E545E052E40E94C5144B015C01298505
:1014A0003A854B855C85CA01B9010E94AF166B0174
:1014B0007C012D853E854F855889CA01B9010E945E
:1014C000AF169B01AC01C701B6010E943D146B0130
:1014D0007C01A5019401C501B4010E94AF169B01D6
:1014E000AC01C701B6010E943D140E9422176B8B0C
:1014F0007C8B8D8B9E8BF80162A373A384A395A331
:101500009B01AC0160E070E080E89FE30E94C5149D
:101510006B017C019B01AC016D817E818F8198857F
:101520000E94AF16688F798F8A8F9B8F9B01AC01C9
:101530006B897C898D899E890E94AF1669837D8322
:10154000898B9A8BCB01A989BA89F801868B978BF5
:10155000A08FB18FC301B2010E946F152B013C0116
:10156000288D398D4A8D5B8D0E94AF160E94A9147B
:101570000E943E15D80152966D937D938D939C9356
:101580005597A7019601C301B2010E94AF1620E052
:101590003AEB4BED59E40E94AF1620E030E84BE304
:1015A00056E40E94C5140E94A9140E943715F80140
:1015B00061AB72AB83AB94ABA701960169857A8569
:1015C0008B859C850E94AF1669877A878B879C875D
:1015D000A70196016D857E858F8598890E94AF163B
:1015E0006D877E878F87988BA7019601C501B4010F
:1015F0000E94AF162B013C0190916601809165011C
:10160000981709F4ABC0E0904901F0904A010091AD
:101610004B0110914C0120E030E0A901B701C80155
:101620000E94771618160CF099C080914D01909188
:101630004E01A0914F01B0915001BC01CD019058D5
:1016400029853A854B855C850E94AF164B015C016C
:101650002091510130915201409153015091540118
:101660006D857E858F8598890E94AF169B01AC01A0
:10167000C501B4010E943C144B015C01209155014D
:10168000309156014091570150915801C301B20168
:101690000E94AF169B01AC01C501B4010E943C142D
:1016A0004B015C0123E333E343E75FE30E94C01493
:1016B00087FF54C029813D8149895A89B701C801F2
:1016C0000E94C01487FD04C0E980FD8009891A8941
:1016D00023E333E343E75FEBC501B4010E947716D0
:1016E00018160CF03FC0A501940160E070E080E89E
:1016F0009FE30E943C1420E030E040E05FE30E9462
:10170000AF160E9422174B015C0120E030EC48E24A
:1017100056E40E94AF16688F798F8A8F9B8FA50140
:10172000940160E070E080E89FE30E943C149B011C
:10173000AC01688D798D8A8D9B8D0E94C5140E94A5
:1017400022175B016C019B01AC01B701C8010E942B
:10175000C01487FD07C07501860104C0E12CF12C7F
:1017600000E010E08FE3829DF001839DF00D1124D5
:10177000E959FE4FC701D801868F978FA0A3B1A367
:1017800020E03AEB4BE55AEC6B897C898D899E8988
:101790000E94AF169B01AC0160E070E0CB010E949B
:1017A0003C140E9422175B016C019B01AC01B70144
:1017B000C8010E94C01487FD04C075019C2D8D2DA9
:1017C00002C0902F812F2FE3229D8001239D100DB9
:1017D000112409591E4FA701692F782FD8015A9655
:1017E0004D935D936D937C935D979501A6016981FF
:1017F0007D8189899A890E94C014181624F081E09D
:10180000F80180A703C0D80198961C928FE3829DAF
:10181000F001839DF00D1124E959FE4F81E087A36B
:1018200009851A852B853C8500934D0110934E0147
:1018300020934F01309350012D853E854F85588967
:10184000209351013093520140935301509354011E
:101850004092550150925601609257017092580182
:1018600089819D81A989BA898093490190934A0110
:10187000A0934B01B0934C010F89009366012C8D0E
:101880003D8D4E8D5F8D2093590130935A014093C9
:101890005B0150935C0148A159A16AA17BA14093CF
:1018A0005D0150935E0160935F01709360016CA1D4
:1018B0007DA18EA19FA160936101709362018093CD
:1018C000630190936401F0906601E0E0F0E000E0D5
:1018D00010E08091650190E02F2D0F2C000C330B50
:1018E0002817390709F47BC0F11002C03EE0F32E3F
:1018F000FA947FE32F2D2703C0011124AC0149592D
:101900005E4F4A010115110509F466C0309709F4CC
:1019100063C0D80198968C9198975E962C905E97AC
:101920005F963C905F979096AC9090979196BC9103
:10193000B983811145C0B22CC32CDA2CEB2E428C1A
:10194000538C648C758CA3019201622D732D8A2DAA
:101950009B2F0E94771618169CF5A3019201C301D4
:10196000B2010E94AF162B013C0120E03AEB4BE59F
:101970005AECF80162A173A184A195A10E94AF164F
:101980009B01AC01C301B2010E943C140E942217CA
:10199000562E672E782EA92E262F372F482F592FF7
:1019A000622D732D8D2D9E2D0E94C01487FD03C0C6
:1019B000B52C6301EA2C8B2D9C2DAD2DBE2D03C0C3
:1019C000C101AA2DB981F801828F938FA48FB58FA1
:1019D000E1E0D8019796EC93F80184017ACFF0907A
:1019E000650100E010E080E090E02FE3E22E4F2D53
:1019F0000F2C000C550B2091660130E04217530765
:101A0000C9F0E49E9001E59E300D1124A9014959C9
:101A10005E4F6A01009731F00115110519F0B80108
:101A20000E943D08F3945EE0F51201C0F12CC8015C
:101A30008601DDCF009731F00115110519F0B801CD
:101A40000E943D08D0906501E12CF12C8FE3C82E57
:101A50004D2D0D2C000C550B8091660190E0481720
:101A6000590709F447C0C49EC001C59E900D1124BA
:101A7000BC0169597E4F1B01E114F104A1F1D701AA
:101A800097968C91811104C0FB0187A1882359F19D
:101A9000D70156964D905D906D907C905997C49E5D
:101AA000F001C59EF00D1124E959FE4FA3019201EA
:101AB000628D738D848D958D0E94C5144B015C01E0
:101AC000A3019201F701628D738D848D958D0E9423
:101AD000C514AB01BC0195018401C7010E94020736
:101AE000D70197961C92D394BEE0DB1201C0D12C93
:101AF0007101AECFF70186889788A08CB18CA501C3
:101B0000940160E070E0CB010E94C5142B013C0100
:101B1000A5019401D7015A966D917D918D919C916B
:101B20005D970E94C514AB01BC0193018201C701FE
:101B30000E940207F70117A2A7960FB6F894DEBF1E
:101B40000FBECDBFDF91CF911F910F91FF90EF900E
:101B5000DF90CF90BF90AF909F908F907F906F90CD
:101B60005F904F903F902F900C940110A7960FB666
:101B7000F894DEBF0FBECDBFDF91CF911F910F91C3
:101B8000FF90EF90DF90CF90BF90AF909F908F909D
:101B90007F906F905F904F903F902F9008950895A1
:101BA000FF920F931F93CF93DF931F92CDB7DEB7B2
:101BB00090916601FF24F394F90E9EE0F91201C0A2
:101BC000F12C0F2D0F2C000C110B2091650130E032
:101BD0002017310729F489830E94F4028981F5CF07
:101BE000E09166019FE3E99FF0011124E959FE4F5E
:101BF0008083F09266010F90DF91CF911F910F913A
:101C0000FF900C940110209166019091650181E094
:101C1000291301C080E008959091660180916501CB
:101C2000981749F0809165012FE3829FC00111242C
:101C300089599E4F089580E090E008959091660143
:101C400080916501981741F0809165018F5F8E301A
:101C500009F480E080936501089510926601109266
:101C6000650108958F929F92AF92BF92CF92DF92BB
:101C7000EF92FF920F931F93CF93DF9349015A0185
:101C8000670178012CE137EC41EB52E40E94AF167A
:101C90000E947C16C9E5D1E0688379838A839B839F
:101CA00024E731ED45EB52E4C501B4010E94AF16C3
:101CB0000E947C166C837D838E839F8325E535E5AA
:101CC00045E052E4C701B6010E94AF160E947C169F
:101CD000688779878A879B871092490110924A0109
:101CE00010924B0110924C018CE0EDE4F1E0DF0129
:101CF0001D928A95E9F7DF91CF911F910F91FF9087
:101D0000EF90DF90CF90BF90AF909F908F9008950D
:101D1000EF92FF920F931F9310926601109265014C
:101D2000E12CF12C870120E030E040EA50E4CA01C8
:101D3000B9010E94320E1F910F91FF90EF9008950C
:101D40008AB1837F8AB987B1807C87B9089587BDBE
:101D50000895882311F05C9A08955C98089588236B
:101D600011F05F9A08955F980895882311F05D9AA5
:101D700008955D980895569A17BC81E884BD83E064
:101D800085BD549A579A80E00E94A90E80E00E9477
:101D9000AF0E559A80E00C94B50E4091E40450913A
:101DA000E5046091E6047091E7048091E00490916D
:101DB000E104A091E204B091E304840F951FA61FF3
:101DC000B71F813828E3920721E0A207B10550F43C
:101DD0008093E0049093E104A093E204B093E304C1
:101DE00080E0089580589843A140B1098093E004B1
:101DF0009093E104A093E204B093E30481E008959A
:101E00009B01AC01203486E038074105510520F4E0
:101E100020E436E040E050E060E070E788E399E3DA
:101E20000E947D172115310581E04807510518F4FE
:101E3000B90190E02FC02115310588E04807510510
:101E4000A8F4DA01C901F3E0B695A79597958795AF
:101E5000FA95D1F7BC019C01AD01A3E0220F331F1D
:101E6000441F551FAA95D1F791E014C0DA01C901AA
:101E700026E0B695A795979587952A95D1F7BC0149
:101E80009C01AD01E6E0220F331F441F551FEA9568
:101E9000D1F792E0809181009F5F887F892B8093AA
:101EA000810070938900609388002093E40430934C
:101EB000E5044093E6045093E7040895CF93C82FB8
:101EC0000E94A70EC93210F082E005C0CB3010F09E
:101ED00083E001C084E085BDCF9108958F929F92E9
:101EE000AF92BF92CF92DF92EF92FF92CF93DF93A8
:101EF0004B015C01C091FA04D091FB048EA1682FC4
:101F000070E080E090E00E946F156B017C01C501DC
:101F1000B4010E946D154B015C016A897B898C8933
:101F20009D890E946D159B01AC01C501B4010E9401
:101F3000C5149B01AC01C701B6010E94AF160E94F7
:101F40003E15862FDF91CF91FF90EF90DF90CF90DD
:101F5000BF90AF909F908F900C945E0F0F931F9344
:101F6000CF93DF93882311F023E001C02BE390E3AC
:101F7000922725B1392F3873277C232B25B956E0BA
:101F800046E021E061E0CFE3D1E012E00AE1ACE419
:101F9000B9E036B181113C27662379F130FD05C0E7
:101FA000411102C09D2729C04150222359F032FD22
:101FB00008C0511105C06623A1F0912720E002C09E
:101FC000515021E075B1E92FE7707E2B75B9302FA4
:101FD0003A95F1F735B13E2735B9FD013197F1F763
:101FE000D8CF8CE0ECEFF4E0DF011D928A95E9F7A1
:101FF000DF91CF911F910F910895222391F360E01B
:10200000D6CF8091DB0481110BC081E08093DB048B
:1020100080E38093F90480916F00826080936F0069
:1020200008951092DB041092FB041092FA04EFE67C
:10203000F0E080818D7F808380E00C94A70E8091FA
:10204000DB0408959091DA04911107C08093D904BC
:1020500081E08093DA040C949F0008958091D90464
:1020600008958091DA04089580E28093D904109253
:10207000DA0408956091FC047091FD048091FE04DF
:102080009091FF040E946F152CE137EC41EB52E474
:102090000E94C5140895609100057091010580911A
:1020A0000205909103050E946F1524E731ED45EB81
:1020B00052E40E94C51408956091040570910505CD
:1020C00080910605909107050E946F1525E535E57D
:1020D00045E052E40E94C51408958F929F92AF92FA
:1020E000BF92CF92DF92EF92FF920F931F93CF9305
:1020F000DF9349015A01670178012CE137EC41EB8C
:1021000052E40E94AF160E947C16CCEFD4E06883A4
:1021100079838A839B8324E731ED45EB52E4C50143
:10212000B4010E94AF160E947C166C837D838E835F
:102130009F8325E535E545E052E4C701B6010E94DD
:10214000AF160E947C16688779878A879B87DF9104
:10215000CF911F910F91FF90EF90DF90CF90BF90A4
:10216000AF909F908F900895EF92FF920F931F93DF
:1021700084B18F6384B985B1807C806385B9E1E8DF
:10218000F0E080818F7E8083808188608083E0E8BA
:10219000F0E080818D7F808380818E7F808380814D
:1021A0008F73808380818F7C80831092B000109227
:1021B000B100E0E7F0E080818160808360E476E058
:1021C00080E090E00E94000F80E00E945E0F8CE0B3
:1021D000ECEFF4E0DF011D928A95E9F7E12CF12C98
:1021E000870120E030E040EA50E4CA01B9010E94D2
:1021F0006D101092E0041092E1041092E20410922B
:10220000E3041092FB041092FA041092DA0480E2C4
:102210008093D9041092E8041F910F91FF90EF90E2
:102220000C9411101F920F920FB60F9211248F93DE
:1022300085B1887F85B91092B1008F910F900FBE44
:102240000F901F9018951F920F920FB60F921124A6
:10225000CF92DF92EF92FF922F933F934F935F9332
:102260006F937F938F939F93AF93BF93CF93DF939E
:10227000EF93FF938091E8048111E1C281E08093A4
:10228000E8048091DA04882329F00E9411100E944A
:102290002D0ED3C2309902C084E213C0319902C01E
:1022A00085E20FC0329902C086E20BC0339902C0AA
:1022B0008AE207C0349902C08BE203C0359904C09A
:1022C0008DE20E942210B9C285B19091F9049873F1
:1022D000877C892B85B985B1887F9091F904892BFA
:1022E00085B98AEF8093B20082E08093B100789440
:1022F0008091FA049091FB04892B09F06AC00E9436
:102300000C0EEC019093FB048093FA04892B19F4D2
:102310000E94111092C28881823008F05AC0C9A46C
:10232000DAA4EBA4FCA4C092DC04D092DD04E09219
:10233000DE04F092DF0480E49CE9A0E0B0E080934A
:10234000E0049093E104A093E204B093E304C70196
:10235000B6010E94000F8881813021F480E00E9444
:102360005E0F04C0C701B6010E946E0FE091FA042F
:10237000F091FB0486859785A089B189B595A795CD
:1023800097958795B095A095909581959F4FAF4F64
:10239000BF4F8093F5049093F604A093F704B09395
:1023A000F8048093F1049093F204A093F304B093A3
:1023B000F4048093ED049093EE04A093EF04B093A3
:1023C000F0041092E9041092EA041092EB041092C7
:1023D000EC04C091FA04D091FB043881832F90E083
:1023E0008830910508F029C2FC01E45AFF4F0C9493
:1023F0009F172D852093F9044091F5045091F60420
:102400006091F7047091F80489819A81AB81BC8155
:10241000840F951FA61FB71F8093F5049093F604B1
:10242000A093F704B093F8044E855F856889798995
:10243000181619061A061B0644F521602093F904A4
:10244000841B950BA60BB70B8093F5049093F604B1
:10245000A093F704B093F8048091FC049091FD04DC
:10246000A091FE04B091FF0423FF04C00197A109CD
:10247000B10903C00196A11DB11D8093FC04909386
:10248000FD04A093FE04B093FF04C090F104D0902B
:10249000F204E090F304F090F4048D819E81AF810A
:1024A000B8858C0D9D1DAE1DBF1D8093F1049093CA
:1024B000F204A093F304B093F404181619061A0654
:1024C0001B0654F52091F90422602093F904841B23
:1024D000950BA60BB70B8093F1049093F204A09395
:1024E000F304B093F4048091000590910105A0914C
:1024F0000205B091030524FF04C00197A109B109A9
:1025000003C00196A11DB11D8093000590930105A4
:10251000A0930205B0930305C090ED04D090EE04A3
:10252000E090EF04F090F00489859A85AB85BC8536
:102530008C0D9D1DAE1DBF1D8093ED049093EE0488
:10254000A093EF04B093F004181619061A061B06A0
:1025500054F52091F90424602093F904841B950B11
:10256000A60BB70B8093ED049093EE04A093EF04B9
:10257000B093F0048091040590910505A0910605A3
:10258000B091070525FF04C00197A109B10903C057
:102590000196A11DB11D8093040590930505A0939C
:1025A0000605B09307058091E9049091EA04A09193
:1025B000EB04B091EC040196A11DB11D8093E904D8
:1025C0009093EA04A093EB04B093EC04E091F90437
:1025D00020E32E272093F90484179507A607B70751
:1025E00008F00FC14DA95EA96FA978AD84179507B2
:1025F000A607B70708F040C00E94CD0E882309F453
:102600001CC149A95AA96BA97CA98091DC049091AD
:10261000DD04A091DE04B091DF04840F951FA61F96
:10262000B71F8093DC049093DD04A093DE04B09385
:10263000DF044A895B896C897D89481759076A07D5
:102640007B0740F44093DC045093DD046093DE0488
:102650007093DF04C090DC04D090DD04E090DE04D1
:10266000F090DF04C701B6010E94000F888181301D
:1026700009F064C080E0C2C049AD5AAD6BAD7CAD1D
:1026800084179507A607B70769F480E49CE9A0E0E2
:10269000B0E08093E0049093E104A093E204B0934F
:1026A000E304CBC084179507A607B70708F44BC00F
:1026B0000E94CD0E882309F4C0C08091DC04909163
:1026C000DD04A091DE04B091DF0449A95AA96BA9E9
:1026D0007CA9481759076A077B0768F4841B950B88
:1026E000A60BB70B8093DC049093DD04A093DE046B
:1026F000B093DF0408C01092DC041092DD04109245
:10270000DE041092DF048DA59EA5AFA5B8A9409167
:10271000DC045091DD046091DE047091DF04481701
:1027200059076A077B0708F095CF8093DC049093E4
:10273000DD04A093DE04B093DF048CCFC701B601A3
:102740000E946E0F7AC0CA88DB88EC88FD88809171
:10275000DC049091DD04A091DE04B091DF048C15BF
:102760009D05AE05BF05B9F0C092DC04D092DD0432
:10277000E092DE04F092DF04C701B6010E94000F70
:102780008881813021F480E00E945E0F04C0C7017F
:10279000B6010E946E0FE091FA04F091FB04808173
:1027A000813009F04AC025AD36AD40E050E060917F
:1027B000E9047091EA048091EB049091EC040E948A
:1027C0007D17672B682B692BC1F5F8940E942902AD
:1027D0007894282F30E020583109220F331FE091E0
:1027E000FA04F091FB0446A1429FC001439F900D63
:1027F00011246FEF70E00E946917862F0E945E0F10
:102800001CC03130A1F40E94470211C081E001C018
:1028100080E00E94A90E0BC081E001C080E00E9410
:10282000AF0E05C081E001C080E00E94B50E10929D
:10283000FB041092FA040E941E0E1092E804FF910D
:10284000EF91DF91CF91BF91AF919F918F917F9148
:102850006F915F914F913F912F91FF90EF90DF909B
:10286000CF900F900FBE0F901F90189580E00E94A0
:10287000AE0F81E00C94AE0F5058BB27AA270E94E0
:1028800054140C9425160E94171638F00E941E1638
:1028900020F039F49F3F19F426F40C9414160EF42A
:1028A000E095E7FB0C94E515E92F0E94361658F3E6
:1028B000BA17620773078407950720F079F4A6F525
:1028C0000C9470160EF4E0950B2EBA2FA02D0B0170
:1028D000B90190010C01CA01A0011124FF27591B65
:1028E00099F0593F50F4503E68F11A16F040A22F6B
:1028F000232F342F4427585FF3CF469537952795DC
:10290000A795F0405395C9F77EF41F16BA0B620BDA
:10291000730B840BBAF09150A1F0FF0FBB1F661F21
:10292000771F881FC2F70EC0BA0F621F731F841F64
:1029300048F4879577956795B795F7959E3F08F08A
:10294000B0CF9395880F08F09927EE0F979587954C
:1029500008950E94581690F09F3748F4911116F48C
:102960000C94711660E070E080E89FE3089526F013
:102970001B16611D711D811D0C94EB150C94061620
:102980000E94C11508F481E008950E94D9140C94A6
:1029900025160E941E1658F00E94171640F029F4C2
:1029A0005F3F29F00C94E51551110C9471160C94AD
:1029B00014160E94361668F39923B1F3552391F348
:1029C000951B550BBB27AA2762177307840738F09E
:1029D0009F5F5F4F220F331F441FAA1FA9F335D0FB
:1029E0000E2E3AF0E0E832D091505040E695001CAF
:1029F000CAF72BD0FE2F29D0660F771F881FBB1F69
:102A0000261737074807AB07B0E809F0BB0B802D46
:102A1000BF01FF2793585F4F3AF09E3F510578F072
:102A20000C94E5150C9471165F3FE4F3983ED4F3D3
:102A3000869577956795B795F7959F5FC9F7880F46
:102A4000911D9695879597F90895E1E0660F771F98
:102A5000881FBB1F621773078407BA0720F0621B29
:102A6000730B840BBA0BEE1F88F7E09508950E9454
:102A70003E156894B1110C94711608950E943E168B
:102A800088F09F5798F0B92F9927B751B0F0E1F02F
:102A9000660F771F881F991F1AF0BA95C9F714C0DF
:102AA000B13091F00E947016B1E008950C94701648
:102AB000672F782F8827B85F39F0B93FCCF3869518
:102AC00077956795B395D9F73EF490958095709575
:102AD00061957F4F8F4F9F4F0895E89409C097FBF2
:102AE0003EF490958095709561957F4F8F4F9F4FE5
:102AF0009923A9F0F92F96E9BB279395F695879529
:102B000077956795B795F111F8CFFAF4BB0F11F4EB
:102B100060FF1BC06F5F7F4F8F4F9F4F16C0882392
:102B200011F096E911C0772321F09EE8872F762FC8
:102B300005C0662371F096E8862F70E060E02AF009
:102B40009A95660F771F881FDAF7880F96958795F5
:102B500097F908950E94581690F09F3748F4911104
:102B600016F00C94711660E070E080E89FEB089519
:102B700026F41B16611D711D811D0C94EB150C9420
:102B80000616990F0008550FAA0BE0E8FEEF16167F
:102B90001706E807F907C0F012161306E407F50751
:102BA00098F0621B730B840B950B39F40A2661F0C5
:102BB000232B242B252B21F408950A2609F4A14068
:102BC000A6958FEF811D811D089597F99F6780E875
:102BD00070E060E00895882371F4772321F0985025
:102BE000872B762F07C0662311F499270DC09051CB
:102BF000862B70E060E02AF09A95660F771F881F99
:102C0000DAF7880F9695879597F908959F3F31F0E9
:102C1000915020F4879577956795B795880F911D0A
:102C20009695879597F908959FEF80EC0895002475
:102C30000A941616170618060906089500240A9421
:102C400012161306140605060895092E0394000CA7
:102C500011F4882352F0BB0F40F4BF2B11F460FF36
:102C600004C06F5F7F4F8F4F9F4F089557FD90585F
:102C7000440F551F59F05F3F71F04795880F97FB40
:102C8000991F61F09F3F79F08795089512161306FA
:102C90001406551FF2CF4695F1DF08C01616170629
:102CA0001806991FF1CF869571056105089408955E
:102CB0000E943E16A0F0BEE7B91788F4BB279F38E4
:102CC00060F41616B11D672F782F8827985FF7CF0D
:102CD000869577956795B11D93959639C8F30895B4
:102CE000E894BB2766277727CB0197F908950E94C0
:102CF000C11508F48FEF08950E943E1658F19E57B3
:102D000060F19851A0F0E9F0983020F5092E99274C
:102D1000660F771F881F991F0A94D1F712C0062EDD
:102D2000672F782F8827985F11F4000C07C0993F10
:102D3000B4F38695779567959395D9F7611D711DC5
:102D4000811D3EF490958095709561957F4F8F4FD2
:102D50009F4F089568940C9471160C9470160E94FD
:102D6000C2160C9425160E94171638F00E941E16E3
:102D700020F0952311F00C94E5150C9414161124F1
:102D80000C9471160E94361670F3959FC1F3950F3F
:102D900050E0551F629FF001729FBB27F00DB11DDF
:102DA000639FAA27F00DB11DAA1F649F6627B00D6F
:102DB000A11D661F829F2227B00DA11D621F739F58
:102DC000B00DA11D621F839FA00D611D221F749F66
:102DD0003327A00D611D231F849F600D211D822FAD
:102DE000762F6A2F11249F5750409AF0F1F08823D4
:102DF0004AF0EE0FFF1FBB1F661F771F881F915001
:102E00005040A9F79E3F510580F00C94E5150C94B5
:102E100071165F3FE4F3983ED4F3869577956795F6
:102E2000B795F795E7959F5FC1F7FE2B880F911D2A
:102E30009695879597F9089519F416F40C9414163D
:102E40000C9406160E943E16B8F39923C9F3B6F304
:102E50009F57550B87FF0E9462170024A0E640EAA7
:102E6000900180585695979528F4805C660F771FDF
:102E7000881F20F026173707480730F4621B730BB2
:102E8000840B202931294A2BA695179407942025D5
:102E900031254A2758F7660F771F881F20F026171D
:102EA0003707480730F4620B730B840B200D311D7C
:102EB000411DA09581F7B901842F9158880F9695EF
:102EC0008795089591505040660F771F881FD2F75D
:102ED000089597FB072E16F4009407D077FD09D0CC
:102EE0000E94B01707FC05D03EF4909581959F4F46
:102EF0000895709561957F4F0895A1E21A2EAA1B3F
:102F0000BB1BFD010DC0AA1FBB1FEE1FFF1FA21799
:102F1000B307E407F50720F0A21BB30BE40BF50B96
:102F2000661F771F881F991F1A9469F7609570951F
:102F3000809590959B01AC01BD01CF010895EE0FE6
:102F4000FF1F0590F491E02D09940E94C417A59FDE
:102F5000900DB49F900DA49F800D911D1124089594
:102F6000AA1BBB1B51E107C0AA1FBB1FA617B707AF
:102F700010F0A61BB70B881F991F5A95A9F78095CB
:102F80009095BC01CD010895A29FB001B39FC001EF
:102F9000A39F700D811D1124911DB29F700D811D85
:0A2FA0001124911D0895F894FFCF4D
:022FAA00010024
:00000001FF
