:100000000C945A000C9481000C9481000C94810093
:100010000C9481000C9481000C9481000C9481005C
:100020000C9481000C946C110C9481000C947D1143
:100030000C9481000C9481000C9481000C9481003C
:100040000C9460110C9481000C946B010C941A01B7
:100050000C9481000C9481000C9481000C9481001C
:100060000C9481000C948100F5068604DA04AB043C
:10007000E704EA04ED04F204F70435056605970584
:1000800099059B059D055506EE064306EE066B0693
:100090009806C506EE06EE06EE06EE06EE066006CD
:1000A000EE06EE064E06EE06EE06EE06EE06BA0585
:1000B000E8051606E9EAF6E085EC98E001C08193D0
:1000C000EF3FF907E0F3D9F311241FBECFEFD8E0DB
:1000D000DEBFCDBF11E0A0E0B1E0EEEBF2E302C085
:1000E00005900D92A230B107D9F726E0A2E0B1E069
:1000F00001C01D92A93AB207E1F70E9483000C9457
:100100005D190C94000078940E94B2000E9496023F
:100110000E94990E0E9400110E94B10E0E94D80EFA
:100120000E94620480E090E0089510920301109212
:1001300002010895909109019F5F903809F490E0C1
:10014000209108019217E1F3E0910901F0E0E75DE9
:10015000F94F8083909309018091C1008062809360
:10016000C10008951092C50080E18093C400E0ECC6
:10017000F0E080818D7F8083E1ECF0E08081806120
:1001800080838081886080838081806880838EE71F
:100190000C949A00CF92DF92EF92FF92CF93C82FE8
:1001A000CB01BA0120E030E04AE754E40E9439185C
:1001B0000E9406186B017C0128EFF21A8C2D8068D2
:1001C0000E949A00D701C60180789F73AA27BB2797
:1001D00027E0B695A795979587952A95D1F78058EA
:1001E0000E949A00D701C6018827907CAF71BB2777
:1001F0003EE0B695A795979587953A95D1F78058A3
:100200000E949A00D701C60188279927A07EBF7057
:1002100045E1B695A795979587954A95D1F780586A
:100220000E949A008C2FCF91FF90EF90DF90CF909B
:100230000C949A001F920F920FB60F9211248F9375
:100240009F93EF93FF93809108019091050199236B
:1002500031F095E09093C600109205010DC0E82F93
:10026000F0E0E75DF94F90819093C6008F5F803892
:1002700009F480E08093080190910901891305C079
:100280008091C1008F7D8093C100FF91EF919F917C
:100290008F910F900FBE0F901F901895E0910A015B
:1002A000F0E0E75DFA4F808190910A019F5F9093A3
:1002B0000A01909104019F5F90930401903151F4E1
:1002C00091E0909305019091C10090629093C100DC
:1002D0001092040108951F920F920FB60F921124ED
:1002E0002F933F934F935F936F937F938F939F933E
:1002F000AF93BF93CF93EF93FF93C091C6008091CC
:100300000001882329F010920001C09307013DC02D
:1003100081E08093000180910701C81719F08DE3F7
:100320000E94CB0FC031F8F4C13011F481E224C037
:10033000C23069F4109203011092020110920A0176
:1003400010920B01109204010E94DD0F1EC0C330F9
:1003500019F40E94D40219C0C43019F40E94D802C2
:1003600014C083E209C0E0910B0181E08E0F9091EF
:100370000A01891304C082E20E94CB0F06C0F0E09C
:10038000E75DFA4FC08380930B01FF91EF91CF910E
:10039000BF91AF919F918F917F916F915F914F919D
:1003A0003F912F910F900FBE0F901F901895CF93F4
:1003B000C1E080910301882301F18091020188232B
:1003C000C9F01092060190910A0180910B019813D7
:1003D0000BC080910601811104C00E94DC02C09311
:1003E00006010E94E802EFCF0E944E01813111F414
:1003F000109203010E94E802DCCF10920601C1E0D6
:1004000090910A0180910B0198130BC08091060115
:10041000811104C00E94DC02C09306010E94E80220
:10042000EFCF0E944E01803131F481E080930301CF
:100430001092020181E4CF910895809103018823F5
:10044000C9F080910201811115C090910A0180913B
:100450000B01981303C00E94DC020CC00E944E01E5
:1004600087FD09C0813119F41092030103C083E2B2
:100470000E94CB0F80E8089520910A0190910B0112
:1004800081E0291301C080E0089581E0809302019A
:100490000895E1E1F1E0438150E060E070E0405810
:1004A00051096109710987E0440F551F661F771FC5
:1004B0008A95D1F7828190E0A0E0B0E08058910960
:1004C000A109B109840F951FA61FB71FAC01BD017B
:1004D00097E0440F551F661F771F9A95D1F78181CA
:1004E00090E0A0E0B0E080589109A109B109840F23
:1004F000951FA61FB71F27E0880F991FAA1FBB1FB4
:100500002A95D1F72081820F911DA11DB11DBC013B
:10051000CD0160587109810998400E94F91620E0C8
:1005200030E04AE754E40E944F160895E6E1F1E016
:1005300081E0808340E050E06AEF75E442835383BA
:10054000648375831682178210861186128613863D
:1005500014861586168640E050E060EA70E447870E
:10056000508B618B728B438B548B658B768B178A88
:10057000108E118E128E9CE0E1E3F1E0DF01292F55
:100580001D922A95E9F7EDE3F1E0DF011D929A95BE
:10059000E9F78093100180930F0110920E011092E1
:1005A0000D0180930C01089581E08093100108955E
:1005B00081E080930F01089580910D0190910E01CB
:1005C000019690930E0180930D0110920C010895F5
:1005D0008F929F92AF92BF92CF92DF92EF92FF9253
:1005E0000F931F93CF934A9B02C04B9903C080E0A7
:1005F0000E94B80E0E94DA0F882391F10E943E0EED
:100600000E94A8106B017C010E9497104B015C01B5
:100610000E94861087017601A50194010E94430E75
:100620000E94861060932501709326018093270114
:10063000909328010E9497106093290170932A01DA
:1006400080932B0190932C010E94A81060932D01A0
:1006500070932E0180932F01909330011092150119
:1006600080911001811105C080910F01882309F448
:100670001DC1109210010E94140E811112C00E941F
:100680003C0281110EC00E94DA0F81110AC081E480
:100690000E949A0083B7816083BF889583B78E7F5D
:1006A00083BF4A9903C082E40E949A004B9903C019
:1006B00083E40E949A000E94D70FC82F803211F065
:1006C0000E949A00309905C0C43219F084E20E9459
:1006D0009A00319905C0C53219F085E20E949A004E
:1006E000329905C0C63219F086E20E949A00339909
:1006F00005C0CA3219F08AE20E949A000E94861050
:1007000020E030E040EA50E40E94C615209131011B
:100710003091320140913301509134010E94C6154D
:10072000AB01BC0188E70E94CA000E94971020E03C
:1007300030E040EA50E40E94C61520913501309126
:10074000360140913701509138010E94C615AB0126
:10075000BC0189E70E94CA000E94A81020913901BB
:1007600030913A0140913B0150913C010E94C615E5
:10077000AB01BC018AE70E94CA0080910C01811183
:1007800010C060910D0170910E0180E090E00E9418
:10079000F716AB01BC0187E70E94CA0081E0809395
:1007A0000C01E9EAF6E0BF01695A76408081853C98
:1007B00009F466C080E090E00E94F716AB01BC012E
:1007C00085E70E94CA0080910F01882309F460C068
:1007D00010920F0140E050EE61EE74E486E70E9453
:1007E000CA00409131015091320160913301709102
:1007F000340181E60E94CA004091350150913601D2
:10080000609137017091380182E60E94CA004091E0
:10081000390150913A0160913B0170913C0183E6AE
:100820000E94CA00409118015091190160911A016B
:1008300070911B0187E60E94CA0060911C0170E064
:1008400080E090E00E94F716AB01BC0188E60E94B0
:10085000CA0040911D0150911E0160911F017091CD
:10086000200189E60E94CA00409121015091220195
:1008700060912301709124018AE60E94CA0008C099
:1008800088E0EF3FF80711F008F094CF31968BCF56
:1008900086E0CF911F910F91FF90EF90DF90CF9066
:1008A000BF90AF909F908F900C949A00CF911F9122
:1008B0000F91FF90EF90DF90CF90BF90AF909F90FF
:1008C0008F900895C1E3D1E08CE0982E7724739443
:1008D0000E94D701182F0E94DA0F882319F00E9476
:1008E000E802F6CF17FD84C28FEB810F8A3108F042
:1008F0002AC1812F90E0FC01E154F109EF30F105AC
:1009000008F01FC1EC5CFF4F0C942919A09018014E
:10091000B0901901C0901A01D0901B01E0902D01F8
:10092000F0902E0100912F011091300120912901AA
:1009300030912A0140912B0150912C0160912501A9
:100940007091260180912701909128011F921F929A
:100950001F921F922CC0A0901801B0901901C09056
:100960001A01D0901B01E0902D01F0902E01009112
:100970002F01109130012091290130912A014091DD
:100980002B0150912C0160912501709126018091DD
:10099000270190912801E0912401EF93E091230138
:1009A000EF93E0912201EF93E0912101EF9380908A
:1009B0001C0154C060911D0170911E0180911F01A6
:1009C0009091200140911C010E94EA0D0EC21092EC
:1009D00016010BC27092160108C280911601809315
:1009E000170103C28091170180931601FEC10E9476
:1009F000BA14FE01892D11928A95E9F780E090E002
:100A0000A0EAB0E48093250190932601A0932701EA
:100A1000B09328018093290190932A01A0932B0180
:100A2000B0932C0110922D0110922E0110922F01E3
:100A300010923001A0901801B0901901C0901A01D5
:100A4000D0901B011F921F921F921F92812CE12CAC
:100A5000F12C87019C01AD01BC01CD010E94AA08C7
:100A60000F900F900F900F90C0C180913101909125
:100A70003201A0913301B091340180933D019093F4
:100A80003E01A0933F01B0934001809135019091C8
:100A90003601A0913701B0913801809341019093C4
:100AA0004201A0934301B093440180913901909198
:100AB0003A01A0913B01B0913C0180934501909394
:100AC0004601A0934701B09348018FC180913D0139
:100AD00090913E01A0913F01B0914001809331017E
:100AE00090933201A0933301B0933401809141017E
:100AF00090914201A0914301B0914401809335014E
:100B000090933601A0933701B0933801809145014D
:100B100090914601A0914701B0914801809339011D
:100B200090933A01A0933B01B0933C015EC182E0F7
:100B300005C083E003C084E001C085E00E94EB0DA6
:100B400054C18CE350C18FE9810F8A3108F04AC14A
:100B500080911501843009F043C1812F90E0FC01A0
:100B6000E456F109E731F10508F038C1ED5BFF4FBC
:100B70000C94291980911601813099F40E94490240
:100B800020E030E040EA50E40E94C7159B01AC0130
:100B90006091310170913201809133019091340163
:100BA0000CC00E9449029B01AC016091250170912B
:100BB000260180912701909128010E94C71560931A
:100BC00025017093260180932701909328010DC180
:100BD00080911601813099F40E94490220E030E0B2
:100BE00040EA50E40E94C7159B01AC0160913501B9
:100BF0007091360180913701909138010CC00E94AC
:100C000049029B01AC016091290170912A018091F8
:100C10002B0190912C010E94C715609329017093BC
:100C20002A0180932B0190932C01DFC08091160143
:100C3000813091F40E94490220E030E0A9010E9435
:100C4000C7159B01AC016091390170913A01809107
:100C50003B0190913C010CC00E9449029B01AC01F8
:100C600060912D0170912E0180912F0190913001A2
:100C70000E94C71560932D0170932E0180932F0160
:100C800090933001B2C00E944902609318017093A2
:100C9000190180931A0190931B01A7C00E94490279
:100CA0000E94C81660931C01A0C00E944902609374
:100CB0001D0170931E0180931F019093200195C028
:100CC0000E944902609321017093220180932301C5
:100CD000909324018AC00E9449026B017C0180919B
:100CE0001601813049F4C0923101D0923201E09274
:100CF0003301F092340179C00E94C80F882319F0A3
:100D00000E94E802F9CF0E94861020E030E040EA1D
:100D100050E40E94C615A70196010E94C715609372
:100D200031017093320180933301909334015DC09F
:100D30000E9449026B017C0180911601813049F4C7
:100D4000C0923501D0923601E0923701F09238011D
:100D50004CC00E94C80F882319F00E94E802F9CF06
:100D60000E94971020E030E040EA50E40E94C6154F
:100D7000A70196010E94C715609335017093360153
:100D8000809337019093380130C00E9449026B0173
:100D90007C0180911601813049F4C0923901D092D2
:100DA0003A01E0923B01F0923C011FC00E94C80F43
:100DB000882319F00E94E802F9CF0E94A8109B0135
:100DC000AC01C701B6010E94C71560933901709349
:100DD0003A0180933B0190933C0107C08EE303C02E
:100DE0008AE301C083E20E94CB0F1092150177CDF8
:100DF000E0911501E43048F481E08E0F80931501F5
:100E0000F0E0EF5EFE4F10836ACD8AE30E94CB0FC5
:100E100066CD4F925F926F927F928F929F92AF9228
:100E2000BF92CF92DF92EF92FF920F931F93CF93D7
:100E3000DF93CDB7DEB762970FB6F894DEBF0FBE73
:100E4000CDBF9A8B898B2A013B0148015901FC01D6
:100E500062897389848995890E94F7166B017C01E8
:100E6000A30192010E9439180E9433160E94C816ED
:100E70002B013C01E989FA8961A772A783A794A78E
:100E8000A5019401C701B6010E9439180E943316CA
:100E90000E94C8164B015C01E989FA8965A776A70B
:100EA00087A790AB21A932A943A954A9A0EEBEE21D
:100EB0000E942F1969837A838B839C830E94F91681
:100EC0006D837E838F839887C301B2010E94F716DA
:100ED0002B013C01A7019601C701B6010E943918F8
:100EE0006B017C01A3019201C301B2010E94391878
:100EF00069877A878B879C872D813E814F815885B2
:100F0000CA01B9010E94C7156D877E878F87988BAC
:100F100029853A854B855C85C701B6010E94C615B7
:100F20002D853E854F8558890E944F160E943316A5
:100F30000E94C1162B013C01C501B4010E94F716A5
:100F40009B01AC010E9439184B015C01A70196017D
:100F50000E94C6156B017C0169817A818B819C811D
:100F600090958095709561957F4F8F4F9F4F0E9410
:100F7000F9169B01AC010E94C7159B01AC01C7018A
:100F8000B6010E944F160E943417E989FA89C68477
:100F9000D784E088F188A70196012419350946090C
:100FA000570929833A834B835C830E94C1162981A8
:100FB0003A814B815C81261B370B480B590BDA01B8
:100FC000C90157FF3BC0C701B6010E94F9162D8524
:100FD0003E854F8558890E94391829853A854B8569
:100FE0005C850E94C615A50194010E94C7154B019E
:100FF0005C0120E030E040E850E46D817E818F812B
:1010000098850E9439189B01AC01C501B4010E946A
:101010004F160E9433160E94C11697FF03C060E06E
:1010200070E0CB01260137016C157D058E059F050B
:1010300014F42B013C0180E090E0DC01E989FA899D
:1010400045AA56AA67AA70AE480E591E6A1E7B1E94
:1010500041AE52AE63AE74AE62960FB6F894DEBF88
:101060000FBECDBFDF91CF911F910F91FF90EF90F9
:10107000DF90CF90BF90AF909F908F907F906F90B8
:101080005F904F9008954F925F926F927F92AF92D0
:10109000BF92CF92DF92EF92FF920F931F93CF9365
:1010A000DF938C01EB01FC01428C538C648C758CBA
:1010B000AA8CBB8CCC8CDD8C9501A601C301B2013E
:1010C0000E944A1687FF37C0A3019201C301B201F3
:1010D0000E9439182B013C0120E03AEB4BE55AEC19
:1010E000F80162A173A184A195A10E9439189B0106
:1010F000AC01C301B2010E94C6150E94AC187B016D
:101100008C019B01AC01B501C6010E944A1687FF04
:1011100002C0750186019701A801B501C6010E94B0
:101120004A16882341F0C701D8018A8F9B8FAC8F64
:10113000BD8F81E08FA3DF91CF911F910F91FF9021
:10114000EF90DF90CF90BF90AF907F906F905F90C7
:101150004F9008952F923F924F925F926F927F929D
:101160008F929F92AF92BF92CF92DF92EF92FF92B7
:101170000F931F93CF93DF93CDB7DEB7A4970FB62E
:10118000F894DEBF0FBECDBF29013A01E986FA8689
:101190000B871C87A982BE82CF82D886C9ACDAAC05
:1011A000EBACFCAC2CE137EC41EB52E40E9439187B
:1011B0000E9406186D8B7E8B8F8B988F24E731ED04
:1011C00045EB52E4C301B2010E9439180E9406188F
:1011D000698F7A8F8B8F9C8F25E535E545E052E44A
:1011E00069857A858B859C850E9439180E9406182E
:1011F0006D8F7E8F8F8F98A3809166018F5F898717
:101200008E3009F419864984042D440C110B809109
:10121000650190E00817190719F40E94E802F7CF5A
:1012200080916601282E312C20E030E0A901C70111
:10123000B6010E944A16882311F181E4829D800143
:10124000839D100D112409591E4F81E0D8018C9304
:101250002CE137EC41EB52E4C701B6010E9439188A
:1012600020E030E040E854E40E9439180E9406185B
:10127000F801FD96608371838283938309C081E4C2
:10128000829DF001839DF00D1124E959FE4F1082DB
:1012900081E4829DF001839DF00D1124E959FE4FF8
:1012A00086A215868091590190915A01A0915B0107
:1012B000B0915C014D885E886F88788C481659061D
:1012C0006A067B0614F428E0258780905D019090E3
:1012D0005E01A0905F01B0906001498C5A8C6B8CCC
:1012E0007C8C481459046A047B045CF421E4229D3C
:1012F000F001239DF00D1124E959FE4F2585206151
:101300002587C0906101D0906201E0906301F09068
:1013100064014D8C5E8C6F8C78A04C145D046E045F
:101320007F045CF421E4229DF001239DF00D112443
:10133000E959FE4F2585206225874D885E886F8894
:10134000788C481A590A6A0A7B0AC301B20177FEEF
:1013500007C0442455243201461A570A680A790AFC
:1013600041E4429D9001439D300D1124F901E9595A
:10137000FE4F4182528263827482298D3A8D4B8D59
:101380005C8D281939094A095B0949015A012A83E8
:101390003B834C835D8357FF0BC022273327A90172
:1013A000281939094A095B092A833B834C835D83E9
:1013B00041E4429D9001439D300D1124F901E9590A
:1013C000FE4F2A813B814C815D8125833683478393
:1013D00050872D8D3E8D4F8D58A12C193D094E09FA
:1013E0005F0969017A01298B3A8B4B8B5C8B57FF24
:1013F0000BC022273327A9012C193D094E095F098B
:10140000298B3A8B4B8B5C8BE1E4E29DA001E39D41
:10141000500D1124FA01E959FE4F29893A894B8967
:101420005C8921873287438754874D865E866F8625
:10143000788A2A813B814C815D814216530664067D
:10144000750620F42D873E874F87588B4D845E8428
:101450006F84788829893A894B895C8942165306BA
:101460006406750610F429013A0121E4229D8001E9
:10147000239D100D112409591E4FD8011E964D921F
:101480005D926D927C9251974114510461047104F4
:1014900009F487C30E94F9162CE137EC41EB52E4C2
:1014A0000E944F166D877E878F87988BC501B40188
:1014B0000E94F91624E731ED45EB52E40E944F16E5
:1014C000698B7A8B8B8B9C8BC701B6010E94F916B6
:1014D00025E535E545E052E40E944F164B015C01DD
:1014E0002D853E854F855889CA01B9010E9439185A
:1014F0006B017C0129893A894B895C89CA01B90150
:101500000E9439189B01AC01C701B6010E94C715A2
:101510006B017C01A5019401C501B4010E94391839
:101520009B01AC01C701B6010E94C7150E94AC180F
:101530006A837B838C839D83F80162A373A384A356
:1015400095A39B01AC0160E070E080E89FE30E94FE
:101550004F166B017C0189819E81AF81B885F801AE
:10156000868B978BA08FB18FC301B2010E94F916B1
:101570002B013C0129813E814F815885C701B6016D
:101580000E943918A30192010E9439180E94331653
:101590000E94C816D80152966D937D938D939C93AB
:1015A0005597A3019201C701B6010E94391820E0A6
:1015B0003AEB4BED59E40E94391820E030E84BE358
:1015C00056E40E944F160E9433160E94C816F80176
:1015D00061AB72AB83AB94ABA70196016D857E8541
:1015E0008F8598890E9439186D877E878F87988BA1
:1015F000A701960169897A898B899C890E9439188B
:10160000698B7A8B8B8B9C8BA7019601C501B401EA
:101610000E9439182B013C0190916601809165016F
:10162000981709F4ABC0E0904901F0904A0100918D
:101630004B0110914C0120E030E0A901B701C80135
:101640000E94011818160CF099C080914D019091DC
:101650004E01A0914F01B0915001BC01CD019058B5
:101660002D853E854F8558890E9439184B015C01B4
:1016700020915101309152014091530150915401F8
:1016800069897A898B899C890E9439189B01AC01F0
:10169000C501B4010E94C6154B015C0120915501A2
:1016A000309156014091570150915801C301B20148
:1016B0000E9439189B01AC01C501B4010E94C615F6
:1016C0004B015C0123E333E343E75FE30E944A16E7
:1016D00087FF54C09701A80169817E818F81988519
:1016E0000E940118181624F0E980FE800F811885E9
:1016F00023E333E343E75FEBC501B4010E94011824
:1017000018160CF03FC0A501940160E070E080E87D
:101710009FE30E94C61520E030E040E05FE30E94B6
:1017200039180E94AC184B015C0120E030EC48E213
:1017300056E40E94391869A37AA38BA39CA3A50140
:10174000940160E070E080E89FE30E94C6159B0171
:10175000AC0169A17AA18BA19CA10E944F160E94A5
:10176000AC185B016C019B01AC01B701C8010E9480
:101770004A1687FD07C07501860104C0E12CF12CD3
:1017800000E010E081E4829DF001839DF00D1124C2
:10179000E959FE4FC701D801868F978FA0A3B1A347
:1017A00020E03AEB4BE55AEC6A817B818C819D818C
:1017B0000E9439189B01AC0160E070E0CB010E94EF
:1017C000C6150E94AC185B016C019B01AC01B7010E
:1017D000C8010E944A1687FD04C075019C2D8D2DFD
:1017E00002C0902F812F21E4229D8001239D100DA6
:1017F000112409591E4FA701692F782FD8015A9635
:101800004D935D936D937C935D979501A6016981DE
:101810007E818F8198850E944A16181624F081E0F7
:10182000F80180A703C0D80198961C9281E4829D9C
:10183000F001839DF00D1124E959FE4F81E087A34B
:101840002D853E854F85588920934D0130934E015B
:1018500040934F015093500189899A89AB89BC8983
:101860008093510190935201A0935301B09354017E
:101870004092550150925601609257017092580162
:1018800089819E81AF81B8858093490190934A01F7
:10189000A0934B01B0934C014984409266014D885E
:1018A0005E886F88788C4092590150925A016092FC
:1018B0005B0170925C01498C5A8C6B8C7C8C4092E1
:1018C0005D0150925E0160925F01709260014D8CEB
:1018D0005E8C6F8C78A040926101509262016092A0
:1018E000630170926401F0906601E0E0F0E000E0D6
:1018F00010E08091650190E02F2D0F2C000C330B30
:101900002817390709F47DC0F11002C03EE0F32E1C
:10191000FA9421E43F2D3203C0011124AC0149594E
:101920005E4F4A010115110509F468C0309709F4AA
:1019300065C0D80198968C9198975E962C905E978A
:101940005F963C905F979096AC90909791964C9054
:101950004982811147C0B22CC32CDA2CE42C428C72
:10196000538C648C758CA3019201622D732D8A2D8A
:101970009E2D0E9401181816ACF5A3019201C30117
:10198000B2010E9439182B013C0120E03AEB4BE5F3
:101990005AECD80192966D917D918D919C9195977D
:1019A0000E9439189B01AC01C301B2010E94C61507
:1019B0000E94AC18562E672E782EA92E262F372F70
:1019C000482F592F622D732D8D2D9E2D0E944A1662
:1019D00087FD03C0B52C6301EA2C8B2D9C2DAD2D0A
:1019E000BE2D03C0C101AA2DB981F801828F938F4A
:1019F000A48FB58FE1E0D8019796EC93F8018401AC
:101A000078CFF090650100E010E080E090E021E404
:101A1000E22E4F2D0F2C000C550B2091660130E06B
:101A200042175307F1F0E49E9001E59E300D11241A
:101A3000A90149595E4F6A01009759F00115110536
:101A400041F0DC0198962C91211103C0B8010E944D
:101A50004308F394BEE0FB1201C0F12CC8018601DB
:101A6000D8CF009751F00115110539F0FC0120A5E0
:101A7000211103C0B8010E944308D0906501E12CF8
:101A8000F12C81E4C82E2D2D0D2C000C330B8091F0
:101A9000660190E02817390709F447C0C29EC001CB
:101AA000C39E900D1124AC0149595E4F1A01E114F7
:101AB000F104A1F1D70197968C91811104C0FA012C
:101AC00087A1882359F1D70156964D905D906D906E
:101AD0007C905997C29EF001C39EF00D1124E959E4
:101AE000FE4FA3019201628D738D848D958D0E94AE
:101AF0004F164B015C01A3019201F701628D738DBA
:101B0000848D958D0E944F16AB01BC019501840117
:101B1000C7010E940907D70197961C92D394BEE093
:101B2000DB1201C0D12C7101AECFF70186889788F6
:101B3000A08CB18CA501940160E070E0CB010E9403
:101B40004F162B013C01A5019401D7015A966D91C6
:101B50007D918D919C915D970E944F16AB01BC01C8
:101B600093018201C7010E940907F70117A2A496F9
:101B70000FB6F894DEBF0FBECDBFDF91CF911F919E
:101B80000F91FF90EF90DF90CF90BF90AF909F901C
:101B90008F907F906F905F904F903F902F900C941C
:101BA000AA0FA4960FB6F894DEBF0FBECDBFDF918B
:101BB000CF911F910F91FF90EF90DF90CF90BF904A
:101BC000AF909F908F907F906F905F904F903F90DD
:101BD0002F90089508950F931F93CF93DF93D82FDD
:101BE000C0916601CF5FCE3009F4C0E00C2F0C2EFF
:101BF000000C110B8091650190E00817190719F48A
:101C00000E94E802F7CFE091660181E4E89FF001CD
:101C10001124E959FE4FD083C0936601DF91CF9123
:101C20001F910F910C94AA0F20916601909165016C
:101C300081E0291301C080E00895909166018091B0
:101C40006501981749F08091650121E4829FC001E8
:101C5000112489599E4F089580E090E00895909155
:101C6000660180916501981741F0809165018F5F51
:101C70008E3009F480E0809365010895109266012A
:101C80001092650108958F929F92AF92BF92CF926A
:101C9000DF92EF92FF920F931F93CF93DF9349014F
:101CA0005A01670178012CE137EC41EB52E40E94C4
:101CB00039180E940618C9E5D1E0688379838A83C0
:101CC0009B8324E731ED45EB52E4C501B4010E944A
:101CD00039180E9406186C837D838E839F8325E5C7
:101CE00035E545E052E4C701B6010E9439180E946B
:101CF0000618688779878A879B8710924901109216
:101D00004A0110924B0110924C018CE0EDE4F1E09D
:101D1000DF011D928A95E9F7DF91CF911F910F9115
:101D2000FF90EF90DF90CF90BF90AF909F908F90FB
:101D30000895EF92FF920F931F93109266011092F5
:101D40006501E12CF12C870120E030E040EA50E40D
:101D5000CA01B9010E94430E1F910F91FF90EF90AD
:101D600008958AB1837F8AB987B1807C87B9089545
:101D70004A9B02C04B9902C017BC01C087BD893283
:101D800010F082E005C08B3010F083E001C084E0E9
:101D900085BD089587B50895882311F05C9A08954C
:101DA0005C980895882311F05F9A08955F980895CC
:101DB000569A17BC81E884BD83E085BD549A80E0C3
:101DC0000E94CC0E579A80E00C94D20E4091FD04F4
:101DD0005091FE046091FF0470910005809101050F
:101DE00090910205A0910305B0910405840F951F01
:101DF000A61FB71F813828E3920721E0A207B1058B
:101E000050F48093FD049093FE04A093FF04B093DC
:101E1000000580E0089580589843A140B10980935F
:101E2000FD049093FE04A093FF04B093000581E0AD
:101E300008959B01AC01203486E038074105510527
:101E400020F420E436E040E050E060E070E788E312
:101E500099E30E9407192115310581E048075105D2
:101E600018F4B90180E02FC02115310588E048073A
:101E70005105A8F4DA01C901F3E0B695A795979545
:101E80008795FA95D1F7BC019C01AD01A3E0220F23
:101E9000331F441F551FAA95D1F781E014C0DA0102
:101EA000C90126E0B695A795979587952A95D1F70C
:101EB000BC019C01AD01E6E0220F331F441F551FFA
:101EC000EA95D1F782E090918100987F8F5F892B0E
:101ED00080938100709389006093880020930105AE
:101EE0003093020540930305509304050895CF9263
:101EF000DF92EF92FF92CF93DF93C0911B05D091B9
:101F00001C050E94F7166B017C016A897B898C890C
:101F10009D890E94F7169B01AC01C701B6010E9482
:101F20004F166B017C016EA170E080E090E00E9492
:101F3000F9169B01AC01C701B6010E9439180E9435
:101F4000C816862FDF91CF91FF90EF90DF90CF9052
:101F50000C94B80E8091F80481110BC081E080933D
:101F6000F80480E380931A0580916F00826080936B
:101F70006F0008951092F80410921C0510921B0532
:101F8000EFE6F0E080818D7F808380E00C94B80ED6
:101F90008091F80408959091F704911107C08093FF
:101FA000F60481E08093F7040C94950008958091E5
:101FB000F60408958091F704089580E28093F60472
:101FC0001092F70408954F925F926F927F928F92D2
:101FD000AF92BF92CF92DF92EF92FF920F931F9337
:101FE000CF93DF93CDB7DEB72C970FB6F894DEBF53
:101FF0000FBECDBF69837A838B839C8329013A010D
:10200000ED82FE820F831887A986BA86CB86DC868E
:102010008091F804882319F00E94E802F9CFE12C9E
:10202000F12C8701A8019701C801B7010E94430E56
:102030008CE0EDE1F5E0DF011D928A95E9F71F9252
:102040001F921F921F92812CAE8CBF8CC8A0D9A06A
:10205000A301920169817A818B819C810E94AA08E7
:102060000F900F900F900F908091F804882319F033
:102070000E94E802F9CFE12CF12C8701A801970119
:10208000C801B7010E94430E8CE0EDE1F5E0DF01ED
:102090001D928A95E9F70E94DD0F81E08093F50497
:1020A0001F921F921F921F92812CAE8CBF8CC8A0D2
:1020B000D9A029853A854B855C856D817E818F818C
:1020C00098850E94AA080F900F900F900F90809112
:1020D000F804882319F00E94E802F9CF1092F50461
:1020E0002C960FB6F894DEBF0FBECDBFDF91CF9117
:1020F0001F910F91FF90EF90DF90CF90BF90AF9026
:102100008F907F906F905F904F90089560911D0524
:1021100070911E0580911F05909120050E94F9166F
:102120002CE137EC41EB52E40E944F160895609188
:1021300021057091220580912305909124050E942C
:10214000F91624E731ED45EB52E40E944F1608954D
:1021500060912505709126058091270590912805AD
:102160000E94F91625E535E545E052E40E944F1638
:1021700008958F929F92AF92BF92CF92DF92EF928B
:10218000FF920F931F93CF93DF9349015A01670189
:1021900078012CE137EC41EB52E40E9439180E949F
:1021A0000618CDE1D5E0688379838A839B8324E791
:1021B00031ED45EB52E4C501B4010E9439180E948B
:1021C00006186C837D838E839F8325E535E545E086
:1021D00052E4C701B6010E9439180E9406186887A8
:1021E00079878A879B87DF91CF911F910F91FF900D
:1021F000EF90DF90CF90BF90AF909F908F90089519
:10220000EF92FF920F931F9384B18F6384B985B1CE
:10221000807C806385B9E1E8F0E080818F7E8083F7
:10222000808188608083E0E8F0E080818D7F80831A
:1022300080818E7F808380818F73808380818F7C7B
:1022400080831092B0001092B100E0E7F0E080814E
:102250008160808360E476E080E090E00E94190F66
:1022600080E00E94B80E8CE0EDE1F5E0DF011D9208
:102270008A95E9F7E12CF12C870120E030E040EA73
:1022800050E4CA01B9010E94B9101092FD041092E5
:10229000FE041092FF041092000510921C0510928B
:1022A0001B051092F70480E28093F6041092050556
:1022B0001092F5041F910F91FF90EF900C94BA0FBC
:1022C0001F920F920FB60F9211245E9815BC0F90BB
:1022D0000FBE0F901F9018951F920F920FB60F927E
:1022E00011248F9385B1887F85B91092B1008F91A9
:1022F0000F900FBE0F901F9018951F920F920FB660
:102300000F921124CF92DF92EF92FF920F931F93BF
:102310002F933F934F935F936F937F938F939F93ED
:10232000AF93BF93CF93DF93EF93FF938091050516
:10233000811107C381E0809305058091F70488230C
:1023400029F00E94BA0F0E943E0EF9C28091F50456
:10235000811119C04A9B02C04B9903C080E00E94C2
:10236000B80E309902C084E20BC0319902C085E2F8
:1023700007C0329902C086E203C0339904C08AE2E2
:102380000E94CB0FDCC225B190911A05987385B1DC
:10239000877C892B85B9822F88738913D0C285B138
:1023A000887F90911A05892B85B98AEF8093B200B6
:1023B00082E08093B100789480911B0590911C0578
:1023C000892B09F072C00E941D0EEC0190931C0530
:1023D00080931B05892B19F40E94BA0FB0C2888123
:1023E000823008F062C0C9A4DAA4EBA4FCA4C092B5
:1023F000F904D092FA04E092FB04F092FC0480E429
:102400009CE9A0E0B0E08093FD049093FE04A093CB
:10241000FF04B0930005C701B6010E94190F88811F
:10242000813061F480E00E94B80E1092060510928F
:102430000705109208051092090504C0C701B601EE
:102440000E94770FE0911B05F0911C05868597850A
:10245000A089B189B595A79597958795B095A095D1
:10246000909581959F4FAF4FBF4F809316059093E6
:102470001705A0931805B093190580931205909342
:102480001305A0931405B093150580930E05909342
:102490000F05A0931005B093110510920A05109234
:1024A0000B0510920C0510920D05C0911B05D091E3
:1024B0001C052881223009F433C250F0243009F47D
:1024C00035C208F42FC2253009F039C280E02FC28E
:1024D0003D8530931A0549815A816B817C818091B9
:1024E000160590911705A0911805B0911905840F54
:1024F000951FA61FB71F8093160590931705A093ED
:102500001805B09319054E855F8568897989181675
:1025100019061A061B0644F5316030931A05841B10
:10252000950BA60BB70B8093160590931705A093F8
:102530001805B093190580911D0590911E05A09175
:102540001F05B091200533FF04C00197A109B1090F
:1025500003C00196A11DB11D80931D0590931E051A
:10256000A0931F05B0932005CD80DE80EF80F88416
:102570008091120590911305A0911405B091150555
:102580008C0D9D1DAE1DBF1D8093120590931305EC
:10259000A0931405B0931505181619061A061B0604
:1025A00054F530911A05326030931A05841B950B4F
:1025B000A60BB70B8093120590931305A0931405F7
:1025C000B09315058091210590912205A0912305D6
:1025D000B091240534FF04C00197A109B10903C0DB
:1025E0000196A11DB11D8093210590932205A09312
:1025F0002305B0932405C984DA84EB84FC8480919C
:102600000E0590910F05A0911005B09111058C0D4C
:102610009D1DAE1DBF1D80930E0590930F05A093C9
:102620001005B0931105181619061A061B0654F565
:1026300030911A05346030931A05841B950BA60B54
:10264000B70B80930E0590930F05A0931005B093E0
:1026500011058091250590912605A0912705B0913F
:10266000280535FF04C00197A109B10903C00196EF
:10267000A11DB11D8093250590932605A0932705E4
:10268000B0932805C0900A05D0900B05E0900C058A
:10269000F0900D058FEFC81AD80AE80AF80AC09220
:1026A0000A05D0920B05E0920C05F0920D05909171
:1026B0001A0580E3892780931A05C416D506E60615
:1026C000F70608F028C18DA99EA9AFA9B8ADC81614
:1026D000D906EA06FB0608F040C00E94E60E8823F1
:1026E00009F42DC149A95AA96BA97CA98091F904C3
:1026F0009091FA04A091FB04B091FC04840F951F03
:10270000A61FB71F8093F9049093FA04A093FB04CB
:10271000B093FC044A895B896C897D894817590705
:102720006A077B0740F44093F9045093FA046093DE
:10273000FB047093FC04C090F904D090FA04E0907C
:10274000FB04F090FC04C701B6010E94190F8881B8
:10275000813009F064C080E0DBC089AD9AADABADDB
:10276000BCADC816D906EA06FB0669F480E49CE90C
:10277000A0E0B0E08093FD049093FE04A093FF04DA
:10278000B0930005DCC0C816D906EA06FB0608F4BB
:102790004BC00E94E60E882309F4D1C049A95AA96A
:1027A0006BA97CA98091F9049091FA04A091FB0493
:1027B000B091FC04481759076A077B0768F4841B2B
:1027C000950BA60BB70B8093F9049093FA04A09392
:1027D000FB04B093FC0408C01092F9041092FA04B0
:1027E0001092FB041092FC048DA59EA5AFA5B8A97C
:1027F0004091F9045091FA046091FB047091FC043B
:10280000481759076A077B0708F095CF8093F904AA
:102810009093FA04A093FB04B093FC048CCFC701FF
:10282000B6010E94770F8BC06A897B898C899D894C
:102830000091F9041091FA042091FB043091FC04FA
:10284000601771078207930751F06093F904709342
:10285000FA048093FB049093FC040E94190F888172
:10286000813009F054C08091060590910705A09130
:102870000805B09109052AE0CC0CDD1CEE1CFF1CFC
:102880002A95D1F7892B8A2B8B2B41F4C092060510
:10289000D0920705E0920805F0920905809106059F
:1028A00090910705A0910805B0910905C816D906B1
:1028B000EA06FB0608F443C0ED96488159816A8117
:1028C0007B81840F951FA61FB71F809306059093E9
:1028D0000705A0930805B0930905F8940E941D020E
:1028E0007894282F30E020583109220F331FE091CF
:1028F0001B05F0911C0546A1429FC001439F900D0E
:1029000011246FEF70E00E94F318862F01C08EA192
:102910000E94B80E14C0213061F40E94450209C023
:1029200081E001C080E00E94CC0E03C081E00E94E3
:10293000D20E10921C0510921B050E942F0E1092B1
:102940000505FF91EF91DF91CF91BF91AF919F91DD
:102950008F917F916F915F914F913F912F911F9137
:102960000F91FF90EF90DF90CF900F900FBE0F90E0
:102970001F9018958F929F92AF92BF92CF92DF9245
:10298000EF92FF920F931F93CF93DF938091F80400
:10299000882319F00E94E802F9CFE12CF12C87017D
:1029A000A8019701C801B7010E94430E8CE0EDE138
:1029B000F5E0DF011D928A95E9F781E08093F50447
:1029C000309917C01F921F921F921F92812CA12C29
:1029D000B12CE8E4CE2EE4E4DE2EA801970160E0FD
:1029E00070E080EA91E40E94AA080F900F900F9087
:1029F0000F9031991AC01F921F921F921F92812C23
:102A0000A12CB12C78E4C72E74E4D72EE12CF12C44
:102A10008701A801970160E070E080EA91EC0E94D4
:102A2000AA080F900F900F900F9032991AC01F9222
:102A30001F921F921F92812CA12CB12C68E4C62EEC
:102A400064E4D62EE12CF12C870120E030E040EA4E
:102A500051E4C801B7010E94AA080F900F900F908F
:102A60000F9033991AC01F921F921F921F92812CB0
:102A7000A12CB12C58E4C52E54E4D52EE12CF12C18
:102A8000870120E030E040EA51ECC801B7010E9424
:102A9000AA080F900F900F900F908091F804882350
:102AA00019F00E94E802F9CF1092F50485E4982EFF
:102AB0009F92C8E4CF931F921F92A12CB12C650165
:102AC000E12CF12C00E211E4A601950160EF73E224
:102AD00084E799EC0E94E30FD4E4DF93CF931F9235
:102AE0001F92E12CF12C00E810E4A601950160EFA3
:102AF00073E284E799EC0E94E30F9F92CF931F92B9
:102B00001F92A12CB12C30E2C32E31E4D32EE12C44
:102B1000F12C870120EF33E244E759ECC801B701FB
:102B20000E94E30FDF93CF931F921F92A12CB12C31
:102B300040E8C42E40E4D42E20EF33E244E759ECC1
:102B4000C801B7010E94E30FA8019701C801B701AE
:102B50000E94430E8CE0EDE1F5E0DF011D928A95C5
:102B6000E9F78DB79EB740960FB6F8949EBF0FBE9B
:102B70008DBFDF91CF911F910F91FF90EF90DF906C
:102B8000CF90BF90AF909F908F9008955058BB27E3
:102B9000AA270E94DE150C94AF170E94A11738F0E7
:102BA0000E94A81720F039F49F3F19F426F40C94E2
:102BB0009E170EF4E095E7FB0C946F17E92F0E9427
:102BC000C01758F3BA17620773078407950720F0F8
:102BD00079F4A6F50C94FA170EF4E0950B2EBA2FA3
:102BE000A02D0B01B90190010C01CA01A001112413
:102BF000FF27591B99F0593F50F4503E68F11A16BF
:102C0000F040A22F232F342F4427585FF3CF46954F
:102C100037952795A795F0405395C9F77EF41F1671
:102C2000BA0B620B730B840BBAF09150A1F0FF0F3B
:102C3000BB1F661F771F881FC2F70EC0BA0F621F27
:102C4000731F841F48F4879577956795B795F79517
:102C50009E3F08F0B0CF9395880F08F09927EE0FAC
:102C60009795879508950E94E21790F09F3748F452
:102C7000911116F40C94FB1760E070E080E89FE37C
:102C8000089526F01B16611D711D811D0C9475178A
:102C90000C9490170E944B1708F481E008950E944D
:102CA00063160C94AF170E94A81758F00E94A11742
:102CB00040F029F45F3F29F00C946F1751110C94E8
:102CC000FB170C949E170E94C01768F39923B1F369
:102CD000552391F3951B550BBB27AA276217730742
:102CE000840738F09F5F5F4F220F331F441FAA1FD6
:102CF000A9F335D00E2E3AF0E0E832D09150504092
:102D0000E695001CCAF72BD0FE2F29D0660F771F3F
:102D1000881FBB1F261737074807AB07B0E809F025
:102D2000BB0B802DBF01FF2793585F4F3AF09E3FAA
:102D3000510578F00C946F170C94FB175F3FE4F388
:102D4000983ED4F3869577956795B795F7959F5FED
:102D5000C9F7880F911D9695879597F90895E1E039
:102D6000660F771F881FBB1F621773078407BA0798
:102D700020F0621B730B840BBA0BEE1F88F7E095F3
:102D800008950E94C8166894B1110C94FB17089519
:102D90000E94C81788F09F5798F0B92F9927B7510C
:102DA000B0F0E1F0660F771F881F991F1AF0BA95EF
:102DB000C9F714C0B13091F00E94FA17B1E008953C
:102DC0000C94FA17672F782F8827B85F39F0B93F2E
:102DD000CCF3869577956795B395D9F73EF49095A2
:102DE0008095709561957F4F8F4F9F4F0895E89420
:102DF00009C097FB3EF490958095709561957F4F43
:102E00008F4F9F4F9923A9F0F92F96E9BB279395F0
:102E1000F695879577956795B795F111F8CFFAF400
:102E2000BB0F11F460FF1BC06F5F7F4F8F4F9F4F31
:102E300016C0882311F096E911C0772321F09EE88F
:102E4000872F762F05C0662371F096E8862F70E0F5
:102E500060E02AF09A95660F771F881FDAF7880FCF
:102E60009695879597F908950E94E21790F09F37FD
:102E700048F4911116F00C94FB1760E070E080E8C4
:102E80009FEB089526F41B16611D711D811D0C9486
:102E900075170C949017990F0008550FAA0BE0E8CE
:102EA000FEEF16161706E807F907C0F0121613060C
:102EB000E407F50798F0621B730B840B950B39F44C
:102EC0000A2661F0232B242B252B21F408950A26B2
:102ED00009F4A140A6958FEF811D811D089597F9F2
:102EE0009F6780E870E060E00895882371F477239D
:102EF00021F09850872B762F07C0662311F499276D
:102F00000DC09051862B70E060E02AF09A95660F14
:102F1000771F881FDAF7880F9695879597F9089598
:102F20009F3F31F0915020F4879577956795B7953D
:102F3000880F911D9695879597F908959FEF80ECDE
:102F4000089500240A94161617061806090608950F
:102F500000240A9412161306140605060895092E75
:102F60000394000C11F4882352F0BB0F40F4BF2BE4
:102F700011F460FF04C06F5F7F4F8F4F9F4F089524
:102F800057FD9058440F551F59F05F3F71F047951A
:102F9000880F97FB991F61F09F3F79F087950895FF
:102FA000121613061406551FF2CF4695F1DF08C01E
:102FB000161617061806991FF1CF8695710561053B
:102FC000089408950E94C817A0F0BEE7B91788F4C6
:102FD000BB279F3860F41616B11D672F782F8827FE
:102FE000985FF7CF869577956795B11D939596393C
:102FF000C8F30895E894BB2766277727CB0197F994
:1030000008950E944B1708F48FEF08950E94C81787
:1030100058F19E5760F19851A0F0E9F0983020F5F2
:10302000092E9927660F771F881F991F0A94D1F7D9
:1030300012C0062E672F782F8827985F11F4000C96
:1030400007C0993FB4F38695779567959395D9F71F
:10305000611D711D811D3EF490958095709561955F
:103060007F4F8F4F9F4F089568940C94FB170C94DB
:10307000FA170E944C180C94AF170E94A11738F051
:103080000E94A81720F0952311F00C946F170C9450
:103090009E1711240C94FB170E94C01770F3959F84
:1030A000C1F3950F50E0551F629FF001729FBB273F
:1030B000F00DB11D639FAA27F00DB11DAA1F649FDB
:1030C0006627B00DA11D661F829F2227B00DA11D8E
:1030D000621F739FB00DA11D621F839FA00D611D14
:1030E000221F749F3327A00D611D231F849F600D35
:1030F000211D822F762F6A2F11249F5750409AF05E
:10310000F1F088234AF0EE0FFF1FBB1F661F771FE9
:10311000881F91505040A9F79E3F510580F00C94B4
:103120006F170C94FB175F3FE4F3983ED4F386953A
:1031300077956795B795F795E7959F5FC1F7FE2B54
:10314000880F911D9695879597F9089519F416F4AF
:103150000C949E170C9490170E94C817B8F39923EB
:10316000C9F3B6F39F57550B87FF0E94EC18002454
:10317000A0E640EA900180585695979528F4805C27
:10318000660F771F881F20F026173707480730F48F
:10319000621B730B840B202931294A2BA6951794A7
:1031A0000794202531254A2758F7660F771F881F77
:1031B00020F026173707480730F4620B730B840B97
:1031C000200D311D411DA09581F7B901842F915823
:1031D000880F96958795089591505040660F771FF8
:1031E000881FD2F7089597FB072E16F4009407D096
:1031F00077FD09D00E943A1907FC05D03EF490955E
:1032000081959F4F0895709561957F4F0895A1E234
:103210001A2EAA1BBB1BFD010DC0AA1FBB1FEE1F50
:10322000FF1FA217B307E407F50720F0A21BB30B9B
:10323000E40BF50B661F771F881F991F1A9469F717
:1032400060957095809590959B01AC01BD01CF0173
:103250000895EE0FFF1F0590F491E02D09940E9450
:103260004E19A59F900DB49F900DA49F800D911DA8
:1032700011240895AA1BBB1B51E107C0AA1FBB1F45
:10328000A617B70710F0A61BB70B881F991F5A95F2
:10329000A9F780959095BC01CD010895A29FB0013A
:1032A000B39FC001A39F700D811D1124911DB29F7A
:0E32B000700D811D1124911D0895F894FFCF1B
:0232BE0001000D
:00000001FF
