:100000000C945A000C9481000C9481000C94810093
:100010000C9481000C9481000C9481000C9481005C
:100020000C9481000C94C2110C9481000C94D31197
:100030000C9481000C9481000C9481000C9481003C
:100040000C94B6110C9481000C946D010C941C015D
:100050000C9481000C9481000C9481000C9481001C
:100060000C9481000C9481002407AB04FF04D0049D
:100070000C050F05120517051C055A058B05BC0557
:10008000BE05C005C20574061D0762061D078A0667
:10009000B706E4061D071D071D071D071D077F0680
:1000A0001D071D076D061D071D071D071D07DF0521
:1000B0000B063706EAEAF6E085EC98E001C081938A
:1000C000EF3FF907E0F3D9F311241FBECFEFD8E0DB
:1000D000DEBFCDBF11E0A0E0B1E0E8E6F4E302C08E
:1000E00005900D92A230B107D9F726E0A2E0B1E069
:1000F00001C01D92AA3AB207E1F70E9483000C9456
:10010000321A0C94000078940E94B2000E94980267
:100110000E94CE0E0E9456110E94E60E0E94120FFF
:100120000E947F0480E090E00895109203011092F5
:1001300002010895909109019F5F903809F490E0C1
:10014000209108019217E1F3E0910901F0E0E65DEA
:10015000F94F8083909309018091C1008062809360
:10016000C10008951092C50080E18093C400E0ECC6
:10017000F0E080818D7F8083E1ECF0E08081806120
:1001800080838081886080838081806880838EE71F
:100190000C949A00CF92DF92EF92FF92CF93C82FE8
:1001A000CB01BA0120E030E04AE754E40E9406198E
:1001B0000E94D3186B017C0128EFF21A8C2D806805
:1001C0000E949A00D701C60180789F73AA27BB2797
:1001D00027E0B695A795979587952A95D1F78058EA
:1001E0000E949A00D701C6018827907CAF71BB2777
:1001F0003EE0B695A795979587953A95D1F78058A3
:100200000E949A00CC24DD2480EEE8228FE0F822C0
:10021000D701C60145E1B695A795979587954A956B
:10022000D1F780580E949A008C2FCF91FF90EF90C9
:10023000DF90CF900C949A001F920F920FB60F92FE
:1002400011248F939F93EF93FF93809108019091D6
:100250000501992331F095E09093C60010920501B5
:100260000DC0E82FF0E0E65DF94F90819093C60055
:100270008F5F803809F480E0809308019091090134
:10028000891305C08091C1008F7D8093C100FF91CB
:10029000EF919F918F910F900FBE0F901F90189527
:1002A000E0910A01F0E0E65DFA4F808190910A0149
:1002B0009F5F90930A01909104019F5F90930401C6
:1002C000903151F491E0909305019091C1009062BA
:1002D0009093C1001092040108951F920F920FB6DF
:1002E0000F9211242F933F934F935F936F937F93BC
:1002F0008F939F93AF93BF93CF93EF93FF93C0914F
:10030000C60080910001882329F010920001C0935B
:1003100007013DC081E08093000180910701C8176B
:1003200019F08DE30E942110C031F8F4C13011F4AE
:1003300081E224C0C23069F41092030110920201DC
:1003400010920A0110920B01109204010E943310C6
:100350001EC0C33019F40E94D60219C0C43019F46B
:100360000E94DA0214C083E209C0E0910B0181E02F
:100370008E0F90910A01891304C082E20E9421101D
:1003800006C0F0E0E65DFA4FC08380930B01FF9159
:10039000EF91CF91BF91AF919F918F917F916F918D
:1003A0005F914F913F912F910F900FBE0F901F9033
:1003B0001895CF93C1E080910301882301F18091CA
:1003C00002018823C9F01092060190910A018091E0
:1003D0000B0198130BC080910601811104C00E948B
:1003E000DE02C09306010E94EA02EFCF0E94500194
:1003F000813111F4109203010E94EA02DCCF1092C5
:100400000601C1E090910A0180910B0198130BC085
:1004100080910601811104C00E94DE02C093060192
:100420000E94EA02EFCF0E945001803131F481E056
:10043000809303011092020181E4CF91089580918D
:1004400003018823C9F080910201811115C09091A8
:100450000A0180910B01981303C00E94DE020CC0B8
:100460000E94500187FD09C0813119F410920301E7
:1004700003C083E20E94211080E8089520910A01C0
:1004800090910B0181E0291301C080E0089581E083
:10049000809302010895E1E1F1E0438150E060E0E2
:1004A00070E0405851096109710987E0440F551FF8
:1004B000661F771F8A95D1F7828190E0A0E0B0E0B7
:1004C00080589109A109B109840F951FA61FB71F74
:1004D000AC01BD0197E0440F551F661F771F9A9529
:1004E000D1F7818190E0A0E0B0E080589109A109A6
:1004F000B109840F951FA61FB71F27E0880F991F0A
:10050000AA1FBB1F2A95D1F72081820F911DA11D23
:10051000B11DBC01CD0160587109810998400E944C
:10052000C61720E030E04AE754E40E941C17089503
:10053000E6E1F1E081E0808340E050E06AEF75E4BD
:1005400042835383648375831682178210861186D3
:100550001286138614861586168640E050E060EAFF
:1005600070E44787508B618B728B438B548B658B08
:10057000768B178A108E118E128E9CE0E1E3F1E0EB
:10058000DF01292F1D922A95E9F7EDE3F1E0DF0164
:100590001D929A95E9F78093100180930F011092B4
:1005A0000E0110920D0180930C01089581E080935B
:1005B0001001089581E080930F01089580910D014D
:1005C00090910E01019690930E0180930D0110926F
:1005D0000C010895CF92DF92EF92FF920F931F9339
:1005E000CF93DF9300D000D0CDB7DEB729B189B16A
:1005F000982F991F9927991F22FB882780F9892B0B
:1006000011F44B9B03C080E00E94ED0E0E9430105D
:100610008823C1F10E94730E0E94FE106B017C01C1
:100620000E94ED109B01AC0169833A834B835C838C
:100630000E94DC108701760129813A814B815C811F
:100640000E94780E0E94DC106093250170932601B1
:1006500080932701909328010E94ED106093290157
:1006600070932A0180932B0190932C010E94FE101D
:1006700060932D0170932E0180932F019093300190
:100680001092150180911001811105C080910F0118
:10069000882309F427C1109210010E94490E81118C
:1006A00012C00E943E0281110EC00E9430108111C2
:1006B0000AC081E40E949A0083B7816083BF889555
:1006C00083B78E7F83BF29B189B1982F991F99274E
:1006D000991F22FB882780F9892B19F082E40E9458
:1006E0009A004B9B03C083E40E949A000E942D1045
:1006F000182F803211F00E949A00309B05C01432EE
:1007000019F084E20E949A00319B05C0153219F05D
:1007100085E20E949A00329B05C0163219F086E2EB
:100720000E949A00339B05C01A3219F08AE20E9497
:100730009A000E94DC1020E030E040EA50E40E9481
:100740009316209131013091320140913301509143
:1007500034010E949316AB01BC0188E70E94CA00D5
:100760000E94ED1020E030E040EA50E40E94931631
:100770002091350130913601409137015091380177
:100780000E949316AB01BC0189E70E94CA000E9437
:10079000FE102091390130913A0140913B01509176
:1007A0003C010E949316AB01BC018AE70E94CA007B
:1007B00080910C01811110C060910D0170910E01AA
:1007C00080E090E00E94C417AB01BC0187E70E9463
:1007D000CA0081E080930C01EAEAF6E0BF016A5AA0
:1007E00076408081853C09F466C080E090E00E94FC
:1007F000C417AB01BC0185E70E94CA0080910F01BC
:10080000882309F460C010920F0140E050E265EDCA
:1008100074E486E70E94CA00409131015091320190
:10082000609133017091340181E60E94CA004091C9
:10083000350150913601609137017091380182E69F
:100840000E94CA004091390150913A0160913B01E8
:1008500070913C0183E60E94CA00409118015091BA
:10086000190160911A0170911B0187E60E94CA006C
:1008700060911C0170E080E090E00E94C417AB0121
:10088000BC0188E60E94CA0040911D0150911E01E2
:1008900060911F017091200189E60E94CA00409179
:1008A00021015091220160912301709124018AE677
:1008B0000E94CA0008C088E0EF3FF80711F008F076
:1008C00094CF31968BCF86E00F900F900F900F90C2
:1008D000DF91CF911F910F91FF90EF90DF90CF901C
:1008E0000C949A000F900F900F900F90DF91CF9182
:1008F0001F910F91FF90EF90DF90CF900895CF93CD
:10090000DF9300D000D0CDB7DEB781E3482E81E081
:10091000582E9CE0992E772473940E94D901182FA9
:100920000E943010882319F00E94EA02F6CF17FDCA
:100930008EC28FEB810F8A3108F02AC1812F90E09F
:10094000FC01E154F109EF30F10508F01FC1EC5C46
:10095000FF4F0C94F619A0901801B0901901C090A7
:100960001A01D0901B01E0902D01F0902E01009112
:100970002F01109130012091290130912A014091DD
:100980002B0150912C0160912501709126018091DD
:100990002701909128011F921F921F921F922CC035
:1009A000A0901801B0901901C0901A01D0901B01BD
:1009B000E0902D01F0902E0100912F011091300157
:1009C0002091290130912A0140912B0150912C0155
:1009D0006091250170912601809127019091280155
:1009E000E0912401EF93E0912301EF93E091220144
:1009F000EF93E0912101EF9380901C0154C060912E
:100A00001D0170911E0180911F0190912001409164
:100A10001C010E94150E18C21092160115C2709288
:100A2000160112C280911601809317010DC28091A8
:100A300017018093160108C20E948615F201892DC4
:100A400011928A95E9F780E090E0A0EAB0E4809303
:100A5000250190932601A0932701B093280180934C
:100A6000290190932A01A0932B01B0932C0110929D
:100A70002D0110922E0110922F0110923001A090A2
:100A80001801B0901901C0901A01D0901B011F925B
:100A90001F921F921F92812CE12CF12C87019C0147
:100AA000AD01BC01CD010E94DD080F900F900F90A9
:100AB0000F90CAC18091310190913201A091330110
:100AC000B091340180933D0190933E01A0933F018A
:100AD000B09340018091350190913601A09137018A
:100AE000B09138018093410190934201A09343015A
:100AF000B09344018091390190913A01A0913B015A
:100B0000B0913C018093450190934601A093470129
:100B1000B093480199C180913D0190913E01A0910F
:100B20003F01B09140018093310190933201A09335
:100B30003301B09334018091410190914201A09121
:100B40004301B09144018093350190933601A09305
:100B50003701B09338018091450190914601A091F1
:100B60004701B09148018093390190933A01A093D5
:100B70003B01B0933C0168C182E005C083E003C043
:100B800084E001C085E00E94160E5EC18CE35AC16C
:100B90008FE9810F8A3108F054C1809115018430AA
:100BA00009F04DC1812F90E0FC01E456F109E731D5
:100BB000F10508F042C1ED5BFF4F0C94F6198091EE
:100BC0001601813089F40E944B0220E030E040EAB7
:100BD00050E40E94941620913101309132014091ED
:100BE0003301509134010CC00E944B029B01AC01B7
:100BF0006091250170912601809127019091280133
:100C00000E9494166093250170932601809327011A
:100C10009093280119C180911601813089F40E94B6
:100C20004B0220E030E040EA50E40E94941620910C
:100C300035013091360140913701509138010CC097
:100C40000E944B029B01AC016091290170912A0125
:100C500080912B0190912C010E94941660932901A0
:100C600070932A0180932B0190932C01EDC0809109
:100C70001601813081F40E944B0220E030E0A9018E
:100C80000E9494162091390130913A0140913B0124
:100C900050913C010CC00E944B029B01AC01609141
:100CA0002D0170912E0180912F01909130010E94B1
:100CB000941660932D0170932E0180932F019093D1
:100CC0003001C2C00E944B02609318017093190159
:100CD00080931A0190931B01B7C00E944B020E949F
:100CE000951760931C01B0C00E944B0260931D01D8
:100CF00070931E0180931F0190932001A5C00E9454
:100D00004B02609321017093220180932301909301
:100D100024019AC00E944B026B017C018091160154
:100D2000813049F4C0923101D0923201E092330116
:100D3000F092340189C00E941E10882319F00E948D
:100D4000EA02F9CF0E94DC1020E030E040EA50E4F3
:100D50000E949316A70196010E9494166093310198
:100D60007093320180933301909334016DC00E94DF
:100D70004B026B017C0180911601813049F4C092D5
:100D80003501D0923601E0923701F09238015CC013
:100D90000E941E10882319F00E94EA02F9CF0E94D7
:100DA000ED1020E030E040EA50E40E949316A701E5
:100DB00096010E94941660933501709336018093DA
:100DC00037019093380140C00E944B029B01AC0157
:100DD00080911601813049F42093390130933A0112
:100DE00040933B0150933C012FC029833A834B83AE
:100DF0005C830E941E1029813A814B815C8188238B
:100E000059F029833A834B835C830E94EA025C8118
:100E10004B813A812981E9CF0E94FE1029813A81D4
:100E20004B815C810E9494166093390170933A0162
:100E300080933B0190933C0107C08EE303C08AE39B
:100E400001C083E20E942110109215016DCDE09146
:100E50001501E43048F481E08E0F80931501F0E035
:100E6000EF5EFE4F108360CD8AE30E9421105CCDBF
:100E70002F923F924F925F926F927F928F929F92AA
:100E8000AF92BF92CF92DF92EF92FF920F931F9398
:100E9000CF93DF93CDB7DEB760970FB6F894DEBF80
:100EA0000FBECDBF1C012A013B0148015901FC01C5
:100EB00062897389848995890E94C4176B017C01BA
:100EC000A30192010E9406190E9400170E94951723
:100ED0002B013C01F10161A772A783A794A7A5018B
:100EE0009401C701B6010E9406190E9400170E94D2
:100EF00095174B015C01F10165A776A787A790AB19
:100F000021A932A943A954A9A0EEBEE20E94FC196E
:100F100069837A838B839C830E94C6176D837E834B
:100F20008F839887C301B2010E94C4172B013C0133
:100F3000A7019601C701B6010E9406196B017C0149
:100F4000A3019201C301B2010E94061969877A8741
:100F50008B879C872D813E814F815885CA01B901BD
:100F60000E9494166D877E878F87988B29853A8596
:100F70004B855C85C701B6010E9493162D853E8581
:100F80004F8558890E941C170E9400170E948E17D7
:100F90002B013C01C501B4010E94C4179B01AC01A7
:100FA0000E9406194B015C01A70196010E9493164D
:100FB0006B017C0169817A818B819C819095809500
:100FC000709561957F4F8F4F9F4F0E94C6179B0171
:100FD000AC010E9494169B01AC01C701B6010E94AE
:100FE0001C170E940118F101C684D784E088F1889B
:100FF000A7019601241935094609570929833A831F
:101000004B835C830E948E1729813A814B815C81DE
:10101000261B370B480B590BDA01C90157FF3DC09E
:10102000C701B6010E94C6179B01AC016D857E8584
:101030008F8598890E94061929853A854B855C859C
:101040000E949316A50194010E9494164B015C0125
:1010500020E030E040E850E46D817E818F8198850A
:101060000E9406199B01AC01C501B4010E941C1726
:101070000E9400170E948E1797FF03C060E070E087
:10108000CB012B013C01C616D706E806F90614F47D
:101090002601370180E090E0DC01F10145AA56AA63
:1010A00067AA70AE480E591E6A1E7B1E41AE52AE34
:1010B00063AE74AE60960FB6F894DEBF0FBECDBFC0
:1010C000DF91CF911F910F91FF90EF90DF90CF9024
:1010D000BF90AF909F908F907F906F905F904F9058
:1010E0003F902F9008954F925F926F927F92AF92B0
:1010F000BF92CF92DF92EF92FF920F931F93CF9305
:10110000DF93FC0120A5211149C0EB018C01428C29
:10111000538C648C758CAA8CBB8CCC8CDD8C95012B
:10112000A601C301B2010E94171787FF37C0A301B0
:101130009201C301B2010E9406192B013C0120E07B
:101140003AEB4BE55AECF80162A173A184A195A199
:101150000E9406199B01AC01C301B2010E949316C3
:101160000E9479197B018C019B01AC01B501C6017C
:101170000E94171787FF02C0750186019701A80119
:10118000B501C6010E941717882341F0A701B801D5
:101190004A8F5B8F6C8F7D8F81E08FA3DF91CF9122
:1011A0001F910F91FF90EF90DF90CF90BF90AF9085
:1011B0007F906F905F904F9008952F923F924F9243
:1011C0005F926F927F928F929F92AF92BF92CF92D7
:1011D000DF92EF92FF920F931F93CF93DF93CDB7E0
:1011E000DEB7A4970FB6F894DEBF0FBECDBF2901BE
:1011F0003A01E986FA860B871C87A982BE82CF82D4
:10120000D886C9ACDAACEBACFCAC2CE137EC41EBEA
:1012100052E40E9406190E94D3186D8B7E8B8F8B2F
:10122000988F24E731ED45EB52E4C301B2010E94EF
:1012300006190E94D318698F7A8F8B8F9C8F25E5B2
:1012400035E545E052E469857A858B859C850E9469
:1012500006190E94D3186D8F7E8F8F8F98A380916F
:1012600066018F5F89878E3009F419864984042DC1
:10127000440C110B8091650190E08017910719F4DF
:101280000E94EA02F7CF80916601282E312C20E0DF
:1012900030E0A901C701B6010E941717882311F198
:1012A00081E4829D8001839D100D112409591E4FF8
:1012B00081E0D8018C932CE137EC41EB52E4C7017B
:1012C000B6010E94061920E030E040E854E40E9494
:1012D00006190E94D318F801FD96608371838283FA
:1012E000938309C081E4829DF001839DF00D112458
:1012F000E959FE4F108281E4829DF001839DF00D3B
:101300001124E959FE4F86A21586809159019091CA
:101310005A01A0915B01B0915C014D885E886F8895
:10132000788C481659066A067B0614F428E025874F
:1013300080905D0190905E01A0905F01B09060018F
:10134000498C5A8C6B8C7C8C481459046A047B043D
:101350005CF421E4229DF001239DF00D1124E95954
:10136000FE4F258520612587C0906101D0906201E4
:10137000E0906301F09064014D8C5E8C6F8C78A0DE
:101380004C145D046E047F045CF421E4229DF001A2
:10139000239DF00D1124E959FE4F258520622587F4
:1013A0004D885E886F88788C481A590A6A0A7B0AC9
:1013B000C301B2014A825B826C827D8277FE0BC0E0
:1013C00022273327A90124193509460957092A83F9
:1013D0003B834C835D8341E4429D9001439D300DEE
:1013E0001124F901E959FE4F4A805B806C807D80B1
:1013F0004182528263827482498C5A8C6B8C7C8CC1
:10140000481859086A087B085301420177FE07C053
:10141000442455243201481859086A087B0841E4DD
:10142000429D9001439D300D1124F901E959FE4F71
:1014300045825682678270862D8D3E8D4F8D58A1D4
:101440002C193D094E095F0969017A01298B3A8BF4
:101450004B8B5C8B57FF0BC022273327A9012C191C
:101460003D094E095F09298B3A8B4B8B5C8BE1E47C
:10147000E29DA001E39D500D1124FA01E959FE4FB0
:1014800029893A894B895C89218732874387548728
:101490004D865E866F86788A2A813B814C815D818C
:1014A000421653066406750620F42D873E874F8743
:1014B000588B4D845E846F84788829893A894B895A
:1014C0005C89421653066406750610F429013A0138
:1014D00021E4229D8001239D100D112409591E4FE6
:1014E000D8011E964D925D926D927C925197411457
:1014F00051046104710409F47FC30E94C6172CE1F2
:1015000037EC41EB52E40E941C176D877E878F8772
:10151000988BC501B4010E94C61724E731ED45EB55
:1015200052E40E941C17698B7A8B8B8B9C8BC701B2
:10153000B6010E94C61725E535E545E052E40E9454
:101540001C174B015C012D853E854F855889CA01CA
:10155000B9010E9406196B017C0129893A894B89DE
:101560005C89CA01B9010E9406199B01AC01C7013F
:10157000B6010E9494166B017C01A5019401C5017E
:10158000B4010E9406199B01AC01C701B6010E947B
:1015900094160E9479196A837B838C839D83F8015A
:1015A00062A373A384A395A39B01AC0160E070E0E8
:1015B00080E89FE30E941C176B017C0189819E815A
:1015C000AF81B885F801868B978BA08FB18FC3014F
:1015D000B2010E94C6172B013C01A7019601698147
:1015E0007E818F8198850E9406199B01AC01C30101
:1015F000B2010E9406190E9400170E949517D80197
:1016000052966D937D938D939C935597A701960168
:10161000C301B2010E94061920E03AEB4BED59E4F8
:101620000E94061920E030E84BE356E40E941C17A4
:101630000E9400170E949517F80161AB72AB83AB53
:1016400094ABA70196016D857E858F8598890E9450
:1016500006196D877E878F87988BA7019601698908
:101660007A898B899C890E940619698B7A8B8B8B6E
:101670009C8BA7019601C501B4010E9406192B019C
:101680003C019091660180916501981709F4ABC007
:10169000E0904901F0904A0100914B0110914C01FA
:1016A00020E030E0A901B701C8010E94CE18181649
:1016B0000CF099C080914D0190914E01A0914F0185
:1016C000B0915001BC01CD0190582D853E854F85CC
:1016D00058890E9406194B015C01209151013091FB
:1016E0005201409153015091540169897A898B8943
:1016F0009C890E9406199B01AC01C501B4010E949E
:1017000093164B015C012091550130915601409197
:10171000570150915801C301B2010E9406199B0163
:10172000AC01C501B4010E9493164B015C0123E397
:1017300033E343E75FE30E94171787FF54C0298113
:101740003E814F815885B701C8010E94171787FD58
:1017500004C0E980FE800F81188523E333E343E76B
:101760005FEBC501B4010E94CE1818160CF03FC003
:10177000A501940160E070E080E89FE30E94931669
:1017800020E030E040E05FE30E9406190E947919F2
:101790004B015C0120E030EC48E256E40E9406195F
:1017A00069A37AA38BA39CA3A501940160E070E0D8
:1017B00080E89FE30E9493169B01AC0169A17AA186
:1017C0008BA19CA10E941C170E9479195B016C01DE
:1017D0009B01AC01B701C8010E94171787FD07C024
:1017E0007501860104C0E12CF12C00E010E081E4D9
:1017F000829DF001839DF00D1124E959FE4FC70130
:10180000D801868F978FA0A3B1A320E03AEB4BE5D8
:101810005AEC6A817B818C819D810E9406199B0113
:10182000AC0160E070E0CB010E9493160E94791930
:101830005B016C019B01AC01B701C8010E94171745
:1018400087FD04C075019C2D8D2D02C0902F812F26
:1018500021E4229D8001239D100D112409591E4F62
:10186000A701692F782FD8015A964D935D936D93F8
:101870007C935D979501A60169817E818F81988512
:101880000E941717181624F081E0F80180A703C002
:10189000D80198961C9281E4829DF001839DF00D01
:1018A0001124E959FE4F81E087A32D853E854F85A0
:1018B000588920934D0130934E0140934F0150932E
:1018C000500189899A89AB89BC8980935101909391
:1018D0005201A0935301B09354014092550150928C
:1018E0005601609257017092580189819E81AF81A3
:1018F000B8858093490190934A01A0934B01B0931E
:101900004C014984409266014D885E886F88788CCE
:101910004092590150925A0160925B0170925C01B1
:10192000498C5A8C6B8C7C8C40925D0150925E018C
:1019300060925F01709260014D8C5E8C6F8C78A01C
:101940004092610150926201609263017092640161
:10195000F0906601E0E0F0E000E010E080916501C9
:1019600090E02F2D0F2C000C330B2817390709F4AA
:101970007DC0F11002C03EE0F32EFA9421E43F2D29
:101980003203C0011124AC0149595E4F4A010115CF
:10199000110509F468C0309709F465C0D80198961C
:1019A0008C9198975E962C905E975F963C905F978F
:1019B0009096AC90909791964C904982811147C037
:1019C000B22CC32CDA2CE42C428C538C648C758C96
:1019D000A3019201622D732D8A2D9E2D0E94CE1897
:1019E0001816ACF5A3019201C301B2010E940619B9
:1019F0002B013C0120E03AEB4BE55AECD8019296E2
:101A00006D917D918D919C9195970E9406199B01F6
:101A1000AC01C301B2010E9493160E947919562E9F
:101A2000672E782EA92E262F372F482F592F622D5B
:101A3000732D8D2D9E2D0E94171787FD03C0B52C89
:101A40006301EA2C8B2D9C2DAD2DBE2D03C0C10151
:101A5000AA2DB981F801828F938FA48FB58FE1E011
:101A6000D8019796EC93F801840178CFF090650146
:101A700000E010E080E090E021E4E22E4F2D0F2CFA
:101A8000000C550B2091660130E042175307C9F056
:101A9000E49E9001E59E300D1124A90149595E4F45
:101AA0006A01009731F00115110519F0B8010E9483
:101AB0007308F3945EE0F51201C0F12CC8018601B1
:101AC000DDCF009731F00115110519F0B8010E9422
:101AD0007308D0906501E12CF12C81E4C82E4D2DC6
:101AE0000D2C000C550B8091660190E048175907AA
:101AF00009F446C0C49EC001C59E900D1124DC01AE
:101B0000A959BE4F1D01E114F10499F1F70187A114
:101B1000811104C097968C91882359F1D70156966C
:101B20004D905D906D907C905997C49EF001C59E3C
:101B3000F00D1124E959FE4FA3019201628D738DBE
:101B4000848D958D0E941C174B015C01A3019201AD
:101B5000F701628D738D848D958D0E941C17AB01EA
:101B6000BC0195018401C7010E943807D7019796EF
:101B70001C92D394BEE0DB1201C0D12C7101AFCF17
:101B8000F70186889788A08CB18CA501940160E04C
:101B900070E0CB010E941C172B013C01A5019401B0
:101BA000D7015A966D917D918D919C915D970E9480
:101BB0001C17AB01BC0193018201C7010E943807C9
:101BC000F70117A2A4960FB6F894DEBF0FBECDBFE3
:101BD000DF91CF911F910F91FF90EF90DF90CF9009
:101BE000BF90AF909F908F907F906F905F904F903D
:101BF0003F902F900C940010A4960FB6F894DEBF7F
:101C00000FBECDBFDF91CF911F910F91FF90EF904D
:101C1000DF90CF90BF90AF909F908F907F906F900C
:101C20005F904F903F902F9008950895FF920F93EB
:101C30001F93CF93DF931F92CDB7DEB790916601CC
:101C4000FF24F394F90E9EE0F91201C0F12C0F2D40
:101C50000F2C000C110B2091650130E0201731078B
:101C600029F489830E94EA028981F5CFE091660117
:101C700091E4E99FF0011124E959FE4F8083F0922D
:101C800066010F90DF91CF911F910F91FF900C94FF
:101C90000010209166019091650181E0291301C037
:101CA00080E008959091660180916501981749F050
:101CB0008091650121E4829FC001112489599E4FC2
:101CC000089580E090E0089590916601809165010B
:101CD000981741F0809165018F5F8E3009F480E0A4
:101CE0008093650108951092660110926501089530
:101CF0008F929F92AF92BF92CF92DF92EF92FF921C
:101D00000F931F93CF93DF9349015A016701780125
:101D10002CE137EC41EB52E40E9406190E94D318E3
:101D2000C9E5D1E0688379838A839B8324E731ED19
:101D300045EB52E4C501B4010E9406190E94D31874
:101D40006C837D838E839F8325E535E545E052E4F2
:101D5000C701B6010E9406190E94D31868877987C7
:101D60008A879B871092490110924A0110924B0179
:101D700010924C018CE0EDE4F1E0DF011D928A95B8
:101D8000E9F7DF91CF911F910F91FF90EF90DF90D6
:101D9000CF90BF90AF909F908F900895EF92FF9259
:101DA0000F931F931092660110926501E12CF12CA4
:101DB000870120E030E040EA50E4CA01B9010E9406
:101DC000780E1F910F91FF90EF9008958AB183775D
:101DD0008AB987B1807C87B9089539B199B1292F23
:101DE000221F2227221F32FB992790F9922B21F4E0
:101DF0004B9902C0811104C01092F5045D980895BA
:101E00008093F50408958091F5040895882311F0D6
:101E10005C9A08955C980895882311F05E9A08955D
:101E20005E980895559A14BC15BCEEE6F0E08081EA
:101E30008160808316BC549A80E00E94060F569AF7
:101E400080E00C940C0F40910205509103056091C5
:101E50000405709105058091FE049091FF04A09106
:101E60000005B0910105840F951FA61FB71F81388B
:101E700028E3920721E0A207B10550F48093FE0405
:101E80009093FF04A0930005B093010580E00895AE
:101E900080589843A140B1098093FE049093FF04B9
:101EA000A0930005B093010581E008959B01AC016A
:101EB000203486E038074105510520F420E436E05F
:101EC00040E050E060E070E788E399E30E94D419B5
:101ED0002115310581E04807510518F4B90190E05A
:101EE0002FC02115310588E048075105A8F4DA0113
:101EF000C901F3E0B695A79597958795FA95D1F71F
:101F0000BC019C01AD01A3E0220F331F441F551FEC
:101F1000AA95D1F791E014C0DA01C90126E0B6957F
:101F2000A795979587952A95D1F7BC019C01AD019E
:101F3000E6E0220F331F441F551FEA95D1F792E0C8
:101F4000809181009F5F887F892B809381007093AF
:101F50008900609388002093020530930305409325
:101F600004055093050508958F929F92AF92BF92FA
:101F7000CF92DF92EF92FF92CF93DF934B015C0100
:101F8000C0911C05D0911D058EA1682F70E080E0E6
:101F900090E00E94C6176B017C01C501B4010E944C
:101FA000C4174B015C016A897B898C899D890E94D9
:101FB000C4179B01AC01C501B4010E941C1723E3A7
:101FC00033E343E75FE30E9406192DEC3CEC4CE45D
:101FD0005DE30E9494169B01AC01C701B6010E940B
:101FE00006190E949517862FDF91CF91FF90EF90F1
:101FF000DF90CF90BF90AF909F908F900C94ED0E9C
:102000008091F90481110BC081E08093F90488E08C
:1020100080931B0580916F00826080936F0008950C
:102020001092F90410921D0510921C05EFE6F0E0E5
:1020300080818D7F808380E00C94ED0E8091F90487
:1020400008959091F804911107C08093F70481E0FE
:102050008093F8040C94950008958091F7040895F6
:102060008091F804089580E28093F7041092F804B8
:1020700008954F925F926F927F928F92AF92BF922C
:10208000CF92DF92EF92FF920F931F93CF93DF9344
:10209000CDB7DEB72C970FB6F894DEBF0FBECDBF1D
:1020A00069837A838B839C8329013A01ED82FE82C6
:1020B0000F831887A986BA86CB86DC868091F904BF
:1020C000882319F00E94EA02F9CFE12CF12C870154
:1020D000A8019701C801B7010E94780E8CE0EEE1DB
:1020E000F5E0DF011D928A95E9F71F921F921F927A
:1020F0001F92812CAE8CBF8CC8A0D9A0A3019201E5
:1021000069817A818B819C810E94DD080F900F90FC
:102110000F900F908091F904882319F00E94EA0231
:10212000F9CFE12CF12C8701A8019701C801B70173
:102130000E94780E8CE0EEE1F5E0DF011D928A95B9
:10214000E9F70E94331081E08093F6041F921F92FA
:102150001F921F92812CAE8CBF8CC8A0D9A029855C
:102160003A854B855C856D817E818F8198850E9443
:10217000DD080F900F900F900F908091F904882345
:1021800019F00E94EA02F9CF1092F6042C960FB6CD
:10219000F894DEBF0FBECDBFDF91CF911F910F919D
:1021A000FF90EF90DF90CF90BF90AF908F907F9097
:1021B0006F905F904F90089560911E0570911F057C
:1021C00080912005909121050E94C6172CE137ECE3
:1021D00041EB52E40E941C17089560912205709112
:1021E000230580912405909125050E94C61724E7B8
:1021F00031ED45EB52E40E941C17089560912605CD
:102200007091270580912805909129050E94C61795
:1022100025E535E545E052E40E941C1708958F92AC
:102220009F92AF92BF92CF92DF92EF92FF920F9365
:102230001F93CF93DF9349015A01670178012CE185
:1022400037EC41EB52E40E9406190E94D318CEE10C
:10225000D5E0688379838A839B8324E731ED45EB5E
:1022600052E4C501B4010E9406190E94D3186C8380
:102270007D838E839F8325E535E545E052E4C701E4
:10228000B6010E9406190E94D318688779878A8749
:102290009B87DF91CF911F910F91FF90EF90DF907F
:1022A000CF90BF90AF909F908F900895EF92FF9244
:1022B0000F931F9384B18F6384B985B1807C88604C
:1022C00085B9E1E8F0E080818F7E8083808188603D
:1022D0008083E0E8F0E080818D7F808380818E7F45
:1022E000808380818F73808380818F7C8083109234
:1022F000B0001092B100E0E7F0E08081816080835F
:1023000060E476E080E090E00E94560F80E00E945A
:10231000ED0E8CE0EEE1F5E0DF011D928A95E9F724
:10232000E12CF12C870120E030E040EA50E4CA01C2
:10233000B9010E940F111092FE041092FF04109236
:1023400000051092010510921D0510921C051092B7
:10235000F80480E28093F704109206051092F604C8
:102360001F910F91FF90EF900C9410101F920F92FD
:102370000FB60F9211245D9815BC0F900FBE0F90F1
:102380001F9018951F920F920FB60F9211248F93E2
:1023900085B1887F85B91092B1008F910F900FBEE3
:1023A0000F901F9018951F920F920FB60F92112445
:1023B000CF92DF92EF92FF920F931F932F933F9351
:1023C0004F935F936F937F938F939F93AF93BF933D
:1023D000CF93DF93EF93FF938091060581117DC327
:1023E00081E0809306058091F804882329F00E94FB
:1023F00010100E94730E6FC38091F604811122C0E9
:1024000029B189B1982F991F9927991F22FB8827F5
:1024100080F9892B11F44B9B03C080E00E94ED0EE4
:10242000309B02C084E20BC0319B02C085E207C032
:10243000329B02C086E203C0339B04C08AE20E9442
:10244000211049C30E94030F90910101903120F4A3
:10245000809101018F5F66C0811102C05D9861C0EB
:1024600015BC5D9A823F08F05CC090E1899FD00165
:10247000112440910205509103056091040570916B
:102480000505252F362F472F55270E94071A6F3F26
:10249000710581059105D9F1D0F1F3E09695879505
:1024A00077956795FA95D1F76F3F7105810591058D
:1024B00081F178F1E3E09695879577956795EA95B0
:1024C000D1F76F3F71058105910529F120F152E0A7
:1024D00096958795779567955A95D1F76F3F7105D2
:1024E00081059105D1F0C8F042E0969587957795E2
:1024F00067954A95D1F76F3F71058105910529F0E0
:1025000020F06FEF70E080E090E025E007C021E070
:1025100005C022E003C023E001C024E0619566BD50
:1025200025BD81E08093010185B190911B059873D1
:10253000877C892B85B985B1887F90911B05892B74
:1025400085B98AEF8093B20082E08093B1007894DD
:1025500080911C0590911D05892B09F072C00E9485
:10256000520EEC0190931D0580931C05892B19F4E4
:102570000E941010B0C28881823008F062C0C9A4E5
:10258000DAA4EBA4FCA4C092FA04D092FB04E0927B
:10259000FC04F092FD0480E49CE9A0E0B0E08093AC
:1025A000FE049093FF04A0930005B0930105C701BA
:1025B000B6010E94560F8881813061F480E00E944C
:1025C000ED0E109207051092080510920905109261
:1025D0000A0504C0C701B6010E94B40FE0911C05B2
:1025E000F0911D0586859785A089B189B595A79538
:1025F00097958795B095A095909581959F4FAF4FF2
:10260000BF4F8093170590931805A0931905B093B9
:102610001A058093130590931405A0931505B093A4
:10262000160580930F0590931005A0931105B093A4
:10263000120510920B0510920C0510920D051092C8
:102640000E05C0911C05D0911D052881223009F48A
:1026500033C250F0243009F435C208F42FC22530BB
:1026600009F039C280E02FC23D8530931B054091AF
:102670001705509118056091190570911A05898107
:102680009A81AB81BC81840F951FA61FB71F8093D1
:10269000170590931805A0931905B0931A054E8558
:1026A0005F8568897989181619061A061B0644F58C
:1026B000316030931B05841B950BA60BB70B8093E1
:1026C000170590931805A0931905B0931A058091EA
:1026D0001E0590911F05A0912005B091210533FFA3
:1026E00004C00197A109B10903C00196A11DB11D44
:1026F00080931E0590931F05A0932005B09321059C
:10270000C0901305D0901405E0901505F0901605C3
:102710008D819E81AF81B8858C0D9D1DAE1DBF1D25
:102720008093130590931405A0931505B093160597
:10273000181619061A061B0654F530911B0532604F
:1027400030931B05841B950BA60BB70B80931305C9
:1027500090931405A0931505B0931605809122055A
:1027600090912305A0912405B091250534FF04C064
:102770000197A109B10903C00196A11DB11D809364
:10278000220590932305A0932405B0932505C090BE
:102790000F05D0901005E0901105F0901205898585
:1027A0009A85AB85BC858C0D9D1DAE1DBF1D80938C
:1027B0000F0590931005A0931105B09312051816FC
:1027C00019061A061B0654F530911B053460309328
:1027D0001B05841B950BA60BB70B80930F059093DD
:1027E0001005A0931105B0931205809126059091D4
:1027F0002705A0912805B091290535FF04C0019750
:10280000A109B10903C00196A11DB11D8093260540
:1028100090932705A0932805B0932905C0900B0538
:10282000D0900C05E0900D05F0900E058FEFC81AC2
:10283000D80AE80AF80AC0920B05D0920C05E0927B
:102840000D05F0920E0590911B0588E08927809375
:102850001B05C416D506E606F70608F028C18DA9A3
:102860009EA9AFA9B8ADC816D906EA06FB0608F0BE
:1028700040C00E94230F882309F42DC149A95AA9F9
:102880006BA97CA98091FA049091FB04A091FC04AF
:10289000B091FD04840F951FA61FB71F8093FA0403
:1028A0009093FB04A093FC04B093FD044A895B89D8
:1028B0006C897D89481759076A077B0740F4409364
:1028C000FA045093FB046093FC047093FD04C090E1
:1028D000FA04D090FB04E090FC04F090FD04C701E2
:1028E000B6010E94560F8881813009F064C080E0F3
:1028F000DBC089AD9AADABADBCADC816D906EA0652
:10290000FB0669F480E49CE9A0E0B0E08093FE045B
:102910009093FF04A0930005B0930105DCC0C81696
:10292000D906EA06FB0608F44BC00E94230F882351
:1029300009F4D1C08091FA049091FB04A091FC04A9
:10294000B091FD0449A95AA96BA97CA94817590758
:102950006A077B0768F4841B950BA60BB70B809363
:10296000FA049093FB04A093FC04B093FD0408C008
:102970001092FA041092FB041092FC041092FD04D1
:102980008DA59EA5AFA5B8A94091FA045091FB046E
:102990006091FC047091FD04481759076A077B0792
:1029A00008F095CF8093FA049093FB04A093FC0465
:1029B000B093FD048CCFC701B6010E94B40F8BC049
:1029C0006A897B898C899D890091FA041091FB04A6
:1029D0002091FC043091FD040617170728073907DA
:1029E00051F06093FA047093FB048093FC0490937D
:1029F000FD040E94560F8881813009F054C08091F7
:102A0000070590910805A0910905B0910A052AE0F3
:102A1000CC0CDD1CEE1CFF1C2A95D1F7892B8A2BD0
:102A20008B2B41F4C0920705D0920805E09209056E
:102A3000F0920A058091070590910805A09109057B
:102A4000B0910A05C816D906EA06FB0608F443C089
:102A5000ED96488159816A817B81840F951FA61F5D
:102A6000B71F8093070590930805A0930905B093BD
:102A70000A05F8940E941F027894282F30E020580D
:102A80003109220F331FE0911C05F0911D0546A16D
:102A9000429FC001439F900D11246FEF70E00E9490
:102AA000C019862F01C08EA10E94ED0E14C02130E6
:102AB00061F40E94470209C081E001C080E00E94E9
:102AC000060F03C081E00E940C0F10921D051092AA
:102AD0001C050E94640E10920605FF91EF91DF9194
:102AE000CF91BF91AF919F918F917F916F915F91A6
:102AF0004F913F912F911F910F91FF90EF90DF9099
:102B0000CF900F900FBE0F901F9018958F929F92AD
:102B1000AF92BF92CF92DF92EF92FF920F931F93EB
:102B2000CF93DF938091F904882319F00E94EA0281
:102B3000F9CFE12CF12C8701A8019701C801B70159
:102B40000E94780E8CE0EEE1F5E0DF011D928A959F
:102B5000E9F781E08093F604309B17C01F921F9223
:102B60001F921F92812CA12CB12CF8E4CF2EF4E4FB
:102B7000DF2EA801970160E070E080EA91E40E94F6
:102B8000DD080F900F900F900F90319B1AC01F928D
:102B90001F921F921F92812CA12CB12CE8E4CE2E03
:102BA000E4E4DE2EE12CF12C8701A801970160E01E
:102BB00070E080EA91EC0E94DD080F900F900F907A
:102BC0000F90329B1AC01F921F921F921F92812C4E
:102BD000A12CB12C78E4C72E74E4D72EE12CF12C73
:102BE000870120E030E040EA51E4C801B7010E94CB
:102BF000DD080F900F900F900F90339B1AC01F921B
:102C00001F921F921F92812CA12CB12C68E4C62E1A
:102C100064E4D62EE12CF12C870120E030E040EA7C
:102C200051ECC801B7010E94DD080F900F900F9082
:102C30000F908091F904882319F00E94EA02F9CFDD
:102C40001092F60485E4882E8F929AE7992E9F922F
:102C50001F921F92A12CB12C6501E12CF12C00EAEE
:102C600010ECA601950160EF73E284E799E40E94FD
:102C70003910D4E4DF93C8ECCF931F921F92E12C5C
:102C8000F12C00E010ECA601950160EF73E284E7FF
:102C900099E40E9439108F929F921F921F92A12C4B
:102CA000B12C40EAC42E40ECD42EE12CF12C87014B
:102CB00020EF33E244E759E4C801B7010E9439101C
:102CC000DF93CF931F921F92A12CB12CC12C50ECFB
:102CD000D52E20EF33E244E759E4C801B7010E9442
:102CE0003910A8019701C801B7010E94780E8CE045
:102CF000EEE1F5E0DF011D928A95E9F78DB79EB709
:102D000040960FB6F8949EBF0FBE8DBFDF91CF9156
:102D10001F910F91FF90EF90DF90CF90BF90AF90F9
:102D20009F908F9008955058BB27AA270E94AB16FA
:102D30000C947C180E946E1838F00E94751820F0D0
:102D400039F49F3F19F426F40C946B180EF4E095B7
:102D5000E7FB0C943C18E92F0E948D1858F3BA1722
:102D6000620773078407950720F079F4A6F50C94A1
:102D7000C7180EF4E0950B2EBA2FA02D0B01B90148
:102D800090010C01CA01A0011124FF27591B99F0E1
:102D9000593F50F4503E68F11A16F040A22F232FED
:102DA000342F4427585FF3CF469537952795A7953D
:102DB000F0405395C9F77EF41F16BA0B620B730BE4
:102DC000840BBAF09150A1F0FF0FBB1F661F771F55
:102DD000881FC2F70EC0BA0F621F731F841F48F40A
:102DE000879577956795B795F7959E3F08F0B0CF93
:102DF0009395880F08F09927EE0F9795879508957A
:102E00000E94AF1890F09F3748F4911116F40C947B
:102E1000C81860E070E080E89FE3089526F01B1674
:102E2000611D711D811D0C9442180C945D180E9447
:102E3000181808F481E008950E9430170C947C184B
:102E40000E94751858F00E946E1840F029F45F3FF8
:102E500029F00C943C1851110C94C8180C946B1860
:102E60000E948D1868F39923B1F3552391F3951BB4
:102E7000550BBB27AA2762177307840738F09F5F9B
:102E80005F4F220F331F441FAA1FA9F335D00E2E08
:102E90003AF0E0E832D091505040E695001CCAF775
:102EA0002BD0FE2F29D0660F771F881FBB1F261738
:102EB00037074807AB07B0E809F0BB0B802DBF010F
:102EC000FF2793585F4F3AF09E3F510578F00C94DE
:102ED0003C180C94C8185F3FE4F3983ED4F38695F1
:102EE00077956795B795F7959F5FC9F7880F911DFF
:102EF0009695879597F90895E1E0660F771F881FEB
:102F0000BB1F621773078407BA0720F0621B730B9D
:102F1000840BBA0BEE1F88F7E09508950E94951771
:102F20006894B1110C94C81808950E94951888F0FF
:102F30009F5798F0B92F9927B751B0F0E1F0660F7D
:102F4000771F881F991F1AF0BA95C9F714C0B130BE
:102F500091F00E94C718B1E008950C94C718672F2C
:102F6000782F8827B85F39F0B93FCCF386957795ED
:102F70006795B395D9F73EF49095809570956195D6
:102F80007F4F8F4F9F4F0895E89409C097FB3EF401
:102F900090958095709561957F4F8F4F9F4F9923A6
:102FA000A9F0F92F96E9BB279395F6958795779524
:102FB0006795B795F111F8CFFAF4BB0F11F460FFE4
:102FC0001BC06F5F7F4F8F4F9F4F16C0882311F03C
:102FD00096E911C0772321F09EE8872F762F05C050
:102FE000662371F096E8862F70E060E02AF09A95EB
:102FF000660F771F881FDAF7880F9695879597F9E0
:1030000008950E94AF1890F09F3748F4911116F080
:103010000C94C81860E070E080E89FEB089526F4F7
:103020001B16611D711D811D0C9442180C945D18B6
:10303000990F0008550FAA0BE0E8FEEF16161706C9
:10304000E807F907C0F012161306E407F50798F031
:10305000621B730B840B950B39F40A2661F0232B4A
:10306000242B252B21F408950A2609F4A140A695C6
:103070008FEF811D811D089597F99F6780E870E0AB
:1030800060E00895882371F4772321F09850872B0E
:10309000762F07C0662311F499270DC09051862B17
:1030A00070E060E02AF09A95660F771F881FDAF7C4
:1030B000880F9695879597F908959F3F31F0915025
:1030C00020F4879577956795B795880F911D96950C
:1030D000879597F908959FEF80EC089500240A944E
:1030E0001616170618060906089500240A941216E3
:1030F0001306140605060895092E0394000C11F416
:10310000882352F0BB0F40F4BF2B11F460FF04C0C2
:103110006F5F7F4F8F4F9F4F089557FD9058440F1B
:10312000551F59F05F3F71F04795880F97FB991F26
:1031300061F09F3F79F087950895121613061406E3
:10314000551FF2CF4695F1DF08C016161706180670
:10315000991FF1CF869571056105089408950E9425
:103160009518A0F0BEE7B91788F4BB279F3860F424
:103170001616B11D672F782F8827985FF7CF869591
:1031800077956795B11D93959639C8F30895E8949E
:10319000BB2766277727CB0197F908950E94181857
:1031A00008F48FEF08950E94951858F19E5760F12A
:1031B0009851A0F0E9F0983020F5092E9927660F74
:1031C000771F881F991F0A94D1F712C0062E672F08
:1031D000782F8827985F11F4000C07C0993FB4F34B
:1031E0008695779567959395D9F7611D711D811D1A
:1031F0003EF490958095709561957F4F8F4F9F4FCE
:10320000089568940C94C8180C94C7180E94191952
:103210000C947C180E946E1838F00E94751820F0EB
:10322000952311F00C943C180C946B1811240C94F9
:10323000C8180E948D1870F3959FC1F3950F50E048
:10324000551F629FF001729FBB27F00DB11D639F58
:10325000AA27F00DB11DAA1F649F6627B00DA11DFE
:10326000661F829F2227B00DA11D621F739FB00DA4
:10327000A11D621F839FA00D611D221F749F332714
:10328000A00D611D231F849F600D211D822F762FAD
:103290006A2F11249F5750409AF0F1F088234AF08A
:1032A000EE0FFF1FBB1F661F771F881F91505040F6
:1032B000A9F79E3F510580F00C943C180C94C81857
:1032C0005F3FE4F3983ED4F3869577956795B7957D
:1032D000F795E7959F5FC1F7FE2B880F911D969597
:1032E000879597F9089519F416F40C946B180C94BB
:1032F0005D180E949518B8F39923C9F3B6F39F5748
:10330000550B87FF0E94B9190024A0E640EA9001FE
:1033100080585695979528F4805C660F771F881F14
:1033200020F026173707480730F4621B730B840B15
:10333000202931294A2BA695179407942025312559
:103340004A2758F7660F771F881F20F02617370780
:10335000480730F4620B730B840B200D311D411DA7
:10336000A09581F7B901842F9158880F969587957C
:10337000089591505040660F771F881FD2F7089527
:1033800097FB072E16F4009407D077FD09D00E9412
:103390000F1A07FC05D03EF4909581959F4F089534
:1033A000709561957F4F0895A1E21A2EAA1BBB1B51
:1033B000FD010DC0AA1FBB1FEE1FFF1FA217B30701
:1033C000E407F50720F0A21BB30BE40BF50B661F17
:1033D000771F881F991F1A9469F7609570958095DB
:1033E00090959B01AC01BD01CF010895EE0FFF1F29
:1033F0000590F491E02D09940E94231AA59F900D49
:10340000B49F900DA49F800D911D11240895B7FFC6
:103410000C94FC190E94FC19821B930B0895AA1BA3
:10342000BB1B51E107C0AA1FBB1FA617B70710F0AF
:10343000A61BB70B881F991F5A95A9F780959095E1
:10344000BC01CD010895A29FB001B39FC001A39F0D
:10345000700D811D1124911DB29F700D811D1124CD
:08346000911D0895F894FFCFBF
:02346800010160
:00000001FF
