:100000000C945A000C9481000C9481000C94810093
:100010000C9481000C9481000C9481000C9481005C
:100020000C9481000C942F110C9481000C944011BD
:100030000C9481000C9481000C9481000C9481003C
:100040000C9423110C9481000C946B010C941A01F4
:100050000C9481000C9481000C9481000C9481001C
:100060000C9481000C948100F606AF040305D404BF
:100070001005130516056E056E05A805AB05AE0542
:10008000B005B205B4057306EF066106EF068906F2
:1000900094069F06AA06C106D806EF06EF067E065E
:1000A000EF06EF066C06EF06EF06EF06EF06D1054A
:1000B00001063106E9EAF6E085EC98E001C081939B
:1000C000EF3FF907E0F3D9F311241FBECFEFD8E0DB
:1000D000DEBFCDBF11E0A0E0B1E0E2E4F1E302C099
:1000E00005900D92A230B107D9F726E0A2E0B1E069
:1000F00001C01D92A93AB207E1F70E9483000C9457
:100100009F180C94000078940E94B2000E949602FE
:100110000E949A0E0E94C5100E94B20E0E94DE0E2E
:100120000E94900480E090E00895109203011092E4
:1001300002010895909109019F5F903809F490E0C1
:10014000209108019217E1F3E0910901F0E0E75DE9
:10015000F94F8083909309018091C1008062809360
:10016000C10008951092C50080E18093C400E0ECC6
:10017000F0E080818D7F8083E1ECF0E08081806120
:1001800080838081886080838081806880838EE71F
:100190000C949A00CF92DF92EF92FF92CF93C82FE8
:1001A000CB01BA0120E030E04AE754E40E94731723
:1001B0000E9440176B017C0128EFF21A8C2D806899
:1001C0000E949A00D701C60180789F73AA27BB2797
:1001D00027E0B695A795979587952A95D1F78058EA
:1001E0000E949A00D701C6018827907CAF71BB2777
:1001F0003EE0B695A795979587953A95D1F78058A3
:100200000E949A00D701C60188279927A07EBF7057
:1002100045E1B695A795979587954A95D1F780586A
:100220000E949A008C2FCF91FF90EF90DF90CF909B
:100230000C949A001F920F920FB60F9211248F9375
:100240009F93EF93FF93809108019091050199236B
:1002500031F095E09093C600109205010DC0E82F93
:10026000F0E0E75DF94F90819093C6008F5F803892
:1002700009F480E08093080190910901891305C079
:100280008091C1008F7D8093C100FF91EF919F917C
:100290008F910F900FBE0F901F901895E0910A015B
:1002A000F0E0E75DFA4F808190910A019F5F9093A3
:1002B0000A01909104019F5F90930401903151F4E1
:1002C00091E0909305019091C10090629093C100DC
:1002D0001092040108951F920F920FB60F921124ED
:1002E0002F933F934F935F936F937F938F939F933E
:1002F000AF93BF93CF93EF93FF93C091C6008091CC
:100300000001882329F010920001C09307013DC02D
:1003100081E08093000180910701C81719F08DE3F7
:100320000E943310C031F8F4C13011F481E224C0CE
:10033000C23069F4109203011092020110920A0176
:1003400010920B01109204010E9445101EC0C33090
:1003500019F40E94DE0219C0C43019F40E94E202AE
:1003600014C083E209C0E0910B0181E08E0F9091EF
:100370000A01891304C082E20E94331006C0F0E033
:10038000E75DFA4FC08380930B01FF91EF91CF910E
:10039000BF91AF919F918F917F916F915F914F919D
:1003A0003F912F910F900FBE0F901F901895CF93F4
:1003B000C1E080910301882301F18091020188232B
:1003C000C9F01092060190910A0180910B019813D7
:1003D0000BC080910601811104C00E94E602C09307
:1003E00006010E94F202EFCF0E944E01813111F40A
:1003F000109203010E94F202DCCF10920601C1E0CC
:1004000090910A0180910B0198130BC08091060115
:10041000811104C00E94E602C09306010E94F2020C
:10042000EFCF0E944E01803131F481E080930301CF
:100430001092020181E4CF910895809103018823F5
:10044000C9F080910201811115C090910A0180913B
:100450000B01981303C00E94E6020CC00E944E01DB
:1004600087FD09C0813119F41092030103C083E2B2
:100470000E94331080E8089520910A0190910B01A9
:1004800081E0291301C080E0089581E0809302019A
:100490000895E1E1F1E0438150E060E070E0405810
:1004A00051096109710987E0440F551F661F771FC5
:1004B0008A95D1F7828190E0A0E0B0E08058910960
:1004C000A109B109840F951FA61FB71FAC01BD017B
:1004D00097E0440F551F661F771F9A95D1F78181CA
:1004E00090E0A0E0B0E080589109A109B109840F23
:1004F000951FA61FB71F27E0880F991FAA1FBB1FB4
:100500002A95D1F72081820F911DA11DB11DBC013B
:10051000CD0160587109810998400E94331620E08E
:1005200030E04AE754E40E9489150895CF93DF93A1
:10053000E6E1F1E081E0808340E050E06AEF75E4BD
:10054000418352836383748315829CE0A5E2B1E00A
:10055000ED0119929A95E9F7168217821086118695
:100560001286138614861586168640E050E060EAEF
:1005700070E4438F548F658F768F478F50A361A3AC
:1005800072A313A214A215A216A247A350A761A793
:1005900072A743A754A765A776A717A610AA11AA02
:1005A00012AA8093100180930F0110920E011092F5
:1005B0000D0180930C01DF91CF91089581E080932C
:1005C0001001089581E080930F01089580910D013D
:1005D00090910E01019690930E0180930D0110925F
:1005E0000C0108958F929F92AF92BF92CF92DF92AB
:1005F000EF92FF920F931F93CF9329B189B1982F58
:10060000991F9927991F22FB882780F9892B11F4BC
:100610004B9B03C080E00E94B90E0E9442108823C9
:10062000A1F00E943F0E0E946D106B017C010E94A0
:100630005C104B015C010E944B1087017601A50103
:1006400094010E94440E10921501809110018111B5
:1006500005C080910F01882309F456C11092100142
:100660000E94150E811112C00E943C0281110EC021
:100670000E94421081110AC081E40E949A0083B74F
:10068000816083BF889583B78E7F83BF29B189B18D
:10069000982F991F9927991F22FB882780F9892B6A
:1006A00019F082E40E949A004B9B03C083E40E94ED
:1006B0009A000E943F10C82F803211F00E949A00C9
:1006C000309B05C0C43219F084E20E949A00319B2D
:1006D00005C0C53219F085E20E949A00329B05C020
:1006E000C63219F086E20E949A00339B05C0CA32D6
:1006F00019F08AE20E949A000E944B10E0912401B6
:1007000023E0E29FF0011124EE0FFF1FEE0FFF1F09
:10071000EA5EFE4F238D348D458D568D0E94001567
:10072000AB01BC0188E70E94CA000E945C10E09106
:10073000240123E0E29FF0011124EE0FFF1FEE0FD2
:10074000FF1FE65EFE4F238D348D458D568D0E9432
:100750000015AB01BC0189E70E94CA000E946D1020
:10076000E091240123E0E29FF0011124EE0FFF1F2E
:10077000EE0FFF1FE25EFE4F238D348D458D568DAB
:100780000E940015AB01BC018AE70E94CA0080915B
:100790000C01811110C060910D0170910E0180E07B
:1007A00090E00E943116AB01BC0187E70E94CA00AD
:1007B00081E080930C01E9EAF6E0BF01695A7640D6
:1007C0008081853C09F48AC080E090E00E94311667
:1007D000AB01BC0185E70E94CA0080910F0188230C
:1007E00009F484C010920F0140E050E265ED74E41A
:1007F00086E70E94CA002091310130913201409178
:1008000033015091340160913D0170913E0180911E
:100810003F01909140010E940015AB01BC0181E6AF
:100820000E94CA0020913501309136014091370174
:1008300050913801609141017091420180914301D2
:10084000909144010E940015AB01BC0182E60E9418
:10085000CA002091390130913A0140913B015091F9
:100860003C01609145017091460180914701909152
:1008700048010E940015AB01BC0183E60E94CA003A
:1008800040911701509118016091190170911A015E
:1008900087E60E94CA0060911B0170E080E090E052
:1008A0000E943116AB01BC0188E60E94CA0040914B
:1008B0001C0150911D0160911E0170911F0189E67C
:1008C0000E94CA00409120015091210160912201B3
:1008D000709123018AE60E94CA0008C088E0EF3FB9
:1008E000F80711F008F070CF319667CF86E0CF910E
:1008F0001F910F91FF90EF90DF90CF90BF90AF903E
:100900009F908F900C949A00CF911F910F91FF9020
:10091000EF90DF90CF90BF90AF909F908F90089511
:10092000C1E00E94D701D82F0E944210882319F0FD
:100930000E94F202F6CFD7FD5CC28FEB8D0F8A3199
:1009400008F018C18D2F90E0FC01E154F109EF305F
:10095000F10508F00DC1EC5CFF4F0C946318A090FA
:100960001701B0901801C0901901D0901A01E090C1
:100970002D01F0902E0100912F0110913001209156
:10098000290130912A0140912B0150912C01609155
:1009900025017091260180912701909128011F92D5
:1009A0001F921F921F922CC0A0901701B0901801A7
:1009B000C0901901D0901A01E0902D01F0902E0105
:1009C00000912F01109130012091290130912A01CD
:1009D00040912B0150912C016091250170912601CD
:1009E0008091270190912801E0912301EF93E091FC
:1009F0002201EF93E0912101EF93E0912001EF9329
:100A000080901B0164C060911C0170911D01809158
:100A10001E0190911F0140911B010E94EB0DE6C148
:100A200010921601E3C1C0931601E0C10E9430107C
:100A3000882319F00E94F202F9CF0E94FA14E12CE7
:100A4000F12C8701A8019701C801B7010E94440E4B
:100A50001092240160913101709132018091330133
:100A600090913401609325017093260180932701B2
:100A70009093280120913501309136014091370142
:100A8000509138012093290130932A0140932B0182
:100A900050932C01E0903901F0903A0100913B0114
:100AA00010913C01E0922D01F0922E0100932F0154
:100AB00010933001A0901701B0901801C090190157
:100AC000D0901A011F921F921F921F92812C0E9498
:100AD000AB080F900F900F900F9088C10E943010BC
:100AE000882319F00E94F202F9CF81E090E0D93416
:100AF00011F080E090E08C01000F111F080F191F0A
:100B00000E944B10F801EE0FFF1FEE0FFF1FEA5E71
:100B1000FE4F638F748F858F968F0E945C10F80153
:100B2000EE0FFF1FEE0FFF1FE65EFE4F638F748F09
:100B3000858F968F0E946D10000F111F000F111FDF
:100B4000F801E25EFE4F638F748F858F968F4EC1E2
:100B5000109224014BC1C093240148C182E005C01A
:100B600083E003C084E001C085E00E94EC0D3EC13B
:100B70008CE33AC18FE98D0F8A3108F034C180913E
:100B80001501843009F02DC18D2F90E0FC01E45651
:100B9000F109E731F10508F022C1ED5BFF4F0C943C
:100BA0006318809116018130A9F40E9449029B01CB
:100BB000AC01E091240183E0E89FF0011124EE0FE5
:100BC000FF1FEE0FFF1FEA5EFE4F638D748D858D54
:100BD000968D0CC00E9449029B01AC0160912501D9
:100BE0007091260180912701909128010E940115A2
:100BF000609325017093260180932701909328012B
:100C0000F5C0809116018130A9F40E9449029B0130
:100C1000AC01E091240183E0E89FF0011124EE0F84
:100C2000FF1FEE0FFF1FE65EFE4F638D748D858DF7
:100C3000968D0CC00E9449029B01AC016091290174
:100C400070912A0180912B0190912C010E94011535
:100C50006093290170932A0180932B0190932C01BA
:100C6000C5C0809116018130A9F40E9449029B0100
:100C7000AC01E091240183E0E89FF0011124EE0F24
:100C8000FF1FEE0FFF1FE25EFE4F638D748D858D9B
:100C9000968D0CC00E9449029B01AC0160912D0110
:100CA00070912E0180912F01909130010E940115C9
:100CB00060932D0170932E0180932F01909330014A
:100CC00095C00E94490260931701709318018093A8
:100CD000190190931A018AC00E9449020E940216CB
:100CE00060931B0183C00E94490260931C017093B2
:100CF0001D0180931E0190931F0178C00E9449023C
:100D0000609320017093210180932201909323012D
:100D10006DC00E944902609331017093320180934B
:100D200033019093340162C00E94490260933501FF
:100D300070933601809337019093380157C00E9419
:100D400049026093390170933A0180933B0190937B
:100D50003C014CC00E9449029B01AC0160913101F1
:100D60007091320180913301909134010E940115FC
:100D700060933D0170933E0180933F019093400149
:100D800035C00E9449029B01AC0160913501709110
:100D9000360180913701909138010E9401156093CE
:100DA00041017093420180934301909344011EC01E
:100DB0000E9449029B01AC016091390170913A0196
:100DC00080913B0190913C010E9401156093450187
:100DD00070934601809347019093480107C08EE3CA
:100DE00003C08AE301C083E20E9433101092150110
:100DF0009FCDA0911501A43048F481E08A0F809323
:100E00001501B0E0AF5EBE4FDC9392CD8AE30E9445
:100E100033108ECD4F925F926F927F928F929F92FE
:100E2000AF92BF92CF92DF92EF92FF920F931F93F8
:100E3000CF93DF93CDB7DEB762970FB6F894DEBFDE
:100E40000FBECDBF9A8B898B2A013B014801590106
:100E5000FC0162897389848995890E9431166B012E
:100E60007C01A30192010E9473170E946D150E94DC
:100E700002162B013C01E989FA8961A772A783A7B1
:100E800094A7A5019401C701B6010E9473170E949F
:100E90006D150E9402164B015C01E989FA8965A76C
:100EA00076A787A790AB21A932A943A954A9A0EEA0
:100EB000BEE20E94691869837A838B839C830E94B7
:100EC00033166D837E838F839887C301B2010E949E
:100ED00031162B013C01A7019601C701B6010E9402
:100EE00073176B017C01A3019201C301B2010E943F
:100EF000731769877A878B879C872D813E814F8105
:100F00005885CA01B9010E9401156D877E878F87B8
:100F1000988B29853A854B855C85C701B6010E946F
:100F200000152D853E854F8558890E9489150E94A0
:100F30006D150E94FB152B013C01C501B4010E94F7
:100F400031169B01AC010E9473174B015C01A70194
:100F500096010E9400156B017C0169817A818B8169
:100F60009C8190958095709561957F4F8F4F9F4F95
:100F70000E9433169B01AC010E9401159B01AC013C
:100F8000C701B6010E9489150E946E16E989FA8987
:100F9000C684D784E088F188A70196012419350911
:100FA0004609570929833A834B835C830E94FB15CA
:100FB00029813A814B815C81261B370B480B590BE9
:100FC000DA01C90157FF3BC0C701B6010E943316C1
:100FD0002D853E854F8558890E94731729853A854E
:100FE0004B855C850E940015A50194010E940115A6
:100FF0004B015C0120E030E040E850E46D817E81EF
:101000008F8198850E9473179B01AC01C501B401C3
:101010000E9489150E946D150E94FB1597FF03C061
:1010200060E070E0CB01260137016C157D058E056F
:101030009F0514F42B013C0180E090E0DC01E9897C
:10104000FA8945AA56AA67AA70AE480E591E6A1EAA
:101050007B1E41AE52AE63AE74AE62960FB6F8948C
:10106000DEBF0FBECDBFDF91CF911F910F91FF90DB
:10107000EF90DF90CF90BF90AF909F908F907F9038
:101080006F905F904F9008954F925F926F927F9212
:10109000AF92BF92CF92DF92EF92FF920F931F9386
:1010A000CF93DF938C01EB01FC01428C538C648C59
:1010B000758CAA8CBB8CCC8CDD8C9501A601C301F0
:1010C000B2010E94841587FF37C0A3019201C301BA
:1010D000B2010E9473172B013C0120E03AEB4BE573
:1010E0005AECF80162A173A184A195A10E94731723
:1010F0009B01AC01C301B2010E9400150E94E617DA
:101100007B018C019B01AC01B501C6010E948415D5
:1011100087FF02C0750186019701A801B501C601CC
:101120000E948415882341F0C701D8018A8F9B8FC4
:10113000AC8FBD8F81E08FA3DF91CF911F910F9175
:10114000FF90EF90DF90CF90BF90AF907F906F9027
:101150005F904F9008952F923F924F925F926F92BF
:101160007F928F929F92AF92BF92CF92DF92EF9237
:10117000FF920F931F93CF93DF93CDB7DEB7A49762
:101180000FB6F894DEBF0FBECDBF29013A01E98644
:10119000FA860B871C87A982BE82CF82D886C9AC0B
:1011A000DAACEBACFCAC2CE137EC41EB52E40E9446
:1011B00073170E9440176D8B7E8B8F8B988F24E75F
:1011C00031ED45EB52E4C301B2010E9473170E9456
:1011D0004017698F7A8F8B8F9C8F25E535E545E029
:1011E00052E469857A858B859C850E9473170E94DD
:1011F00040176D8F7E8F8F8F98A3809166018F5FD0
:1012000089878E3009F419864984042D440C110B0A
:101210008091650190E00817190719F40E94F20205
:10122000F7CF80916601282E312C20E030E0A90113
:10123000C701B6010E948415882311F181E4829DC3
:101240008001839D100D112409591E4F81E0D801A2
:101250008C932CE137EC41EB52E4C701B6010E94BC
:10126000731720E030E040E854E40E9473170E94B6
:101270004017F801FD96608371838283938309C0D0
:1012800081E4829DF001839DF00D1124E959FE4F08
:10129000108281E4829DF001839DF00D1124E959B3
:1012A000FE4F86A215868091590190915A01A09116
:1012B0005B01B0915C014D885E886F88788C481620
:1012C00059066A067B0614F428E0258780905D01A4
:1012D00090905E01A0905F01B0906001498C5A8CA3
:1012E0006B8C7C8C481459046A047B045CF421E404
:1012F000229DF001239DF00D1124E959FE4F258513
:1013000020612587C0906101D0906201E090630167
:10131000F09064014D8C5E8C6F8C78A04C145D0451
:101320006E047F045CF421E4229DF001239DF00D06
:101330001124E959FE4F2585206225874D885E8856
:101340006F88788C481A590A6A0A7B0AC301B2016D
:1013500077FE07C0442455243201461A570A680A0A
:10136000790A41E4429D9001439D300D1124F90119
:10137000E959FE4F4182528263827482298D3A8DEF
:101380004B8D5C8D281939094A095B0949015A01BD
:101390002A833B834C835D8357FF0BC0222733276F
:1013A000A901281939094A095B092A833B834C831F
:1013B0005D8341E4429D9001439D300D1124F9016C
:1013C000E959FE4F2A813B814C815D81258336831B
:1013D000478350872D8D3E8D4F8D58A12C193D0987
:1013E0004E095F0969017A01298B3A8B4B8B5C8B23
:1013F00057FF0BC022273327A9012C193D094E099D
:101400005F09298B3A8B4B8B5C8BE1E4E29DA00159
:10141000E39D500D1124FA01E959FE4F29893A89BB
:101420004B895C8921873287438754874D865E8646
:101430006F86788A2A813B814C815D8142165306F2
:101440006406750620F42D873E874F87588B4D84A0
:101450005E846F84788829893A894B895C89421631
:1014600053066406750610F429013A0121E4229D11
:101470008001239D100D112409591E4FD8011E967D
:101480004D925D926D927C9251974114510461048A
:10149000710409F487C30E9433162CE137EC41EB49
:1014A00052E40E9489156D877E878F87988BC501CE
:1014B000B4010E94331624E731ED45EB52E40E945B
:1014C0008915698B7A8B8B8B9C8BC701B6010E9427
:1014D000331625E535E545E052E40E9489154B01B8
:1014E0005C012D853E854F855889CA01B9010E944E
:1014F00073176B017C0129893A894B895C89CA0180
:10150000B9010E9473179B01AC01C701B6010E948B
:1015100001156B017C01A5019401C501B4010E9474
:1015200073179B01AC01C701B6010E9401150E940F
:10153000E6176A837B838C839D83F80162A373A380
:1015400084A395A39B01AC0160E070E080E89FE379
:101550000E9489156B017C0189819E81AF81B885CC
:10156000F801868B978BA08FB18FC301B2010E94C7
:1015700033162B013C0129813E814F815885C701DB
:10158000B6010E947317A30192010E9473170E9473
:101590006D150E940216D80152966D937D938D931E
:1015A0009C935597A3019201C701B6010E9473173E
:1015B00020E03AEB4BED59E40E94731720E030E84D
:1015C0004BE356E40E9489150E946D150E94FB159D
:1015D000F80161AB72AB83AB94ABA70196016D854B
:1015E0007E858F8598890E9473176D877E878F8788
:1015F000988BA701960169897A898B899C890E94B9
:101600007317698B7A8B8B8B9C8BA7019601C50115
:10161000B4010E9473172B013C01909166018091E7
:101620006501981709F4ABC0E0904901F0904A01B8
:1016300000914B0110914C0120E030E0A901B7016D
:10164000C8010E943B1718160CF099C080914D01FB
:1016500090914E01A0914F01B0915001BC01CD017C
:1016600090582D853E854F8558890E9473174B01F0
:101670005C012091510130915201409153015091F0
:10168000540169897A898B899C890E9473179B010F
:10169000AC01C501B4010E9400154B015C01209111
:1016A0005501309156014091570150915801C301A5
:1016B000B2010E9473179B01AC01C501B4010E94E5
:1016C00000154B015C0123E333E343E75FE30E9432
:1016D000841587FF54C09701A80169817E818F819D
:1016E00098850E943B17181624F0E980FE800F8130
:1016F000188523E333E343E75FEBC501B4010E94A0
:101700003B1718160CF03FC0A501940160E070E093
:1017100080E89FE30E94001520E030E040E05FE3B6
:101720000E9473170E94E6174B015C0120E030EC29
:1017300048E256E40E94731769A37AA38BA39CA383
:10174000A501940160E070E080E89FE30E9400152D
:101750009B01AC0169A17AA18BA19CA10E94891572
:101760000E94E6175B016C019B01AC01B701C80147
:101770000E94841587FD07C07501860104C0E12C15
:10178000F12C00E010E081E4829DF001839DF00DDA
:101790001124E959FE4FC701D801868F978FA0A366
:1017A000B1A320E03AEB4BE55AEC6A817B818C8156
:1017B0009D810E9473179B01AC0160E070E0CB013A
:1017C0000E9400150E94E6175B016C019B01AC01B1
:1017D000B701C8010E94841587FD04C075019C2DC6
:1017E0008D2D02C0902F812F21E4229D8001239D09
:1017F000100D112409591E4FA701692F782FD80108
:101800005A964D935D936D937C935D979501A601D8
:1018100069817E818F8198850E948415181624F035
:1018200081E0F80180A703C0D80198961C9281E45A
:10183000829DF001839DF00D1124E959FE4F81E056
:1018400087A32D853E854F85588920934D01309380
:101850004E0140934F015093500189899A89AB8979
:10186000BC898093510190935201A0935301B0938E
:101870005401409255015092560160925701709266
:10188000580189819E81AF81B885809349019093E9
:101890004A01A0934B01B0934C01498440926601E8
:1018A0004D885E886F88788C4092590150925A0119
:1018B00060925B0170925C01498C5A8C6B8C7C8CC1
:1018C00040925D0150925E0160925F0170926001F2
:1018D0004D8C5E8C6F8C78A04092610150926201B9
:1018E0006092630170926401F0906601E0E0F0E0C4
:1018F00000E010E08091650190E02F2D0F2C000C8E
:10190000330B2817390709F47DC0F11002C03EE0FF
:10191000F32EFA9421E43F2D3203C0011124AC01CF
:1019200049595E4F4A010115110509F468C0309705
:1019300009F465C0D80198968C9198975E962C9082
:101940005E975F963C905F979096AC90909791963B
:101950004C904982811147C0B22CC32CDA2CE42C64
:10196000428C538C648C758CA3019201622D732D73
:101970008A2D9E2D0E943B171816ACF5A3019201EB
:10198000C301B2010E9473172B013C0120E03AEB26
:101990004BE55AECD80192966D917D918D919C9179
:1019A00095970E9473179B01AC01C301B2010E947D
:1019B00000150E94E617562E672E782EA92E262F88
:1019C000372F482F592F622D732D8D2D9E2D0E945C
:1019D000841587FD03C0B52C6301EA2C8B2D9C2D4B
:1019E000AD2DBE2D03C0C101AA2DB981F801828F92
:1019F000938FA48FB58FE1E0D8019796EC93F8010F
:101A0000840178CFF090650100E010E080E090E084
:101A100021E4E22E4F2D0F2C000C550B2091660176
:101A200030E042175307F1F0E49E9001E59E300D3F
:101A30001124A90149595E4F6A01009759F0011517
:101A4000110541F0DC0198962C91211103C0B801D9
:101A50000E944408F394BEE0FB1201C0F12CC801BF
:101A60008601D8CF009751F00115110539F0FC011E
:101A700020A5211103C0B8010E944408D09065013F
:101A8000E12CF12C81E4C82E2D2D0D2C000C330BF4
:101A90008091660190E02817390709F447C0C29E7B
:101AA000C001C39E900D1124AC0149595E4F1A012B
:101AB000E114F104A1F1D70197968C91811104C032
:101AC000FA0187A1882359F1D70156964D905D9070
:101AD0006D907C905997C29EF001C39EF00D112429
:101AE000E959FE4FA3019201628D738D848D958D0E
:101AF0000E9489154B015C01A3019201F701628DDF
:101B0000738D848D958D0E948915AB01BC01950163
:101B10008401C7010E940A07D70197961C92D394AB
:101B2000BEE0DB1201C0D12C7101AECFF701868877
:101B30009788A08CB18CA501940160E070E0CB0186
:101B40000E9489152B013C01A5019401D7015A96E9
:101B50006D917D918D919C915D970E948915AB014E
:101B6000BC0193018201C7010E940A07F70117A275
:101B7000A4960FB6F894DEBF0FBECDBFDF91CF9114
:101B80001F910F91FF90EF90DF90CF90BF90AF909B
:101B90009F908F907F906F905F904F903F902F908D
:101BA0000C941210A4960FB6F894DEBF0FBECDBFF2
:101BB000DF91CF911F910F91FF90EF90DF90CF9029
:101BC000BF90AF909F908F907F906F905F904F905D
:101BD0003F902F90089508950F931F93CF93DF9315
:101BE000D82FC0916601CF5FCE3009F4C0E00C2F32
:101BF0000C2E000C110B8091650190E0081719075D
:101C000019F40E94F202F7CFE091660181E4E89FA7
:101C1000F0011124E959FE4FD083C0936601DF9192
:101C2000CF911F910F910C94121020916601909109
:101C3000650181E0291301C080E00895909166015B
:101C400080916501981749F08091650121E4829F98
:101C5000C001112489599E4F089580E090E00895B5
:101C60009091660180916501981741F0809165011E
:101C70008F5F8E3009F480E08093650108951092A3
:101C800066011092650108958F929F92AF92BF9264
:101C9000CF92DF92EF92FF920F931F93CF93DF9338
:101CA00049015A01670178012CE137EC41EB52E41C
:101CB0000E9473170E944017C9E5D1E068837983B9
:101CC0008A839B8324E731ED45EB52E4C501B401DF
:101CD0000E9473170E9440176C837D838E839F83BD
:101CE00025E535E545E052E4C701B6010E947317CA
:101CF0000E944017688779878A879B8710924901DD
:101D000010924A0110924B0110924C018CE0EDE4CC
:101D1000F1E0DF011D928A95E9F7DF91CF911F91E4
:101D20000F91FF90EF90DF90CF90BF90AF909F907A
:101D30008F900895EF92FF920F931F931092660178
:101D400010926501E12CF12C870120E030E040EA9F
:101D500050E4CA01B9010E94440E1F910F91FF90F7
:101D6000EF9008958AB183778AB987B1807C87B96B
:101D7000089539B199B1292F221F2227221F32FB42
:101D8000992790F9922B21F44B9902C0811104C03C
:101D90001092F5045D9808958093F504089580915C
:101DA000F5040895882311F05C9A08955C980895CD
:101DB000882311F05E9A08955E980895559A14BC90
:101DC00015BCEEE6F0E080818160808316BC549AF9
:101DD00080E00E94D20E569A80E00C94D80E40917A
:101DE000FD045091FE046091FF0470910005809104
:101DF000010590910205A0910305B0910405840F9F
:101E0000951FA61FB71F813828E3920721E0A2077C
:101E1000B10550F48093FD049093FE04A093FF0459
:101E2000B093000580E0089580589843A140B1091F
:101E30008093FD049093FE04A093FF04B0930005EB
:101E400081E008959B01AC01203486E0380741050C
:101E5000510520F420E436E040E050E060E070E717
:101E600088E399E30E9441182115310581E0480774
:101E7000510518F4B90180E02FC02115310588E023
:101E800048075105A8F4DA01C901F3E0B695A79512
:101E900097958795FA95D1F7BC019C01AD01A3E018
:101EA000220F331F441F551FAA95D1F781E014C09C
:101EB000DA01C90126E0B695A795979587952A95E9
:101EC000D1F7BC019C01AD01E6E0220F331F441F96
:101ED000551FEA95D1F782E090918100987F8F5F3E
:101EE000892B8093810070938900609388002093F0
:101EF00001053093020540930305509304050895AE
:101F0000CF92DF92EF92FF92CF93DF93C0911B05A8
:101F1000D0911C050E9431166B017C016A897B8976
:101F20008C899D890E9431169B01AC01C701B601C5
:101F30000E94891523E333E343E75FE30E947317AD
:101F40002DEC3CEC4CE45DE30E9401156B017C013F
:101F50006EA170E080E090E00E9433169B01AC011E
:101F6000C701B6010E9473170E940216862FDF91E7
:101F7000CF91FF90EF90DF90CF900C94B90E0F931C
:101F80001F93CF93DF93882311F023E001C02BE34D
:101F900090E1922725B1277C392F3873232B25B95F
:101FA00056E046E021E061E0CFE3D1E012E00AE153
:101FB000ACE4B9E036B181113C27662379F130FFFA
:101FC00005C0411102C09D2729C04150222359F06C
:101FD00032FF08C0511105C09127662399F020E017
:101FE00002C0515021E075B1392F3770732B75B98C
:101FF000702F7A95F1F775B1372735B9FD01319713
:10200000F1F7D8CF8CE0EDE1F5E0DF011D928A9584
:10201000E9F7DF91CF911F910F910895222391F35A
:1020200060E0D6CF8091F80481110BC081E08093ED
:10203000F80480E180931A0580916F00826080939C
:102040006F0008951092F80410921C0510921B0561
:10205000EFE6F0E080818D7F808380E00C94B90E04
:102060008091F80408959091F704911107C080932E
:10207000F60481E08093F7040C9495000895809114
:10208000F60408958091F704089580E28093F604A1
:102090001092F704089560911D0570911E058091BE
:1020A0001F05909120050E9433162CE137EC41EB7F
:1020B00052E40E94891508956091210570912205CE
:1020C00080912305909124050E94331624E731ED79
:1020D00045EB52E40E9489150895609125057091A1
:1020E000260580912705909128050E94331625E545
:1020F00035E545E052E40E94891508958F929F923C
:10210000AF92BF92CF92DF92EF92FF920F931F9305
:10211000CF93DF9349015A01670178012CE137EC35
:1021200041EB52E40E9473170E944017CDE1D5E0C5
:10213000688379838A839B8324E731ED45EB52E4FE
:10214000C501B4010E9473170E9440176C837D8300
:102150008E839F8325E535E545E052E4C701B6014E
:102160000E9473170E944017688779878A879B8728
:10217000DF91CF911F910F91FF90EF90DF90CF9063
:10218000BF90AF909F908F900895EF92FF920F9322
:102190001F9384B18F6384B985B1807C806185B9D8
:1021A000E1E8F0E080818F7E808380818860808399
:1021B000E0E8F0E080818D7F808380818E7F808366
:1021C00080818F73808380818F7C80831092B000A8
:1021D0001092B100E0E7F0E080818160808360E4EC
:1021E00076E080E090E00E94220F80E00E94B90E2D
:1021F0008CE0EDE1F5E0DF011D928A95E9F7E12C35
:10220000F12C870120E030E040EA50E4CA01B90136
:102210000E947E101092FD041092FE041092FF04A2
:102220001092000510921C0510921B051092F704E5
:1022300080E28093F604109205051F910F91FF90A4
:10224000EF900C9422101F920F920FB60F92112450
:102250005D9815BC0F900FBE0F901F9018951F92A0
:102260000F920FB60F9211248F9385B1887F85B995
:102270001092B1008F910F900FBE0F901F90189584
:102280001F920F920FB60F921124CF92DF92EF920E
:10229000FF920F931F932F933F934F935F936F93EF
:1022A0007F938F939F93AF93BF93CF93DF93EF93DE
:1022B000FF9380910505811184C381E0809305051A
:1022C0008091F704882329F00E9422100E943F0E7B
:1022D00076C329B189B1982F991F9927991F22FB9D
:1022E000882780F9892B11F44B9B03C080E00E9462
:1022F000B90E309B02C084E20BC0319B02C085E264
:1023000007C0329B02C086E203C0339B04C08AE24E
:102310000E94331054C30E94CF0E9091010190315E
:1023200020F4809101018F5F66C0811102C05D9829
:1023300061C015BC5D9A823F08F05CC04091010508
:10234000509102056091030570910405252F362FE9
:10235000472F552790E1899FD00111240E947418BE
:102360006F3F710581059105D9F1D0F1F3E09695A4
:10237000879577956795FA95D1F76F3F7105810538
:10238000910581F178F1E3E09695879577956795CA
:10239000EA95D1F76F3F71058105910529F120F18B
:1023A00052E096958795779567955A95D1F76F3F47
:1023B000710581059105D1F0C8F042E096958795A9
:1023C000779567954A95D1F76F3F7105810591051E
:1023D00029F020F06FEF70E080E090E025E007C08A
:1023E00021E005C022E003C023E001C024E06195A4
:1023F00066BD25BD81E08093010125B190911A054C
:10240000987385B1877C892B85B9822F887389134E
:10241000D8C285B1887F90911A05892B85B985B17D
:10242000887F90911A05892B85B98AEF8093B20035
:1024300082E08093B100789480911B0590911C05F7
:10244000892B09F072C00E941E0EEC0190931C05AE
:1024500080931B05892B19F40E942210B0C2888139
:10246000823008F062C0C9A4DAA4EBA4FCA4C09234
:10247000F904D092FA04E092FB04F092FC0480E4A8
:102480009CE9A0E0B0E08093FD049093FE04A0934B
:10249000FF04B0930005C701B6010E94220F888196
:1024A000813061F480E00E94B90E1092060510920E
:1024B0000705109208051092090504C0C701B6016E
:1024C0000E94800FE0911B05F0911C058685978581
:1024D000A089B189B595A79597958795B095A09551
:1024E000909581959F4FAF4FBF4F80931605909366
:1024F0001705A0931805B0931905809312059093C2
:102500001305A0931405B093150580930E059093C1
:102510000F05A0931005B093110510920A051092B3
:102520000B0510920C0510920D05C0911B05D09162
:102530001C052881223009F433C250F0243009F4FC
:1025400035C208F42FC2253009F039C280E02FC20D
:102550003D8530931A0549815A816B817C81809138
:10256000160590911705A0911805B0911905840FD3
:10257000951FA61FB71F8093160590931705A0936C
:102580001805B09319054E855F85688979891816F5
:1025900019061A061B0644F5316030931A05841B90
:1025A000950BA60BB70B8093160590931705A09378
:1025B0001805B093190580911D0590911E05A091F5
:1025C0001F05B091200533FF04C00197A109B1098F
:1025D00003C00196A11DB11D80931D0590931E059A
:1025E000A0931F05B0932005CD80DE80EF80F88496
:1025F0008091120590911305A0911405B0911505D5
:102600008C0D9D1DAE1DBF1D80931205909313056B
:10261000A0931405B0931505181619061A061B0683
:1026200054F530911A05326030931A05841B950BCE
:10263000A60BB70B8093120590931305A093140576
:10264000B09315058091210590912205A091230555
:10265000B091240534FF04C00197A109B10903C05A
:102660000196A11DB11D8093210590932205A09391
:102670002305B0932405C984DA84EB84FC8480911B
:102680000E0590910F05A0911005B09111058C0DCC
:102690009D1DAE1DBF1D80930E0590930F05A09349
:1026A0001005B0931105181619061A061B0654F5E5
:1026B00030911A05346030931A05841B950BA60BD4
:1026C000B70B80930E0590930F05A0931005B09360
:1026D00011058091250590912605A0912705B091BF
:1026E000280535FF04C00197A109B10903C001966F
:1026F000A11DB11D8093250590932605A093270564
:10270000B0932805C0900A05D0900B05E0900C0509
:10271000F0900D058FEFC81AD80AE80AF80AC0929F
:102720000A05D0920B05E0920C05F0920D059091F0
:102730001A0580E1892780931A05C416D506E60696
:10274000F70608F028C18DA99EA9AFA9B8ADC81693
:10275000D906EA06FB0608F040C00E94EF0E882367
:1027600009F42DC149A95AA96BA97CA98091F90442
:102770009091FA04A091FB04B091FC04840F951F82
:10278000A61FB71F8093F9049093FA04A093FB044B
:10279000B093FC044A895B896C897D894817590785
:1027A0006A077B0740F44093F9045093FA0460935E
:1027B000FB047093FC04C090F904D090FA04E090FC
:1027C000FB04F090FC04C701B6010E94220F88812F
:1027D000813009F064C080E0DBC089AD9AADABAD5B
:1027E000BCADC816D906EA06FB0669F480E49CE98C
:1027F000A0E0B0E08093FD049093FE04A093FF045A
:10280000B0930005DCC0C816D906EA06FB0608F43A
:102810004BC00E94EF0E882309F4D1C049A95AA9E0
:102820006BA97CA98091F9049091FA04A091FB0412
:10283000B091FC04481759076A077B0768F4841BAA
:10284000950BA60BB70B8093F9049093FA04A09311
:10285000FB04B093FC0408C01092F9041092FA042F
:102860001092FB041092FC048DA59EA5AFA5B8A9FB
:102870004091F9045091FA046091FB047091FC04BA
:10288000481759076A077B0708F095CF8093F9042A
:102890009093FA04A093FB04B093FC048CCFC7017F
:1028A000B6010E94800F8BC06A897B898C899D89C3
:1028B0000091F9041091FA042091FB043091FC047A
:1028C000601771078207930751F06093F9047093C2
:1028D000FA048093FB049093FC040E94220F8881E9
:1028E000813009F054C08091060590910705A091B0
:1028F0000805B09109052AE0CC0CDD1CEE1CFF1C7C
:102900002A95D1F7892B8A2B8B2B41F4C09206058F
:10291000D0920705E0920805F0920905809106051E
:1029200090910705A0910805B0910905C816D90630
:10293000EA06FB0608F443C0ED96488159816A8196
:102940007B81840F951FA61FB71F80930605909368
:102950000705A0930805B0930905F8940E941D028D
:102960007894282F30E020583109220F331FE0914E
:102970001B05F0911C0546A1429FC001439F900D8D
:1029800011246FEF70E00E942D18862F01C08EA1D8
:102990000E94B90E14C0213061F40E94450209C0A2
:1029A00081E001C080E00E94D20E03C081E00E945D
:1029B000D80E10921C0510921B050E94300E10922A
:1029C0000505FF91EF91DF91CF91BF91AF919F915D
:1029D0008F917F916F915F914F913F912F911F91B7
:1029E0000F91FF90EF90DF90CF900F900FBE0F9060
:1029F0001F90189580E00E94BF0F81E00C94BF0FDC
:102A00005058BB27AA270E9418150C94E9160E945B
:102A1000DB1638F00E94E21620F039F49F3F19F4DB
:102A200026F40C94D8160EF4E095E7FB0C94A91646
:102A3000E92F0E94FA1658F3BA1762077307840742
:102A4000950720F079F4A6F50C9434170EF4E09570
:102A50000B2EBA2FA02D0B01B90190010C01CA0158
:102A6000A0011124FF27591B99F0593F50F4503E03
:102A700068F11A16F040A22F232F342F4427585FF5
:102A8000F3CF469537952795A795F0405395C9F70D
:102A90007EF41F16BA0B620B730B840BBAF09150C5
:102AA000A1F0FF0FBB1F661F771F881FC2F70EC064
:102AB000BA0F621F731F841F48F487957795679537
:102AC000B795F7959E3F08F0B0CF9395880F08F023
:102AD0009927EE0F9795879508950E941C1790F0FF
:102AE0009F3748F4911116F40C94351760E070E0AC
:102AF00080E89FE3089526F01B16611D711D811D5E
:102B00000C94AF160C94CA160E94851608F481E046
:102B100008950E949D150C94E9160E94E21658F043
:102B20000E94DB1640F029F45F3F29F00C94A916AF
:102B300051110C9435170C94D8160E94FA1668F3AC
:102B40009923B1F3552391F3951B550BBB27AA2766
:102B500062177307840738F09F5F5F4F220F331FA0
:102B6000441FAA1FA9F335D00E2E3AF0E0E832D068
:102B700091505040E695001CCAF72BD0FE2F29D06B
:102B8000660F771F881FBB1F261737074807AB073D
:102B9000B0E809F0BB0B802DBF01FF2793585F4FB2
:102BA0003AF09E3F510578F00C94A9160C94351715
:102BB0005F3FE4F3983ED4F3869577956795B79594
:102BC000F7959F5FC9F7880F911D9695879597F99F
:102BD0000895E1E0660F771F881FBB1F6217730718
:102BE0008407BA0720F0621B730B840BBA0BEE1F2D
:102BF00088F7E09508950E9402166894B1110C942C
:102C0000351708950E94021788F09F5798F0B92F42
:102C10009927B751B0F0E1F0660F771F881F991F11
:102C20001AF0BA95C9F714C0B13091F00E94341768
:102C3000B1E008950C943417672F782F8827B85F78
:102C400039F0B93FCCF3869577956795B395D9F769
:102C50003EF490958095709561957F4F8F4F9F4F73
:102C60000895E89409C097FB3EF49095809570957F
:102C700061957F4F8F4F9F4F9923A9F0F92F96E9C8
:102C8000BB279395F695879577956795B795F1113D
:102C9000F8CFFAF4BB0F11F460FF1BC06F5F7F4FDA
:102CA0008F4F9F4F16C0882311F096E911C07723EC
:102CB00021F09EE8872F762F05C0662371F096E8F5
:102CC000862F70E060E02AF09A95660F771F881FC4
:102CD000DAF7880F9695879597F908950E941C1743
:102CE00090F09F3748F4911116F00C94351760E07E
:102CF00070E080E89FEB089526F41B16611D711D9E
:102D0000811D0C94AF160C94CA16990F0008550F2C
:102D1000AA0BE0E8FEEF16161706E807F907C0F061
:102D200012161306E407F50798F0621B730B840B69
:102D3000950B39F40A2661F0232B242B252B21F443
:102D400008950A2609F4A140A6958FEF811D811DE3
:102D5000089597F99F6780E870E060E00895882300
:102D600071F4772321F09850872B762F07C06623C4
:102D700011F499270DC09051862B70E060E02AF085
:102D80009A95660F771F881FDAF7880F96958795B3
:102D900097F908959F3F31F0915020F487957795EA
:102DA0006795B795880F911D9695879597F9089522
:102DB0009FEF80EC089500240A9416161706180653
:102DC0000906089500240A9412161306140605062F
:102DD0000895092E0394000C11F4882352F0BB0FC0
:102DE00040F4BF2B11F460FF04C06F5F7F4F8F4F23
:102DF0009F4F089557FD9058440F551F59F05F3F5E
:102E000071F04795880F97FB991F61F09F3F79F00C
:102E100087950895121613061406551FF2CF46958E
:102E2000F1DF08C0161617061806991FF1CF869510
:102E300071056105089408950E940217A0F0BEE78D
:102E4000B91788F4BB279F3860F41616B11D672F99
:102E5000782F8827985FF7CF869577956795B11D6E
:102E600093959639C8F30895E894BB27662777278A
:102E7000CB0197F908950E94851608F48FEF089505
:102E80000E94021758F19E5760F19851A0F0E9F0A6
:102E9000983020F5092E9927660F771F881F991FF4
:102EA0000A94D1F712C0062E672F782F8827985FD3
:102EB00011F4000C07C0993FB4F386957795679598
:102EC0009395D9F7611D711D811D3EF490958095F4
:102ED000709561957F4F8F4F9F4F089568940C9424
:102EE00035170C9434170E9486170C94E9160E942B
:102EF000DB1638F00E94E21620F0952311F00C94B6
:102F0000A9160C94D81611240C9435170E94FA16A1
:102F100070F3959FC1F3950F50E0551F629FF0012C
:102F2000729FBB27F00DB11D639FAA27F00DB11D45
:102F3000AA1F649F6627B00DA11D661F829F2227CE
:102F4000B00DA11D621F739FB00DA11D621F839F55
:102F5000A00D611D221F749F3327A00D611D231F2B
:102F6000849F600D211D822F762F6A2F11249F5779
:102F700050409AF0F1F088234AF0EE0FFF1FBB1F7C
:102F8000661F771F881F91505040A9F79E3F51053B
:102F900080F00C94A9160C9435175F3FE4F3983E2B
:102FA000D4F3869577956795B795F795E7959F5FE5
:102FB000C1F7FE2B880F911D9695879597F9089577
:102FC00019F416F40C94D8160C94CA160E94021721
:102FD000B8F39923C9F3B6F39F57550B87FF0E94A7
:102FE00026180024A0E640EA90018058569597954F
:102FF00028F4805C660F771F881F20F0261737079C
:10300000480730F4621B730B840B202931294A2BAB
:10301000A69517940794202531254A2758F7660F5F
:10302000771F881F20F026173707480730F4620BF8
:10303000730B840B200D311D411DA09581F7B90143
:10304000842F9158880F96958795089591505040F8
:10305000660F771F881FD2F7089597FB072E16F487
:10306000009407D077FD09D00E947C1807FC05D09A
:103070003EF4909581959F4F0895709561957F4F8F
:103080000895A1E21A2EAA1BBB1BFD010DC0AA1FA9
:10309000BB1FEE1FFF1FA217B307E407F50720F0C1
:1030A000A21BB30BE40BF50B661F771F881F991F3C
:1030B0001A9469F760957095809590959B01AC0185
:1030C000BD01CF010895EE0FFF1F0590F491E02D93
:1030D00009940E949018A59F900DB49F900DA49FF5
:1030E000800D911D11240895B7FF0C9469180E945A
:1030F0006918821B930B0895AA1BBB1B51E107C0E3
:10310000AA1FBB1FA617B70710F0A61BB70B881F77
:10311000991F5A95A9F780959095BC01CD01089506
:10312000A29FB001B39FC001A39F700D811D112408
:10313000911DB29F700D811D1124911D0895F89469
:02314000FFCFBF
:02314200010189
:00000001FF
