:100000000C945A000C9481000C9481000C94810093
:100010000C9481000C9481000C9481000C9481005C
:100020000C9481000C940C110C9481000C941D1103
:100030000C9481000C9481000C9481000C9481003C
:100040000C9400110C9481000C946D010C941C0113
:100050000C9481000C9481000C9481000C9481001C
:100060000C9481000C948100E306A804FC04CD04E8
:1000700009050C050F0567056705A105A405A7057A
:10008000A905AB05AD056606DC065406DC067C0654
:10009000870692069D06B206C706DC06DC067106D8
:1000A000DC06DC065F06DC06DC06DC06DC06CA05D0
:1000B000F8052606E8EAF6E085EC98E001C08193B1
:1000C000EF3FF907E0F3D9F311241FBECFEFD8E0DB
:1000D000DEBFCDBF11E0A0E0B1E0E0EEFFE202C084
:1000E00005900D92A230B107D9F726E0A2E0B1E069
:1000F00001C01D92A83AB207E1F70E9483000C9458
:10010000EE170C94000078940E94B2000E949802AE
:100110000E948D0E0E94A2100E94A50E0E94AC0E9D
:100120000E94890480E090E00895109203011092EB
:1001300002010895909109019F5F903809F490E0C1
:10014000209108019217E1F3E0910901F0E0E85DE8
:10015000F94F8083909309018091C1008062809360
:10016000C10008951092C50080E18093C400E0ECC6
:10017000F0E080818D7F8083E1ECF0E08081806120
:1001800080838081886080838081806880838EE71F
:100190000C949A00CF92DF92EF92FF92CF93C82FE8
:1001A000CB01BA0120E030E04AE754E40E94CA16CD
:1001B0000E9497166B017C0128EFF21A8C2D806843
:1001C0000E949A00D701C60180789F73AA27BB2797
:1001D00027E0B695A795979587952A95D1F78058EA
:1001E0000E949A00D701C6018827907CAF71BB2777
:1001F0003EE0B695A795979587953A95D1F78058A3
:100200000E949A00CC24DD2480EEE8228FE0F822C0
:10021000D701C60145E1B695A795979587954A956B
:10022000D1F780580E949A008C2FCF91FF90EF90C9
:10023000DF90CF900C949A001F920F920FB60F92FE
:1002400011248F939F93EF93FF93809108019091D6
:100250000501992331F095E09093C60010920501B5
:100260000DC0E82FF0E0E85DF94F90819093C60053
:100270008F5F803809F480E0809308019091090134
:10028000891305C08091C1008F7D8093C100FF91CB
:10029000EF919F918F910F900FBE0F901F90189527
:1002A000E0910A01F0E0E85DFA4F808190910A0147
:1002B0009F5F90930A01909104019F5F90930401C6
:1002C000903151F491E0909305019091C1009062BA
:1002D0009093C1001092040108951F920F920FB6DF
:1002E0000F9211242F933F934F935F936F937F93BC
:1002F0008F939F93AF93BF93CF93EF93FF93C0914F
:10030000C60080910001882329F010920001C0935B
:1003100007013DC081E08093000180910701C8176B
:1003200019F08DE30E941010C031F8F4C13011F4BF
:1003300081E224C0C23069F41092030110920201DC
:1003400010920A0110920B01109204010E942210D7
:100350001EC0C33019F40E94E00219C0C43019F461
:100360000E94E40214C083E209C0E0910B0181E025
:100370008E0F90910A01891304C082E20E9410102E
:1003800006C0F0E0E85DFA4FC08380930B01FF9157
:10039000EF91CF91BF91AF919F918F917F916F918D
:1003A0005F914F913F912F910F900FBE0F901F9033
:1003B0001895CF93C1E080910301882301F18091CA
:1003C00002018823C9F01092060190910A018091E0
:1003D0000B0198130BC080910601811104C00E948B
:1003E000E802C09306010E94F402EFCF0E94500180
:1003F000813111F4109203010E94F402DCCF1092BB
:100400000601C1E090910A0180910B0198130BC085
:1004100080910601811104C00E94E802C093060188
:100420000E94F402EFCF0E945001803131F481E04C
:10043000809303011092020181E4CF91089580918D
:1004400003018823C9F080910201811115C09091A8
:100450000A0180910B01981303C00E94E8020CC0AE
:100460000E94500187FD09C0813119F410920301E7
:1004700003C083E20E94101080E8089520910A01D1
:1004800090910B0181E0291301C080E0089581E083
:10049000809302010895E1E1F1E0438150E060E0E2
:1004A00070E0405851096109710987E0440F551FF8
:1004B000661F771F8A95D1F7828190E0A0E0B0E0B7
:1004C00080589109A109B109840F951FA61FB71F74
:1004D000AC01BD0197E0440F551F661F771F9A9529
:1004E000D1F7818190E0A0E0B0E080589109A109A6
:1004F000B109840F951FA61FB71F27E0880F991F0A
:10050000AA1FBB1F2A95D1F72081820F911DA11D23
:10051000B11DBC01CD0160587109810998400E944C
:100520008A1520E030E04AE754E40E94E014089580
:10053000CF93DF93E6E1F1E081E0808340E050E09B
:100540006AE775E4418352836383748315829CE078
:10055000A5E2B1E0ED0119929A95E9F716821782AA
:10056000108611861286138614861586168640E03C
:1005700050E060EA70E4438F548F658F768F478F29
:1005800050A361A372A313A214A215A216A247A39B
:1005900050A761A772A743A754A765A776A717A678
:1005A00010AA11AA12AA8093100180930F01109231
:1005B0000E0110920D0180930C01DF91CF910895EF
:1005C00081E080931001089581E080930F010895E8
:1005D00080910D0190910E01019690930E018093F0
:1005E0000D0110920C010895CF92DF92EF92FF92CD
:1005F0000F931F93CF93DF9300D000D0CDB7DEB71A
:100600004D9B02C04B9903C080E00E94B50E0E9432
:100610001F108823D1F00E94320E0E944A106B01F5
:100620007C010E9439109B01AC0169833A834B83A2
:100630005C830E9428108701760129813A814B81D1
:100640005C810E94370E109215018091100181117A
:1006500005C080910F01882309F44EC1109210014A
:100660000E94080E811112C00E943E0281110EC02C
:100670000E941F1081110AC081E40E949A0083B772
:10068000816083BF889583B78E7F83BF4D9903C0F8
:1006900082E40E949A004B9903C083E40E949A006E
:1006A0000E941C10182F803211F00E949A0030997D
:1006B00005C0143219F084E20E949A00319905C0F5
:1006C000153219F085E20E949A00329905C016325F
:1006D00019F086E20E949A00339905C01A3219F087
:1006E0008AE20E949A000E942810E091240123E0EF
:1006F000E29FF0011124EE0FFF1FEE0FFF1FEA5ED5
:10070000FE4F238D348D458D568D0E945714AB01BD
:10071000BC0188E70E94CA000E943910E0912401C0
:1007200023E0E29FF0011124EE0FFF1FEE0FFF1FE9
:10073000E65EFE4F238D348D458D568D0E945714F5
:10074000AB01BC0189E70E94CA000E944A10E091F7
:10075000240123E0E29FF0011124EE0FFF1FEE0FB2
:10076000FF1FE25EFE4F238D348D458D568D0E9416
:100770005714AB01BC018AE70E94CA0080910C01AA
:10078000811110C060910D0170910E0180E090E028
:100790000E948815AB01BC0187E70E94CA0081E076
:1007A00080930C01E8EAF6E0BF01685A7640808148
:1007B000853C09F48AC080E090E00E948815AB0176
:1007C000BC0185E70E94CA0080910F01882309F4CB
:1007D00084C010920F0140E050E265ED74E486E7BA
:1007E0000E94CA00209131013091320140913301C1
:1007F0005091340160913D0170913E0180913F0123
:10080000909140010E945714AB01BC0181E60E9407
:10081000CA00209135013091360140913701509145
:1008200038016091410170914201809143019091A2
:1008300044010E945714AB01BC0182E60E94CA0029
:100840002091390130913A0140913B0150913C0196
:100850006091450170914601809147019091480156
:100860000E945714AB01BC0183E60E94CA0040916C
:100870001701509118016091190170911A0187E6D2
:100880000E94CA0060911B0170E080E090E00E942D
:100890008815AB01BC0188E60E94CA0040911C018A
:1008A00050911D0160911E0170911F0189E60E9407
:1008B000CA00409120015091210160912201709164
:1008C00023018AE60E94CA0008C088E0EF3FF807CB
:1008D00011F008F070CF319667CF86E00F900F903F
:1008E0000F900F90DF91CF911F910F91FF90EF909C
:1008F000DF90CF900C949A000F900F900F900F9074
:10090000DF91CF911F910F91FF90EF90DF90CF90EB
:100910000895D1E00E94D901C82F0E941F1088239A
:1009200019F00E94F402F6CFC7FD50C28FEB8C0F76
:100930008A3108F018C18C2F90E0FC01E154F109D4
:10094000EF30F10508F00DC1EC5CFF4F0C94BA17C5
:10095000A0901701B0901801C0901901D0901A0111
:10096000E0902D01F0902E0100912F0110913001A7
:100970002091290130912A0140912B0150912C01A5
:1009800060912501709126018091270190912801A5
:100990001F921F921F921F922CC0A0901701B0901F
:1009A0001801C0901901D0901A01E0902D01F0902B
:1009B0002E0100912F0110913001209129013091D9
:1009C0002A0140912B0150912C01609125017091D9
:1009D00026018091270190912801E0912301EF9356
:1009E000E0912201EF93E0912101EF93E09120014A
:1009F000EF9380901B0164C060911C0170911D01F8
:100A000080911E0190911F0140911B010E94D40D05
:100A1000DAC110921601D7C1D0931601D4C10E9439
:100A20000D10882319F00E94F402F9CF0E9451148E
:100A3000E12CF12C8701A8019701C801B7010E94A0
:100A4000370E109224016091310170913201809132
:100A500033019091340160932501709326018093B6
:100A60002701909328012091350130913601409162
:100A70003701509138012093290130932A01409386
:100A80002B0150932C01E0903901F0903A01009134
:100A90003B0110913C01E0922D01F0922E01009358
:100AA0002F0110933001A0901701B0901801C09051
:100AB0001901D0901A011F921F921F921F92812C30
:100AC0000E949C080F900F900F900F907CC10E9485
:100AD0000D10882319F00E94F402F9CF81E090E014
:100AE000C93411F080E090E08C01000F111F080F55
:100AF000191F0E942810F801EE0FFF1FEE0FFF1FB5
:100B0000EA5EFE4F638F748F858F968F0E94391037
:100B1000F801EE0FFF1FEE0FFF1FE65EFE4F638F23
:100B2000748F858F968F0E944A10000F111F000F3F
:100B3000111FF801E25EFE4F638F748F858F968FD1
:100B400042C1109224013FC1D09324013CC182E0F4
:100B500005C083E003C084E001C085E00E94D50D9C
:100B600032C18CE32EC18FE98C0F8A3108F028C185
:100B700080911501843009F021C18C2F90E0FC0197
:100B8000E456F109E731F10508F016C1ED5BFF4FBE
:100B90000C94BA1780911601813099F40E944B028F
:100BA000E091240123E0E29FF0011124EE0FFF1FEA
:100BB000EE0FFF1FEA5EFE4F238D348D458D568D5F
:100BC0000CC00E944B029B01AC0160912501709109
:100BD000260180912701909128010E94581460936A
:100BE0002501709326018093270190932801EBC083
:100BF00080911601813099F40E944B02E09124010A
:100C000023E0E29FF0011124EE0FFF1FEE0FFF1F04
:100C1000E65EFE4F238D348D458D568D0CC00E94AF
:100C20004B029B01AC016091290170912A018091D6
:100C30002B0190912C010E9458146093290170930C
:100C40002A0180932B0190932C01BDC08091160145
:100C5000813099F40E944B02E091240123E0E29F4D
:100C6000F0011124EE0FFF1FEE0FFF1FE25EFE4F9B
:100C7000238D348D458D568D0CC00E944B029B01F7
:100C8000AC0160912D0170912E0180912F01909106
:100C900030010E94581460932D0170932E018093AF
:100CA0002F01909330018FC00E944B026093170177
:100CB000709318018093190190931A0184C00E94C7
:100CC0004B020E94591560931B017DC00E944B028C
:100CD00060931C0170931D0180931E0190931F016E
:100CE00072C00E944B026093200170932101809397
:100CF00022019093230167C00E944B02609331014F
:100D00007093320180933301909334015CC00E9450
:100D10004B026093350170933601809337019093B5
:100D2000380151C00E944B026093390170933A011F
:100D300080933B0190933C0146C00E944B0220915E
:100D400031013091320140913301509134010E94C0
:100D5000581460933D0170933E0180933F0190933E
:100D6000400131C00E944B02209135013091360183
:100D700040913701509138010E945814609341010D
:100D80007093420180934301909344011CC00E94E0
:100D90004B022091390130913A0140913B01509131
:100DA0003C010E9458146093450170934601809362
:100DB00047019093480107C08EE303C08AE301C056
:100DC00083E20E94101010921501ABCDE091150145
:100DD000E43048F481E08E0F80931501F0E0EF5E7F
:100DE000FE4FC0839ECD8AE30E9410109ACD2F92B1
:100DF0003F924F925F926F927F928F929F92AF92AB
:100E0000BF92CF92DF92EF92FF920F931F93CF93F7
:100E1000DF93CDB7DEB760970FB6F894DEBF0FBE95
:100E2000CDBF1C012A013B0148015901FC01628927
:100E30007389848995890E9488156B017C01A301BF
:100E400092010E94CA160E94C4140E9459152B01D7
:100E50003C01F10161A772A783A794A7A5019401A2
:100E6000C701B6010E94CA160E94C4140E945915F7
:100E70004B015C01F10165A776A787A790AB21A97B
:100E800032A943A954A9A0EEBEE20E94C01769830B
:100E90007A838B839C830E948A156D837E838F83E4
:100EA0009887C301B2010E9488152B013C01A7015C
:100EB0009601C701B6010E94CA166B017C01A3010D
:100EC0009201C301B2010E94CA1669877A878B8793
:100ED0009C872D813E814F815885CA01B9010E94AE
:100EE00058146D877E878F87988B29853A854B8527
:100EF0005C85C701B6010E9457142D853E854F853C
:100F000058890E94E0140E94C4140E9452152B01BB
:100F10003C01C501B4010E9488159B01AC010E94EF
:100F2000CA164B015C01A70196010E9457146B0180
:100F30007C0169817A818B819C81909580957095E7
:100F400061957F4F8F4F9F4F0E948A159B01AC0187
:100F50000E9458149B01AC01C701B6010E94E01425
:100F60000E94C515F101C684D784E088F188A701E5
:100F70009601241935094609570929833A834B8379
:100F80005C830E94521529813A814B815C81261B2A
:100F9000370B480B590BDA01C90157FF3DC0C70198
:100FA000B6010E948A159B01AC016D857E858F85F7
:100FB00098890E94CA1629853A854B855C850E94CE
:100FC0005714A50194010E9458144B015C0120E0C4
:100FD00030E040E850E46D817E818F8198850E94E9
:100FE000CA169B01AC01C501B4010E94E0140E9425
:100FF000C4140E94521597FF03C060E070E0CB015B
:101000002B013C01C616D706E806F90614F42601A2
:10101000370180E090E0DC01F10145AA56AA67AAF9
:1010200070AE480E591E6A1E7B1E41AE52AE63AEB4
:1010300074AE60960FB6F894DEBF0FBECDBFDF91E1
:10104000CF911F910F91FF90EF90DF90CF90BF90C5
:10105000AF909F908F907F906F905F904F903F9058
:101060002F9008954F925F926F927F92AF92BF92AE
:10107000CF92DF92EF92FF920F931F93CF93DF9364
:10108000FC0120A5211149C0EB018C01428C538C3D
:10109000648C758CAA8CBB8CCC8CDD8C9501A601E4
:1010A000C301B2010E94DB1487FF37C0A301920184
:1010B000C301B2010E94CA162B013C0120E03AEBA9
:1010C0004BE55AECF80162A173A184A195A10E949D
:1010D000CA169B01AC01C301B2010E9457140E94C1
:1010E0003D177B018C019B01AC01B501C6010E943B
:1010F000DB1487FF02C0750186019701A801B501C5
:10110000C6010E94DB14882341F0A701B8014A8F71
:101110005B8F6C8F7D8F81E08FA3DF91CF911F91CB
:101120000F91FF90EF90DF90CF90BF90AF907F90A6
:101130006F905F904F9008952F923F924F925F92E1
:101140006F927F928F929F92AF92BF92CF92DF92D7
:10115000EF92FF920F931F93CF93DF93CDB7DEB73C
:10116000A4970FB6F894DEBF0FBECDBF29013A0198
:10117000E986FA860B871C87A982BE82CF82D88631
:10118000C9ACDAACEBACFCAC2DEC3BE343E052E495
:101190000E94CA160E9497166D8B7E8B8F8B988F3C
:1011A0002DEC3BE343E052E4C301B2010E94CA16B6
:1011B0000E949716698F7A8F8B8F9C8F2DEC3BE363
:1011C00043E052E469857A858B859C850E94CA1626
:1011D0000E9497166D8F7E8F8F8F98A380916601E6
:1011E0008F5F89878E3009F419864984042D440C59
:1011F000110B8091650190E08017910719F40E940E
:10120000F402F7CF80916601282E312C20E030E0E7
:10121000A901C701B6010E94DB14882311F181E402
:10122000829D8001839D100D112409591E4F81E07C
:10123000D8018C932DEC3BE343E052E4C701B601A7
:101240000E94CA1620E030E040E854E40E94CA162A
:101250000E949716F801FD966083718382839383C1
:1012600009C081E4829DF001839DF00D1124E959AC
:10127000FE4F108281E4829DF001839DF00D1124C8
:10128000E959FE4F86A215868091590190915A0125
:10129000A0915B01B0915C014D885E886F88788C6D
:1012A000481659066A067B0614F428E025878090C4
:1012B0005D0190905E01A0905F01B0906001498C4B
:1012C0005A8C6B8C7C8C481459046A047B045CF443
:1012D00021E4229DF001239DF00D1124E959FE4FD8
:1012E000258520612587C0906101D0906201E09042
:1012F0006301F09064014D8C5E8C6F8C78A04C146F
:101300005D046E047F045CF421E4229DF001239DC2
:10131000F00D1124E959FE4F2585206225874D885F
:101320005E886F88788C481A590A6A0A7B0AC3015A
:10133000B2014A825B826C827D8277FE0BC02227DB
:101340003327A90124193509460957092A833B8304
:101350004C835D8341E4429D9001439D300D1124F7
:10136000F901E959FE4F4A805B806C807D804182A3
:10137000528263827482498C5A8C6B8C7C8C4818A4
:1013800059086A087B085301420177FE07C04424CC
:1013900055243201481859086A087B0841E4429DE7
:1013A0009001439D300D1124F901E959FE4F45820A
:1013B0005682678270862D8D3E8D4F8D58A12C19D7
:1013C0003D094E095F0969017A01298B3A8B4B8BE4
:1013D0005C8B57FF0BC022273327A9012C193D092D
:1013E0004E095F09298B3A8B4B8B5C8BE1E4E29DC4
:1013F000A001E39D500D1124FA01E959FE4F2989FE
:101400003A894B895C8921873287438754874D8687
:101410005E866F86788A2A813B814C815D81421687
:1014200053066406750620F42D873E874F87588B38
:101430004D845E846F84788829893A894B895C89D8
:10144000421653066406750610F429013A0121E498
:10145000229D8001239D100D112409591E4FD80192
:101460001E964D925D926D927C925197411451045B
:101470006104710409F47FC30E948A152DEC3BE3DB
:1014800043E052E40E94E0146D877E878F87988B3B
:10149000C501B4010E948A152DEC3BE343E052E400
:1014A0000E94E014698B7A8B8B8B9C8BC701B601F1
:1014B0000E948A152DEC3BE343E052E40E94E014C5
:1014C0004B015C012D853E854F855889CA01B901C4
:1014D0000E94CA166B017C0129893A894B895C8973
:1014E000CA01B9010E94CA169B01AC01C701B6012D
:1014F0000E9458146B017C01A5019401C501B4013F
:101500000E94CA169B01AC01C701B6010E94581483
:101510000E943D176A837B838C839D83F80162A3BD
:1015200073A384A395A39B01AC0160E070E080E805
:101530009FE30E94E0146B017C0189819E81AF8151
:10154000B885F801868B978BA08FB18FC301B2014C
:101550000E948A152B013C01A701960169817E81B9
:101560008F8198850E94CA169B01AC01C301B2010C
:101570000E94CA160E94C4140E945915D80152969E
:101580006D937D938D939C935597A7019601C3010D
:10159000B2010E94CA1620E03AEB4BED59E40E94DA
:1015A000CA1620E030E84BE356E40E94E0140E94A3
:1015B000C4140E945215F80161AB72AB83AB94ABBB
:1015C000A70196016D857E858F8598890E94CA1630
:1015D0006D877E878F87988BA701960169897A89A5
:1015E0008B899C890E94CA16698B7A8B8B8B9C8B0A
:1015F000A7019601C501B4010E94CA162B013C0146
:101600009091660180916501981709F4ABC0E09054
:101610004901F0904A0100914B0110914C0120E0EA
:1016200030E0A901B701C8010E94921618160CF00B
:1016300099C080914D0190914E01A0914F01B091C0
:101640005001BC01CD0190582D853E854F855889AC
:101650000E94CA164B015C01209151013091520148
:10166000409153015091540169897A898B899C89F1
:101670000E94CA169B01AC01C501B4010E94571417
:101680004B015C0120915501309156014091570169
:1016900050915801C301B2010E94CA169B01AC01CE
:1016A000C501B4010E9457144B015C0123E333E3ED
:1016B00043E75FE30E94DB1487FF54C029813E812A
:1016C0004F815885B701C8010E94DB1487FD04C013
:1016D000E980FE800F81188523E333E343E75FEB66
:1016E000C501B4010E94921618160CF03FC0A50166
:1016F000940160E070E080E89FE30E94571420E0CE
:1017000030E040E05FE30E94CA160E943D174B01A3
:101710005C0120E030EC48E256E40E94CA1669A35E
:101720007AA38BA39CA3A501940160E070E080E8FC
:101730009FE30E9457149B01AC0169A17AA18BA180
:101740009CA10E94E0140E943D175B016C019B016B
:10175000AC01B701C8010E94DB1487FD07C0750109
:10176000860104C0E12CF12C00E010E081E4829DB0
:10177000F001839DF00D1124E959FE4FC701D801F6
:10178000868F978FA0A3B1A320E03AEB4BE55AECEC
:101790006A817B818C819D810E94CA169B01AC016C
:1017A00060E070E0CB010E9457140E943D175B017E
:1017B0006C019B01AC01B701C8010E94DB1487FDDD
:1017C00004C075019C2D8D2D02C0902F812F21E426
:1017D000229D8001239D100D112409591E4FA70140
:1017E000692F782FD8015A964D935D936D937C9312
:1017F0005D979501A60169817E818F8198850E9400
:10180000DB14181624F081E0F80180A703C0D8018A
:1018100098961C9281E4829DF001839DF00D112425
:10182000E959FE4F81E087A32D853E854F85588974
:1018300020934D0130934E0140934F01509350013E
:1018400089899A89AB89BC8980935101909352010F
:10185000A0935301B0935401409255015092560108
:10186000609257017092580189819E81AF81B8853D
:101870008093490190934A01A0934B01B0934C018E
:101880004984409266014D885E886F88788C4092CA
:10189000590150925A0160925B0170925C01498C2F
:1018A0005A8C6B8C7C8C40925D0150925E016092F0
:1018B0005F01709260014D8C5E8C6F8C78A04092BD
:1018C0006101509262016092630170926401F09034
:1018D0006601E0E0F0E000E010E08091650190E05A
:1018E0002F2D0F2C000C330B2817390709F47DC05E
:1018F000F11002C03EE0F32EFA9421E43F2D3203B2
:10190000C0011124AC0149595E4F4A01011511056E
:1019100009F468C0309709F465C0D80198968C9195
:1019200098975E962C905E975F963C905F97909606
:10193000AC90909791964C904982811147C0B22CFF
:10194000C32CDA2CE42C428C538C648C758CA30150
:101950009201622D732D8A2D9E2D0E9492161816CB
:10196000ACF5A3019201C301B2010E94CA162B017A
:101970003C0120E03AEB4BE55AECD80192966D9190
:101980007D918D919C9195970E94CA169B01AC0107
:10199000C301B2010E9457140E943D17562E672EB4
:1019A000782EA92E262F372F482F592F622D732DD1
:1019B0008D2D9E2D0E94DB1487FD03C0B52C630185
:1019C000EA2C8B2D9C2DAD2DBE2D03C0C101AA2D5F
:1019D000B981F801828F938FA48FB58FE1E0D80190
:1019E0009796EC93F801840178CFF090650100E0C0
:1019F00010E080E090E021E4E22E4F2D0F2C000C4F
:101A0000550B2091660130E042175307C9F0E49E60
:101A10009001E59E300D1124A90149595E4F6A01DC
:101A2000009731F00115110519F0B8010E94320834
:101A3000F3945EE0F51201C0F12CC8018601DDCF00
:101A4000009731F00115110519F0B8010E94320814
:101A5000D0906501E12CF12C81E4C82E4D2D0D2C88
:101A6000000C550B8091660190E04817590709F466
:101A700046C0C49EC001C59E900D1124DC01A95929
:101A8000BE4F1D01E114F10499F1F70187A1811105
:101A900004C097968C91882359F1D70156964D90A2
:101AA0005D906D907C905997C49EF001C59EF00D9D
:101AB0001124E959FE4FA3019201628D738D848D2B
:101AC000958D0E94E0144B015C01A3019201F70186
:101AD000628D738D848D958D0E94E014AB01BC01E5
:101AE00095018401C7010E94F706D70197961C92C1
:101AF000D394BEE0DB1201C0D12C7101AFCFF7014E
:101B000086889788A08CB18CA501940160E070E074
:101B1000CB010E94E0142B013C01A5019401D701E7
:101B20005A966D917D918D919C915D970E94E014E4
:101B3000AB01BC0193018201C7010E94F706F701C6
:101B400017A2A4960FB6F894DEBF0FBECDBFDF91EB
:101B5000CF911F910F91FF90EF90DF90CF90BF90AA
:101B6000AF909F908F907F906F905F904F903F903D
:101B70002F900C94EF0FA4960FB6F894DEBF0FBE13
:101B8000CDBFDF91CF911F910F91FF90EF90DF902C
:101B9000CF90BF90AF909F908F907F906F905F900D
:101BA0004F903F902F9008950895FF920F931F93A9
:101BB000CF93DF931F92CDB7DEB790916601FF24DC
:101BC000F394F90E9EE0F91201C0F12C0F2D0F2CA9
:101BD000000C110B2091650130E02017310729F42A
:101BE00089830E94F4028981F5CFE091660191E436
:101BF000E99FF0011124E959FE4F8083F0926601BC
:101C00000F90DF91CF911F910F91FF900C94EF0FE8
:101C1000209166019091650181E0291301C080E067
:101C200008959091660180916501981749F080911F
:101C3000650121E4829FC001112489599E4F0895B6
:101C400080E090E008959091660180916501981779
:101C500041F0809165018F5F8E3009F480E08093C0
:101C600065010895109266011092650108958F92A2
:101C70009F92AF92BF92CF92DF92EF92FF920F931B
:101C80001F93CF93DF9349015A01670178012DEC2F
:101C90003BE343E052E40E94CA160E949716C9E54E
:101CA000D1E0688379838A839B832DEC3BE343E017
:101CB00052E4C501B4010E94CA160E9497166C83B3
:101CC0007D838E839F832DEC3BE343E052E4C70189
:101CD000B6010E94CA160E949716688779878A877C
:101CE0009B871092490110924A0110924B01109269
:101CF0004C018CE0EDE4F1E0DF011D928A95E9F7FB
:101D0000DF91CF911F910F91FF90EF90DF90CF90D7
:101D1000BF90AF909F908F900895EF92FF920F9396
:101D20001F931092660110926501E12CF12C87013E
:101D300020E030E040EA50E4CA01B9010E94370EC9
:101D40001F910F91FF90EF9008958AB1877D8AB916
:101D500087B1807C87B90895569A17BC81E884BD05
:101D600083E085BD579A5F9808954D9B02C04B99BB
:101D700002C017BC01C087BD893210F082E005C0E7
:101D80008B3010F083E001C084E085BD089587B5F5
:101D900008950895089540910005509101056091BE
:101DA0000205709103058091FC049091FD04A091BF
:101DB000FE04B091FF04840F951FA61FB71F813842
:101DC00028E3920721E0A207B10550F48093FC04B8
:101DD0009093FD04A093FE04B093FF0480E0089567
:101DE00080589843A140B1098093FC049093FD046E
:101DF000A093FE04B093FF0481E008959B01AC0121
:101E0000203486E038074105510520F420E436E00F
:101E100040E050E060E070E788E399E30E949817A3
:101E20002115310581E04807510518F4B90190E00A
:101E30002FC02115310588E048075105A8F4DA01C3
:101E4000C901F3E0B695A79597958795FA95D1F7CF
:101E5000BC019C01AD01A3E0220F331F441F551F9D
:101E6000AA95D1F791E014C0DA01C90126E0B69530
:101E7000A795979587952A95D1F7BC019C01AD014F
:101E8000E6E0220F331F441F551FEA95D1F792E079
:101E9000809181009F5F887F892B80938100709360
:101EA00089006093880020930005309301054093DA
:101EB00002055093030508958F929F92AF92BF92AF
:101EC000CF92DF92EF92FF92CF93DF934B015C01B1
:101ED000C0911A05D0911B058EA1682F70E080E09B
:101EE00090E00E948A156B017C01C501B4010E943B
:101EF00088154B015C016A897B898C899D890E94C8
:101F000088159B01AC01C501B4010E94E0149B013E
:101F1000AC01C701B6010E94CA160E945915862F4E
:101F2000DF91CF91FF90EF90DF90CF90BF90AF9077
:101F30009F908F900C94B50E0F931F93CF93DF93C8
:101F4000882311F023E001C02BE398E1922725B10B
:101F5000392F3873277C232B25B956E046E021E042
:101F600061E0CFE3D1E012E00AE1ACE8BFE036B1D6
:101F700081113C27662379F130FD05C0411102C073
:101F80009D2729C04150222359F032FD08C051112C
:101F900005C06623A1F0912720E002C0515021E046
:101FA00075B1E92FE7707E2B75B9302F3A95F1F7AF
:101FB00035B13E2735B9FD013197F1F7D8CF8CE027
:101FC000ECE1F5E0DF011D928A95E9F7DF91CF9111
:101FD0001F910F910895222391F360E0D6CF809155
:101FE000F70481110BC081E08093F70488E18093AE
:101FF000190580916F00826080936F0008951092A0
:10200000F70410921B0510921A05EFE6F0E08081AC
:102010008D7F808380E00C94B50E8091F704089545
:102020009091F604911107C08093F50481E08093AC
:10203000F6040C94950008958091F504089580911C
:10204000F604089580E28093F5041092F604089552
:1020500060911C0570911D0580911E0590911F05D2
:102060000E948A152DEC3BE343E052E40E94E01409
:10207000089560912005709121058091220590912D
:1020800023050E948A152DEC3BE343E052E40E94B5
:10209000E01408956091240570912505809126052E
:1020A000909127050E948A152DEC3BE343E052E412
:1020B0000E94E01408958F929F92AF92BF92CF92A8
:1020C000DF92EF92FF920F931F93CF93DF9349011B
:1020D0005A01670178012DEC3BE343E052E40E9492
:1020E000CA160E949716CCE1D5E0688379838A836B
:1020F0009B832DEC3BE343E052E4C501B4010E9415
:10210000CA160E9497166C837D838E839F832DEC65
:102110003BE343E052E4C701B6010E94CA160E94A5
:102120009716688779878A879B87DF91CF911F9160
:102130000F91FF90EF90DF90CF90BF90AF909F9066
:102140008F900895EF92FF920F931F9384B18F6346
:1021500084B985B1807C886185B9E1E8F0E080814F
:102160008F7E8083808188608083E0E8F0E08081DA
:102170008D7F808380818E7F808380818F73808339
:1021800080818F7C80831092B0001092B100E0E7D4
:10219000F0E080818160808360E476E080E090E020
:1021A0000E94FE0E80E00E94B50E8CE0ECE1F5E0AE
:1021B000DF011D928A95E9F7E12CF12C870120E0DF
:1021C00030E040EA50E4CA01B9010E945B1010926D
:1021D000FC041092FD041092FE041092FF04109271
:1021E0001B0510921A051092F60480E28093F50404
:1021F000109204051F910F91FF90EF900C94FF0F28
:102200001F920F920FB60F9211245E9815BC0F907B
:102210000FBE0F901F9018951F920F920FB60F923E
:1022200011248F9385B1887F85B91092B1008F9169
:102230000F900FBE0F901F9018951F920F920FB620
:102240000F921124CF92DF92EF92FF920F931F9380
:102250002F933F934F935F936F937F938F939F93AE
:10226000AF93BF93CF93DF93EF93FF9380910405D8
:102270008111FEC281E0809304058091F6048823D9
:1022800029F00E94FF0F0E94320EF0C24D9B02C047
:102290004B9903C080E00E94B50E309902C084E2E1
:1022A0000BC0319902C085E207C0329902C086E2B4
:1022B00003C0339904C08AE20E941010D7C285B1CE
:1022C000909119059873877C892B85B985B1887F92
:1022D00090911905892B85B98AEF8093B20082E02D
:1022E0008093B100789480911A0590911B05892BF9
:1022F00009F072C00E94110EEC0190931B058093AF
:102300001A05892B19F40E94FF0FB0C28881823010
:1023100008F062C0C9A4DAA4EBA4FCA4C092F8043B
:10232000D092F904E092FA04F092FB0480E49CE974
:10233000A0E0B0E08093FC049093FD04A093FE0421
:10234000B093FF04C701B6010E94FE0E8881813060
:1023500061F480E00E94B50E10920505109206050A
:10236000109207051092080504C0C701B6010E942B
:102370005C0FE0911A05F0911B0586859785A08971
:10238000B189B595A79597958795B095A0959095A6
:1023900081959F4FAF4FBF4F8093150590931605C2
:1023A000A0931705B093180580931105909312051B
:1023B000A0931305B093140580930D0590930E051B
:1023C000A0930F05B09310051092090510920A050D
:1023D00010920B0510920C05C0911A05D0911B05A7
:1023E0002881223009F433C250F0243009F435C278
:1023F00008F42FC2253009F039C280E02FC23D8594
:1024000030931905409115055091160560911705F7
:102410007091180589819A81AB81BC81840F951FC9
:10242000A61FB71F8093150590931605A093170557
:10243000B09318054E855F85688979891816190645
:102440001A061B0644F5316030931905841B950B61
:10245000A60BB70B8093150590931605A09317054F
:10246000B093180580911C0590911D05A0911E0543
:10247000B0911F0533FF04C00197A109B10903C042
:102480000196A11DB11D80931C0590931D05A0937D
:102490001E05B0931F05C0901105D0901205E09065
:1024A0001305F09014058D819E81AF81B8858C0D48
:1024B0009D1DAE1DBF1D8093110590931205A09325
:1024C0001305B0931405181619061A061B0654F5C1
:1024D00030911905326030931905841B950BA60BBA
:1024E000B70B8093110590931205A0931305B09339
:1024F00014058091200590912105A0912205B091AD
:10250000230534FF04C00197A109B10903C0019656
:10251000A11DB11D8093200590932105A093220554
:10252000B0932305C0900D05D0900E05E0900F05E7
:10253000F090100589859A85AB85BC858C0D9D1D15
:10254000AE1DBF1D80930D0590930E05A0930F0542
:10255000B0931005181619061A061B0654F530918B
:102560001905346030931905841B950BA60BB70B26
:1025700080930D0590930E05A0930F05B093100561
:102580008091240590912505A0912605B0912705FD
:1025900035FF04C00197A109B10903C00196A11D2F
:1025A000B11D8093240590932505A0932605B09333
:1025B0002705C0900905D0900A05E0900B05F09022
:1025C0000C058FEFC81AD80AE80AF80AC092090564
:1025D000D0920A05E0920B05F0920C059091190536
:1025E00088E1892780931905C416D506E606F70603
:1025F00008F028C18DA99EA9AFA9B8ADC816D90603
:10260000EA06FB0608F040C00E94CB0E882309F4BE
:102610002DC149A95AA96BA97CA98091F804909170
:10262000F904A091FA04B091FB04840F951FA61F32
:10263000B71F8093F8049093F904A093FA04B09321
:10264000FB044A895B896C897D89481759076A07A9
:102650007B0740F44093F8045093F9046093FA0424
:102660007093FB04C090F804D090F904E090FA0451
:10267000F090FB04C701B6010E94FE0E88818130F4
:1026800009F064C080E0DBC089AD9AADABADBCADF4
:10269000C816D906EA06FB0669F480E49CE9A0E0C6
:1026A000B0E08093FC049093FD04A093FE04B093EB
:1026B000FF04DCC0C816D906EA06FB0608F44BC0C6
:1026C0000E94CB0E882309F4D1C08091F804909128
:1026D000F904A091FA04B091FB0449A95AA96BA985
:1026E0007CA9481759076A077B0768F4841B950B78
:1026F000A60BB70B8093F8049093F904A093FA0407
:10270000B093FB0408C01092F8041092F9041092E0
:10271000FA041092FB048DA59EA5AFA5B8A940911F
:10272000F8045091F9046091FA047091FB04481781
:1027300059076A077B0708F095CF8093F8049093B8
:10274000F904A093FA04B093FB048CCFC701B6013F
:102750000E945C0F8BC06A897B898C899D8900915E
:10276000F8041091F9042091FA043091FB04061743
:1027700017072807390751F06093F8047093F9049C
:102780008093FA049093FB040E94FE0E88818130AE
:1027900009F054C08091050590910605A0910705A8
:1027A000B09108052AE0CC0CDD1CEE1CFF1C2A951C
:1027B000D1F7892B8A2B8B2B41F4C0920505D0923F
:1027C0000605E0920705F0920805809105059091B5
:1027D0000605A0910705B0910805C816D906EA06B6
:1027E000FB0608F443C0ED96488159816A817B81DC
:1027F000840F951FA61FB71F8093050590930605AC
:10280000A0930705B0930805F8940E941F027894DE
:10281000282F30E020583109220F331FE0911A058C
:10282000F0911B0546A1429FC001439F900D1124CA
:102830006FEF70E00E948417862F01C08EA10E9466
:10284000B50E14C0213061F40E94470209C081E036
:1028500001C080E00E94C90E03C081E00E94CA0E40
:1028600010921B0510921A050E94230E1092040567
:10287000FF91EF91DF91CF91BF91AF919F918F9198
:102880007F916F915F914F913F912F911F910F9188
:10289000FF90EF90DF90CF900F900FBE0F901F90A2
:1028A000189580E00E949C0F81E00C949C0F50587A
:1028B000BB27AA270E946F140C9440160E94321660
:1028C00038F00E94391620F039F49F3F19F426F4AD
:1028D0000C942F160EF4E095E7FB0C940016E92FEC
:1028E0000E94511658F3BA176207730784079507B9
:1028F00020F079F4A6F50C948B160EF4E0950B2ECF
:10290000BA2FA02D0B01B90190010C01CA01A00141
:102910001124FF27591B99F0593F50F4503E68F19C
:102920001A16F040A22F232F342F4427585FF3CFDD
:10293000469537952795A795F0405395C9F77EF4AE
:102940001F16BA0B620B730B840BBAF09150A1F0F7
:10295000FF0FBB1F661F771F881FC2F70EC0BA0F7D
:10296000621F731F841F48F4879577956795B79505
:10297000F7959E3F08F0B0CF9395880F08F0992700
:10298000EE0F9795879508950E94731690F09F37E4
:1029900048F4911116F40C948C1660E070E080E815
:1029A0009FE3089526F01B16611D711D811D0C9477
:1029B00006160C9421160E94DC1508F481E0089597
:1029C0000E94F4140C9440160E94391658F00E948C
:1029D000321640F029F45F3F29F00C940016511193
:1029E0000C948C160C942F160E94511668F39923A0
:1029F000B1F3552391F3951B550BBB27AA276217FB
:102A00007307840738F09F5F5F4F220F331F441F07
:102A1000AA1FA9F335D00E2E3AF0E0E832D091503B
:102A20005040E695001CCAF72BD0FE2F29D0660F28
:102A3000771F881FBB1F261737074807AB07B0E86B
:102A400009F0BB0B802DBF01FF2793585F4F3AF071
:102A50009E3F510578F00C9400160C948C165F3F45
:102A6000E4F3983ED4F3869577956795B795F795F7
:102A70009F5FC9F7880F911D9695879597F90895DF
:102A8000E1E0660F771F881FBB1F6217730784077B
:102A9000BA0720F0621B730B840BBA0BEE1F88F78A
:102AA000E09508950E9459156894B1110C948C1604
:102AB00008950E94591688F09F5798F0B92F9927CA
:102AC000B751B0F0E1F0660F771F881F991F1AF019
:102AD000BA95C9F714C0B13091F00E948B16B1E0DD
:102AE00008950C948B16672F782F8827B85F39F0DC
:102AF000B93FCCF3869577956795B395D9F73EF4B2
:102B000090958095709561957F4F8F4F9F4F089559
:102B1000E89409C097FB3EF4909580957095619577
:102B20007F4F8F4F9F4F9923A9F0F92F96E9BB272D
:102B30009395F695879577956795B795F111F8CFA9
:102B4000FAF4BB0F11F460FF1BC06F5F7F4F8F4F14
:102B50009F4F16C0882311F096E911C0772321F00A
:102B60009EE8872F762F05C0662371F096E8862FA2
:102B700070E060E02AF09A95660F771F881FDAF7F9
:102B8000880F9695879597F908950E94731690F08F
:102B90009F3748F4911116F00C948C1660E070E0A9
:102BA00080E89FEB089526F41B16611D711D811DA1
:102BB0000C9406160C942116990F0008550FAA0BB9
:102BC000E0E8FEEF16161706E807F907C0F0121640
:102BD0001306E407F50798F0621B730B840B950B43
:102BE00039F40A2661F0232B242B252B21F4089598
:102BF0000A2609F4A140A6958FEF811D811D089535
:102C000097F99F6780E870E060E00895882371F489
:102C1000772321F09850872B762F07C0662311F475
:102C200099270DC09051862B70E060E02AF09A95AC
:102C3000660F771F881FDAF7880F9695879597F9A3
:102C400008959F3F31F0915020F4879577956795CF
:102C5000B795880F911D9695879597F908959FEFE1
:102C600080EC089500240A94161617061806090623
:102C7000089500240A9412161306140605060895F2
:102C8000092E0394000C11F4882352F0BB0F40F47A
:102C9000BF2B11F460FF04C06F5F7F4F8F4F9F4FBA
:102CA000089557FD9058440F551F59F05F3F71F03C
:102CB0004795880F97FB991F61F09F3F79F08795A3
:102CC0000895121613061406551FF2CF4695F1DF2C
:102CD00008C0161617061806991FF1CF86957105BC
:102CE0006105089408950E945916A0F0BEE7B9172F
:102CF00088F4BB279F3860F41616B11D672F782F14
:102D00008827985FF7CF869577956795B11D93953E
:102D10009639C8F30895E894BB2766277727CB0137
:102D200097F908950E94DC1508F48FEF08950E942A
:102D3000591658F19E5760F19851A0F0E9F098307B
:102D400020F5092E9927660F771F881F991F0A946F
:102D5000D1F712C0062E672F782F8827985F11F4BD
:102D6000000C07C0993FB4F38695779567959395C6
:102D7000D9F7611D711D811D3EF490958095709568
:102D800061957F4F8F4F9F4F089568940C948C16D8
:102D90000C948B160E94DD160C9440160E9432167D
:102DA00038F00E94391620F0952311F00C9400168B
:102DB0000C942F1611240C948C160E94511670F34B
:102DC000959FC1F3950F50E0551F629FF001729FD0
:102DD000BB27F00DB11D639FAA27F00DB11DAA1FDF
:102DE000649F6627B00DA11D661F829F2227B00D2C
:102DF000A11D621F739FB00DA11D621F839FA00DB7
:102E0000611D221F749F3327A00D611D231F849F06
:102E1000600D211D822F762F6A2F11249F5750405D
:102E20009AF0F1F088234AF0EE0FFF1FBB1F661FD8
:102E3000771F881F91505040A9F79E3F510580F0A1
:102E40000C9400160C948C165F3FE4F3983ED4F378
:102E5000869577956795B795F795E7959F5FC1F745
:102E6000FE2B880F911D9695879597F9089519F473
:102E700016F40C942F160C9421160E945916B8F3D0
:102E80009923C9F3B6F39F57550B87FF0E947D170F
:102E90000024A0E640EA900180585695979528F4C2
:102EA000805C660F771F881F20F0261737074807BA
:102EB00030F4621B730B840B202931294A2BA69511
:102EC00017940794202531254A2758F7660F771F56
:102ED000881F20F026173707480730F4620B730B62
:102EE000840B200D311D411DA09581F7B901842F60
:102EF0009158880F96958795089591505040660F88
:102F0000771F881FD2F7089597FB072E16F40094B9
:102F100007D077FD09D00E94CB1707FC05D03EF4FF
:102F2000909581959F4F0895709561957F4F089575
:102F3000A1E21A2EAA1BBB1BFD010DC0AA1FBB1FBD
:102F4000EE1FFF1FA217B307E407F50720F0A21B2F
:102F5000B30BE40BF50B661F771F881F991F1A949C
:102F600069F760957095809590959B01AC01BD01C6
:102F7000CF010895EE0FFF1F0590F491E02D099405
:102F80000E94DF17A59F900DB49F900DA49F800D08
:102F9000911D11240895AA1BBB1B51E107C0AA1F54
:102FA000BB1FA617B70710F0A61BB70B881F991FEA
:102FB0005A95A9F780959095BC01CD010895A29FDF
:102FC000B001B39FC001A39F700D811D1124911DFD
:102FD000B29F700D811D1124911D0895F894FFCFAB
:022FE0000100EE
:00000001FF
