:100000000C945A000C9481000C9481000C94810093
:100010000C9481000C9481000C9481000C9481005C
:100020000C9481000C945F110C9481000C9470115D
:100030000C9481000C9481000C9481000C9481003C
:100040000C9453110C9481000C946D010C941C01C0
:100050000C9481000C9481000C9481000C9481001C
:100060000C9481000C9481000A079504E904BA04F9
:10007000F604F904FC04010506054B057C05AD05F5
:10008000AF05B105B30566060307540603077C06F2
:10009000A906D6060307030703070307030771062C
:1000A000030703075F060307030703070307D005DA
:1000B000FC052806EAEAF6E085EC98E001C08193A9
:1000C000EF3FF907E0F3D9F311241FBECFEFD8E0DB
:1000D000DEBFCDBF11E0A0E0B1E0EAEAF3E302C089
:1000E00005900D92A230B107D9F726E0A2E0B1E069
:1000F00001C01D92AA3AB207E1F70E9483000C9456
:10010000D3190C94000078940E94B2000E949802C7
:100110000E94B40E0E94F0100E94CF0E0E94EC0EBE
:100120000E946B0480E090E0089510920301109209
:1001300002010895909109019F5F903809F490E0C1
:10014000209108019217E1F3E0910901F0E0E75DE9
:10015000F94F8083909309018091C1008062809360
:10016000C10008951092C50080E18093C400E0ECC6
:10017000F0E080818D7F8083E1ECF0E08081806120
:1001800080838081886080838081806880838EE71F
:100190000C949A00CF92DF92EF92FF92CF93C82FE8
:1001A000CB01BA0120E030E04AE754E40E94AF18E6
:1001B0000E947C186B017C0128EFF21A8C2D80685C
:1001C0000E949A00D701C60180789F73AA27BB2797
:1001D00027E0B695A795979587952A95D1F78058EA
:1001E0000E949A00D701C6018827907CAF71BB2777
:1001F0003EE0B695A795979587953A95D1F78058A3
:100200000E949A00CC24DD2480EEE8228FE0F822C0
:10021000D701C60145E1B695A795979587954A956B
:10022000D1F780580E949A008C2FCF91FF90EF90C9
:10023000DF90CF900C949A001F920F920FB60F92FE
:1002400011248F939F93EF93FF93809108019091D6
:100250000501992331F095E09093C60010920501B5
:100260000DC0E82FF0E0E75DF94F90819093C60054
:100270008F5F803809F480E0809308019091090134
:10028000891305C08091C1008F7D8093C100FF91CB
:10029000EF919F918F910F900FBE0F901F90189527
:1002A000E0910A01F0E0E75DFA4F808190910A0148
:1002B0009F5F90930A01909104019F5F90930401C6
:1002C000903151F491E0909305019091C1009062BA
:1002D0009093C1001092040108951F920F920FB6DF
:1002E0000F9211242F933F934F935F936F937F93BC
:1002F0008F939F93AF93BF93CF93EF93FF93C0914F
:10030000C60080910001882329F010920001C0935B
:1003100007013DC081E08093000180910701C8176B
:1003200019F08DE30E94B30FC031F8F4C13011F41D
:1003300081E224C0C23069F41092030110920201DC
:1003400010920A0110920B01109204010E94C50F35
:100350001EC0C33019F40E94DE0219C0C43019F463
:100360000E94E20214C083E209C0E0910B0181E027
:100370008E0F90910A01891304C082E20E94B30F8C
:1003800006C0F0E0E75DFA4FC08380930B01FF9158
:10039000EF91CF91BF91AF919F918F917F916F918D
:1003A0005F914F913F912F910F900FBE0F901F9033
:1003B0001895CF93C1E080910301882301F18091CA
:1003C00002018823C9F01092060190910A018091E0
:1003D0000B0198130BC080910601811104C00E948B
:1003E000E602C09306010E94F202EFCF0E94500184
:1003F000813111F4109203010E94F202DCCF1092BD
:100400000601C1E090910A0180910B0198130BC085
:1004100080910601811104C00E94E602C09306018A
:100420000E94F202EFCF0E945001803131F481E04E
:10043000809303011092020181E4CF91089580918D
:1004400003018823C9F080910201811115C09091A8
:100450000A0180910B01981303C00E94E6020CC0B0
:100460000E94500187FD09C0813119F410920301E7
:1004700003C083E20E94B30F80E8089520910A012F
:1004800090910B0181E0291301C080E0089581E083
:10049000809302010895E1E1F1E0438150E060E0E2
:1004A00070E0405851096109710987E0440F551FF8
:1004B000661F771F8A95D1F7828190E0A0E0B0E0B7
:1004C00080589109A109B109840F951FA61FB71F74
:1004D000AC01BD0197E0440F551F661F771F9A9529
:1004E000D1F7818190E0A0E0B0E080589109A109A6
:1004F000B109840F951FA61FB71F27E0880F991F0A
:10050000AA1FBB1F2A95D1F72081820F911DA11D23
:10051000B11DBC01CD0160587109810998400E944C
:100520006F1720E030E04AE754E40E94C5160895B2
:10053000E6E1F1E081E0808340E050E068E474E4CB
:1005400042835383648375831682178210861186D3
:10055000128613861486158616864DEC5CEC6BE6C7
:1005600073EC4787508B618B728B40E050E062E9FF
:1005700072EC438B548B658B768B40E050E060EAE5
:1005800071EC478B508F618F728F9CE0E1E3F1E05B
:10059000DF01292F1D922A95E9F7EDE3F1E0DF0154
:1005A0001D929A95E9F78093100180930F011092A4
:1005B0000E0110920D0180930C01089581E080934B
:1005C0001001089581E080930F01089580910D013D
:1005D00090910E01019690930E0180930D0110925F
:1005E0000C010895CF92DF92EF92FF920F931F9329
:1005F000CF93DF9300D000D0CDB7DEB74A9B02C0C7
:100600004B9903C080E00E94D60E0E94C20F88233F
:10061000D1F00E94590E0E9498106B017C010E943B
:1006200087109B01AC0169833A834B835C830E94F2
:1006300076108701760129813A814B815C810E9485
:100640005E0E1092150180911001811105C08091FC
:100650000F01882309F432C1109210010E942F0E5D
:10066000811112C00E943E0281110EC00E94C20F71
:1006700081110AC081E40E949A0083B7816083BF20
:10068000889583B78E7F83BF4A9903C082E40E9416
:100690009A004B9903C083E40E949A000E94BF0F06
:1006A000182F803211F00E949A00309905C0143240
:1006B00019F084E20E949A00319905C0153219F0B0
:1006C00085E20E949A00329905C0163219F086E23E
:1006D0000E949A00339905C01A3219F08AE20E94EA
:1006E0009A00349905C01B3219F08BE20E949A00DF
:1006F000359905C01D3219F08DE20E949A000E94C2
:1007000076102DEC3CEC4BE653E40E943D16209114
:1007100031013091320140913301509134010E94F6
:100720003C16AB01BC0188E70E94CA000E948710FA
:1007300020E030E042E952E40E943D16209135016C
:100740003091360140913701509138010E943C169A
:10075000AB01BC0189E70E94CA000E94981020E00A
:1007600030E040EA51E40E943D1620913901309179
:100770003A0140913B0150913C010E943C16AB0173
:10078000BC018AE70E94CA0080910C01811110C04F
:1007900060910D0170910E0180E090E00E946D1754
:1007A000AB01BC0187E70E94CA0081E080930C0185
:1007B000EAEAF6E0BF016A5A76408081853C09F496
:1007C00066C080E090E00E946D17AB01BC0185E738
:1007D0000E94CA0080910F01882309F460C0109222
:1007E0000F0140E050E865ED74E486E70E94CA001E
:1007F0004091310150913201609133017091340187
:1008000081E60E94CA004091350150913601609105
:1008100037017091380182E60E94CA004091390187
:1008200050913A0160913B0170913C0183E60E9436
:10083000CA00409118015091190160911A017091FC
:100840001B0187E60E94CA0060911C0170E080E0F5
:1008500090E00E946D17AB01BC0188E60E94CA00BF
:1008600040911D0150911E0160911F017091200166
:1008700089E60E94CA0040912101509122016091B5
:100880002301709124018AE60E94CA0008C088E012
:10089000EF3FF80711F008F094CF31968BCF86E048
:1008A0000F900F900F900F90DF91CF911F910F91AC
:1008B000FF90EF90DF90CF900C949A000F900F90E4
:1008C0000F900F90DF91CF911F910F91FF90EF90BC
:1008D000DF90CF90089531E3232E31E0332ECCE02A
:1008E000412C512C40EA642E41EC742ED1E00E9440
:1008F000D901182F0E94C20F882319F00E94F2021A
:10090000F6CF17FD8AC28FEB810F8A3108F031C113
:10091000812F90E0FC01E154F109EF30F10508F07E
:1009200026C1EC5CFF4F0C949F19A0901801B09069
:100930001901C0901A01D0901B01E0902D01F09098
:100940002E0100912F011091300120912901309149
:100950002A0140912B0150912C0160912501709149
:10096000260180912701909128011F921F921F92CA
:100970001F922CC0A0901801B0901901C0901A01CC
:10098000D0901B01E0902D01F0902E0100912F01DD
:10099000109130012091290130912A0140912B01C1
:1009A00050912C01609125017091260180912701C1
:1009B00090912801E0912401EF93E0912301EF93BE
:1009C000E0912201EF93E0912101EF9380901C01CF
:1009D0005BC060911D0170911E0180911F0190917B
:1009E000200140911C010E94FB0D14C210921601BF
:1009F00011C2D09316010EC2809116018093170187
:100A000009C2809117018093160104C20E94A714A5
:100A1000D101EC2F1D92EA95E9F78DEC9CECABE649
:100A2000B3EC8093250190932601A0932701B09306
:100A3000280180E090E0A2E9B2EC80932901909334
:100A40002A01A0932B01B0932C0140922D015092CA
:100A50002E0160922F0170923001A0901801B09089
:100A60001901C0901A01D0901B011F921F921F9272
:100A70001F92812CE12CF12C00EA11EC9C01AD01BC
:100A80006DEC7CEC8BE693EC0E94C3080F900F900A
:100A90000F900F90BFC18091310190913201A091D0
:100AA0003301B091340180933D0190933E01A093B6
:100AB0003F01B09340018091350190913601A091A2
:100AC0003701B09138018093410190934201A09386
:100AD0004301B09344018091390190913A01A09172
:100AE0003B01B0913C018093450190934601A09356
:100AF0004701B09348018EC180913D0190913E0124
:100B0000A0913F01B0914001809331019093320157
:100B1000A0933301B093340180914101909142013F
:100B2000A0914301B0914401809335019093360127
:100B3000A0933701B093380180914501909146010F
:100B4000A0914701B09148018093390190933A01F7
:100B5000A0933B01B0933C015DC182E005C083E0FE
:100B600003C084E001C085E00E94FC0D53C18CE30A
:100B70004FC18FE9810F8A3108F049C18091150179
:100B8000843009F042C1812F90E0FC01E456F10964
:100B9000E731F10508F037C1ED5BFF4F0C949F1969
:100BA00080911601813089F40E944B022DEC3CECBF
:100BB0004BE653E40E943C16209131013091320102
:100BC00040913301509134010CC00E944B029B01B3
:100BD000AC016091250170912601809127019091CF
:100BE00028010E943D166093250170932601809391
:100BF0002701909328010EC180911601813089F45C
:100C00000E944B0220E030E042E952E40E943C1690
:100C100020913501309136014091370150913801D2
:100C20000CC00E944B029B01AC01609129017091A4
:100C30002A0180912B0190912C010E943D16609316
:100C4000290170932A0180932B0190932C01E2C01B
:100C500080911601813089F40E944B0220E030E03F
:100C600040EA51E40E943C162091390130913A014A
:100C700040913B0150913C010CC00E944B029B01F2
:100C8000AC0160912D0170912E0180912F01909106
:100C900030010E943D1660932D0170932E018093C8
:100CA0002F0190933001B6C00E944B02609318014F
:100CB0007093190180931A0190931B01ABC00E949D
:100CC0004B020E943E1760931C01A4C00E944B027D
:100CD00060931D0170931E0180931F01909320016A
:100CE00099C00E944B02609321017093220180936E
:100CF0002301909324018EC00E944B026B017C0162
:100D000080911601813049F4C0923101D0923201B4
:100D1000E0923301F09234017DC00E94B00F88232D
:100D200019F00E94F202F9CF0E9476102DEC3CECF3
:100D30004BE653E40E943D16A70196010E943D1622
:100D400060933101709332018093330190933401A9
:100D500061C00E944B026B017C01809116018130C1
:100D600049F4C0923501D0923601E0923701F092F9
:100D7000380150C00E94B00F882319F00E94F2027F
:100D8000F9CF0E94871020E030E042E952E40E944F
:100D90003D16A70196010E943D16609335017093A0
:100DA0003601809337019093380134C00E944B0282
:100DB0006B017C0180911601813049F4C0923901A8
:100DC000D0923A01E0923B01F0923C0123C00E9494
:100DD000B00F882319F00E94F202F9CF0E949810F8
:100DE00020E030E040EA51E40E943D16A701960160
:100DF0000E943D166093390170933A0180933B0144
:100E000090933C0107C08EE303C08AE301C083E2F4
:100E10000E94B30F1092150171CDE0911501E430DD
:100E200048F481E08E0F80931501F0E0EF5EFE4FF5
:100E3000108364CD8AE30E94B30F60CD2F923F925E
:100E40004F925F926F927F928F929F92AF92BF92DA
:100E5000CF92DF92EF92FF920F931F93CF93DF9386
:100E6000CDB7DEB760970FB6F894DEBF0FBECDBF2B
:100E70001C012A013B0148015901FC016289738967
:100E8000848995890E946D176B017C01A3019201F1
:100E90000E94AF180E94A9160E943E172B013C0128
:100EA000F10161A772A783A794A7A5019401C701C7
:100EB000B6010E94AF180E94A9160E943E174B016E
:100EC0005C01F10165A776A787A790AB21A932A99C
:100ED00043A954A9A0EEBEE20E94A51969837A83B2
:100EE0008B839C830E946F176D837E838F8398878B
:100EF000C301B2010E946D172B013C01A7019601AD
:100F0000C701B6010E94AF186B017C01A3019201D9
:100F1000C301B2010E94AF1869877A878B879C87CB
:100F20002D813E814F815885CA01B9010E943D162D
:100F30006D877E878F87988B29853A854B855C8561
:100F4000C701B6010E943C162D853E854F85588904
:100F50000E94C5160E94A9160E9437172B013C015A
:100F6000C501B4010E946D179B01AC010E94AF182E
:100F70004B015C01A70196010E943C166B017C01AC
:100F800069817A818B819C8190958095709561951E
:100F90007F4F8F4F9F4F0E946F179B01AC010E94A4
:100FA0003D169B01AC01C701B6010E94C5160E9407
:100FB000AA17F101C684D784E088F188A7019601B9
:100FC000241935094609570929833A834B835C83E1
:100FD0000E94371729813A814B815C81261B370B90
:100FE000480B590BDA01C90157FF3DC0C701B601D3
:100FF0000E946F179B01AC016D857E858F85988956
:101000000E94AF1829853A854B855C850E943C1665
:10101000A50194010E943D164B015C0120E030E0E7
:1010200040E850E46D817E818F8198850E94AF18E1
:101030009B01AC01C501B4010E94C5160E94A9160E
:101040000E94371797FF03C060E070E0CB012B01CF
:101050003C01C616D706E806F90614F42601370146
:1010600080E090E0DC01F10145AA56AA67AA70AEC3
:10107000480E591E6A1E7B1E41AE52AE63AE74AE60
:1010800060960FB6F894DEBF0FBECDBFDF91CF9153
:101090001F910F91FF90EF90DF90CF90BF90AF9096
:1010A0009F908F907F906F905F904F903F902F9088
:1010B00008954F925F926F927F92AF92BF92CF92BC
:1010C000DF92EF92FF920F931F93CF93DF93FC0178
:1010D00020A5211149C0EB018C01428C538C648CFA
:1010E000758CAA8CBB8CCC8CDD8C9501A601C301C0
:1010F000B2010E94C01687FF37C0A3019201C3014D
:10110000B2010E94AF182B013C0120E030E543E41E
:1011100058ECF80162A173A184A195A10E94AF18B7
:101120009B01AC01C301B2010E943C160E9422192E
:101130007B018C019B01AC01B501C6010E94C01668
:1011400087FF02C0750186019701A801B501C6019C
:101150000E94C016882341F0A701B8014A8F5B8F17
:101160006C8F7D8F81E08FA3DF91CF911F910F91C5
:10117000FF90EF90DF90CF90BF90AF907F906F90F7
:101180005F904F9008952F923F924F925F926F928F
:101190007F928F929F92AF92BF92CF92DF92EF9207
:1011A000FF920F931F93CF93DF93CDB7DEB7A49732
:1011B0000FB6F894DEBF0FBECDBF29013A01E98614
:1011C000FA860B871C87A982BE82CF82D886C9ACDB
:1011D000DAACEBACFCAC27EC3BEE4BE154E40E9408
:1011E000AF180E947C186D8B7E8B8F8B988F27ECAD
:1011F0003BEE4BE154E4C301B2010E94AF180E94E0
:101200007C18698F7A8F8B8F9C8F28EF33E747E4A8
:1012100054E469857A858B859C850E94AF180E946D
:101220007C186D8F7E8F8F8F98A3809166018F5F62
:1012300089878E3009F419864984042D440C110BDA
:101240008091650190E08017910719F40E94F202E5
:10125000F7CF80916601282E312C20E030E0A901E3
:10126000C701B6010E94C016882311F181E4829D56
:101270008001839D100D112409591E4F81E0D80172
:101280008C9327EC3BEE4BE154E4C701B6010E947E
:10129000AF1820E030E040E854E40E94AF180E940C
:1012A0007C18F801FD96608371838283938309C063
:1012B00081E4829DF001839DF00D1124E959FE4FD8
:1012C000108281E4829DF001839DF00D1124E95983
:1012D000FE4F86A215868091590190915A01A091E6
:1012E0005B01B0915C014D885E886F88788C4816F0
:1012F00059066A067B0614F428E0258780905D0174
:1013000090905E01A0905F01B0906001498C5A8C72
:101310006B8C7C8C481459046A047B045CF421E4D3
:10132000229DF001239DF00D1124E959FE4F2585E2
:1013300020612587C0906101D0906201E090630137
:10134000F09064014D8C5E8C6F8C78A04C145D0421
:101350006E047F045CF421E4229DF001239DF00DD6
:101360001124E959FE4F2585206225874D885E8826
:101370006F88788C481A590A6A0A7B0AC301B2013D
:101380004A825B826C827D8277FE0BC022273327E4
:10139000A90124193509460957092A833B834C833F
:1013A0005D8341E4429D9001439D300D1124F9017C
:1013B000E959FE4F4A805B806C807D804182528279
:1013C00063827482498C5A8C6B8C7C8C48185908C7
:1013D0006A087B085301420177FE07C04424552464
:1013E0003201481859086A087B0841E4429D90017F
:1013F000439D300D1124F901E959FE4F4582568273
:10140000678270862D8D3E8D4F8D58A12C193D0918
:101410004E095F0969017A01298B3A8B4B8B5C8BF2
:1014200057FF0BC022273327A9012C193D094E096C
:101430005F09298B3A8B4B8B5C8BE1E4E29DA00129
:10144000E39D500D1124FA01E959FE4F29893A898B
:101450004B895C8921873287438754874D865E8616
:101460006F86788A2A813B814C815D8142165306C2
:101470006406750620F42D873E874F87588B4D8470
:101480005E846F84788829893A894B895C89421601
:1014900053066406750610F429013A0121E4229DE1
:1014A0008001239D100D112409591E4FD8011E964D
:1014B0004D925D926D927C9251974114510461045A
:1014C000710409F47FC30E946F1727EC3BEE4BE1D8
:1014D00054E40E94C5166D877E878F87988BC5015F
:1014E000B4010E946F1727EC3BEE4BE154E40E94DD
:1014F000C516698B7A8B8B8B9C8BC701B6010E94BA
:101500006F1728EF33E747E454E40E94C5164B01F8
:101510005C012D853E854F855889CA01B9010E941D
:10152000AF186B017C0129893A894B895C89CA0112
:10153000B9010E94AF189B01AC01C701B6010E941E
:101540003D166B017C01A5019401C501B4010E9407
:10155000AF189B01AC01C701B6010E943D160E9465
:1015600022196A837B838C839D83F80162A373A312
:1015700084A395A39B01AC0160E070E080E89FE349
:101580000E94C5166B017C0189819E81AF81B8855F
:10159000F801868B978BA08FB18FC301B2010E9497
:1015A0006F172B013C01A701960169817E818F8114
:1015B00098850E94AF189B01AC01C301B2010E9443
:1015C000AF180E94A9160E943E17D80152966D933B
:1015D0007D938D939C935597A7019601C301B2010A
:1015E0000E94AF1820E030E543EC57E40E94AF18AA
:1015F00020E030E84BE356E40E94C5160E94A9168D
:101600000E943E17F80161AB72AB83AB94ABA701AC
:1016100096016D857E858F8598890E94AF186D87AC
:101620007E878F87988BA701960169897A898B8934
:101630009C890E94AF18698B7A8B8B8B9C8BA7013E
:101640009601C501B4010E94AF182B013C01909195
:10165000660180916501981709F4ABC0E0904901DB
:10166000F0904A0100914B0110914C0120E030E0D4
:10167000A901B701C8010E94771818160CF099C08B
:1016800080914D0190914E01A0914F01B091500178
:10169000BC01CD0190582D853E854F8558890E940B
:1016A000AF184B015C0120915101309152014091E2
:1016B00053015091540169897A898B899C890E94D0
:1016C000AF189B01AC01C501B4010E943C164B014F
:1016D0005C01209155013091560140915701509184
:1016E0005801C301B2010E94AF189B01AC01C501B2
:1016F000B4010E943C164B015C0123E333E343E752
:101700005FE30E94C01687FF54C029813E814F814C
:101710005885B701C8010E94C01687FD04C0E98042
:10172000FE800F81188523E333E343E75FEBC501B8
:10173000B4010E94771818160CF03FC0A50194015F
:1017400060E070E080E89FE30E943C1620E030E01B
:1017500040E05FE30E94AF180E9422194B015C0138
:1017600020E030E046E154E40E94AF1869A37AA378
:101770008BA39CA3A501940160E070E080E89FE347
:101780000E943C169B01AC0169A17AA18BA19CA18E
:101790000E94C5160E9422195B016C019B01AC01DD
:1017A000B701C8010E94C01687FD07C075018601F8
:1017B00004C0E12CF12C00E010E081E4829DF001F6
:1017C000839DF00D1124E959FE4FC701D801868F82
:1017D000978FA0A3B1A320E030E543E458EC6A81E1
:1017E0007B818C819D810E94AF189B01AC0160E0E0
:1017F00070E0CB010E943C160E9422195B016C0133
:101800009B01AC01B701C8010E94C01687FD04C04E
:1018100075019C2D8D2D02C0902F812F21E4229DDA
:101820008001239D100D112409591E4FA701692F16
:10183000782FD8015A964D935D936D937C935D9765
:101840009501A60169817E818F8198850E94C016CD
:10185000181624F081E0F80180A703C0D8019896FB
:101860001C9281E4829DF001839DF00D1124E959C1
:10187000FE4F81E087A32D853E854F8558892093B3
:101880004D0130934E0140934F015093500189898F
:101890009A89AB89BC898093510190935201A0939E
:1018A0005301B093540140925501509256016092F9
:1018B00057017092580189819E81AF81B8858093CC
:1018C000490190934A01A0934B01B0934C01498484
:1018D000409266014D885E886F88788C40925901ED
:1018E00050925A0160925B0170925C01498C5A8C53
:1018F0006B8C7C8C40925D0150925E0160925F0126
:10190000709260014D8C5E8C6F8C78A0409261016A
:10191000509262016092630170926401F0906601DE
:10192000E0E0F0E000E010E08091650190E02F2D14
:101930000F2C000C330B2817390709F47DC0F11068
:1019400002C03EE0F32EFA9421E43F2D3203C001A1
:101950001124AC0149595E4F4A010115110509F4E2
:1019600068C0309709F465C0D80198968C91989713
:101970005E962C905E975F963C905F979096AC90A9
:10198000909791964C904982811147C0B22CC32CFC
:10199000DA2CE42C428C538C648C758CA30192015C
:1019A000622D732D8A2D9E2D0E9477181816ACF586
:1019B000A3019201C301B2010E94AF182B013C01A7
:1019C00020E030E543E458ECD80192966D917D918A
:1019D0008D919C9195970E94AF189B01AC01C3011A
:1019E000B2010E943C160E942219562E672E782EB4
:1019F000A92E262F372F482F592F622D732D8D2D6D
:101A00009E2D0E94C01687FD03C0B52C6301EA2CF1
:101A10008B2D9C2DAD2DBE2D03C0C101AA2DB981EA
:101A2000F801828F938FA48FB58FE1E0D80197964C
:101A3000EC93F801840178CFF090650100E010E0AC
:101A400080E090E021E4E22E4F2D0F2C000C550B8E
:101A50002091660130E042175307C9F0E49E9001DF
:101A6000E59E300D1124A90149595E4F6A01009786
:101A700031F00115110519F0B8010E945908F394CD
:101A80005EE0F51201C0F12CC8018601DDCF0097A0
:101A900031F00115110519F0B8010E945908D090D4
:101AA0006501E12CF12C81E4C82E4D2D0D2C000C8C
:101AB000550B8091660190E04817590709F446C01C
:101AC000C49EC001C59E900D1124DC01A959BE4FD2
:101AD0001D01E114F10499F1F70187A1811104C0FE
:101AE00097968C91882359F1D70156964D905D9029
:101AF0006D907C905997C49EF001C59EF00D112405
:101B0000E959FE4FA3019201628D738D848D958DED
:101B10000E94C5164B015C01A3019201F701628D81
:101B2000738D848D958D0E94C516AB01BC01950106
:101B30008401C7010E941E07D70197961C92D39477
:101B4000BEE0DB1201C0D12C7101AFCFF701868856
:101B50009788A08CB18CA501940160E070E0CB0166
:101B60000E94C5162B013C01A5019401D7015A968C
:101B70006D917D918D919C915D970E94C516AB01F1
:101B8000BC0193018201C7010E941E07F70117A241
:101B9000A4960FB6F894DEBF0FBECDBFDF91CF91F4
:101BA0001F910F91FF90EF90DF90CF90BF90AF907B
:101BB0009F908F907F906F905F904F903F902F906D
:101BC0000C94920FA4960FB6F894DEBF0FBECDBF53
:101BD000DF91CF911F910F91FF90EF90DF90CF9009
:101BE000BF90AF909F908F907F906F905F904F903D
:101BF0003F902F9008950895FF920F931F93CF93D6
:101C0000DF931F92CDB7DEB790916601FF24F39466
:101C1000F90E9EE0F91201C0F12C0F2D0F2C000CD3
:101C2000110B2091650130E02017310729F48983D9
:101C30000E94F2028981F5CFE091660191E4E99F6B
:101C4000F0011124E959FE4F8083F09266010F9054
:101C5000DF91CF911F910F91FF900C94920F2091E3
:101C600066019091650181E0291301C080E008952B
:101C70009091660180916501981749F08091650106
:101C800021E4829FC001112489599E4F089580E06C
:101C900090E008959091660180916501981741F058
:101CA000809165018F5F8E3009F480E0809365013B
:101CB0000895109266011092650108958F929F9287
:101CC000AF92BF92CF92DF92EF92FF920F931F934A
:101CD000CF93DF9349015A016701780127EC3BEE6E
:101CE0004BE154E40E94AF180E947C18C9E5D1E092
:101CF000688379838A839B8327EC3BEE4BE154E432
:101D0000C501B4010E94AF180E947C186C837D83CA
:101D10008E839F8328EF33E747E454E4C701B6017D
:101D20000E94AF180E947C18688779878A879B87F2
:101D30001092490110924A0110924B0110924C01ED
:101D40008CE0EDE4F1E0DF011D928A95E9F7DF9187
:101D5000CF911F910F91FF90EF90DF90CF90BF90A8
:101D6000AF909F908F900895EF92FF920F931F93E3
:101D70001092660110926501E12CF12C00EA11EC41
:101D800020E030E042E952EC6DEC7CEC8BE693EC29
:101D90000E945E0E1F910F91FF90EF9008958AB1FF
:101DA000837F8AB987B1807C87B908954A9B02C036
:101DB0004B9902C017BC089587BD089587B5089553
:101DC000882311F05C9A08955C980895882311F097
:101DD0005D9A08955D980895569A17BC81E884BD70
:101DE00082E085BD549A80E00E94E00E559A80E022
:101DF0000C94E60E40910105509102056091030597
:101E0000709104058091FD049091FE04A091FF045F
:101E1000B0910005840F951FA61FB71F813828E3D6
:101E2000920721E0A207B10550F48093FD0490933E
:101E3000FE04A093FF04B093000580E0089580584D
:101E40009843A140B1098093FD049093FE04A093B0
:101E5000FF04B093000581E008959B01AC0120349C
:101E600086E038074105510520F420E436E040E0E3
:101E700050E060E070E788E399E30E947D19211546
:101E8000310581E04807510518F4B90190E02FC0F1
:101E90002115310588E048075105A8F4DA01C90188
:101EA000F3E0B695A79597958795FA95D1F7BC017C
:101EB0009C01AD01A3E0220F331F441F551FAA95BB
:101EC000D1F791E014C0DA01C90126E0B695A795D3
:101ED000979587952A95D1F7BC019C01AD01E6E065
:101EE000220F331F441F551FEA95D1F792E08091CE
:101EF00081009F5F887F892B809381007093890088
:101F000060938800209301053093020540930305F8
:101F1000509304050895E0911B05F0911C0586A1DE
:101F20000C94D60E8091F80481110BC081E080934F
:101F3000F80488E380931A0580916F008260809393
:101F40006F0008951092F80410921C0510921B0562
:101F5000EFE6F0E080818D7F808380E00C94D60EE8
:101F60008091F80408959091F704911107C080932F
:101F7000F60481E08093F7040C9495000895809115
:101F8000F60408958091F704089580E28093F604A2
:101F90001092F70408954F925F926F927F928F9202
:101FA000AF92BF92CF92DF92EF92FF920F931F9367
:101FB000CF93DF93CDB7DEB72C970FB6F894DEBF83
:101FC0000FBECDBF69837A838B839C832D833E8331
:101FD0004F83588727013801A986BA86CB86DC86CD
:101FE0008091F804882319F00E94F202F9CFE12CC5
:101FF000F12C8701A8019701C801B7010E945E0E6C
:102000008CE0EDE1F5E0DF011D928A95E9F71F9282
:102010001F921F921F92812CAEA0BFA0C8A4D9A46A
:10202000830172012D813E814F81588569817A81BA
:102030008B819C810E94C3080F900F900F900F908E
:102040008091F804882319F00E94F202F9CFE12C64
:10205000F12C8701A8019701C801B7010E945E0E0B
:102060008CE0EDE1F5E0DF011D928A95E9F70E9431
:10207000C50F81E08093F5041F921F921F921F925B
:10208000812CAEA0BFA0C8A4D9A4EAA0FBA00CA13B
:102090001DA12E8D3F8D48A159A169857A858B851B
:1020A0009C850E94C3080F900F900F900F90809115
:1020B000F804882319F00E94F202F9CF1092F50477
:1020C0002C960FB6F894DEBF0FBECDBFDF91CF9137
:1020D0001F910F91FF90EF90DF90CF90BF90AF9046
:1020E0008F907F906F905F904F90089560911D0545
:1020F00070911E0580911F05909120050E946F1719
:1021000027EC3BEE4BE154E40E94C5160895609124
:1021100021057091220580912305909124050E944C
:102120006F1727EC3BEE4BE154E40E94C51608956F
:1021300060912505709126058091270590912805CD
:102140000E946F1728EF33E747E454E40E94C51656
:1021500008958F929F92AF92BF92CF92DF92EF92AB
:10216000FF920F931F93CF93DF9349015A016701A9
:10217000780127EC3BEE4BE154E40E94AF180E943B
:102180007C18CDE1D5E0688379838A839B8327EC33
:102190003BEE4BE154E4C501B4010E94AF180E942C
:1021A0007C186C837D838E839F8328EF33E747E41D
:1021B00054E4C701B6010E94AF180E947C186887DA
:1021C00079878A879B87DF91CF911F910F91FF902D
:1021D000EF90DF90CF90BF90AF909F908F90089539
:1021E000EF92FF920F931F9384B18F6384B985B1EF
:1021F000807C886385B9E1E8F0E080818F7E808310
:10220000808188608083E0E8F0E080818D7F80833A
:1022100080818E7F808380818F73808380818F7C9B
:1022200080831092B0001092B100E0E7F0E080816E
:102230008160808360E476E080E090E00E942D0F72
:1022400080E00E94D60E8CE0EDE1F5E0DF011D920A
:102250008A95E9F7E12CF12C00EA11EC20E030E05E
:1022600042E952EC6DEC7CEC8BE693EC0E94A910F9
:102270001092FD041092FE041092FF0410920005CB
:1022800010921C0510921B051092F70480E28093B7
:10229000F604109205051092F5041F910F91FF901E
:1022A000EF900C94A20F1F920F920FB60F92112471
:1022B0005E9815BC0F900FBE0F901F9018951F923F
:1022C0000F920FB60F9211248F9385B1887F85B935
:1022D0001092B1008F910F900FBE0F901F90189524
:1022E0001F920F920FB60F921124CF92DF92EF92AE
:1022F000FF920F931F932F933F934F935F936F938F
:102300007F938F939F93AF93BF93CF93DF93EF937D
:10231000FF9380910505811101C381E0809305053C
:102320008091F704882329F00E94A20F0E94590E81
:10233000F3C28091F504811121C04A9B02C04B99E0
:1023400003C080E00E94D60E309902C084E213C020
:10235000319902C085E20FC0329902C086E20BC0FB
:10236000339902C08AE207C0349902C08BE203C0ED
:10237000359904C08DE20E94B30FCEC285B1909111
:102380001A059873877C892B85B985B1887F9091D0
:102390001A05892B85B98AEF8093B20082E0809379
:1023A000B100789480911B0590911C05892B09F050
:1023B0006EC00E94380EEC0190931C0580931B05A3
:1023C000892B19F40E94A20FA7C28881823008F0DD
:1023D0005EC069A57AA58BA59CA56093F90470934E
:1023E000FA048093FB049093FC0400E41CE920E0D1
:1023F00030E00093FD041093FE042093FF0430931B
:1024000000050E942D0F8881813061F480E00E94D8
:10241000D60E10920605109207051092080510922C
:10242000090502C00E948B0FE0911B05F0911C056D
:1024300086859785A089B189B595A7959795879544
:10244000B095A095909581959F4FAF4FBF4F8093CA
:10245000160590931705A0931805B093190580935E
:10246000120590931305A0931405B093150580935E
:102470000E0590930F05A0931005B09311051092CF
:102480000A0510920B0510920C0510920D05C091D3
:102490001B05D0911C052881223009F42EC250F072
:1024A000243009F430C208F42AC2253009F034C2BD
:1024B00080E02AC23D8530931A054091160550915F
:1024C0001705609118057091190589819A81AB8172
:1024D000BC81840F951FA61FB71F8093160590938C
:1024E0001705A0931805B09319054E855F85688977
:1024F0007989181619061A061B0644F531603093BF
:102500001A05841B950BA60BB70B809316059093A9
:102510001705A0931805B093190580911D0590919A
:102520001E05A0911F05B091200533FF04C001973F
:10253000A109B10903C00196A11DB11D80931D051C
:1025400090931E05A0931F05B0932005C09012051F
:10255000D0901305E0901405F09015058D819E81B3
:10256000AF81B8858C0D9D1DAE1DBF1D80931205DA
:1025700090931305A0931405B0931505181619062A
:102580001A061B0654F530911A05326030931A056D
:10259000841B950BA60BB70B809312059093130524
:1025A000A0931405B0931505809121059091220503
:1025B000A0912305B091240534FF04C00197A1091F
:1025C000B10903C00196A11DB11D8093210590930F
:1025D0002205A0932305B0932405C0900E05D0904A
:1025E0000F05E0901005F090110589859A85AB855F
:1025F000BC858C0D9D1DAE1DBF1D80930E05909357
:102600000F05A0931005B0931105181619061A06A8
:102610001B0654F530911A05346030931A05841B5B
:10262000950BA60BB70B80930E0590930F05A09307
:102630001005B09311058091250590912605A09174
:102640002705B091280535FF04C00197A109B109FC
:1026500003C00196A11DB11D809325059093260509
:10266000A0932705B0932805C0900A05D0900B05CC
:10267000E0900C05F0900D058FEFC81AD80AE80A13
:10268000F80AC0920A05D0920B05E0920C05F09270
:102690000D0590911A0588E3892780931A05C416C1
:1026A000D506E606F70608F023C18DA99EA9AFA9B5
:1026B000B8ADC816D906EA06FB0608F040C00E946D
:1026C000FA0E882309F428C149A95AA96BA97CA943
:1026D0008091F9049091FA04A091FB04B091FC045C
:1026E000840F951FA61FB71F8093F9049093FA04D7
:1026F000A093FB04B093FC044A895B896C897D89B3
:10270000481759076A077B0740F44093F904509330
:10271000FA046093FB047093FC046091F9047091D7
:10272000FA048091FB049091FC040E942D0F888193
:10273000813011F480E0D9C00E948B0FEDC089ADCB
:102740009AADABADBCADC816D906EA06FB0669F476
:1027500080E49CE9A0E0B0E08093FD049093FE0447
:10276000A093FF04B0930005D7C0C816D906EA06A7
:10277000FB0608F446C00E94FA0E882309F4CCC078
:102780008091F9049091FA04A091FB04B091FC04AB
:1027900049A95AA96BA97CA9481759076A077B0759
:1027A00068F4841B950BA60BB70B8093F9049093E8
:1027B000FA04A093FB04B093FC0408C01092F9043F
:1027C0001092FA041092FB041092FC048DA59EA5B1
:1027D000AFA5B8A94091F9045091FA046091FB04A7
:1027E0007091FC04481759076A077B0708F095CFDA
:1027F0008093F9049093FA04A093FB04B093FC0433
:102800008CCF6A897B898C899D890091F90410910C
:10281000FA042091FB043091FC04061717072807DF
:10282000390751F06093F9047093FA048093FB0424
:102830009093FC040E942D0F8881813009F054C0D0
:102840008091060590910705A0910805B0910905B2
:102850002AE0CC0CDD1CEE1CFF1C2A95D1F7892B3D
:102860008A2B8B2B41F4C0920605D0920705E0928B
:102870000805F09209058091060590910705A09141
:102880000805B0910905C816D906EA06FB0608F442
:1028900043C0ED96488159816A817B81840F951FE1
:1028A000A61FB71F8093060590930705A093080500
:1028B000B0930905F8940E941F027894282F30E005
:1028C00020583109220F331FE0911B05F0911C05A0
:1028D00046A1429FC001439F900D11246FEF70E00D
:1028E0000E946919862F01C08EA10E94D60E14C0C5
:1028F000213061F40E94470209C081E001C080E0FC
:102900000E94E00E03C081E00E94E60E10921C05BA
:1029100010921B050E944A0E10920505FF91EF913F
:10292000DF91CF91BF91AF919F918F917F916F91E7
:102930005F914F913F912F911F910F91FF90EF90D9
:10294000DF90CF900F900FBE0F901F9018957F9241
:102950008F929F92AF92BF92CF92DF92EF92FF92AF
:102960000F931F93CF93DF938091F804882319F07E
:102970000E94F202F9CFE12CF12C8701A801970106
:10298000C801B7010E945E0E8CE0EDE1F5E0DF01C9
:102990001D928A95E9F781E08093F504309917C07C
:1029A0001F921F921F921F92812CA12CB12CD0EA52
:1029B000CD2ED2E4DD2EA801970160E070E080EA20
:1029C00091E40E94C3080F900F900F900F903199DF
:1029D0001AC01F921F921F921F92812CA12CB12C02
:1029E000C0EACC2EC2E4DC2EE12CF12C8701A80138
:1029F000970160E070E080EA91EC0E94C3080F90BC
:102A00000F900F900F9032991AC01F921F921F9231
:102A10001F92812CA12CB12CB0EACB2EB2E4DB2E7C
:102A2000E12CF12C870120E030E040EA51E4C801BC
:102A3000B7010E94C3080F900F900F900F90339929
:102A40001AC01F921F921F921F92812CA12CB12C91
:102A5000A0EACA2EA2E4DA2EE12CF12C870120E0B4
:102A600030E040EA51ECC801B7010E94C3080F9062
:102A70000F900F900F9034991AC01F921F921F92BF
:102A80001F92812CA12CB12CE0EACE2EE2E4DE2EA6
:102A9000E12CF12C00EA11E420E030E0A901CA01A8
:102AA000B9010E94C3080F900F900F900F903599B5
:102AB0001AC01F921F921F921F92812CA12CB12C21
:102AC00060EAC62E62E4D62EE12CF12C00EA11EC6D
:102AD00020E030E0A901CA01B9010E94C3080F90AB
:102AE0000F900F900F908091F804882319F00E94A6
:102AF000F202F9CF1092F504C3E4CF9388EC882E4C
:102B00008F921F921F92D0ECDF9390EA792E7F92E2
:102B10001F921F921F921F921F921F92A12CB12CE5
:102B2000650110EFE12E13E2F12E04E719E4A6018E
:102B30009501C601B5010E94CB0FCF9330E2932ED1
:102B40009F921F921F92DF931F921F921F921F92BC
:102B50001F921F921F92A6019501C601B5010E9406
:102B6000CB0FCF938F921F921F921F921F921F9293
:102B70001F921F921F921F921F92A12CB12C40EA0C
:102B8000C42E40ECD42EE12CF12C8701A801970132
:102B900060EF73E284E799E40E94CB0F8DB79EB794
:102BA00084960FB6F8949EBF0FBE8DBFCF939F92B1
:102BB0001F921F921F921F921F921F921F921F928D
:102BC0001F921F92A12CB12CC12C50ECD52EA80124
:102BD000970160EF73E284E799E40E94CB0FCF93F3
:102BE0008F921F921F921F921F921F921F92DF932C
:102BF0007F921F921F925701680120EF33E244E752
:102C000059E4C801B7010E94CB0FCF939F921F9246
:102C10001F921F921F921F921F92DF931F921F926B
:102C20001F9220EF33E244E759E4C801B7010E9444
:102C3000CB0FADB7BEB794960FB6F894BEBF0FBE1C
:102C4000ADBFA8019701C801B7010E945E0E8CE0DC
:102C5000EDE1F5E0DF011D928A95E9F7DF91CF9173
:102C60001F910F91FF90EF90DF90CF90BF90AF90AA
:102C70009F908F907F9008955058BB27AA270E945D
:102C800054160C9425180E94171838F00E941E182C
:102C900020F039F49F3F19F426F40C9414180EF424
:102CA000E095E7FB0C94E517E92F0E94361858F3DE
:102CB000BA17620773078407950720F079F4A6F521
:102CC0000C9470180EF4E0950B2EBA2FA02D0B016A
:102CD000B90190010C01CA01A0011124FF27591B61
:102CE00099F0593F50F4503E68F11A16F040A22F67
:102CF000232F342F4427585FF3CF469537952795D8
:102D0000A795F0405395C9F77EF41F16BA0B620BD6
:102D1000730B840BBAF09150A1F0FF0FBB1F661F1D
:102D2000771F881FC2F70EC0BA0F621F731F841F60
:102D300048F4879577956795B795F7959E3F08F086
:102D4000B0CF9395880F08F09927EE0F9795879548
:102D500008950E94581890F09F3748F4911116F486
:102D60000C94711860E070E080E89FE3089526F00D
:102D70001B16611D711D811D0C94EB170C94061818
:102D80000E94C11708F481E008950E94D9160C949E
:102D900025180E941E1858F00E94171840F029F4B8
:102DA0005F3F29F00C94E51751110C9471180C94A5
:102DB00014180E94361868F39923B1F3552391F340
:102DC000951B550BBB27AA2762177307840738F09A
:102DD0009F5F5F4F220F331F441FAA1FA9F335D0F7
:102DE0000E2E3AF0E0E832D091505040E695001CAB
:102DF000CAF72BD0FE2F29D0660F771F881FBB1F65
:102E0000261737074807AB07B0E809F0BB0B802D42
:102E1000BF01FF2793585F4F3AF09E3F510578F06E
:102E20000C94E5170C9471185F3FE4F3983ED4F3CB
:102E3000869577956795B795F7959F5FC9F7880F42
:102E4000911D9695879597F90895E1E0660F771F94
:102E5000881FBB1F621773078407BA0720F0621B25
:102E6000730B840BBA0BEE1F88F7E09508950E9450
:102E70003E176894B1110C94711808950E943E1881
:102E800088F09F5798F0B92F9927B751B0F0E1F02B
:102E9000660F771F881F991F1AF0BA95C9F714C0DB
:102EA000B13091F00E947018B1E008950C94701840
:102EB000672F782F8827B85F39F0B93FCCF3869514
:102EC00077956795B395D9F73EF490958095709571
:102ED00061957F4F8F4F9F4F0895E89409C097FBEE
:102EE0003EF490958095709561957F4F8F4F9F4FE1
:102EF0009923A9F0F92F96E9BB279395F695879525
:102F000077956795B795F111F8CFFAF4BB0F11F4E7
:102F100060FF1BC06F5F7F4F8F4F9F4F16C088238E
:102F200011F096E911C0772321F09EE8872F762FC4
:102F300005C0662371F096E8862F70E060E02AF005
:102F40009A95660F771F881FDAF7880F96958795F1
:102F500097F908950E94581890F09F3748F49111FE
:102F600016F00C94711860E070E080E89FEB089513
:102F700026F41B16611D711D811D0C94EB170C941A
:102F80000618990F0008550FAA0BE0E8FEEF161679
:102F90001706E807F907C0F012161306E407F5074D
:102FA00098F0621B730B840B950B39F40A2661F0C1
:102FB000232B242B252B21F408950A2609F4A14064
:102FC000A6958FEF811D811D089597F99F6780E871
:102FD00070E060E00895882371F4772321F0985021
:102FE000872B762F07C0662311F499270DC09051C7
:102FF000862B70E060E02AF09A95660F771F881F95
:10300000DAF7880F9695879597F908959F3F31F0E5
:10301000915020F4879577956795B795880F911D06
:103020009695879597F908959FEF80EC0895002471
:103030000A941616170618060906089500240A941D
:1030400012161306140605060895092E0394000CA3
:1030500011F4882352F0BB0F40F4BF2B11F460FF32
:1030600004C06F5F7F4F8F4F9F4F089557FD90585B
:10307000440F551F59F05F3F71F04795880F97FB3C
:10308000991F61F09F3F79F08795089512161306F6
:103090001406551FF2CF4695F1DF08C01616170625
:1030A0001806991FF1CF869571056105089408955A
:1030B0000E943E18A0F0BEE7B91788F4BB279F38DE
:1030C00060F41616B11D672F782F8827985FF7CF09
:1030D000869577956795B11D93959639C8F30895B0
:1030E000E894BB2766277727CB0197F908950E94BC
:1030F000C11708F48FEF08950E943E1858F19E57AB
:1031000060F19851A0F0E9F0983020F5092E992748
:10311000660F771F881F991F0A94D1F712C0062ED9
:10312000672F782F8827985F11F4000C07C0993F0C
:10313000B4F38695779567959395D9F7611D711DC1
:10314000811D3EF490958095709561957F4F8F4FCE
:103150009F4F089568940C9471180C9470180E94F5
:10316000C2180C9425180E94171838F00E941E18D7
:1031700020F0952311F00C94E5170C9414181124E9
:103180000C9471180E94361870F3959FC1F3950F37
:1031900050E0551F629FF001729FBB27F00DB11DDB
:1031A000639FAA27F00DB11DAA1F649F6627B00D6B
:1031B000A11D661F829F2227B00DA11D621F739F54
:1031C000B00DA11D621F839FA00D611D221F749F62
:1031D0003327A00D611D231F849F600D211D822FA9
:1031E000762F6A2F11249F5750409AF0F1F08823D0
:1031F0004AF0EE0FFF1FBB1F661F771F881F9150FD
:103200005040A9F79E3F510580F00C94E5170C94AF
:1032100071185F3FE4F3983ED4F3869577956795F0
:10322000B795F795E7959F5FC1F7FE2B880F911D26
:103230009695879597F9089519F416F40C94141837
:103240000C9406180E943E18B8F39923C9F3B6F3FC
:103250009F57550B87FF0E9462190024A0E640EAA1
:10326000900180585695979528F4805C660F771FDB
:10327000881F20F026173707480730F4621B730BAE
:10328000840B202931294A2BA695179407942025D1
:1032900031254A2758F7660F771F881F20F0261719
:1032A0003707480730F4620B730B840B200D311D78
:1032B000411DA09581F7B901842F9158880F9695EB
:1032C0008795089591505040660F771F881FD2F759
:1032D000089597FB072E16F4009407D077FD09D0C8
:1032E0000E94B01907FC05D03EF4909581959F4F40
:1032F0000895709561957F4F0895A1E21A2EAA1B3B
:10330000BB1BFD010DC0AA1FBB1FEE1FFF1FA21795
:10331000B307E407F50720F0A21BB30BE40BF50B92
:10332000661F771F881F991F1A9469F7609570951B
:10333000809590959B01AC01BD01CF010895EE0FE2
:10334000FF1F0590F491E02D09940E94C419A59FD8
:10335000900DB49F900DA49F800D911D1124089590
:10336000AA1BBB1B51E107C0AA1FBB1FA617B707AB
:1033700010F0A61BB70B881F991F5A95A9F78095C7
:103380009095BC01CD010895A29FB001B39FC001EB
:10339000A39F700D811D1124911DB29F700D811D81
:0A33A0001124911D0895F894FFCF49
:0233AA00010020
:00000001FF
