:100000000C945C000C9483000C9483000C9483008B
:100010000C9483000C9483000C9483000C94830054
:100020000C9483000C943F110C9483000C94501199
:100030000C9483000C9483000C9483000C94830034
:100040000C9433110C9483000C946F010C941E01DA
:100050000C9483000C9483000C9483000C94830014
:100060000C9483000C948300F006AB04FF04D004CE
:100070000C050F0512056A056A05A405A705AA0562
:10008000AF05B405B605B805BA057306E9066106FD
:10009000E906890694069F06AA06BF06D406E90665
:1000A000E9067E06E906E9066C06E906E906E906C0
:1000B000E906D70505063306EAEAF6E085EC98E09E
:1000C00001C08193EF3FF907E0F3D9F311241FBE7C
:1000D000CFEFD8E0DEBFCDBF11E0A0E0B1E0EAE3B2
:1000E000F1E302C005900D92A230B107D9F726E0E6
:1000F000A2E0B1E001C01D92AA3AB207E1F70E9466
:1001000085000C949B180C94000078940E94B40015
:100110000E949A020E94A60E0E94D5100E94BE0E56
:100120000E94E10E0E948C0480E090E008951092FD
:100130000301109202010895909109019F5F903888
:1001400009F490E0209108019217E1F3E091090190
:10015000F0E0E65DF94F8083909309018091C10042
:1001600080628093C10008951092C50080E1809361
:10017000C400E0ECF0E080818D7F8083E1ECF0E072
:1001800080818061808380818860808380818068B5
:1001900080838EE70C949C00CF92DF92EF92FF92C7
:1001A000CF93C82FCB01BA0120E030E04AE754E4F6
:1001B0000E946F170E943C176B017C0128EFF21A16
:1001C0008C2D80680E949C00D701C60180789F73A7
:1001D000AA27BB2727E0B695A795979587952A95D7
:1001E000D1F780580E949C00D701C6018827907CD7
:1001F000AF71BB273EE0B695A795979587953A9541
:10020000D1F780580E949C00CC24DD2480EEE822A7
:100210008FE0F822D701C60145E1B695A7959795DD
:1002200087954A95D1F780580E949C008C2FCF91DA
:10023000FF90EF90DF90CF900C949C001F920F9254
:100240000FB60F9211248F939F93EF93FF9380919A
:10025000080190910501992331F095E09093C60033
:10026000109205010DC0E82FF0E0E65DF94F908196
:100270009093C6008F5F803809F480E08093080176
:1002800090910901891305C08091C1008F7D8093F1
:10029000C100FF91EF919F918F910F900FBE0F9032
:1002A0001F901895E0910A01F0E0E65DFA4F808119
:1002B00090910A019F5F90930A01909104019F5FC2
:1002C00090930401903151F491E090930501909145
:1002D000C10090629093C1001092040108951F9292
:1002E0000F920FB60F9211242F933F934F935F936A
:1002F0006F937F938F939F93AF93BF93CF93EF931E
:10030000FF93C091C60080910001882329F01092CC
:100310000001C09307013DC081E0809300018091FE
:100320000701C81719F08DE30E944310C031F8F49B
:10033000C13011F481E224C0C23069F4109203018B
:100340001092020110920A0110920B011092040106
:100350000E9455101EC0C33019F40E94E30219C058
:10036000C43019F40E94E70214C083E209C0E0918E
:100370000B0181E08E0F90910A01891304C082E283
:100380000E94431006C0F0E0E65DFA4FC083809300
:100390000B01FF91EF91CF91BF91AF919F918F9101
:1003A0007F916F915F914F913F912F910F900FBE71
:1003B0000F901F901895CF93C1E08091030188237F
:1003C00001F1809102018823C9F0109206019091F9
:1003D0000A0180910B0198130BC0809106018111D5
:1003E00004C00E94EB02C09306010E94F702EFCF07
:1003F0000E945201813111F4109203010E94F70210
:10040000DCCF10920601C1E090910A0180910B01AE
:1004100098130BC080910601811104C00E94EB0269
:10042000C09306010E94F702EFCF0E945201803173
:1004300031F481E0809303011092020181E4CF91B5
:100440000895809103018823C9F0809102018111F0
:1004500015C090910A0180910B01981303C00E946E
:10046000EB020CC00E94520187FD09C0813119F4D2
:100470001092030103C083E20E94431080E80895B4
:1004800020910A0190910B0181E0291301C080E0C5
:10049000089581E0809302010895E1E1F1E0438154
:1004A00050E060E070E0405851096109710987E04F
:1004B000440F551F661F771F8A95D1F7828190E000
:1004C000A0E0B0E080589109A109B109840F951FFF
:1004D000A61FB71FAC01BD0197E0440F551F661F53
:1004E000771F9A95D1F7818190E0A0E0B0E0805825
:1004F0009109A109B109840F951FA61FB71F27E015
:10050000880F991FAA1FBB1F2A95D1F72081820F40
:10051000911DA11DB11DBC01CD016058710981095A
:1005200098400E942F1620E030E04AE754E40E94F1
:1005300085150895CF93DF93E6E1F1E081E08083B4
:1005400040E050E06AEF75E4418352836383748333
:1005500015829CE0A6E2B1E0ED0119929A95E9F7C7
:1005600016821782108611861286138614861586C7
:100570001686178640E050E060EA70E4448F558F9D
:10058000668F778F40A351A362A373A314A215A211
:1005900016A217A240A751A762A773A744A755A701
:1005A00066A777A710AA11AA12AA13AA809310010E
:1005B00080930F0110920E0110920D0180930C0197
:1005C000DF91CF91089581E080931001089581E03B
:1005D00080930F01089580910D0190910E01019675
:1005E00090930E0180930D0110920C010895CF920B
:1005F000DF92EF92FF920F931F93CF93DF9300D080
:1006000000D0CDB7DEB74A9B02C04B9903C080E053
:100610000E94C50E0E9452108823D1F00E944B0EFA
:100620000E947D106B017C010E946C109B01AC014B
:1006300069833A834B835C830E945B108701760158
:1006400029813A814B815C810E94500E10921501E4
:1006500080911001811105C080910F01882309F458
:100660004EC1109210010E94210E811112C00E94F1
:10067000400281110EC00E94521081110AC081E413
:100680000E949C0083B7816083BF889583B78E7F6B
:1006900083BF4A9903C082E40E949C004B9903C027
:1006A00083E40E949C000E944F10182F803211F0AA
:1006B0000E949C00309905C0143219F084E20E9417
:1006C0009C00319905C0153219F085E20E949C000A
:1006D000329905C0163219F086E20E949C003399C7
:1006E00005C01A3219F08AE20E949C000E945B1039
:1006F000E091240123E0E29FF0011124EE0FFF1F9F
:10070000EE0FFF1FEE5CFE4F20813181428153814D
:100710000E94FC14AB01BC0188E70E94CC000E943F
:100720006C10E091240123E0E29FF0011124EE0F10
:10073000FF1FEE0FFF1FEA5CFE4F208131814281D7
:1007400053810E94FC14AB01BC0189E70E94CC00DC
:100750000E947D10E091240123E0E29FF00111242A
:10076000EE0FFF1FEE0FFF1FE65CFE4F2081318171
:10077000428153810E94FC14AB01BC018AE70E94B4
:10078000CC0080910C01811110C060910D0170911D
:100790000E0180E090E00E942D16AB01BC0187E7BE
:1007A0000E94CC0081E080930C01EAEAF6E0BF01F0
:1007B0006A5A76408081853C09F48AC080E090E0E6
:1007C0000E942D16AB01BC0185E70E94CC008091F0
:1007D0000F01882309F484C010920F0140E050E219
:1007E00065ED74E486E70E94CC00209132013091DF
:1007F0003301409134015091350160913E01709177
:100800003F0180914001909141010E94FC14AB0195
:10081000BC0181E60E94CC00209136013091370165
:10082000409138015091390160914201709143012A
:1008300080914401909145010E94FC14AB01BC01E0
:1008400082E60E94CC0020913A0130913B01409118
:100850003C0150913D0160914601709147018091AA
:100860004801909149010E94FC14AB01BC0183E650
:100870000E94CC004091170150911801609119011C
:1008800070911A0187E60E94CC0060911B0170E014
:1008900080E090E00E942D16AB01BC0188E60E942A
:1008A000CC0040911C0150911D0160911E0170917E
:1008B0001F0189E60E94CC00409120015091210146
:1008C00060912201709123018AE60E94CC0008C049
:1008D00088E0EF3FF80711F008F070CF319667CF4E
:1008E00086E00F900F900F900F90DF91CF911F91A6
:1008F0000F91FF90EF90DF90CF900C949C000F90A1
:100900000F900F900F90DF91CF911F910F91FF905B
:10091000EF90DF90CF900895D1E00E94DB01C82FC7
:100920000E945210882319F00E94F702F6CFC7FDEB
:100930005AC28FEB8C0F8A3108F022C18C2F90E0C5
:10094000FC01E154F109E131F10508F017C1EC5C5B
:10095000FF4F0C945F18A0901701B0901801C09041
:100960001901D0901A01E0902E01F0902F01009112
:1009700030011091310120912A0130912B014091D9
:100980002C0150912D0160912601709127018091D9
:100990002801909129011F921F921F921F922CC033
:1009A000A0901701B0901801C0901901D0901A01C1
:1009B000E0902E01F0902F01009130011091310153
:1009C00020912A0130912B0140912C0150912D0151
:1009D0006091260170912701809128019091290151
:1009E000E0912301EF93E0912201EF93E091210147
:1009F000EF93E0912001EF9380901B0164C0609120
:100A00001C0170911D0180911E0190911F01409168
:100A10001B010E94ED0DE4C110921601E1C1D093BB
:100A20001601DEC10E944010882319F00E94F702CF
:100A3000F9CF0E94F614E12CF12C8701A80197014F
:100A4000C801B7010E94500E10922401609132013A
:100A500070913301809134019091350160932601AA
:100A600070932701809328019093290120913601EA
:100A700030913701409138015091390120932A017A
:100A800030932B0140932C0150932D01E0903A01BB
:100A9000F0903B0100913C0110913D01E0922E014C
:100AA000F0922F010093300110933101A0901701B3
:100AB000B0901801C0901901D0901A011F921F9296
:100AC0001F921F92812C0E94A9080F900F900F90E7
:100AD0000F9086C10E944010882319F00E94F702EF
:100AE000F9CF81E090E0C93411F080E090E08C0112
:100AF000000F111F080F191F0E945B10F801EE0F65
:100B0000FF1FEE0FFF1FEE5CFE4F60837183828339
:100B100093830E946C10F801EE0FFF1FEE0FFF1F72
:100B2000EA5CFE4F60837183828393830E947D1011
:100B3000000F111F000F111FF801E65CFE4F6083CC
:100B40007183828393834CC11092240149C1D09355
:100B5000240146C1809124018093250141C18091E7
:100B60002501809324013CC182E005C083E003C0DD
:100B700084E001C085E00E94EE0D32C18CE32EC1FD
:100B80008FE98C0F8A3108F028C1809115018430DB
:100B900009F021C18C2F90E0FC01E456F109E73106
:100BA000F10508F016C1EB5BFF4F0C945F188091C4
:100BB0001601813099F40E944D02E091240123E056
:100BC000E29FF0011124EE0FFF1FEE0FFF1FEE5CFE
:100BD000FE4F20813181428153810CC00E944D0221
:100BE0009B01AC0160912601709127018091280141
:100BF000909129010E94FD146093260170932701B2
:100C00008093280190932901EBC0809116018130D7
:100C100099F40E944D02E091240123E0E29FF0014B
:100C20001124EE0FFF1FEE0FFF1FEA5CFE4F208125
:100C30003181428153810CC00E944D029B01AC0165
:100C400060912A0170912B0180912C0190912D01CE
:100C50000E94FD1460932A0170932B0180932C0154
:100C600090932D01BDC080911601813099F40E94AE
:100C70004D02E091240123E0E29FF0011124EE0FE8
:100C8000FF1FEE0FFF1FE65CFE4F20813181428186
:100C900053810CC00E944D029B01AC0160912E015A
:100CA00070912F0180913001909131010E94FD14CB
:100CB00060932E0170932F01809330019093310146
:100CC0008FC00E944D0260931701709318018093AA
:100CD000190190931A0184C00E944D020E94FE15D2
:100CE00060931B017DC00E944D0260931C017093B4
:100CF0001D0180931E0190931F0172C00E944D023E
:100D0000609320017093210180932201909323012D
:100D100067C00E944D02609332017093330180934B
:100D20003401909335015CC00E944D0260933601FE
:100D300070933701809338019093390151C00E941C
:100D40004D0260933A0170933B0180933C01909374
:100D50003D0146C00E944D02209132013091330185
:100D600040913401509135010E94FD1460933E0181
:100D700070933F01809340019093410131C00E94E4
:100D80004D02209136013091370140913801509148
:100D900039010E94FD1460934201709343018093D6
:100DA0004401909345011CC00E944D0220913A01DC
:100DB00030913B0140913C0150913D010E94FD1456
:100DC00060934601709347018093480190934901D5
:100DD00007C08EE303C08AE301C083E20E94431090
:100DE00010921501A1CDE0911501E43048F481E0A5
:100DF0008E0F80931501F0E0EF5EFE4FC08394CD1F
:100E00008AE30E94431090CD2F923F924F925F92BF
:100E10006F927F928F929F92AF92BF92CF92DF920A
:100E2000EF92FF920F931F93CF93DF93CDB7DEB76F
:100E300060970FB6F894DEBF0FBECDBF1C012A012C
:100E40003B0148015901FC016289738984899589B4
:100E50000E942D166B017C01A30192010E946F1765
:100E60000E9469150E94FE152B013C01F10161A74A
:100E700072A783A794A7A5019401C701B6010E9498
:100E80006F170E9469150E94FE154B015C01F1016C
:100E900065A776A787A790AB21A932A943A954A932
:100EA000A0EEBEE20E94651869837A838B839C83DF
:100EB0000E942F166D837E838F839887C301B201B2
:100EC0000E942D162B013C01A7019601C701B60116
:100ED0000E946F176B017C01A3019201C301B20153
:100EE0000E946F1769877A878B879C872D813E8147
:100EF0004F815885CA01B9010E94FD146D877E8714
:100F00008F87988B29853A854B855C85C701B6010B
:100F10000E94FC142D853E854F8558890E948515B9
:100F20000E9469150E94F7152B013C01C501B4010F
:100F30000E942D169B01AC010E946F174B015C01B2
:100F4000A70196010E94FC146B017C0169817A81E2
:100F50008B819C8190958095709561957F4F8F4F87
:100F60009F4F0E942F169B01AC010E94FD149B0114
:100F7000AC01C701B6010E9485150E946A16F101F5
:100F8000C684D784E088F188A70196012419350921
:100F90004609570929833A834B835C830E94F715DE
:100FA00029813A814B815C81261B370B480B590BF9
:100FB000DA01C90157FF3DC0C701B6010E942F16D3
:100FC0009B01AC016D857E858F8598890E946F1786
:100FD00029853A854B855C850E94FC14A501940106
:100FE0000E94FD144B015C0120E030E040E850E439
:100FF0006D817E818F8198850E946F179B01AC0166
:10100000C501B4010E9485150E9469150E94F7155B
:1010100097FF03C060E070E0CB012B013C01C616D6
:10102000D706E806F90614F42601370180E090E0BF
:10103000DC01F10145AA56AA67AA70AE480E591EF6
:101040006A1E7B1E41AE52AE63AE74AE60960FB6A2
:10105000F894DEBF0FBECDBFDF91CF911F910F91EE
:10106000FF90EF90DF90CF90BF90AF909F908F90C8
:101070007F906F905F904F903F902F9008954F9288
:101080005F926F927F92AF92BF92CF92DF92EF9278
:10109000FF920F931F93CF93DF93FC0120A52111A3
:1010A00049C0EB018C01428C538C648C758CAA8CEA
:1010B000BB8CCC8CDD8C9501A601C301B2010E94D2
:1010C000801587FF37C0A3019201C301B2010E94BE
:1010D0006F172B013C0120E03AEB4BE55AECF8018D
:1010E00062A173A184A195A10E946F179B01AC011D
:1010F000C301B2010E94FC140E94E2177B018C0123
:101100009B01AC01B501C6010E94801587FF02C09A
:10111000750186019701A801B501C6010E948015DD
:10112000882341F0A701B8014A8F5B8F6C8F7D8FB8
:1011300081E08FA3DF91CF911F910F91FF90EF90EE
:10114000DF90CF90BF90AF907F906F905F904F9067
:1011500008952F923F924F925F926F927F928F925B
:101160009F92AF92BF92CF92DF92EF92FF920F9336
:101170001F93CF93DF93CDB7DEB7A4970FB6F89444
:10118000DEBF0FBECDBF29013A01E986FA860B8783
:101190001C87A982BE82CF82D886C9ACDAACEBAC00
:1011A000FCAC2CE137EC41EB52E40E946F170E943B
:1011B0003C176D8B7E8B8F8B988F24E731ED45EB41
:1011C00052E4C301B2010E946F170E943C17698F5D
:1011D0007A8F8B8F9C8F25E535E545E052E4698554
:1011E0007A858B859C850E946F170E943C176D8FB6
:1011F0007E8F8F8F98A3809167018F5F89878E3054
:1012000009F419864984042D440C110B8091660160
:1012100090E08017910719F40E94F702F7CF8091B0
:101220006701282E312C20E030E0A901C701B6016A
:101230000E948015882311F181E4829D8001839DA5
:10124000100D112408591E4F81E0D8018C932CE118
:1012500037EC41EB52E4C701B6010E946F1720E062
:1012600030E040E854E40E946F170E943C17F801F8
:10127000FD96608371838283938309C081E4829D9C
:10128000F001839DF00D1124E859FE4F108281E496
:10129000829DF001839DF00D1124E859FE4F86A236
:1012A000158680915A0190915B01A0915C01B091EB
:1012B0005D014D885E886F88788C481659066A06ED
:1012C0007B0614F428E0258780905E0190905F01F2
:1012D000A0906001B0906101498C5A8C6B8C7C8C21
:1012E000481459046A047B045CF421E4229DF00153
:1012F000239DF00D1124E859FE4F25852061258797
:10130000C0906201D0906301E0906401F0906501AB
:101310004D8C5E8C6F8C78A04C145D046E047F0441
:101320005CF421E4229DF001239DF00D1124E85985
:10133000FE4F2585206225874D885E886F88788CD2
:10134000481A590A6A0A7B0AC301B2014A825B82BF
:101350006C827D8277FE0BC022273327A9012419D6
:101360003509460957092A833B834C835D8341E451
:10137000429D9001439D300D1124F901E859FE4F23
:101380004A805B806C807D8041825282638274825D
:10139000498C5A8C6B8C7C8C481859086A087B08DD
:1013A0005301420177FE07C04424552432014818F6
:1013B00059086A087B0841E4429D9001439D300D25
:1013C0001124F901E859FE4F4582568267827086E2
:1013D0002D8D3E8D4F8D58A12C193D094E095F0969
:1013E00069017A01298B3A8B4B8B5C8B57FF0BC0C1
:1013F00022273327A9012C193D094E095F09298BA2
:101400003A8B4B8B5C8BE1E4E29DA001E39D500D98
:101410001124FA01E859FE4F29893A894B895C89E0
:1014200021873287438754874D865E866F86788A08
:101430002A813B814C815D81421653066406750604
:1014400020F42D873E874F87588B4D845E846F84B0
:10145000788829893A894B895C8942165306640643
:10146000750610F429013A0121E4229D8001239D93
:10147000100D112408591E4FD8011E964D925D92F1
:101480006D927C925197411451046104710409F4E6
:101490008BC30E942F162CE137EC41EB52E40E94E3
:1014A00085156D877E878F87988BC501B4010E9453
:1014B0002F1624E731ED45EB52E40E94851520E01C
:1014C00030E040EA51E40E94FC14698B7A8B8B8BEC
:1014D0009C8BC701B6010E942F1625E535E545E036
:1014E00052E40E94851520E030E040EA51E40E9479
:1014F000FC144B015C012D853E854F855889CA013E
:10150000B9010E946F176B017C0129893A894B89C7
:101510005C89CA01B9010E946F179B01AC01C70128
:10152000B6010E94FD146B017C01A5019401C50167
:10153000B4010E946F179B01AC01C701B6010E9464
:10154000FD140E94E2176A837B838C839D83F801DC
:1015500062A373A384A395A39B01AC0160E070E038
:1015600080E89FE30E9485156B017C0189819E8143
:10157000AF81B885F801868B978BA08FB18FC3019F
:10158000B2010E942F162B013C01A701960169812F
:101590007E818F8198850E946F179B01AC01C301EA
:1015A000B2010E946F170E9469150E94FE15D801B2
:1015B00052966D937D938D939C935597A7019601B9
:1015C000C301B2010E946F1720E03AEB4BED59E4E2
:1015D0000E946F1720E030E84BE356E40E94851527
:1015E0000E9469150E94F715F80161AB72AB83ABDD
:1015F00094ABA70196016D857E858F8598890E94A1
:101600006F176D877E878F87988BA70196016989F1
:101610007A898B899C890E946F17698B7A8B8B8B57
:101620009C8BA7019601C501B4010E946F172B0185
:101630003C019091670180916601981709F4ABC055
:10164000E0904A01F0904B0100914C0110914D0146
:1016500020E030E0A901B701C8010E943717181631
:101660000CF099C080914E0190914F01A0915001D2
:10167000B0915101BC01CD0190582D853E854F851B
:1016800058890E946F174B015C01209152013091E3
:101690005301409154015091550169897A898B8990
:1016A0009C890E946F179B01AC01C501B4010E9487
:1016B000FC144B015C01209156013091570140917F
:1016C000580150915901C301B2010E946F179B014B
:1016D000AC01C501B4010E94FC144B015C0123E381
:1016E00033E343E75FE30E94801587FF54C02981FD
:1016F0003E814F815885B701C8010E94801587FD42
:1017000004C0E980FE800F81188523E333E343E7BB
:101710005FEBC501B4010E94371718160CF03FC0EB
:10172000A501940160E070E080E89FE30E94FC1452
:1017300020E030E040E05FE30E946F170E94E21774
:101740004B015C0120E030EC48E256E40E946F1748
:1017500069A37AA38BA39CA3A501940160E070E028
:1017600080E89FE30E94FC149B01AC0169A17AA16F
:101770008BA19CA10E9485150E94E2175B016C0160
:101780009B01AC01B701C8010E94801587FD07C00D
:101790007501860104C0E12CF12C00E010E081E429
:1017A000829DF001839DF00D1124E859FE4FC70181
:1017B000D801868F978FA0A3B1A320E03AEB4BE529
:1017C0005AEC6A817B818C819D810E946F179B01FD
:1017D000AC0160E070E0CB010E94FC140E94E217B3
:1017E0005B016C019B01AC01B701C8010E9480152F
:1017F00087FD04C075019C2D8D2D02C0902F812F77
:1018000021E4229D8001239D100D112408591E4FB3
:10181000A701692F782FD8015A964D935D936D9348
:101820007C935D979501A60169817E818F81988562
:101830000E948015181624F081E0F80180A703C0EB
:10184000D80198961C9281E4829DF001839DF00D51
:101850001124E859FE4F81E087A32D853E854F85F1
:10186000588920934E0130934F014093500150937B
:10187000510189899A89AB89BC89809352019093DF
:101880005301A0935401B0935501409256015092D8
:101890005701609258017092590189819E81AF81F0
:1018A000B88580934A0190934B01A0934C01B0936B
:1018B0004D014984409267014D885E886F88788C1D
:1018C00040925A0150925B0160925C0170925D01FE
:1018D000498C5A8C6B8C7C8C40925E0150925F01DB
:1018E00060926001709261014D8C5E8C6F8C78A06B
:1018F00040926201509263016092640170926501AE
:10190000F0906701E0E0F0E000E010E08091660117
:1019100090E02F2D0F2C000C330B2817390709F4FA
:101920007DC0F11002C03EE0F32EFA9421E43F2D79
:101930003203C0011124AC0148595E4F4A01011520
:10194000110509F468C0309709F465C0D80198966C
:101950008C9198975E962C905E975F963C905F97DF
:101960009096AC90909791964C904982811147C087
:10197000B22CC32CDA2CE42C428C538C648C758CE6
:10198000A3019201622D732D8A2D9E2D0E9437177F
:101990001816ACF5A3019201C301B2010E946F17A2
:1019A0002B013C0120E03AEB4BE55AECD801929632
:1019B0006D917D918D919C9195970E946F179B01E0
:1019C000AC01C301B2010E94FC140E94E217562E22
:1019D000672E782EA92E262F372F482F592F622DAC
:1019E000732D8D2D9E2D0E94801587FD03C0B52C73
:1019F0006301EA2C8B2D9C2DAD2DBE2D03C0C101A2
:101A0000AA2DB981F801828F938FA48FB58FE1E061
:101A1000D8019796EC93F801840178CFF090660195
:101A200000E010E080E090E021E4E22E4F2D0F2C4A
:101A3000000C550B2091670130E042175307C9F0A5
:101A4000E49E9001E59E300D1124A90148595E4F96
:101A50006A01009731F00115110519F0B8010E94D3
:101A60003F08F3945EE0F51201C0F12CC801860135
:101A7000DDCF009731F00115110519F0B8010E9472
:101A80003F08D0906601E12CF12C81E4C82E4D2D49
:101A90000D2C000C550B8091670190E048175907F9
:101AA00009F446C0C49EC001C59E900D1124DC01FE
:101AB000A859BE4F1D01E114F10499F1F70187A166
:101AC000811104C097968C91882359F1D7015696BD
:101AD0004D905D906D907C905997C49EF001C59E8D
:101AE000F00D1124E859FE4FA3019201628D738D10
:101AF000848D958D0E9485154B015C01A301920197
:101B0000F701628D738D848D958D0E948515AB01D3
:101B1000BC0195018401C7010E940407D701979673
:101B20001C92D394BEE0DB1201C0D12C7101AFCF67
:101B3000F70186889788A08CB18CA501940160E09C
:101B400070E0CB010E9485152B013C01A501940199
:101B5000D7015A966D917D918D919C915D970E94D0
:101B60008515AB01BC0193018201C7010E940407E6
:101B7000F70117A2A4960FB6F894DEBF0FBECDBF33
:101B8000DF91CF911F910F91FF90EF90DF90CF9059
:101B9000BF90AF909F908F907F906F905F904F908D
:101BA0003F902F900C942210A4960FB6F894DEBFAD
:101BB0000FBECDBFDF91CF911F910F91FF90EF909E
:101BC000DF90CF90BF90AF909F908F907F906F905D
:101BD0005F904F903F902F9008950895FF920F933C
:101BE0001F93CF93DF931F92CDB7DEB7909167011C
:101BF000FF24F394F90E9EE0F91201C0F12C0F2D91
:101C00000F2C000C110B2091660130E020173107DA
:101C100029F489830E94F7028981F5CFE091670159
:101C200091E4E99FF0011124E859FE4F8083F0927E
:101C300067010F90DF91CF911F910F91FF900C944E
:101C40002210209167019091660181E0291301C063
:101C500080E008959091670180916601981749F09E
:101C60008091660121E4829FC001112488599E4F12
:101C7000089580E090E00895909167018091660159
:101C8000981741F0809166018F5F8E3009F480E0F3
:101C9000809366010895109267011092660108957D
:101CA0008F929F92AF92BF92CF92DF92EF92FF926C
:101CB0000F931F93CF93DF9349015A016701780176
:101CC0002CE137EC41EB52E40E946F170E943C1765
:101CD000CAE5D1E0688379838A839B8324E731ED69
:101CE00045EB52E4C501B4010E946F170E943C17F6
:101CF0006C837D838E839F8325E535E545E052E443
:101D0000C701B6010E946F170E943C176887798748
:101D10008A879B8710924A0110924B0110924C01C6
:101D200010924D018CE0EEE4F1E0DF011D928A9506
:101D3000E9F7DF91CF911F910F91FF90EF90DF9026
:101D4000CF90BF90AF909F908F900895EF92FF92A9
:101D50000F931F931092670110926601E12CF12CF2
:101D6000870120E030E040EA50E4CA01B9010E9456
:101D7000500E1F910F91FF90EF9008958AB1837FCD
:101D80008AB987B1807C87B908954A9B04C04B9B70
:101D900002C0811104C01092F6045E9808958093E9
:101DA000F60408958091F6040895882311F05C9A52
:101DB00008955C980895882311F05F9A08955F98BC
:101DC0000895569A14BC15BCEEE6F0E0808181605F
:101DD000808316BC549A80E00E94D50E579A80E00A
:101DE0000C94DB0E409102055091030560910405AF
:101DF000709105058091FE049091FF04A09100056B
:101E0000B0910105840F951FA61FB71F813828E3E5
:101E1000920721E0A207B10550F48093FE0490934D
:101E2000FF04A0930005B093010580E00895805859
:101E30009843A140B1098093FE049093FF04A093BE
:101E40000005B093010581E008959B01AC012034A9
:101E500086E038074105510520F420E436E040E0F3
:101E600050E060E070E788E399E30E943D18211597
:101E7000310581E04807510518F4B90190E02FC001
:101E80002115310588E048075105A8F4DA01C90198
:101E9000F3E0B695A79597958795FA95D1F7BC018C
:101EA0009C01AD01A3E0220F331F441F551FAA95CB
:101EB000D1F791E014C0DA01C90126E0B695A795E3
:101EC000979587952A95D1F7BC019C01AD01E6E075
:101ED000220F331F441F551FEA95D1F792E08091DE
:101EE00081009F5F887F892B809381007093890098
:101EF0006093880020930205309303054093040506
:101F00005093050508958F929F92AF92BF92CF9202
:101F1000DF92EF92FF92CF93DF934B015C01C09170
:101F20001C05D0911D058EA1682F70E080E090E027
:101F30000E942F166B017C01C501B4010E942D1671
:101F40004B015C016A897B898C899D890E942D16D1
:101F50009B01AC01C501B4010E94851523E333E365
:101F600043E75FE30E946F172DEC3CEC4CE45DE32C
:101F70000E94FD149B01AC01C701B6010E946F17BE
:101F80000E94FE15862FDF91CF91FF90EF90DF909A
:101F9000CF90BF90AF909F908F900C94C50E0F93F1
:101FA0001F93CF93DF93882311F023E001C02BE32D
:101FB00090E3922725B1392F3873277C232B25B93D
:101FC00056E046E021E061E0CFE3D1E012E00AE133
:101FD000ACE4B9E036B181113C27662379F130FDDC
:101FE00005C0411102C09D2729C04150222359F04C
:101FF00032FD08C0511105C06623A1F0912720E0F1
:1020000002C0515021E075B1E92FE7707E2B75B900
:10201000302F3A95F1F735B13E2735B9FD013197AB
:10202000F1F7D8CF8CE0EEE1F5E0DF011D928A9563
:10203000E9F7DF91CF911F910F910895222391F33A
:1020400060E0D6CF8091F90481110BC081E08093CC
:10205000F90480E380931B0580916F008260809378
:102060006F0008951092F90410921D0510921C053E
:10207000EFE6F0E080818D7F808380E00C94C50ED8
:102080008091F90408959091F804911107C080930C
:10209000F70481E08093F8040C94970008958091F0
:1020A000F70408958091F804089580E28093F7047E
:1020B0001092F804089560911E0570911F0580919B
:1020C0002005909121050E942F162CE137EC41EB61
:1020D00052E40E94851508956091220570912305B0
:1020E00080912405909125050E942F1624E731ED5B
:1020F00045EB52E40E948515089560912605709184
:10210000270580912805909129050E942F1625E525
:1021100035E545E052E40E94851508958F929F921F
:10212000AF92BF92CF92DF92EF92FF920F931F93E5
:10213000CF93DF9349015A01670178012CE137EC15
:1021400041EB52E40E946F170E943C17CEE1D5E0AC
:10215000688379838A839B8324E731ED45EB52E4DE
:10216000C501B4010E946F170E943C176C837D83E8
:102170008E839F8325E535E545E052E4C701B6012E
:102180000E946F170E943C17688779878A879B8710
:10219000DF91CF911F910F91FF90EF90DF90CF9043
:1021A000BF90AF909F908F900895EF92FF920F9302
:1021B0001F9384B18F6384B985B1807C806385B9B6
:1021C000E1E8F0E080818F7E808380818860808379
:1021D000E0E8F0E080818D7F808380818E7F808346
:1021E00080818F73808380818F7C80831092B00088
:1021F0001092B100E0E7F0E080818160808360E4CC
:1022000076E080E090E00E94250F80E00E94C50EFD
:102210008CE0EEE1F5E0DF011D928A95E9F7E12C13
:10222000F12C870120E030E040EA50E4CA01B90116
:102230000E948E101092FE041092FF04109200056E
:102240001092010510921D0510921C051092F804C1
:1022500080E28093F704109206051F910F91FF9082
:10226000EF900C9432101F920F920FB60F92112420
:102270005E9815BC0F900FBE0F901F9018951F927F
:102280000F920FB60F9211248F9385B1887F85B975
:102290001092B1008F910F900FBE0F901F90189564
:1022A0001F920F920FB60F921124CF92DF92EF92EE
:1022B000FF920F931F932F933F934F935F936F93CF
:1022C0007F938F939F93AF93BF93CF93DF93EF93BE
:1022D000FF9380910605811170C381E0809306050C
:1022E0008091F804882329F00E9432100E944B0E3E
:1022F00062C34A9B02C04B9903C080E00E94C50E96
:10230000309902C084E20BC0319902C085E207C057
:10231000329902C086E203C0339904C08AE20E9467
:10232000431049C30E94D20E90910101903120F4D4
:10233000809101018F5F66C0811102C05E9861C00B
:1023400015BC5E9A823F08F05CC090E1899FD00185
:10235000112440910205509103056091040570918C
:102360000505252F362F472F55270E9470186F3FE0
:10237000710581059105D9F1D0F1F3E09695879526
:1023800077956795FA95D1F76F3F710581059105AE
:1023900081F178F1E3E09695879577956795EA95D1
:1023A000D1F76F3F71058105910529F120F152E0C8
:1023B00096958795779567955A95D1F76F3F7105F3
:1023C00081059105D1F0C8F042E096958795779503
:1023D00067954A95D1F76F3F71058105910529F001
:1023E00020F06FEF70E080E090E025E007C021E092
:1023F00005C022E003C023E001C024E0619566BD72
:1024000025BD81E08093010185B190911B059873F2
:10241000877C892B85B985B1887F90911B05892B95
:1024200085B98AEF8093B20082E08093B1007894FE
:1024300080911C0590911D05892B09F072C00E94A6
:102440002A0EEC0190931D0580931C05892B19F42D
:102450000E943210B0C28881823008F062C0C9A4E4
:10246000DAA4EBA4FCA4C092FA04D092FB04E0929C
:10247000FC04F092FD0480E49CE9A0E0B0E08093CD
:10248000FE049093FF04A0930005B0930105C701DB
:10249000B6010E94250F8881813061F480E00E949E
:1024A000C50E1092070510920805109209051092AA
:1024B0000A0504C0C701B6010E94830FE0911C0504
:1024C000F0911D0586859785A089B189B595A79559
:1024D00097958795B095A095909581959F4FAF4F13
:1024E000BF4F8093170590931805A0931905B093DB
:1024F0001A058093130590931405A0931505B093C6
:10250000160580930F0590931005A0931105B093C5
:10251000120510920B0510920C0510920D051092E9
:102520000E05C0911C05D0911D052881223009F4AB
:1025300033C250F0243009F435C208F42FC22530DC
:1025400009F039C280E02FC23D8530931B054091D0
:102550001705509118056091190570911A05898128
:102560009A81AB81BC81840F951FA61FB71F8093F2
:10257000170590931805A0931905B0931A054E8579
:102580005F8568897989181619061A061B0644F5AD
:10259000316030931B05841B950BA60BB70B809302
:1025A000170590931805A0931905B0931A0580910B
:1025B0001E0590911F05A0912005B091210533FFC4
:1025C00004C00197A109B10903C00196A11DB11D65
:1025D00080931E0590931F05A0932005B0932105BD
:1025E000C0901305D0901405E0901505F0901605E5
:1025F0008D819E81AF81B8858C0D9D1DAE1DBF1D47
:102600008093130590931405A0931505B0931605B8
:10261000181619061A061B0654F530911B05326070
:1026200030931B05841B950BA60BB70B80931305EA
:1026300090931405A0931505B0931605809122057B
:1026400090912305A0912405B091250534FF04C085
:102650000197A109B10903C00196A11DB11D809385
:10266000220590932305A0932405B0932505C090DF
:102670000F05D0901005E0901105F09012058985A6
:102680009A85AB85BC858C0D9D1DAE1DBF1D8093AD
:102690000F0590931005A0931105B093120518161D
:1026A00019061A061B0654F530911B053460309349
:1026B0001B05841B950BA60BB70B80930F059093FE
:1026C0001005A0931105B0931205809126059091F5
:1026D0002705A0912805B091290535FF04C0019771
:1026E000A109B10903C00196A11DB11D8093260562
:1026F00090932705A0932805B0932905C0900B055A
:10270000D0900C05E0900D05F0900E058FEFC81AE3
:10271000D80AE80AF80AC0920B05D0920C05E0929C
:102720000D05F0920E0590911B0580E3892780939B
:102730001B05C416D506E606F70608F028C18DA9C4
:102740009EA9AFA9B8ADC816D906EA06FB0608F0DF
:1027500040C00E94F20E882309F42DC149A95AA94C
:102760006BA97CA98091FA049091FB04A091FC04D0
:10277000B091FD04840F951FA61FB71F8093FA0424
:102780009093FB04A093FC04B093FD044A895B89F9
:102790006C897D89481759076A077B0740F4409385
:1027A000FA045093FB046093FC047093FD04C09002
:1027B000FA04D090FB04E090FC04F090FD04C70103
:1027C000B6010E94250F8881813009F064C080E045
:1027D000DBC089AD9AADABADBCADC816D906EA0673
:1027E000FB0669F480E49CE9A0E0B0E08093FE047D
:1027F0009093FF04A0930005B0930105DCC0C816B8
:10280000D906EA06FB0608F44BC00E94F20E8823A4
:1028100009F4D1C08091FA049091FB04A091FC04CA
:10282000B091FD0449A95AA96BA97CA94817590779
:102830006A077B0768F4841B950BA60BB70B809384
:10284000FA049093FB04A093FC04B093FD0408C029
:102850001092FA041092FB041092FC041092FD04F2
:102860008DA59EA5AFA5B8A94091FA045091FB048F
:102870006091FC047091FD04481759076A077B07B3
:1028800008F095CF8093FA049093FB04A093FC0486
:10289000B093FD048CCFC701B6010E94830F8BC09B
:1028A0006A897B898C899D890091FA041091FB04C7
:1028B0002091FC043091FD040617170728073907FB
:1028C00051F06093FA047093FB048093FC0490939E
:1028D000FD040E94250F8881813009F054C0809149
:1028E000070590910805A0910905B0910A052AE015
:1028F000CC0CDD1CEE1CFF1C2A95D1F7892B8A2BF2
:102900008B2B41F4C0920705D0920805E09209058F
:10291000F0920A058091070590910805A09109059C
:10292000B0910A05C816D906EA06FB0608F443C0AA
:10293000ED96488159816A817B81840F951FA61F7E
:10294000B71F8093070590930805A0930905B093DE
:102950000A05F8940E9421027894282F30E020582C
:102960003109220F331FE0911C05F0911D0546A18E
:10297000429FC001439F900D11246FEF70E00E94B1
:102980002918862F01C08EA10E94C50E14C02130C7
:1029900061F40E94490209C081E001C080E00E9408
:1029A000D50E03C081E00E94DB0E10921D0510922F
:1029B0001C050E943C0E10920605FF91EF91DF91DD
:1029C000CF91BF91AF919F918F917F916F915F91C7
:1029D0004F913F912F911F910F91FF90EF90DF90BA
:1029E000CF900F900FBE0F901F90189580E00E941F
:1029F000CF0F81E00C94CF0F5058BB27AA270E941D
:102A000014150C94E5160E94D71638F00E94DE16B5
:102A100020F039F49F3F19F426F40C94D4160EF4E8
:102A2000E095E7FB0C94A516E92F0E94F61658F3E3
:102A3000BA17620773078407950720F079F4A6F5A3
:102A40000C9430170EF4E0950B2EBA2FA02D0B012D
:102A5000B90190010C01CA01A0011124FF27591BE3
:102A600099F0593F50F4503E68F11A16F040A22FE9
:102A7000232F342F4427585FF3CF4695379527955A
:102A8000A795F0405395C9F77EF41F16BA0B620B59
:102A9000730B840BBAF09150A1F0FF0FBB1F661FA0
:102AA000771F881FC2F70EC0BA0F621F731F841FE3
:102AB00048F4879577956795B795F7959E3F08F009
:102AC000B0CF9395880F08F09927EE0F97958795CB
:102AD00008950E94181790F09F3748F4911116F44A
:102AE0000C94311760E070E080E89FE3089526F0D1
:102AF0001B16611D711D811D0C94AB160C94C6161E
:102B00000E94811608F481E008950E9499150C94A2
:102B1000E5160E94DE1658F00E94D71640F029F400
:102B20005F3F29F00C94A51651110C9431170C94A9
:102B3000D4160E94F61668F39923B1F3552391F346
:102B4000951B550BBB27AA2762177307840738F01C
:102B50009F5F5F4F220F331F441FAA1FA9F335D079
:102B60000E2E3AF0E0E832D091505040E695001C2D
:102B7000CAF72BD0FE2F29D0660F771F881FBB1FE7
:102B8000261737074807AB07B0E809F0BB0B802DC5
:102B9000BF01FF2793585F4F3AF09E3F510578F0F1
:102BA0000C94A5160C9431175F3FE4F3983ED4F3D0
:102BB000869577956795B795F7959F5FC9F7880FC5
:102BC000911D9695879597F90895E1E0660F771F17
:102BD000881FBB1F621773078407BA0720F0621BA8
:102BE000730B840BBA0BEE1F88F7E09508950E94D3
:102BF000FE156894B1110C94311708950E94FE16C9
:102C000088F09F5798F0B92F9927B751B0F0E1F0AD
:102C1000660F771F881F991F1AF0BA95C9F714C05D
:102C2000B13091F00E943017B1E008950C94301744
:102C3000672F782F8827B85F39F0B93FCCF3869596
:102C400077956795B395D9F73EF4909580957095F3
:102C500061957F4F8F4F9F4F0895E89409C097FB70
:102C60003EF490958095709561957F4F8F4F9F4F63
:102C70009923A9F0F92F96E9BB279395F6958795A7
:102C800077956795B795F111F8CFFAF4BB0F11F46A
:102C900060FF1BC06F5F7F4F8F4F9F4F16C0882311
:102CA00011F096E911C0772321F09EE8872F762F47
:102CB00005C0662371F096E8862F70E060E02AF088
:102CC0009A95660F771F881FDAF7880F9695879574
:102CD00097F908950E94181790F09F3748F49111C2
:102CE00016F00C94311760E070E080E89FEB0895D7
:102CF00026F41B16611D711D811D0C94AB160C94DE
:102D0000C616990F0008550FAA0BE0E8FEEF16163D
:102D10001706E807F907C0F012161306E407F507CF
:102D200098F0621B730B840B950B39F40A2661F043
:102D3000232B242B252B21F408950A2609F4A140E6
:102D4000A6958FEF811D811D089597F99F6780E8F3
:102D500070E060E00895882371F4772321F09850A3
:102D6000872B762F07C0662311F499270DC0905149
:102D7000862B70E060E02AF09A95660F771F881F17
:102D8000DAF7880F9695879597F908959F3F31F068
:102D9000915020F4879577956795B795880F911D89
:102DA0009695879597F908959FEF80EC08950024F4
:102DB0000A941616170618060906089500240A94A0
:102DC00012161306140605060895092E0394000C26
:102DD00011F4882352F0BB0F40F4BF2B11F460FFB5
:102DE00004C06F5F7F4F8F4F9F4F089557FD9058DE
:102DF000440F551F59F05F3F71F04795880F97FBBF
:102E0000991F61F09F3F79F0879508951216130678
:102E10001406551FF2CF4695F1DF08C016161706A7
:102E20001806991FF1CF86957105610508940895DC
:102E30000E94FE16A0F0BEE7B91788F4BB279F38A2
:102E400060F41616B11D672F782F8827985FF7CF8B
:102E5000869577956795B11D93959639C8F3089532
:102E6000E894BB2766277727CB0197F908950E943E
:102E7000811608F48FEF08950E94FE1658F19E57B0
:102E800060F19851A0F0E9F0983020F5092E9927CB
:102E9000660F771F881F991F0A94D1F712C0062E5C
:102EA000672F782F8827985F11F4000C07C0993F8F
:102EB000B4F38695779567959395D9F7611D711D44
:102EC000811D3EF490958095709561957F4F8F4F51
:102ED0009F4F089568940C9431170C9430170E94FA
:102EE00082170C94E5160E94D71638F00E94DE1661
:102EF00020F0952311F00C94A5160C94D4161124EF
:102F00000C9431170E94F61670F3959FC1F3950F3C
:102F100050E0551F629FF001729FBB27F00DB11D5D
:102F2000639FAA27F00DB11DAA1F649F6627B00DED
:102F3000A11D661F829F2227B00DA11D621F739FD6
:102F4000B00DA11D621F839FA00D611D221F749FE4
:102F50003327A00D611D231F849F600D211D822F2B
:102F6000762F6A2F11249F5750409AF0F1F0882352
:102F70004AF0EE0FFF1FBB1F661F771F881F91507F
:102F80005040A9F79E3F510580F00C94A5160C9473
:102F900031175F3FE4F3983ED4F3869577956795B4
:102FA000B795F795E7959F5FC1F7FE2B880F911DA9
:102FB0009695879597F9089519F416F40C94D416FC
:102FC0000C94C6160E94FE16B8F39923C9F3B6F303
:102FD0009F57550B87FF0E9422180024A0E640EA65
:102FE000900180585695979528F4805C660F771F5E
:102FF000881F20F026173707480730F4621B730B31
:10300000840B202931294A2BA69517940794202553
:1030100031254A2758F7660F771F881F20F026179B
:103020003707480730F4620B730B840B200D311DFA
:10303000411DA09581F7B901842F9158880F96956D
:103040008795089591505040660F771F881FD2F7DB
:10305000089597FB072E16F4009407D077FD09D04A
:103060000E94781807FC05D03EF4909581959F4FFB
:103070000895709561957F4F0895A1E21A2EAA1BBD
:10308000BB1BFD010DC0AA1FBB1FEE1FFF1FA21718
:10309000B307E407F50720F0A21BB30BE40BF50B15
:1030A000661F771F881F991F1A9469F7609570959E
:1030B000809590959B01AC01BD01CF010895EE0F65
:1030C000FF1F0590F491E02D09940E948C18A59F94
:1030D000900DB49F900DA49F800D911D1124089513
:1030E000B7FF0C9465180E946518821B930B089516
:1030F000AA1BBB1B51E107C0AA1FBB1FA617B7071E
:1031000010F0A61BB70B881F991F5A95A9F7809539
:103110009095BC01CD010895A29FB001B39FC0015D
:10312000A39F700D811D1124911DB29F700D811DF3
:0A3130001124911D0895F894FFCFBB
:02313A00010191
:00000001FF
