:100000000C945A000C9481000C9481000C94810093
:100010000C9481000C9481000C9481000C9481005C
:100020000C9481000C949E110C9481000C94AF11DF
:100030000C9481000C9481000C9481000C9481003C
:100040000C9492110C9481000C946D010C941C0181
:100050000C9481000C9481000C9481000C9481001C
:100060000C9481000C94810006078D04E104B20415
:10007000EE04F104F404F904FE043C056D059E054C
:10008000A005A205A4055606FF064406FF066C0659
:100090009906C606FF06FF06FF06FF06FF06610675
:1000A000FF06FF064F06FF06FF06FF06FF06C10517
:1000B000ED051906E9EAF6E085EC98E001C08193C8
:1000C000EF3FF907E0F3D9F311241FBECFEFD8E0DB
:1000D000DEBFCDBF11E0A0E0B1E0EEE2F3E302C08D
:1000E00005900D92A230B107D9F726E0A2E0B1E069
:1000F00001C01D92A93AB207E1F70E9483000C9457
:1001000095190C94000078940E94B2000E94980205
:100110000E94B00E0E9432110E94C80E0E94F80E7A
:100120000E94610480E090E0089510920301109213
:1001300002010895909109019F5F903809F490E0C1
:10014000209108019217E1F3E0910901F0E0E75DE9
:10015000F94F8083909309018091C1008062809360
:10016000C10008951092C50080E18093C400E0ECC6
:10017000F0E080818D7F8083E1ECF0E08081806120
:1001800080838081886080838081806880838EE71F
:100190000C949A00CF92DF92EF92FF92CF93C82FE8
:1001A000CB01BA0120E030E04AE754E40E94711824
:1001B0000E943E186B017C0128EFF21A8C2D80689A
:1001C0000E949A00D701C60180789F73AA27BB2797
:1001D00027E0B695A795979587952A95D1F78058EA
:1001E0000E949A00D701C6018827907CAF71BB2777
:1001F0003EE0B695A795979587953A95D1F78058A3
:100200000E949A00CC24DD2480EEE8228FE0F822C0
:10021000D701C60145E1B695A795979587954A956B
:10022000D1F780580E949A008C2FCF91FF90EF90C9
:10023000DF90CF900C949A001F920F920FB60F92FE
:1002400011248F939F93EF93FF93809108019091D6
:100250000501992331F095E09093C60010920501B5
:100260000DC0E82FF0E0E75DF94F90819093C60054
:100270008F5F803809F480E0809308019091090134
:10028000891305C08091C1008F7D8093C100FF91CB
:10029000EF919F918F910F900FBE0F901F90189527
:1002A000E0910A01F0E0E75DFA4F808190910A0148
:1002B0009F5F90930A01909104019F5F90930401C6
:1002C000903151F491E0909305019091C1009062BA
:1002D0009093C1001092040108951F920F920FB6DF
:1002E0000F9211242F933F934F935F936F937F93BC
:1002F0008F939F93AF93BF93CF93EF93FF93C0914F
:10030000C60080910001882329F010920001C0935B
:1003100007013DC081E08093000180910701C8176B
:1003200019F08DE30E94FD0FC031F8F4C13011F4D3
:1003300081E224C0C23069F41092030110920201DC
:1003400010920A0110920B01109204010E940F10EA
:100350001EC0C33019F40E94D60219C0C43019F46B
:100360000E94DA0214C083E209C0E0910B0181E02F
:100370008E0F90910A01891304C082E20E94FD0F42
:1003800006C0F0E0E75DFA4FC08380930B01FF9158
:10039000EF91CF91BF91AF919F918F917F916F918D
:1003A0005F914F913F912F910F900FBE0F901F9033
:1003B0001895CF93C1E080910301882301F18091CA
:1003C00002018823C9F01092060190910A018091E0
:1003D0000B0198130BC080910601811104C00E948B
:1003E000DE02C09306010E94EA02EFCF0E94500194
:1003F000813111F4109203010E94EA02DCCF1092C5
:100400000601C1E090910A0180910B0198130BC085
:1004100080910601811104C00E94DE02C093060192
:100420000E94EA02EFCF0E945001803131F481E056
:10043000809303011092020181E4CF91089580918D
:1004400003018823C9F080910201811115C09091A8
:100450000A0180910B01981303C00E94DE020CC0B8
:100460000E94500187FD09C0813119F410920301E7
:1004700003C083E20E94FD0F80E8089520910A01E5
:1004800090910B0181E0291301C080E0089581E083
:10049000809302010895E1E1F1E0438150E060E0E2
:1004A00070E0405851096109710987E0440F551FF8
:1004B000661F771F8A95D1F7828190E0A0E0B0E0B7
:1004C00080589109A109B109840F951FA61FB71F74
:1004D000AC01BD0197E0440F551F661F771F9A9529
:1004E000D1F7818190E0A0E0B0E080589109A109A6
:1004F000B109840F951FA61FB71F27E0880F991F0A
:10050000AA1FBB1F2A95D1F72081820F911DA11D23
:10051000B11DBC01CD0160587109810998400E944C
:10052000311720E030E04AE754E40E94871608952E
:10053000E6E1F1E081E0808340E050E06AEF75E4BD
:1005400042835383648375831682178210861186D3
:100550001286138614861586168640E050E060EAFF
:1005600070E44787508B618B728B438B548B658B08
:10057000768B178A108E118E128E9CE0E1E3F1E0EB
:10058000DF01292F1D922A95E9F7EDE3F1E0DF0164
:100590001D929A95E9F78093100180930F011092B4
:1005A0000E0110920D0180930C01089581E080935B
:1005B0001001089581E080930F01089580910D014D
:1005C00090910E01019690930E0180930D0110926F
:1005D0000C010895CF92DF92EF92FF920F931F9339
:1005E000CF93DF9300D000D0CDB7DEB729B189B16A
:1005F000982F991F9927991F22FB882780F9892B0B
:1006000011F44B9B03C080E00E94CF0E0E940C109F
:100610008823D1F00E94550E0E94DA106B017C01F4
:100620000E94C9109B01AC0169833A834B835C83B0
:100630000E94B8108701760129813A814B815C8143
:100640000E945A0E1092150180911001811105C06F
:1006500080910F01882309F427C1109210010E9494
:100660002B0E811112C00E943E0281110EC00E9409
:100670000C1081110AC081E40E949A0083B7816046
:1006800083BF889583B78E7F83BF29B189B1982FA7
:10069000991F9927991F22FB882780F9892B19F028
:1006A00082E40E949A004B9B03C083E40E949A005C
:1006B0000E940910182F803211F00E949A00309B7E
:1006C00005C0143219F084E20E949A00319B05C0E3
:1006D000153219F085E20E949A00329B05C016324D
:1006E00019F086E20E949A00339B05C01A3219F075
:1006F0008AE20E949A000E94B81020E030E040EAAE
:1007000050E40E94FE152091310130913201409158
:100710003301509134010E94FE15AB01BC0188E702
:100720000E94CA000E94C91020E030E040EA50E474
:100730000E94FE152091350130913601409137011C
:10074000509138010E94FE15AB01BC0189E70E945F
:10075000CA000E94DA102091390130913A0140918B
:100760003B0150913C010E94FE15AB01BC018AE7A0
:100770000E94CA0080910C01811110C060910D018E
:1007800070910E0180E090E00E942F17AB01BC0138
:1007900087E70E94CA0081E080930C01E9EAF6E055
:1007A000BF01695A76408081853C09F466C080E0CB
:1007B00090E00E942F17AB01BC0185E70E94CA00A0
:1007C00080910F01882309F460C010920F0140E06E
:1007D00050E265ED74E486E70E94CA004091310161
:1007E00050913201609133017091340181E60E9491
:1007F000CA004091350150913601609137017091E6
:10080000380182E60E94CA004091390150913A01B4
:1008100060913B0170913C0183E60E94CA004091C7
:1008200018015091190160911A0170911B0187E61E
:100830000E94CA0060911C0170E080E090E00E947C
:100840002F17AB01BC0188E60E94CA0040911D0130
:1008500050911E0160911F017091200189E60E9454
:10086000CA004091210150912201609123017091B1
:1008700024018AE60E94CA0008C088E0EF3FF8071A
:1008800011F008F094CF31968BCF86E00F900F9047
:100890000F900F90DF91CF911F910F91FF90EF90EC
:1008A000DF90CF900C949A000F900F900F900F90C4
:1008B000DF91CF911F910F91FF90EF90DF90CF903C
:1008C0000895CF93DF9300D000D0CDB7DEB781E39A
:1008D000482E81E0582E9CE0992E772473940E9434
:1008E000D901182F0E940C10882319F00E94EA02E7
:1008F000F6CF17FD8EC28FEB810F8A3108F02AC127
:10090000812F90E0FC01E154F109EF30F10508F08E
:100910001FC1EC5CFF4F0C946119A0901801B090BE
:100920001901C0901A01D0901B01E0902D01F090A8
:100930002E0100912F011091300120912901309159
:100940002A0140912B0150912C0160912501709159
:10095000260180912701909128011F921F921F92DA
:100960001F922CC0A0901801B0901901C0901A01DC
:10097000D0901B01E0902D01F0902E0100912F01ED
:10098000109130012091290130912A0140912B01D1
:1009900050912C01609125017091260180912701D1
:1009A00090912801E0912401EF93E0912301EF93CE
:1009B000E0912201EF93E0912101EF9380901C01DF
:1009C00054C060911D0170911E0180911F01909192
:1009D000200140911C010E94F70D18C210921601CF
:1009E00015C27092160112C28091160180931701F0
:1009F0000DC2809117018093160108C20E94F01465
:100A0000F201892D11928A95E9F780E090E0A0EA41
:100A1000B0E48093250190932601A0932701B09321
:100A200028018093290190932A01A0932B01B09370
:100A30002C0110922D0110922E0110922F01109274
:100A40003001A0901801B0901901C0901A01D09007
:100A50001B011F921F921F921F92812CE12CF12CDF
:100A600087019C01AD01BC01CD010E94BF080F9020
:100A70000F900F900F90CAC1809131019091320177
:100A8000A0913301B091340180933D0190933E01D8
:100A9000A0933F01B09340018091350190913601C0
:100AA000A0913701B09138018093410190934201A8
:100AB000A0934301B09344018091390190913A0190
:100AC000A0913B01B0913C01809345019093460178
:100AD000A0934701B093480199C180913D01909145
:100AE0003E01A0913F01B09140018093310190936C
:100AF0003201A0933301B093340180914101909170
:100B00004201A0914301B09144018093350190933B
:100B10003601A0933701B09338018091450190913F
:100B20004601A0914701B09148018093390190930B
:100B30003A01A0933B01B0933C0168C182E005C03B
:100B400083E003C084E001C085E00E94F80D5EC12F
:100B50008CE35AC18FE9810F8A3108F054C180912A
:100B60001501843009F04DC1812F90E0FC01E4565D
:100B7000F109E731F10508F042C1ED5BFF4F0C943C
:100B8000611980911601813089F40E944B0220E0A6
:100B900030E040EA50E40E94FF152091310130918D
:100BA000320140913301509134010CC00E944B023C
:100BB0009B01AC0160912501709126018091270174
:100BC000909128010E94FF156093250170932601E2
:100BD000809327019093280119C1809116018130DB
:100BE00089F40E944B0220E030E040EA50E40E9489
:100BF000FF15209135013091360140913701509118
:100C000038010CC00E944B029B01AC01609129018C
:100C100070912A0180912B0190912C010E94FF1567
:100C20006093290170932A0180932B0190932C01EA
:100C3000EDC080911601813081F40E944B0220E0CA
:100C400030E0A9010E94FF152091390130913A014D
:100C500040913B0150913C010CC00E944B029B0112
:100C6000AC0160912D0170912E0180912F01909126
:100C700030010E94FF1560932D0170932E01809327
:100C80002F0190933001C2C00E944B026093180163
:100C90007093190180931A0190931B01B7C00E94B1
:100CA0004B020E94001760931C01B0C00E944B02CF
:100CB00060931D0170931E0180931F01909320018A
:100CC000A5C00E944B026093210170932201809382
:100CD0002301909324019AC00E944B026B017C0176
:100CE00080911601813049F4C0923101D0923201D5
:100CF000E0923301F092340189C00E94FA0F8823F8
:100D000019F00E94EA02F9CF0E94B81020E030E00A
:100D100040EA50E40E94FE15A70196010E94FF15CB
:100D200060933101709332018093330190933401C9
:100D30006DC00E944B026B017C01809116018130D5
:100D400049F4C0923501D0923601E0923701F09219
:100D500038015CC00E94FA0F882319F00E94EA0251
:100D6000F9CF0E94C91020E030E040EA50E40E9430
:100D7000FE15A70196010E94FF156093350170933F
:100D80003601809337019093380140C00E944B0296
:100D90009B01AC0180911601813049F42093390107
:100DA00030933A0140933B0150933C012FC029837B
:100DB0003A834B835C830E94FA0F29813A814B81ED
:100DC0005C81882359F029833A834B835C830E949A
:100DD000EA025C814B813A812981E9CF0E94DA10D5
:100DE00029813A814B815C810E94FF156093390112
:100DF00070933A0180933B0190933C0107C08EE3CE
:100E000003C08AE301C083E20E94FD0F1092150126
:100E10006DCDE0911501E43048F481E08E0F8093B0
:100E20001501F0E0EF5EFE4F108360CD8AE30E9473
:100E3000FD0F5CCD2F923F924F925F926F927F9207
:100E40008F929F92AF92BF92CF92DF92EF92FF92DA
:100E50000F931F93CF93DF93CDB7DEB760970FB695
:100E6000F894DEBF0FBECDBF1C012A013B01480133
:100E70005901FC0162897389848995890E942F1721
:100E80006B017C01A30192010E9471180E946B16F4
:100E90000E9400172B013C01F10161A772A783A7F3
:100EA00094A7A5019401C701B6010E9471180E9480
:100EB0006B160E9400174B015C01F10165A776A734
:100EC00087A790AB21A932A943A954A9A0EEBEE2FD
:100ED0000E94671969837A838B839C830E943117F0
:100EE0006D837E838F839887C301B2010E942F1781
:100EF0002B013C01A7019601C701B6010E947118A0
:100F00006B017C01A3019201C301B2010E9471181F
:100F100069877A878B879C872D813E814F81588591
:100F2000CA01B9010E94FF156D877E878F87988B54
:100F300029853A854B855C85C701B6010E94FE155F
:100F40002D853E854F8558890E9487160E946B1615
:100F50000E94F9162B013C01C501B4010E942F1714
:100F60009B01AC010E9471184B015C01A701960125
:100F70000E94FE156B017C0169817A818B819C81C5
:100F800090958095709561957F4F8F4F9F4F0E94F0
:100F900031179B01AC010E94FF159B01AC01C701F9
:100FA000B6010E9487160E946C17F101C684D7848F
:100FB000E088F188A70196012419350946095709E7
:100FC00029833A834B835C830E94F91629813A81F5
:100FD0004B815C81261B370B480B590BDA01C90189
:100FE00057FF3DC0C701B6010E9431179B01AC01FC
:100FF0006D857E858F8598890E94711829853A852F
:101000004B855C850E94FE15A50194010E94FF1589
:101010004B015C0120E030E040E850E46D817E81CE
:101020008F8198850E9471189B01AC01C501B401A4
:101030000E9487160E946B160E94F91697FF03C044
:1010400060E070E0CB012B013C01C616D706E80634
:10105000F90614F42601370180E090E0DC01F1018B
:1010600045AA56AA67AA70AE480E591E6A1E7B1E74
:1010700041AE52AE63AE74AE60960FB6F894DEBF6A
:101080000FBECDBFDF91CF911F910F91FF90EF90D9
:10109000DF90CF90BF90AF909F908F907F906F9098
:1010A0005F904F903F902F9008954F925F926F9274
:1010B0007F92AF92BF92CF92DF92EF92FF920F9307
:1010C0001F93CF93DF93FC0120A5211149C0EB01B1
:1010D0008C01428C538C648C758CAA8CBB8CCC8C10
:1010E000DD8C9501A601C301B2010E94821687FF23
:1010F00037C0A3019201C301B2010E9471182B01F4
:101100003C0120E03AEB4BE55AECF80162A173A1F7
:1011100084A195A10E9471189B01AC01C301B20189
:101120000E94FE150E94E4187B018C019B01AC011A
:10113000B501C6010E94821687FF02C075018601B3
:101140009701A801B501C6010E948216882341F0CB
:10115000A701B8014A8F5B8F6C8F7D8F81E08FA3D1
:10116000DF91CF911F910F91FF90EF90DF90CF9083
:10117000BF90AF907F906F905F904F9008952F92A7
:101180003F924F925F926F927F928F929F92AF9217
:10119000BF92CF92DF92EF92FF920F931F93CF9364
:1011A000DF93CDB7DEB7A4970FB6F894DEBF0FBEBE
:1011B000CDBF29013A01E986FA860B871C87A982EF
:1011C000BE82CF82D886C9ACDAACEBACFCAC2CE1E9
:1011D00037EC41EB52E40E9471180E943E186D8B6F
:1011E0007E8B8F8B988F24E731ED45EB52E4C30162
:1011F000B2010E9471180E943E18698F7A8F8B8FFE
:101200009C8F25E535E545E052E469857A858B8537
:101210009C850E9471180E943E186D8F7E8F8F8F63
:1012200098A3809166018F5F89878E3009F41986B3
:101230004984042D440C110B8091650190E08017C6
:10124000910719F40E94EA02F7CF80916601282ED7
:10125000312C20E030E0A901C701B6010E948216BE
:10126000882311F181E4829D8001839D100D11245A
:1012700009591E4F81E0D8018C932CE137EC41EBEA
:1012800052E4C701B6010E94711820E030E040E846
:1012900054E40E9471180E943E18F801FD96608384
:1012A00071838283938309C081E4829DF001839DD1
:1012B000F00D1124E959FE4F108281E4829DF00166
:1012C000839DF00D1124E959FE4F86A21586809169
:1012D000590190915A01A0915B01B0915C014D8838
:1012E0005E886F88788C481659066A067B0614F467
:1012F00028E0258780905D0190905E01A0905F01BD
:10130000B0906001498C5A8C6B8C7C8C48145904C9
:101310006A047B045CF421E4229DF001239DF00D1E
:101320001124E959FE4F258520612587C090610170
:10133000D0906201E0906301F09064014D8C5E8C6E
:101340006F8C78A04C145D046E047F045CF421E47F
:10135000229DF001239DF00D1124E959FE4F2585B2
:10136000206225874D885E886F88788C481A590AD4
:101370006A0A7B0AC301B2014A825B826C827D8267
:1013800077FE0BC022273327A90124193509460906
:1013900057092A833B834C835D8341E4429D90013E
:1013A000439D300D1124F901E959FE4F4A805B80BD
:1013B0006C807D804182528263827482498C5A8C17
:1013C0006B8C7C8C481859086A087B0853014201D1
:1013D00077FE07C0442455243201481859086A088A
:1013E0007B0841E4429D9001439D300D1124F90199
:1013F000E959FE4F45825682678270862D8D3E8D5B
:101400004F8D58A12C193D094E095F0969017A01D8
:10141000298B3A8B4B8B5C8B57FF0BC022273327D2
:10142000A9012C193D094E095F09298B3A8B4B8B79
:101430005C8BE1E4E29DA001E39D500D1124FA01D3
:10144000E959FE4F29893A894B895C89218732877E
:10145000438754874D865E866F86788A2A813B81D2
:101460004C815D81421653066406750620F42D8773
:101470003E874F87588B4D845E846F847888298996
:101480003A894B895C89421653066406750610F446
:1014900029013A0121E4229D8001239D100D112490
:1014A00009591E4FD8011E964D925D926D927C9205
:1014B0005197411451046104710409F47FC30E94DF
:1014C00031172CE137EC41EB52E40E9487166D870F
:1014D0007E878F87988BC501B4010E94311724E75E
:1014E00031ED45EB52E40E948716698B7A8B8B8B2A
:1014F0009C8BC701B6010E94311725E535E545E013
:1015000052E40E9487164B015C012D853E854F8574
:101510005889CA01B9010E9471186B017C0129899F
:101520003A894B895C89CA01B9010E9471189B01F3
:10153000AC01C701B6010E94FF156B017C01A5013A
:101540009401C501B4010E9471189B01AC01C7014F
:10155000B6010E94FF150E94E4186A837B838C8386
:101560009D83F80162A373A384A395A39B01AC019F
:1015700060E070E080E89FE30E9487166B017C01C9
:1015800089819E81AF81B885F801868B978BA08F6A
:10159000B18FC301B2010E9431172B013C01A70199
:1015A000960169817E818F8198850E9471189B01C7
:1015B000AC01C301B2010E9471180E946B160E9417
:1015C0000017D80152966D937D938D939C935597F8
:1015D000A7019601C301B2010E94711820E03AEB05
:1015E0004BED59E40E94711820E030E84BE356E4DB
:1015F0000E9487160E946B160E940017F80161ABCB
:1016000072AB83AB94ABA70196016D857E858F8508
:1016100098890E9471186D877E878F87988BA701A4
:10162000960169897A898B899C890E947118698BD6
:101630007A8B8B8B9C8BA7019601C501B4010E940C
:1016400071182B013C0190916601809165019817FA
:1016500009F4ABC0E0904901F0904A0100914B01C0
:1016600010914C0120E030E0A901B701C8010E94AF
:10167000391818160CF099C080914D0190914E01C7
:10168000A0914F01B0915001BC01CD0190582D8522
:101690003E854F8558890E9471184B015C0120914D
:1016A0005101309152014091530150915401698987
:1016B0007A898B899C890E9471189B01AC01C501B4
:1016C000B4010E94FE154B015C012091550130913F
:1016D00056014091570150915801C301B2010E9437
:1016E00071189B01AC01C501B4010E94FE154B01AC
:1016F0005C0123E333E343E75FE30E94821687FF45
:1017000054C029813E814F815885B701C8010E948C
:10171000821687FD04C0E980FE800F81188523E3CF
:1017200033E343E75FEBC501B4010E943918181693
:101730000CF03FC0A501940160E070E080E89FE3F9
:101740000E94FE1520E030E040E05FE30E94711847
:101750000E94E4184B015C0120E030EC48E256E4C2
:101760000E94711869A37AA38BA39CA3A50194017D
:1017700060E070E080E89FE30E94FE159B01AC01F1
:1017800069A17AA18BA19CA10E9487160E94E418EE
:101790005B016C019B01AC01B701C8010E9482167C
:1017A00087FD07C07501860104C0E12CF12C00E023
:1017B00010E081E4829DF001839DF00D1124E95930
:1017C000FE4FC701D801868F978FA0A3B1A320E059
:1017D0003AEB4BE55AEC6A817B818C819D810E94BA
:1017E00071189B01AC0160E070E0CB010E94FE1516
:1017F0000E94E4185B016C019B01AC01B701C801B8
:101800000E94821687FD04C075019C2D8D2D02C09B
:10181000902F812F21E4229D8001239D100D112402
:1018200009591E4FA701692F782FD8015A964D9359
:101830005D936D937C935D979501A60169817E818F
:101840008F8198850E948216181624F081E0F80195
:1018500080A703C0D80198961C9281E4829DF00174
:10186000839DF00D1124E959FE4F81E087A32D855A
:101870003E854F85588920934D0130934E0140930A
:101880004F015093500189899A89AB89BC89809313
:10189000510190935201A0935301B093540140928F
:1018A00055015092560160925701709258018981FA
:1018B0009E81AF81B8858093490190934A01A0939E
:1018C0004B01B0934C014984409266014D885E887B
:1018D0006F88788C4092590150925A0160925B0156
:1018E00070925C01498C5A8C6B8C7C8C40925D01AF
:1018F00050925E0160925F01709260014D8C5E8C2F
:101900006F8C78A0409261015092620160926301F5
:1019100070926401F0906601E0E0F0E000E010E019
:101920008091650190E02F2D0F2C000C330B2817B0
:10193000390709F47DC0F11002C03EE0F32EFA949D
:1019400021E43F2D3203C0011124AC0149595E4FFF
:101950004A010115110509F468C0309709F465C002
:10196000D80198968C9198975E962C905E975F968A
:101970003C905F979096AC90909791964C9049824E
:10198000811147C0B22CC32CDA2CE42C428C538C2E
:10199000648C758CA3019201622D732D8A2D9E2D6E
:1019A0000E9439181816ACF5A3019201C301B201C7
:1019B0000E9471182B013C0120E03AEB4BE55AECF8
:1019C000D80192966D917D918D919C9195970E94F1
:1019D00071189B01AC01C301B2010E94FE150E9467
:1019E000E418562E672E782EA92E262F372F482F33
:1019F000592F622D732D8D2D9E2D0E94821687FDED
:101A000003C0B52C6301EA2C8B2D9C2DAD2DBE2D72
:101A100003C0C101AA2DB981F801828F938FA48FD1
:101A2000B58FE1E0D8019796EC93F801840178CF67
:101A3000F090650100E010E080E090E021E4E22E0B
:101A40004F2D0F2C000C550B2091660130E04217F2
:101A50005307C9F0E49E9001E59E300D1124A901C1
:101A600049595E4F6A01009731F00115110519F0CF
:101A7000B8010E945508F3945EE0F51201C0F12C04
:101A8000C8018601DDCF009731F00115110519F06D
:101A9000B8010E945508D0906501E12CF12C81E439
:101AA000C82E4D2D0D2C000C550B8091660190E039
:101AB0004817590709F446C0C49EC001C59E900D41
:101AC0001124DC01A959BE4F1D01E114F10499F163
:101AD000F70187A1811104C097968C91882359F151
:101AE000D70156964D905D906D907C905997C49E0D
:101AF000F001C59EF00D1124E959FE4FA30192019A
:101B0000628D738D848D958D0E9487164B015C01CB
:101B1000A3019201F701628D738D848D958D0E94D2
:101B20008716AB01BC0195018401C7010E941A0709
:101B3000D70197961C92D394BEE0DB1201C0D12C42
:101B40007101AFCFF70186889788A08CB18CA50171
:101B5000940160E070E0CB010E9487162B013C01EC
:101B6000A5019401D7015A966D917D918D919C911B
:101B70005D970E948716AB01BC0193018201C701EA
:101B80000E941A07F70117A2A4960FB6F894DEBFB9
:101B90000FBECDBFDF91CF911F910F91FF90EF90BE
:101BA000DF90CF90BF90AF909F908F907F906F907D
:101BB0005F904F903F902F900C94DC0FA4960FB63F
:101BC000F894DEBF0FBECDBFDF91CF911F910F9173
:101BD000FF90EF90DF90CF90BF90AF909F908F904D
:101BE0007F906F905F904F903F902F900895089551
:101BF000FF920F931F93CF93DF931F92CDB7DEB762
:101C000090916601FF24F394F90E9EE0F91201C051
:101C1000F12C0F2D0F2C000C110B2091650130E0E1
:101C20002017310729F489830E94EA028981F5CFC0
:101C3000E091660191E4E99FF0011124E959FE4F1A
:101C40008083F09266010F90DF91CF911F910F91E9
:101C5000FF900C94DC0F209166019091650181E06A
:101C6000291301C080E0089590916601809165017B
:101C7000981749F08091650121E4829FC0011124E9
:101C800089599E4F089580E090E0089590916601F3
:101C900080916501981741F0809165018F5F8E30CA
:101CA00009F480E080936501089510926601109216
:101CB000650108958F929F92AF92BF92CF92DF926B
:101CC000EF92FF920F931F93CF93DF9349015A0135
:101CD000670178012CE137EC41EB52E40E94711866
:101CE0000E943E18C9E5D1E0688379838A839B838B
:101CF00024E731ED45EB52E4C501B4010E947118AF
:101D00000E943E186C837D838E839F8325E535E595
:101D100045E052E4C701B6010E9471180E943E18C6
:101D2000688779878A879B871092490110924A01B8
:101D300010924B0110924C018CE0EDE4F1E0DF01D8
:101D40001D928A95E9F7DF91CF911F910F91FF9036
:101D5000EF90DF90CF90BF90AF909F908F900895BD
:101D6000EF92FF920F931F931092660110926501FC
:101D7000E12CF12C870120E030E040EA50E4CA0178
:101D8000B9010E945A0E1F910F91FF90EF90089594
:101D90008AB183778AB987B1807C87B9089539B1D0
:101DA00099B1292F221F2227221F32FB992790F950
:101DB000922B11F44B9B02C018BC01C088BD893224
:101DC00010F082E005C08B3010F083E001C084E0A9
:101DD00085BD089588B50895882311F05C9A08950B
:101DE0005C980895882311F05E9A08955E9808958E
:101DF000559A88E085BD81E084BD84B5806284BD4C
:101E00008FEF87BD18BC549A80E00E94EC0E569A62
:101E100080E00C94F20E4091010550910205609112
:101E20000305709104058091FD049091FE04A0913A
:101E3000FF04B0910005840F951FA61FB71F8138BE
:101E400028E3920721E0A207B10550F48093FD0436
:101E50009093FE04A093FF04B093000580E00895E2
:101E600080589843A140B1098093FD049093FE04EB
:101E7000A093FF04B093000581E008959B01AC019D
:101E8000203486E038074105510520F420E436E08F
:101E900040E050E060E070E788E399E30E943F197A
:101EA0002115310581E04807510518F4B90190E08A
:101EB0002FC02115310588E048075105A8F4DA0143
:101EC000C901F3E0B695A79597958795FA95D1F74F
:101ED000BC019C01AD01A3E0220F331F441F551F1D
:101EE000AA95D1F791E014C0DA01C90126E0B695B0
:101EF000A795979587952A95D1F7BC019C01AD01CF
:101F0000E6E0220F331F441F551FEA95D1F792E0F8
:101F1000809181009F5F887F892B809381007093DF
:101F20008900609388002093010530930205409357
:101F300003055093040508958F929F92AF92BF922C
:101F4000CF92DF92EF92FF92CF93DF934B015C0130
:101F5000C0911B05D0911C058EA1682F70E080E018
:101F600090E00E9431176B017C01C501B4010E9411
:101F70002F174B015C016A897B898C899D890E949E
:101F80002F179B01AC01C501B4010E9487169B016C
:101F9000AC01C701B6010E9471180E940017862F7C
:101FA000DF91CF91FF90EF90DF90CF90BF90AF90F7
:101FB0009F908F900C94CF0E8091F80481110BC0EC
:101FC00081E08093F80488E080931A0580916F0087
:101FD000826080936F0008951092F80410921C059F
:101FE00010921B05EFE6F0E080818D7F808380E01A
:101FF0000C94CF0E8091F80408959091F7049111FC
:1020000007C08093F60481E08093F7040C94950058
:1020100008958091F60408958091F704089580E270
:102020008093F6041092F70408954F925F926F9296
:102030007F928F92AF92BF92CF92DF92EF92FF92F8
:102040000F931F93CF93DF93CDB7DEB72C970FB6C7
:10205000F894DEBF0FBECDBF69837A838B839C83E8
:1020600029013A01ED82FE820F831887A986BA867C
:10207000CB86DC868091F804882319F00E94EA025E
:10208000F9CFE12CF12C8701A8019701C801B70114
:102090000E945A0E8CE0EDE1F5E0DF011D928A9579
:1020A000E9F71F921F921F921F92812CAE8CBF8C5A
:1020B000C8A0D9A0A301920169817A818B819C81FA
:1020C0000E94BF080F900F900F900F908091F8041E
:1020D000882319F00E94EA02F9CFE12CF12C870144
:1020E000A8019701C801B7010E945A0E8CE0EDE1EA
:1020F000F5E0DF011D928A95E9F70E940F1081E05B
:102100008093F5041F921F921F921F92812CAE8C18
:10211000BF8CC8A0D9A029853A854B855C856D8187
:102120007E818F8198850E94BF080F900F900F903D
:102130000F908091F804882319F00E94EA02F9CFE9
:102140001092F5042C960FB6F894DEBF0FBECDBFEB
:10215000DF91CF911F910F91FF90EF90DF90CF9083
:10216000BF90AF908F907F906F905F904F90089549
:1021700060911D0570911E0580911F0590912005AD
:102180000E9431172CE137EC41EB52E40E94871694
:102190000895609121057091220580912305909109
:1021A00024050E94311724E731ED45EB52E40E94EB
:1021B0008716089560912505709126058091270561
:1021C000909128050E94311725E535E545E052E458
:1021D0000E94871608958F929F92AF92BF92CF92DE
:1021E000DF92EF92FF920F931F93CF93DF934901FA
:1021F0005A01670178012CE137EC41EB52E40E946F
:1022000071180E943E18CDE1D5E0688379838A83F6
:102210009B8324E731ED45EB52E4C501B4010E94F4
:1022200071180E943E186C837D838E839F8325E501
:1022300035E545E052E4C701B6010E9471180E94DD
:102240003E18688779878A879B87DF91CF911F9196
:102250000F91FF90EF90DF90CF90BF90AF909F9045
:102260008F900895EF92FF920F931F9384B18F6325
:1022700084B985B1807C886085B9E1E8F0E080812F
:102280008F7E8083808188608083E0E8F0E08081B9
:102290008D7F808380818E7F808380818F73808318
:1022A00080818F7C80831092B0001092B100E0E7B3
:1022B000F0E080818160808360E476E080E090E0FF
:1022C0000E943E0F80E00E94CF0E8CE0EDE1F5E031
:1022D000DF011D928A95E9F7E12CF12C870120E0BE
:1022E00030E040EA50E4CA01B9010E94EB101092BC
:1022F000FD041092FE041092FF041092000510924B
:102300001C0510921B051092F70480E28093F604DE
:10231000109205051092F5041F910F91FF90EF9018
:102320000C94EC0F1F920F920FB60F9211245D9830
:1023300015BC0F900FBE0F901F9018951F920F9213
:102340000FB60F9211248F9385B1887F85B91092B3
:10235000B1008F910F900FBE0F901F9018951F9294
:102360000F920FB60F921124CF92DF92EF92FF924D
:102370000F931F932F933F934F935F936F937F938D
:102380008F939F93AF93BF93CF93DF93EF93FF937D
:102390008091050581110BC381E080930505809133
:1023A000F704882329F00E94EC0F0E94550EFDC20D
:1023B0008091F504811122C029B189B1982F991F0C
:1023C0009927991F22FB882780F9892B11F44B9BB1
:1023D00003C080E00E94CF0E309B02C084E20BC09D
:1023E000319B02C085E207C0329B02C086E203C077
:1023F000339B04C08AE20E94FD0FD7C285B1909141
:102400001A059873877C892B85B985B1887F90914F
:102410001A05892B85B98AEF8093B20082E08093F8
:10242000B100789480911B0590911C05892B09F0CF
:1024300072C00E94340EEC0190931C0580931B0522
:10244000892B19F40E94EC0FB0C28881823008F009
:1024500062C0C9A4DAA4EBA4FCA4C092F904D0928F
:10246000FA04E092FB04F092FC0480E49CE9A0E012
:10247000B0E08093FD049093FE04A093FF04B0931A
:102480000005C701B6010E943E0F8881813061F4CA
:1024900080E00E94CF0E1092060510920705109260
:1024A00008051092090504C0C701B6010E949C0FDF
:1024B000E0911B05F0911C0586859785A089B1895F
:1024C000B595A79597958795B095A0959095819589
:1024D0009F4FAF4FBF4F8093160590931705A09362
:1024E0001805B09319058093120590931305A093D6
:1024F0001405B093150580930E0590930F05A093D6
:102500001005B093110510920A0510920B05109258
:102510000C0510920D05C0911B05D0911C0528815A
:10252000223009F433C250F0243009F435C208F4E3
:102530002FC2253009F039C280E02FC23D8530938B
:102540001A05409116055091170560911805709174
:10255000190589819A81AB81BC81840F951FA61FC3
:10256000B71F8093160590931705A0931805B09395
:1025700019054E855F8568897989181619061A0626
:102580001B0644F5316030931A05841B950BA60B8E
:10259000B70B8093160590931705A0931805B09379
:1025A000190580911D0590911E05A0911F05B09100
:1025B000200533FF04C00197A109B10903C00196AA
:1025C000A11DB11D80931D0590931E05A0931F05AD
:1025D000B0932005C0901205D0901305E09014052B
:1025E000F09015058D819E81AF81B8858C0D9D1D64
:1025F000AE1DBF1D8093120590931305A093140583
:10260000B0931505181619061A061B0654F53091D5
:102610001A05326030931A05841B950BA60BB70B75
:102620008093120590931305A0931405B09315059C
:102630008091210590912205A0912305B091240558
:1026400034FF04C00197A109B10903C00196A11D7F
:10265000B11D8093210590932205A0932305B0938B
:102660002405C0900E05D0900F05E0901005F09065
:10267000110589859A85AB85BC858C0D9D1DAE1D88
:10268000BF1D80930E0590930F05A0931005B09386
:102690001105181619061A061B0654F530911A056D
:1026A000346030931A05841B950BA60BB70B8093EF
:1026B0000E0590930F05A0931005B093110580911E
:1026C000250590912605A0912705B091280535FF95
:1026D00004C00197A109B10903C00196A11DB11D54
:1026E0008093250590932605A0932705B093280590
:1026F000C0900A05D0900B05E0900C05F0900D05F8
:102700008FEFC81AD80AE80AF80AC0920A05D092D0
:102710000B05E0920C05F0920D0590911A0588E0EA
:10272000892780931A05C416D506E606F70608F031
:1027300028C18DA99EA9AFA9B8ADC816D906EA06C9
:10274000FB0608F040C00E940B0F882309F42DC13E
:1027500049A95AA96BA97CA98091F9049091FA041E
:10276000A091FB04B091FC04840F951FA61FB71F16
:102770008093F9049093FA04A093FB04B093FC04B3
:102780004A895B896C897D89481759076A077B07E5
:1027900040F44093F9045093FA046093FB0470935F
:1027A000FC04C090F904D090FA04E090FB04F0908F
:1027B000FC04C701B6010E943E0F8881813009F0F8
:1027C00064C080E0DBC089AD9AADABADBCADC816CE
:1027D000D906EA06FB0669F480E49CE9A0E0B0E0D3
:1027E0008093FD049093FE04A093FF04B093000532
:1027F000DCC0C816D906EA06FB0608F44BC00E94E6
:102800000B0F882309F4D1C08091F9049091FA0448
:10281000A091FB04B091FC0449A95AA96BA97CA919
:10282000481759076A077B0768F4841B950BA60BAA
:10283000B70B8093F9049093FA04A093FB04B09330
:10284000FC0408C01092F9041092FA041092FB04E0
:102850001092FC048DA59EA5AFA5B8A94091F904DE
:102860005091FA046091FB047091FC0448175907D9
:102870006A077B0708F095CF8093F9049093FA04D8
:10288000A093FB04B093FC048CCFC701B6010E9457
:102890009C0F8BC06A897B898C899D890091F90482
:1028A0001091FA042091FB043091FC0406171707DD
:1028B0002807390751F06093F9047093FA04809364
:1028C000FB049093FC040E943E0F8881813009F044
:1028D00054C08091060590910705A0910805B0911C
:1028E00009052AE0CC0CDD1CEE1CFF1C2A95D1F753
:1028F000892B8A2B8B2B41F4C0920605D0920705B9
:10290000E0920805F092090580910605909107056F
:10291000A0910805B0910905C816D906EA06FB067C
:1029200008F443C0ED96488159816A817B81840F08
:10293000951FA61FB71F8093060590930705A093C8
:102940000805B0930905F8940E941F027894282F77
:1029500030E020583109220F331FE0911B05F09120
:102960001C0546A1429FC001439F900D11246FEFAB
:1029700070E00E942B19862F01C08EA10E94CF0EFD
:1029800014C0213061F40E94470209C081E001C0F7
:1029900080E00E94EC0E03C081E00E94F20E1092D3
:1029A0001C0510921B050E94460E10920505FF9112
:1029B000EF91DF91CF91BF91AF919F918F917F91D7
:1029C0006F915F914F913F912F911F910F91FF90C8
:1029D000EF90DF90CF900F900FBE0F901F90189543
:1029E0008F929F92AF92BF92CF92DF92EF92FF921F
:1029F0000F931F93CF93DF938091F804882319F0EE
:102A00000E94EA02F9CFE12CF12C8701A80197017D
:102A1000C801B7010E945A0E8CE0EDE1F5E0DF013C
:102A20001D928A95E9F781E08093F504309B17C0E9
:102A30001F921F921F921F92812CA12CB12CF8E49F
:102A4000CF2EF4E4DF2EA801970160E070E080E271
:102A500091E40E94BF080F900F900F900F90319B50
:102A60001AC01F921F921F921F92812CA12CB12C71
:102A7000E8E4CE2EE4E4DE2EE12CF12C8701A8015F
:102A8000970160E070E080E291EC0E94BF080F9037
:102A90000F900F900F90329B1AC01F921F921F929F
:102AA0001F92812CA12CB12C78E4C72E74E4D72E70
:102AB000E12CF12C870120E030E040E251E4C80134
:102AC000B7010E94BF080F900F900F900F90339B9B
:102AD0001AC01F921F921F921F92812CA12CB12C01
:102AE00068E4C62E64E4D62EE12CF12C870120E0A8
:102AF00030E040E251ECC801B7010E94BF080F90DE
:102B00000F900F900F908091F804882319F00E9485
:102B1000EA02F9CF1092F50485E4882E8F929AE7A5
:102B2000992E9F921F921F92A12CB12C6501E12C2E
:102B3000F12C00E211ECA601950160EF73E284E74D
:102B400099E40E941510D4E4DF93C8E4CF931F9258
:102B50001F92E12CF12C00E410ECA601950160EF2E
:102B600073E284E799E40E9415108F929F921F925E
:102B70001F92A12CB12C40E2C42E41ECD42EE12CAA
:102B8000F12C870120EF33E244E759E4C801B70193
:102B90000E941510DF93CF931F921F92A12CB12C8E
:102BA00050E4C52E50ECD52E20EF33E244E759E433
:102BB000C801B7010E941510A8019701C801B7010B
:102BC0000E945A0E8CE0EDE1F5E0DF011D928A953E
:102BD000E9F78DB79EB740960FB6F8949EBF0FBE2B
:102BE0008DBFDF91CF911F910F91FF90EF90DF90FC
:102BF000CF90BF90AF909F908F9008955058BB2773
:102C0000AA270E9416160C94E7170E94D91738F0CD
:102C10000E94E01720F039F49F3F19F426F40C9439
:102C2000D6170EF4E095E7FB0C94A717E92F0E9446
:102C3000F81758F3BA17620773078407950720F04F
:102C400079F4A6F50C9432180EF4E0950B2EBA2FF9
:102C5000A02D0B01B90190010C01CA01A0011124A2
:102C6000FF27591B99F0593F50F4503E68F11A164E
:102C7000F040A22F232F342F4427585FF3CF4695DF
:102C800037952795A795F0405395C9F77EF41F1601
:102C9000BA0B620B730B840BBAF09150A1F0FF0FCB
:102CA000BB1F661F771F881FC2F70EC0BA0F621FB7
:102CB000731F841F48F4879577956795B795F795A7
:102CC0009E3F08F0B0CF9395880F08F09927EE0F3C
:102CD0009795879508950E941A1890F09F3748F4A9
:102CE000911116F40C94331860E070E080E89FE3D3
:102CF000089526F01B16611D711D811D0C94AD17E2
:102D00000C94C8170E94831708F481E008950E946C
:102D10009B160C94E7170E94E01758F00E94D917F1
:102D200040F029F45F3F29F00C94A71751110C943F
:102D300033180C94D6170E94F81768F39923B1F34F
:102D4000552391F3951B550BBB27AA2762177307D1
:102D5000840738F09F5F5F4F220F331F441FAA1F65
:102D6000A9F335D00E2E3AF0E0E832D09150504021
:102D7000E695001CCAF72BD0FE2F29D0660F771FCF
:102D8000881FBB1F261737074807AB07B0E809F0B5
:102D9000BB0B802DBF01FF2793585F4F3AF09E3F3A
:102DA000510578F00C94A7170C9433185F3FE4F3A7
:102DB000983ED4F3869577956795B795F7959F5F7D
:102DC000C9F7880F911D9695879597F90895E1E0C9
:102DD000660F771F881FBB1F621773078407BA0728
:102DE00020F0621B730B840BBA0BEE1F88F7E09583
:102DF00008950E9400176894B1110C943318089537
:102E00000E94001888F09F5798F0B92F9927B75162
:102E1000B0F0E1F0660F771F881F991F1AF0BA957E
:102E2000C9F714C0B13091F00E943218B1E0089592
:102E30000C943218672F782F8827B85F39F0B93F84
:102E4000CCF3869577956795B395D9F73EF4909531
:102E50008095709561957F4F8F4F9F4F0895E894AF
:102E600009C097FB3EF490958095709561957F4FD2
:102E70008F4F9F4F9923A9F0F92F96E9BB27939580
:102E8000F695879577956795B795F111F8CFFAF490
:102E9000BB0F11F460FF1BC06F5F7F4F8F4F9F4FC1
:102EA00016C0882311F096E911C0772321F09EE81F
:102EB000872F762F05C0662371F096E8862F70E085
:102EC00060E02AF09A95660F771F881FDAF7880F5F
:102ED0009695879597F908950E941A1890F09F3754
:102EE00048F4911116F00C94331860E070E080E81B
:102EF0009FEB089526F41B16611D711D811D0C9416
:102F0000AD170C94C817990F0008550FAA0BE0E8ED
:102F1000FEEF16161706E807F907C0F0121613069B
:102F2000E407F50798F0621B730B840B950B39F4DB
:102F30000A2661F0232B242B252B21F408950A2641
:102F400009F4A140A6958FEF811D811D089597F981
:102F50009F6780E870E060E00895882371F477232C
:102F600021F09850872B762F07C0662311F49927FC
:102F70000DC09051862B70E060E02AF09A95660FA4
:102F8000771F881FDAF7880F9695879597F9089528
:102F90009F3F31F0915020F4879577956795B795CD
:102FA000880F911D9695879597F908959FEF80EC6E
:102FB000089500240A94161617061806090608959F
:102FC00000240A9412161306140605060895092E05
:102FD0000394000C11F4882352F0BB0F40F4BF2B74
:102FE00011F460FF04C06F5F7F4F8F4F9F4F0895B4
:102FF00057FD9058440F551F59F05F3F71F04795AA
:10300000880F97FB991F61F09F3F79F0879508958E
:10301000121613061406551FF2CF4695F1DF08C0AD
:10302000161617061806991FF1CF869571056105CA
:10303000089408950E940018A0F0BEE7B91788F41C
:10304000BB279F3860F41616B11D672F782F88278D
:10305000985FF7CF869577956795B11D93959639CB
:10306000C8F30895E894BB2766277727CB0197F923
:1030700008950E94831708F48FEF08950E940018A6
:1030800058F19E5760F19851A0F0E9F0983020F582
:10309000092E9927660F771F881F991F0A94D1F769
:1030A00012C0062E672F782F8827985F11F4000C26
:1030B00007C0993FB4F38695779567959395D9F7AF
:1030C000611D711D811D3EF49095809570956195EF
:1030D0007F4F8F4F9F4F089568940C9433180C9432
:1030E00032180E9484180C94E7170E94D91738F000
:1030F0000E94E01720F0952311F00C94A7170C9470
:10310000D61711240C9433180E94F81770F3959F6A
:10311000C1F3950F50E0551F629FF001729FBB27CE
:10312000F00DB11D639FAA27F00DB11DAA1F649F6A
:103130006627B00DA11D661F829F2227B00DA11D1D
:10314000621F739FB00DA11D621F839FA00D611DA3
:10315000221F749F3327A00D611D231F849F600DC4
:10316000211D822F762F6A2F11249F5750409AF0ED
:10317000F1F088234AF0EE0FFF1FBB1F661F771F79
:10318000881F91505040A9F79E3F510580F00C9444
:10319000A7170C9433185F3FE4F3983ED4F3869559
:1031A00077956795B795F795E7959F5FC1F7FE2BE4
:1031B000880F911D9695879597F9089519F416F43F
:1031C0000C94D6170C94C8170E940018B8F39923D2
:1031D000C9F3B6F39F57550B87FF0E9424190024AB
:1031E000A0E640EA900180585695979528F4805CB7
:1031F000660F771F881F20F026173707480730F41F
:10320000621B730B840B202931294A2BA695179436
:103210000794202531254A2758F7660F771F881F06
:1032200020F026173707480730F4620B730B840B26
:10323000200D311D411DA09581F7B901842F9158B2
:10324000880F96958795089591505040660F771F87
:10325000881FD2F7089597FB072E16F4009407D025
:1032600077FD09D00E94721907FC05D03EF49095B5
:1032700081959F4F0895709561957F4F0895A1E2C4
:103280001A2EAA1BBB1BFD010DC0AA1FBB1FEE1FE0
:10329000FF1FA217B307E407F50720F0A21BB30B2B
:1032A000E40BF50B661F771F881F991F1A9469F7A7
:1032B00060957095809590959B01AC01BD01CF0103
:1032C0000895EE0FFF1F0590F491E02D09940E94E0
:1032D0008619A59F900DB49F900DA49F800D911D00
:1032E00011240895AA1BBB1B51E107C0AA1FBB1FD5
:1032F000A617B70710F0A61BB70B881F991F5A9582
:10330000A9F780959095BC01CD010895A29FB001C9
:10331000B39FC001A39F700D811D1124911DB29F09
:0E332000700D811D1124911D0895F894FFCFAA
:02332E0001009C
:00000001FF
